:100000000C94CF010C9400020C9400020C9400029A
:100010000C9400020C9400020C9400020C94000258
:100020000C9400020C9400020C9400020C94000248
:100030000C9400020C9400020C9400020C94000238
:100040000C9400020C9400020C9400020C94000228
:100050000C9400020C9400020C9400020C94540ABC
:100060000C9400020C941E0A0C94F4090C940002E7
:100070000C9400020C9400020C9400020C940002F8
:100080000C9400020C9400020C9400020C940002E8
:100090000C94BE090C9494090C9400020C94000278
:1000A0000C9400020C9400020C9400020C940002C8
:1000B0000C9400020C9400020C9400020C940002B8
:1000C0000C9400020C9400020C9400020C940002A8
:1000D0000C9400020C9400020C9400020C94000298
:1000E0000C9400020C94AB050C94B8030C946105BD
:1000F0000C9424030C9473020C94A1050C94CA0371
:100100000C94BF050C946F050C94C2030C949B05D2
:100110000C949E0A0C94D0030C94CE040C94AE0361
:100120000C9426080C9464020C9499050C94C31743
:100130000C9487020C94B9050C949D030C94A403B1
:100140000C948F030C9495020C94D7020C94C60364
:100150000C9437020C9457050C94D4030C94A1030F
:100160000C94CF040C9481050C9495030C94990382
:100170000C94BC030C94B4030C94AA030C94CF030A
:1001800000407A10F35A00A0724E18090010A5D44E
:10019000E80000E87648170000E40B54020000CAAB
:1001A0009A3B000000E1F5050000809698000000F1
:1001B00040420F000000A086010000001027000050
:1001C0000000E803000000006400000000000A00D6
:1001D000000000000100000000002C76D888DC67D9
:1001E0004F0823DFC1DFAE59E1B1B796E5E3E45331
:1001F000C63AE651997696E8E6C28426EB898C9B4E
:1002000062ED407C6FFCEFBC9C9F40F2BAA56FA5ED
:10021000F490055A2AF75C936B6CF9676DC11BFC6F
:10022000E0E40D47FEF520E6B500D0ED902E03008A
:10023000943577050080841E080000204E0A0000D7
:1002400000C80C333333330F986E12831141EF8D96
:100250002114893BE65516CFFEE6DB18D1844B38D6
:100260001BF77C1D901DA4BBE424203284725E2207
:100270008100C9F124ECA1E53D2700002100240004
:1002800027002A002D003000330001010000040186
:1002900007010A0100002200250028002B002E0083
:1002A0003100340002010000050108010B010000CB
:1002B00020002300260029002C002F00320000011E
:1002C00000000301060109010505050507050808E9
:1002D0000808020202020A0A0808040404040101D0
:1002E00001010101010103030303030303030407E5
:1002F00007070C0C0C0C0C0C0C0C0202020206067C
:100300000606060606060B0B0B0B0B0B0B0B01026E
:100310001020200808102040102040800201020117
:1003200008040201010204081020408080402010CF
:100330000804020180040201804020100804020128
:100340000804020101020408102040800102040890
:100350001020408000000A0B02090C0D0E08070354
:100360000401000000000000000000000000000088
:10037000000000000000000000000000000000007D
:10038000121110000000000000000000000000003A
:10039000000000000000000000009E0AC3171124A6
:1003A0001FBECFEFD1E2DEBFCDBF00E00CBF16E035
:1003B000A0E0B2E0E0E1F0E400E00BBF02C0079093
:1003C0000D92A638B107D9F728E0A6E8B6E001C03B
:1003D0001D92A933B207E1F711E0CEECD1E000E0C5
:1003E00006C021970109802FFE010E94C41DCD3C4B
:1003F000D10780E00807A9F70E94850B0C94F61F2F
:100400000C940000FC01A089B18982E08C93A48542
:10041000B5851C92A685B7858FEC8C93108EA48928
:10042000B58986E08C93A289B3898C9180618C9385
:10043000A289B3898C9188608C93A289B3898C91AD
:1004400080688C930288F389E02D80818F7D808382
:100450000895DB0114964D915C9115976D917C91F7
:10046000DC01ED91FC910280F381E02D1994AF92B3
:10047000BF92CF92DF92EF92FF920F931F93CF9391
:10048000DF936C017B018B01040F151FEB015E01F3
:10049000AE18BF08C017D10759F06991D601ED9188
:1004A000FC910190F081E02DC6011995892B79F717
:1004B000C501DF91CF911F910F91FF90EF90DF90D9
:1004C000CF90BF90AF900895FC01538D448D252FA0
:1004D00030E0842F90E0821B930B541710F0CF96DE
:1004E000089501970895FC01918D828D981761F010
:1004F000A28DAE0FBF2FB11D5D968C91928D9F5F27
:100500009F73928F90E008958FEF9FEF0895FC0105
:10051000918D828D981731F0828DE80FF11D858DB8
:1005200090E008958FEF9FEF0895FC01918D228D4B
:10053000892F90E0805C9F4F821B91098F739927D0
:10054000089589EA96E00E94950221E0892B09F43A
:1005500020E0822F089586E497E00E94950221E032
:10056000892B09F420E0822F0895FC01A48DA80FA7
:10057000B92FB11DA35ABF4F2C91848D90E00196E5
:100580008F739927848FA689B7892C93A089B18905
:100590008C91837080648C93938D848D981306C0A6
:1005A0000288F389E02D80818F7D80830895EF920A
:1005B000FF920F931F93CF93DF93EC0181E0888F1D
:1005C0009B8D8C8D98131AC0E889F989808185FFED
:1005D00015C09FB7F894EE89FF896083E889F9898F
:1005E00080818370806480839FBF81E090E0DF9191
:1005F000CF911F910F91FF90EF900895F62E0B8DE4
:1006000010E00F5F1F4F0F731127E02E8C8D8E119E
:100610000CC00FB607FCFACFE889F989808185FF05
:10062000F5CFCE010E94B502F1CFEB8DEC0FFD2F7F
:10063000F11DE35AFF4FF0829FB7F8940B8FEA89C0
:10064000FB8980818062CFCFCF93DF93EC01888DCF
:100650008823B9F0AA89BB89E889F9898C9185FD3D
:1006600003C0808186FD0DC00FB607FCF7CF8C91CB
:1006700085FFF2CF808185FFEDCFCE010E94B502CC
:10068000E9CFDF91CF91089580E090E0892B29F0A8
:100690000E94AB0281110E94000080E090E0892B53
:1006A00029F00E94A10281110E94000080E090E0E8
:1006B000892B49F080E090E0892B29F00E9400000E
:1006C00081110E94000080E090E0892B49F080E0D9
:1006D00090E0892B29F00E94000081110C94000009
:1006E00008958150823108F05AC0E82FF0E0882741
:1006F000E358FC4F8F4F0C94C41D9D03A1038F033F
:1007000095039903CF03A403AA03AE03B403B8036C
:10071000BC03C203C603CF03CA03D003D403809132
:1007200080008F77809380000895809180008F7D76
:10073000F9CF80918000877FF5CF84B58F7784BD16
:10074000089584B58F7DFBCF8091B0008F77809323
:10075000B00008958091B0008F7DF9CF8091900016
:100760008F77809390000895809190008F7DF9CFCE
:1007700080919000877FF5CF8091A0008F77809344
:10078000A00008958091A0008F7DF9CF8091A000F6
:10079000877FF5CF809120018F7780932001089586
:1007A000809120018F7DF9CF80912001877FF5CF47
:1007B000CF93DF93282F30E0F901EC5AFC4F84915E
:1007C000F901E25FFC4FD491F901E853FD4FC49168
:1007D000CC23A1F081110E947103EC2FF0E0EE0F09
:1007E000FF1FE255FD4FA591B491EC91ED2381E0FF
:1007F00090E009F480E0DF91CF91089580E090E0EF
:10080000FACF1F93CF93DF93282F30E0F901EC5AF2
:10081000FC4F8491F901E25FFC4FD491F901E85358
:10082000FD4FC491CC23A9F0162F81110E947103B2
:10083000EC2FF0E0EE0FFF1FEC56FD4FA591B491A9
:100840008FB7F894EC91111108C0D095DE23DC939A
:100850008FBFDF91CF911F910895DE2BF8CFCF93FB
:10086000DF9390E0FC01E25FFC4F249188539D4FA1
:10087000FC0184918823D1F090E0880F991FFC013E
:10088000E658FD4FA591B491FC01EC56FD4FC59182
:10089000D491623071F49FB7F8943C91822F809587
:1008A00083238C93E8812E2B28839FBFDF91CF91E8
:1008B00008958FB7F894EC912E2B2C938FBFF6CF21
:1008C00090917B00977F90937B0086538064809308
:1008D0007C0080917A00806480937A0080917A0015
:1008E00086FDFCCF809178009091790008953FB704
:1008F000F8948091870690918806A0918906B0911E
:100900008A0626B5A89B05C02F3F19F00196A11DA8
:10091000B11D3FBFBA2FA92F982F8827BC01CD0149
:10092000620F711D811D911D42E0660F771F881FA8
:10093000991F4A95D1F708958F929F92AF92BF92D7
:10094000CF92DF92EF92FF924B015C010E947704FD
:100950006B017C010E9477046C197D098E099F0947
:10096000683E734081059105A8F321E0821A910841
:10097000A108B10888EEC80E83E0D81EE11CF11C66
:1009800081149104A104B10429F7FF90EF90DF9046
:10099000CF90BF90AF909F908F900895089590E072
:1009A00080E008950F931F93CF93DF93EC018B01A9
:1009B00088859985029751F46130710509F43AC030
:1009C0006CF560E00115110509F435C0888599853D
:1009D000049751F40130110509F455C00CF035C0ED
:1009E0000115110509F43EC088859985059709F020
:1009F000C8C00A30110508F0C4C0F8018827EC5FB0
:100A0000FA4F8F4F0C94C41D570561056F05810582
:100A100099059B05A105AB05B905BF0562307105B8
:100A200091F060E00330110589F68C850E94010485
:100A300060E005C061E08C850E94010461E08E8564
:100A40000E940104C3CF61E0F0CF0230110509F12B
:100A50000330110509F0C8CF61E08C850E940104C4
:100A600060E01CC061E08C850E94010460E08E851E
:100A70000E94010461E088890E94010460E08A8983
:100A80000E940104B1CF60E08C850E94010461E006
:100A9000EECF60E08C850E94010461E08E850E94AB
:100AA000010460E088890E94010461E0E8CF60E011
:100AB0008C850E94010461E08E850E94010461E042
:100AC00009C060E08C850E94010461E08E850E946F
:100AD000010460E088890E94010460E00DC060E0CC
:100AE0008C850E94010461E08E850E94010460E013
:100AF00088890E94010461E08A890E94010461E002
:100B000011C060E08C850E94010461E08E850E9426
:100B1000010460E088890E94010461E08A890E94E2
:100B2000010460E08C89DF91CF911F910F910C94AB
:100B3000010461E0E7CF61E08C850E94010460E080
:100B4000E5CF61E08C850E94010460E08E850E9403
:100B5000010461E0DFCF61E08C850E94010460E068
:100B60008E850E94010461E088890E94010460E092
:100B7000D5CF61E08C850E94010460E09DCF60E0EC
:100B8000F9CFDF91CF911F910F910895CF92DF920E
:100B9000EF92FF920F931F93CF93DF93EC0161309D
:100BA000710509F045C0798368830E9477040E8936
:100BB0001F89288D398D6B017C01C01AD10AE20A88
:100BC000F30A0A811B812C813D81C016D106E20601
:100BD000F30658F36E8B7F8B888F998F8A859B8560
:100BE000288139812130310549F501969B878A8713
:100BF0002E813F818217930711F41B861A868A85FE
:100C00009B85288539856AE070E02530310511F033
:100C100064E070E00E94B01DBC01CE01DF91CF9175
:100C20001F910F91FF90EF90DF90CF900C94D20422
:100C30006F3F7F4F79F419821882B7CF892B21F447
:100C40008E819F819B878A878A859B8501979B8759
:100C50008A87D5CFDF91CF911F910F91FF90EF90B1
:100C6000DF90CF900895883C9105C4F08C3221E04C
:100C70009207CCF0803921E09207D4F0803722E04F
:100C80009207D4F0843D22E09207D4F08833934059
:100C9000E4F064E070E080E090E008956CEF7FEFB6
:100CA0008FEF9FEF08956EEF7FEF8FEF9FEF089527
:100CB0006FEF7FEFCB01089560E070E0CB01089506
:100CC00061E070E080E090E0089562E070E080E034
:100CD00090E0089560E082E20E94010460E084E216
:100CE0000E94010460E083E20E94010460E085E26A
:100CF0000E94010490E080E0089560E08EE10E948F
:100D0000010460E080E20E94010460E08FE10E9443
:100D1000010460E081E20E94010490E080E0089517
:100D20008F929F92AF92BF92CF92DF92EF92FF92FB
:100D30006B017C018FB7F89480908B0690908C06A5
:100D4000A0908D06B0908E068FBF8AE10E94D803D6
:100D5000892BF1F088E30E94D803892BC9F0C114D4
:100D6000D104E104F10489F32FB7F89480918B0644
:100D700090918C06A0918D06B0918E062FBF881998
:100D80009909AA09BB09C816D906EA06FB06ECF6BA
:100D900090E080E0FF90EF90DF90CF90BF90AF9019
:100DA0009F908F900895CF93DF93EC0160E08E8148
:100DB0000E94010461E08E810E94010460E08E8146
:100DC0000E9401048BE891E00197F1F7DF91CF9148
:100DD0000895CF92DF92EF92FF920F931F93CF93DC
:100DE000DF936C017C0187E0E80EF11CD0E0C0E0ED
:100DF000062F10E0B8010C2E02C0759567950A9475
:100E0000E2F76170F70181917F010E940104219650
:100E1000C430D10579F7C601DF91CF911F910F91B1
:100E2000FF90EF90DF90CF900C94D306CF92DF929B
:100E3000EF92FF920F931F93CF93DF93EC01F62E67
:100E4000642F8C810E9401048D818F3F19F060E036
:100E50000E9401040F2D10E08F8584FF25C06E01D4
:100E600087E0C80ED11CF12CE12CB8010E2C02C079
:100E7000759567950A94E2F76170F60181916F01AB
:100E80000E940104FFEFEF1AFF0A88E0E816F10460
:100E900061F7CE01DF91CF911F910F91FF90EF90FD
:100EA000DF90CF900C94D306B80184E075956795D8
:100EB0008A95E1F7CE010E94E9066F2DCE01DF9100
:100EC000CF911F910F91FF90EF90DF90CF900C94F6
:100ED000E90640E0682F89EE97E00C94160781E060
:100EE0000E9469078BE39FE10197F1F70895CF9383
:100EF000DF93823029F49091F80798609093F80777
:100F00008093FC071092FD0780E48093FE0780E148
:100F10008093FF0780E58093000861E08091ED07F2
:100F20000E942F048091EE078F3F19F061E00E942C
:100F30002F0461E08091EF070E942F04C9EED7E0F3
:100F40009E01295E37408091F80784FD0BC084E044
:100F500090E021962817390744F461E08E810E94C1
:100F60002F04EECF88E090E0F4CF8BE39DE0019773
:100F7000F1F760E08091ED070E94010460E080914C
:100F8000EF070E9401048091EE078F3F19F060E0A7
:100F90000E9401048091F80784FD34C063E089EE6B
:100FA00097E00E94E906CBE4D6E4CE010197F1F781
:100FB00063E089EE97E00E94E9062197F1F763E08C
:100FC00089EE97E00E94E90683E592E00197F1F748
:100FD00062E089EE97E00E94E9068091F80780625E
:100FE0000E94690784E08093F9078CE00E946907FA
:100FF0000E946F0782E08093FA0786E0DF91CF912D
:101000000C94690780620E9469078BE496E401975B
:10101000F1F78091F80780620E94690783E592E00A
:101020000197F1F78091F80780620E946907D5CF98
:101030009091FC07891710F08FEF890FE82FF0E0EF
:10104000E751F84F848980680C94690741E00E9459
:10105000160781E090E00895FB0101900020E9F778
:101060003197AF01461B570BDC01ED91FC910280DB
:10107000F381E02D19940F931F93CF93DF93EC012D
:1010800088819981009759F02A813B81261737077B
:1010900030F081E0DF91CF911F910F9108958B0186
:1010A0006F5F7F4F0E94051F009759F099838883D7
:1010B0001B830A832C813D81232B59F7FC0110826D
:1010C000E8CF80E0E7CFEF92FF920F931F93CF938B
:1010D000DF936115710541F480E0DF91CF911F919D
:1010E0000F91FF90EF90089541155105B1F07B01EC
:1010F000EC010C811D81040F151FB8010E943B08F3
:10110000882351F3288139818C819D81B701820F19
:10111000931F0E94EF1F1D830C8381E0DECFCF93CE
:10112000DF93EC0188819981009711F00E947C1E69
:10113000198218821D821C821B821A82DF91CF9134
:101140000895CF93DF93EC01FB0101900020E9F7B4
:101150003197AF01461B570B0E946308811103C0F2
:10116000CE010E948F08CE01DF91CF910895CF93D9
:10117000DF93EC01FB0144815581608171810E9404
:101180006308811103C0CE010E948F08CE01DF9158
:10119000CF910895EF92FF920F931F93CF93DF9318
:1011A000EC017B018A01BA010E943B0881110BC04E
:1011B000CE010E948F08CE01DF91CF911F910F9138
:1011C000FF90EF9008951D830C83B701888199816A
:1011D0000E94EF1FF0CFEF92FF920F931F93CF93D8
:1011E000DF93CDB7DEB7A1970FB6F894DEBF0FBE81
:1011F000CDBF7C01CB01BA01F701118210821382AD
:101200001282158214828E010F5F1F4F21E043E08E
:101210000E94C7170097C9F0FC0101900020E9F770
:101220003197AF01481B590BBC01C7010E94CA0886
:10123000A1960FB6F894DEBF0FBECDBFDF91CF9160
:101240001F910F91FF90EF900895C7010E948F08A2
:10125000EFCFEF92FF920F931F93CF93DF93CDB712
:10126000DEB762970FB6F894DEBF0FBECDBF8C011C
:10127000CB01F8011182108213821282158214822E
:101280004AE09E012F5F3F4F7901B9010E94891802
:10129000F70101900020E9F73197AF014E195F097E
:1012A000B701C8010E94CA0862960FB6F894DEBF63
:1012B0000FBECDBFDF91CF911F910F91FF90EF90A7
:1012C0000895FB01DC0111961C921E9213961C924C
:1012D0001E92129715961C921E92149786179707C6
:1012E00049F0608171816115710521F0448155815A
:1012F0000C94CA080895FC01118210821382128294
:1013000015821482FB0101900020E9F73197AF01AB
:10131000461B570B0C94CA08FC01808191810097F1
:1013200011F00C947C1E08951F920F920FB60F922D
:1013300011240BB60F922F933F934F935F936F93AC
:101340007F938F939F93AF93BF93EF93FF9389EA1C
:1013500096E00E94B502FF91EF91BF91AF919F91EE
:101360008F917F916F915F914F913F912F910F904E
:101370000BBE0F900FBE0F901F9018951F920F92EB
:101380000FB60F9211240BB60F922F938F939F934A
:10139000EF93FF93E091B906F091BA068081E09156
:1013A000BF06F091C00682FD1DC090818091C206EB
:1013B0008F5F8F732091C306821741F0E091C206C0
:1013C000F0E0E755F94F958F8093C206FF91EF91BA
:1013D0009F918F912F910F900BBE0F900FBE0F908A
:1013E0001F9018958081F2CF1F920F920FB60F9227
:1013F00011240BB60F922F933F934F935F936F93EC
:101400007F938F939F93AF93BF93EF93FF9386E464
:1014100097E00E94B502FF91EF91BF91AF919F912C
:101420008F917F916F915F914F913F912F910F908D
:101430000BBE0F900FBE0F901F9018951F920F922A
:101440000FB60F9211240BB60F922F938F939F9389
:10145000EF93FF93E0915607F09157078081E09159
:101460005C07F0915D0782FD1DC0908180915F0750
:101470008F5F8F7320916007821741F0E0915F07C3
:10148000F0E0EA5BF84F958F80935F07FF91EF9153
:101490009F918F912F910F900BBE0F900FBE0F90C9
:1014A0001F9018958081F2CF1F920F920FB60F9266
:1014B00011242F933F938F939F93AF93BF9380916A
:1014C0008B0690918C06A0918D06B0918E0630917E
:1014D000860623E0230F2D3758F50196A11DB11D77
:1014E0002093860680938B0690938C06A0938D069E
:1014F000B0938E068091870690918806A091890608
:10150000B0918A060196A11DB11D80938706909324
:101510008806A0938906B0938A06BF91AF919F91E8
:101520008F913F912F910F900FBE0F901F901895A4
:1015300026E8230F0296A11DB11DD2CFEF92FF9294
:101540000F931F93CF93DF93E9EAF6E013821282A1
:1015500048EE53E060E070E0448355836683778310
:1015600086E292E0918380832DEC30E035872487FA
:101570002CEC30E03787268728EC30E0318B208B4D
:1015800029EC30E0338B228B2AEC30E0358B248B36
:101590002EEC30E0378B268B118E128E138E148E2C
:1015A000E6E4F7E0138212824483558366837783EF
:1015B0009183808385EC90E09587848784EC90E02C
:1015C0009787868780EC90E0918B808B81EC90E010
:1015D000938B828B82EC90E0958B848B86EC90E0F1
:1015E000978B868B118E128E138E148ECBE1D8E0E2
:1015F0001B861A86198218821E8A1F8A188E198ED7
:1016000080E4E82EF12CFF82EE8281E290E09D875B
:101610008C878FE190E09F878E8780E290E0998BA6
:10162000888B8EE190E09B8B8A8B61E081E20E9447
:101630002F0461E08E850E942F0461E088890E945A
:101640002F0461E08A890E942F041D8A1C8A04E00D
:1016500010E019870887C1E0D8E01B861A86198236
:1016600018821E8A1F8A188E198EFF82EE8285E2EA
:1016700090E09D878C8783E290E09F878E8784E24D
:1016800090E0998B888B82E290E09B8B8A8B61E063
:1016900085E20E942F0461E08E850E942F0461E0A4
:1016A00088890E942F0461E08A890E942F041D8A84
:1016B0001C8A19870887E9EEF7E01382128288E313
:1016C00092E09183808380E384838FEF858381E33D
:1016D000868382E3878383E3808784E3818785E34E
:1016E00082871386148615861686178681E00E94E7
:1016F000770761E176E083EE97E0DF91CF911F916C
:101700000F91FF90EF900C947B09CF93DF93CDB7AF
:10171000DEB76E970FB6F894DEBF0FBECDBF7894DC
:1017200084B5826084BD84B5816084BD85B58260E6
:1017300085BD85B5816085BD80916E008160809397
:101740006E00109281008091810082608093810000
:101750008091810081608093810080918000816010
:10176000809380008091B10084608093B10080916B
:10177000B00081608093B00080919100826080937E
:101780009100809191008160809391008091900000
:101790008160809390008091A10082608093A1007D
:1017A0008091A10081608093A1008091A000816060
:1017B0008093A0008091210182608093210180911B
:1017C00021018160809321018091200181608093BB
:1017D000200180917A00846080937A0080917A0061
:1017E000826080937A0080917A00816080937A0091
:1017F00080917A00806880937A001092C10086E41C
:1018000097E00E94020289EA96E00E9402026FE0DD
:1018100076E089EA96E00E942C0860E472E0CE014E
:1018200007960E947B09BE01695F7F4FCE0101963A
:101830000E9461096FE076E0CE0101960E94A10846
:10184000BC0189EA96E00E942902CE0101960E941D
:101850008C09CE0107960E948C096FE076E086E441
:1018600097E00E942C0865E472E086E497E00E940D
:101870002C086FE076E086E497E00E942C086BE786
:1018800072E086E497E00E942C086CE872E086E43F
:1018900097E00E942C0867E972E086E497E00E94D6
:1018A0002C0861EA72E086E497E00E942C086CEA5A
:1018B00072E086E497E00E942C0862EB72E086E416
:1018C00097E00E942C086DEB72E086E497E00E949E
:1018D0002C086FE076E086E497E00E942C082091C7
:1018E000210830912208032E000C440B550BC12C0B
:1018F00067E8D62E63E9E62E63E0F62EC701B6014F
:101900000E94331C7AE0872E912CA12CB12CCA01A5
:10191000B901A50194010E94331C20931D08309346
:101920001E0840931F08509320082091070830910B
:101930000808032E000C440B550BC701B6010E948A
:10194000331CCA01B901A50194010E94331C2093E4
:10195000030830930408409305085093060861E09B
:1019600088E00E942F0461E088E00E942F0460E07C
:1019700088E00E94010461E089E00E942F0461E098
:1019800089E00E942F0461E089E00E94010482E066
:101990000E9477070E946F0780E00E94180869EC98
:1019A00072E089EE97E00E942C0881E00E941808FE
:1019B00065ED72E089EE97E00E942C0868EE73E016
:1019C00080E090E00E949C0462E086E10E942F0487
:1019D00062E087E10E942F0462E088E10E942F0408
:1019E00062E089E10E942F0462E08AE10E942F04F4
:1019F00062E088E30E942F0461E08DE00E942F04E2
:101A000061E082E00E942F0461E083E00E942F04E5
:101A100061E084E00E942F0461E085E00E942F04D1
:101A200061E086E00E942F0461E086E20E942F04BC
:101A300061E087E20E942F0461E088E20E942F04A7
:101A400061E08AE20E942F0461E08BE20E942F0491
:101A500061E08CE20E942F0461E08EE20E942F047C
:101A600061E08FE20E942F0461E08DE00E9401049A
:101A700060E082E00E94010460E083E00E940104D3
:101A800060E084E00E94010460E085E00E940104BF
:101A900060E086E00E94010460E086E20E940104AA
:101AA00060E087E20E94010460E088E20E94010495
:101AB00060E08AE20E94010460E08BE20E9401047F
:101AC00060E08CE20E94010460E08CE20E9401046C
:101AD00060E08EE20E94010460E08FE20E94010457
:101AE00086E30E946004BC01990F880B990B611575
:101AF00071058105910511F00E94801865E070E084
:101B0000CE0101960E94290966EE72E0CE01079689
:101B10000E947B09BE016F5F7F4FCE0107960E9436
:101B2000B7086FE173E00E94A108BC0186E497E06A
:101B30000E942902CE0107960E948C09CE010196CF
:101B40000E948C096FE076E086E497E00E942C0802
:101B500068E873E180E090E00E94900668EE73E030
:101B600080E090E00E949C046AE273E0CE01079658
:101B70000E947B09BE01695F7F4FCE0101960E94E2
:101B800061096FE076E0CE0101960E94A108BC01D8
:101B900089EA96E00E942902CE0101960E948C09F2
:101BA000CE0107960E948C090E947D060E946A065B
:101BB00061E08EE20E94010460E082E00E94010484
:101BC00060E083E00E94010460E084E00E94010480
:101BD00060E085E00E94010460E086E00E9401046C
:101BE00060E086E20E94010460E087E20E94010456
:101BF00060E088E20E94010460E08AE20E94010441
:101C000060E08BE20E94010460E08CE20E9401042B
:101C100060E08CE20E94010440E050E060EA71E480
:101C2000CE010D960E94EB0840E050E060EA71E4BE
:101C3000CE0107960E94EB086FE273E0CE01019699
:101C40000E947B09BE01695F7F4FCE0101960E9411
:101C5000B70863EE77E00E94B70869E573E00E9479
:101C6000A108BE01635F7F4F0E94B70863EE77E073
:101C70000E94B708BC0186E497E00E942902CE01C9
:101C800001960E948C09CE0107960E948C09CE0114
:101C90000D960E948C090E946F0780E00E94180830
:101CA00067E673E089EE97E00E942C0881E00E94CD
:101CB000180864E170E0CE010D960E94290964E1E4
:101CC00070E0CE0107960E94290968E773E0CE0113
:101CD00001960E947B09BE01695F7F4FCE0101968C
:101CE0000E94B7086DE773E00E94A108BE01635F20
:101CF0007F4F0E94B708BC0189EE97E00E9429023D
:101D0000CE0101960E948C09CE0107960E948C0993
:101D1000CE010D960E948C096091A5067091A606D1
:101D20008091A7069091A8060E94161B20E030E043
:101D300040E85CE30E94751B20E030E044EB53E494
:101D40000E94751B4B015C018092A1069092A20635
:101D5000A092A306B092A40660919D0670919E0683
:101D600080919F069091A0060E94161B20E030E013
:101D700040E85CE30E94751B20E030E044EB52E455
:101D80000E94751B6B017C01C0929906D0929A0645
:101D9000E0929B06F0929C06A501940160E070E041
:101DA00080EA91E40E94961C20E030E044EB53E48A
:101DB0000E94031D20E030E040E852E40E94751BC1
:101DC0000E94751D4B015C01A701960160E070E067
:101DD00080EA91E40E94961C20E030E044EB52E45B
:101DE0000E94031D20E030E040E852E40E94751B91
:101DF0000E94751D6B017C0181149104A104B10442
:101E000009F0D3C7C114D104E104F10409F0B5C14C
:101E10000E947D060E946A0665ED75E086E497E003
:101E20000E942C080E946F0780E00E94180862E15F
:101E300076E089EE97E00E942C0881E00E94180865
:101E400063E276E089EE97E00E942C0864E376E096
:101E5000CE0107960E947B09BE01695F7F4FCE01CC
:101E600001960E9461096FE076E0CE0101960E9422
:101E7000A108BC0189EA96E00E942902CE010196E0
:101E80000E948C09CE0107960E948C0960E070E0E8
:101E9000CB010E94900669E376E0CE0107960E948E
:101EA0007B09BE01695F7F4FCE0101960E946109E7
:101EB0006FE076E0CE0101960E94A108BC0189EA9C
:101EC00096E00E942902CE0101960E948C09CE0163
:101ED00007960E948C090E94311823E030E040E010
:101EE00050E00E94331C7093900660938F06FB01B4
:101EF00083E0EE0FFF1F8A95E1F7E65FFD4F00815B
:101F000011812281338100939506109396062093C8
:101F100097063093980604811581268137810093B6
:101F200091061093920620939306309394066F5F68
:101F30007F4FCE0101960E9429096FE376E0CE0122
:101F40000D960E947B09BE01635F7F4FCE0107960D
:101F50000E9461096CEB73E0CE0107960E94A10814
:101F6000BE016F5F7F4F0E94B7086FE076E00E946E
:101F7000A108BC0189EA96E00E942902CE010796D9
:101F80000E948C09CE010D960E948C09CE0101960B
:101F90000E948C094091910650919206609193069F
:101FA00070919406CE0101960E94EB08409195062F
:101FB000509196066091970670919806CE0107960B
:101FC0000E94EB0866E476E0CE010D960E947B0944
:101FD000BE01695F7F4FCE010D960E94B70863EE88
:101FE00077E00E94B70869E573E00E94A108BE018E
:101FF0006F5F7F4F0E94B70863EE77E00E94B708DB
:10200000BC0186E497E00E942902CE010D960E9451
:102010008C09CE0107960E948C09CE0101960E9480
:102020008C0960918F06709190066F5F7F4FCE0193
:1020300001960E94290966E676E0CE0107960E9485
:102040007B09BE016F5F7F4FCE0107960E94B708E4
:1020500063E574E00E94A108BC0186E497E00E9459
:102060002902CE0107960E948C09CE0101960E949A
:102070008C090E946F0780E00E94180866E776E0EE
:1020800089EE97E00E942C0881E00E941808609178
:1020900091067091920680919306909194060E9409
:1020A000751DCE0101960E942909609195067091D7
:1020B000960680919706909198060E94751DCE0114
:1020C00007960E94290968E773E0CE010D960E94E9
:1020D0007B09BE01695F7F4FCE010D960E94B70854
:1020E0006EE773E00E94A108BE016F5F7F4F0E9400
:1020F000B708BC0189EE97E00E942902CE010D9637
:102100000E948C09CE0107960E948C09CE0101968F
:102110000E948C098FB7F89420918B0630918C0621
:1021200040918D0650918E062B8F3C8F4D8F5E8F88
:102130008FBF10E000E0198E1A8E188E1F8A71C1B1
:1021400087E10E94D803892B09F47CC661E070E026
:102150008BE198E00E94C60531E0831A9108A1083E
:10216000B1088091A5069091A606A091A706B0910E
:10217000A8060196A11DB11D36C66DE570E080E090
:1021800090E00E949C04F7FC38C689E10E94D803C5
:10219000892B09F457C661E070E081E098E00E9465
:1021A000C60551E0C51AD108E108F10880919D06E5
:1021B00090919E06A0919F06B091A0060196A11D48
:1021C000B11D36C6C114D104E104F104F1F66DE588
:1021D00070E080E090E00E949C040ECE65E574E023
:1021E000CE0107960E947B09BE01695F7F4FCE0139
:1021F00001960E9461096FE076E0CE0101960E948F
:10220000A108BC0189EA96E00E942902CE0101964C
:102210000E948C09CE0107960E948C096FE076E03F
:1022200086E497E00E942C086DE574E086E497E070
:102230000E942C086CE774E086E497E00E942C086A
:102240006DE574E086E497E00E942C0880E00E942F
:1022500018086BE974E089EE97E00E942C0881E091
:102260000E94180865EA74E018C386E30E946004BF
:102270000E9433066B017C0187E30E9460040E9488
:1022800033064B015C0194E0292E312C8091A50688
:102290009091A606A091A706B091A8068B8B9C8B67
:1022A000AD8BBE8BBC01CD010E94161B20E030E03F
:1022B00040E85CE30E94751B20E030E044EB53E40F
:1022C0000E94751B2B013C014092A1065092A20670
:1022D0006092A3067092A40660919D0670919E067E
:1022E00080919F069091A0060E94161B20E030E08E
:1022F00040E85CE30E94751B20E030E044EB52E4D0
:102300000E94751B6093990670939A0680939B06B2
:1023100090939C06F7FE88C420E030E040E251E450
:10232000C301B2010E94AB1D18160CF45CC46DE52C
:1023300070E080E090E00E949C04B7FEC3C420E0FF
:1023400030E040E251E46091990670919A068091E4
:102350009B0690919C060E94AB1D18160CF48DC430
:102360006DE570E080E090E00E949C0431E0231A6B
:10237000310809F08BCF8090950690909606A0903A
:102380009706B0909806C090A106D090A206E09063
:10239000A306F090A40620E030E040E251E4C5013D
:1023A000B4010E94961CA70196010E94AB1D18164D
:1023B0000CF0BBC460E086E20E94010460E087E2AA
:1023C0000E94010461E088E20E940104809091066D
:1023D00090909206A0909306B0909406C0909906B3
:1023E000D0909A06E0909B06F0909C0620E030E0AA
:1023F00040E251E4C501B4010E94961CA701960178
:102400000E94AB1D18160CF0B0C460E08AE20E9476
:10241000010460E08BE20E94010461E08CE20E9412
:1024200001042FB7F89460918B0670918C0680910F
:102430008D0690918E062FBF2B8D3C8D4D8D5E8D20
:10244000621B730B840B950B0E94161B6B017C01A6
:1024500020E030E04AEF53E40E94AB1D18164CF523
:102460003F89311126C06EEB73E0CE0107960E94C2
:102470007B09BE01695F7F4FCE0101960E94610911
:1024800067EC73E0CE0101960E94A1086FE076E050
:102490000E94A108BC0189EA96E00E942902CE01AF
:1024A00001960E948C09CE0107960E948C0941E09A
:1024B0004F8B20E030E84BEB55E4C701B6010E949A
:1024C000AB1D18164CF5588D511126C06EEB73E0FC
:1024D000CE0107960E947B09BE01695F7F4FCE0146
:1024E00001960E9461096AEC73E0CE0101960E9498
:1024F000A1086FE076E00E94A108BC0189EA96E09D
:102500000E942902CE0101960E948C09CE010796F5
:102510000E948C0981E0888F20E030E84BE356E48C
:10252000C701B6010E94AB1D18164CF59A8D91118A
:1025300026C06EEB73E0CE0107960E947B09BE01B8
:10254000695F7F4FCE0101960E9461096DEC73E0D7
:10255000CE0101960E94A1086FE076E00E94A108DA
:10256000BC0189EA96E00E942902CE0101960E94F0
:102570008C09CE0107960E948C09A1E0AA8F20E069
:1025800030EA4CE856E4C701B6010E94AB1D1816AC
:102590004CF5B98DB11126C06EEB73E0CE010796F4
:1025A0000E947B09BE01695F7F4FCE0101960E94A8
:1025B000610960ED73E0CE0101960E94A1086FE011
:1025C00076E00E94A108BC0189EA96E00E942902F7
:1025D000CE0101960E948C09CE0107960E948C09BB
:1025E00021E0298F20E030E84BEB56E4C701B6012B
:1025F0000E94AB1D18163CF5011125C06EEB73E06F
:10260000CE0107960E947B09BE01695F7F4FCE0114
:1026100001960E94610963ED73E0CE0101960E946C
:10262000A1086FE076E00E94A108BC0189EA96E06B
:102630000E942902CE0101960E948C09CE010796C4
:102640000E948C0901E020E030E64AEE56E4C70122
:10265000B6010E94AB1D18163CF5111125C06EEB9A
:1026600073E0CE0107960E947B09BE01695F7F4F30
:10267000CE0101960E94610966ED73E0CE010196DC
:102680000E94A1086FE076E00E94A108BC0189EADF
:1026900096E00E942902CE0101960E948C09CE018B
:1026A00007960E948C0911E020E030E04AEF53E4E5
:1026B000C701B6010E94AB1D181624F461E082E048
:1026C0000E94010420E030E84BEB55E4C701B6015D
:1026D0000E94AB1D181624F461E083E00E940104FF
:1026E00020E030E84BE356E4C701B6010E94AB1D81
:1026F000181624F461E084E00E94010420E030EA2E
:102700004CE856E4C701B6010E94AB1D181624F42C
:1027100061E085E00E94010420E030E84BEB56E4E4
:10272000C701B6010E94AB1D181624F461E086E0D3
:102730000E94010420E030E64AEE56E4C701B601EB
:102740000E94AB1D18160CF090CD0E947D060E94D1
:102750006A060E946F078090950690909606A0905A
:102760009706B0909806C090A106D090A206E0907F
:10277000A306F090A40620E030E040E251E4C50159
:10278000B4010E94961CA70196010E940F1B87FFAF
:1027900025CD20E030E040E251E4C501B4010E94C3
:1027A000971C9B01AC01C701B6010E940F1B87FF5C
:1027B00015CD8090910690909206A0909306B090CF
:1027C0009406C0909906D0909A06E0909B06F090EF
:1027D0009C0620E030E040E251E4C501B4010E94D3
:1027E000961CA70196010E940F1B87FFF7CC20E0E3
:1027F00030E040E251E4C501B4010E94971C9B0106
:10280000AC01C701B6010E940F1B87FFE7CC69ED41
:1028100073E0CE0107960E947B09BE01695F7F4F7E
:10282000CE0101960E9461096FE076E0CE0101962B
:102830000E94A108BC0189EA96E00E942902CE010B
:1028400001960E948C09CE0107960E948C096FE0C8
:1028500076E086E497E00E942C0861EE73E086E45F
:1028600097E00E942C086AE074E086E497E00E94FA
:102870002C0861EE73E086E497E00E942C0880E06B
:102880000E94180863E374E089EE97E00E942C0828
:1028900081E00E94180864E474E089EE97E00E94E9
:1028A0002C086091A5067091A6068091A7069091CC
:1028B000A8060E94161B20E030E040E85CE30E947E
:1028C000751B20E030E044EB53E40E94751B6093DD
:1028D000A1067093A2068093A3069093A4066FE0CE
:1028E00076E086E497E00E942C0863EB74E086E4CF
:1028F00097E00E942C0862EC74E086E497E00E9466
:102900002C0860918F06709190066F5F7F4FCE010B
:1029100001960E94290961ED74E0CE0107960E949C
:102920007B09BE016F5F7F4FCE0107960E94B708FB
:1029300068E273E00E94A108BC0186E497E00E946F
:102940002902CE0107960E948C09CE0101960E94B1
:102950008C094091A1065091A2066091A306709146
:10296000A406CE0101960E94EB0861EE74E0CE0150
:1029700007960E947B09BE016F5F7F4FCE010796CD
:102980000E94B70863EE77E00E94B708BC0186E4B6
:1029900097E00E942902CE0107960E948C09CE0181
:1029A00001960E948C09409195065091960660917F
:1029B000970670919806CE0101960E94EB0864EF8D
:1029C00074E0CE0107960E947B09BE016F5F7F4FC6
:1029D000CE0107960E94B70863EE77E00E94B70821
:1029E000BC0186E497E00E942902CE0107960E946E
:1029F0008C09CE0101960E948C0940E050E060E213
:102A000071E4CE0101960E94EB0867E075E0CE010B
:102A100007960E947B09BE016F5F7F4FCE0107962C
:102A20000E94B70863EE77E00E94B708BC0186E415
:102A300097E00E942902CE0107960E948C09CE01E0
:102A400001960E948C0960919D0670919E0680916E
:102A50009F069091A0060E94161B20E030E040E8FF
:102A60005CE30E94751B20E030E044EB52E40E94DE
:102A7000751BAB01BC014093990650939A06609375
:102A80009B0670939C06CE0101960E94EB0864E2BF
:102A900075E0CE0107960E947B09BE016F5F7F4FF4
:102AA000CE0107960E94B70863EE77E00E94B70850
:102AB000BC0186E497E00E942902CE0107960E949D
:102AC0008C09CE0101960E948C094091910650918B
:102AD00092066091930670919406CE0101960E9431
:102AE000EB0869E375E0CE0107960E947B09BE0101
:102AF0006F5F7F4FCE0107960E94B70863EE77E0C5
:102B00000E94B708BC0186E497E00E942902CE012A
:102B100007960E948C09CE0101960E948C0940E024
:102B200050E060E271E4CE0101960E94EB086EE491
:102B300075E0CE0107960E947B09BE016F5F7F4F53
:102B4000CE0107960E94B70863EE77E00E94B708AF
:102B5000BC0186E497E00E942902CE0107960E94FC
:102B60008C09CE0101960E948C096FE076E086E424
:102B700097E00E942C086AE070E0CE0101960E9466
:102B8000290966EE72E0CE0107960E947B09BE011C
:102B90006F5F7F4FCE0107960E94B7086FE173E029
:102BA0000E94A108BC0186E497E00E942902CE01A0
:102BB00007960E948C09CE0101960E948C096FE055
:102BC00076E086E497E00E942C0860E177E280E0FE
:102BD00090E00E94900668EE73E080E090E00E9432
:102BE0009C040C94DC0D86E10E94D803892B09F427
:102BF0009ECB6FEF7FEF8BE198E00E94C6059FEFC1
:102C0000C91AD90AE90AF90A8B899C89AD89BE8952
:102C10000197A109B1098093A5069093A606A093F8
:102C2000A706B093A80689CBC114D104E104F1042E
:102C300009F47DCB20E030E04FEA53E4C301B20158
:102C40000E940F1B87FF73CB87E10E94D803892B5B
:102C500009F46DCB61E070E08BE198E00E94C6055D
:102C6000A1E0CA1AD108E108F1088B899C89AD89D5
:102C7000BE890196A11DB11DCECF88E10E94D80367
:102C8000892B09F46DCB6FEF7FEF81E098E00E9414
:102C9000C605BFEF8B1A9B0AAB0ABB0A80919D0643
:102CA00090919E06A0919F06B091A0060197A10960
:102CB000B10980939D0690939E06A0939F06B093C2
:102CC000A00654CB81149104A104B10409F448CBAB
:102CD00020E030E040EA52E46091990670919A0653
:102CE00080919B0690919C060E940F1B87FF38CB1A
:102CF00089E10E94D803892B09F432CB61E070E0AE
:102D000081E098E00E94C60521E0821A9108A1089E
:102D1000B10880919D0690919E06A0919F06B0916A
:102D2000A0060196A11DB11DC4CF20E030E040E215
:102D300051E4C501B4010E94971C9B01AC01C7017D
:102D4000B6010E94AB1D181654F461E086E20E94A1
:102D5000010460E087E20E94010460E034CB60E09F
:102D600086E20E94010461E0F5CF20E030E040E21D
:102D700051E4C501B4010E94971C9B01AC01C7013D
:102D8000B6010E94AB1D181654F461E08AE20E945D
:102D9000010460E08BE20E94010460E03FCB60E050
:102DA0008AE20E94010461E0F5CFB7FEC9C986E15D
:102DB0000E94D803892B09F445C06FEF7FEF8BE1A8
:102DC00098E00E94C6052FEF821A920AA20AB20A60
:102DD0008091A5069091A606A091A706B091A8069D
:102DE0000197A109B1098093A5069093A606A09327
:102DF000A706B093A806F7FEE5C988E10E94D803AC
:102E0000892B01F16FEF7FEF81E098E00E94C6050A
:102E10004FEFC41AD40AE40AF40A80919D069091F7
:102E20009E06A0919F06B091A0060197A109B10945
:102E300080939D0690939E06A0939F06B093A00654
:102E40000C94FC0E60E08EE20E94010461E08FE2CF
:102E50000E94010440E050E060EA71E4CE01019676
:102E60000E94EB0840E050E060EA71E4CE01079672
:102E70000E94EB086DE675E0CE010D960E947B097D
:102E8000BE01695F7F4FCE010D960E94B70863EEC9
:102E900077E00E94B70864E975E00E94A108BE01CE
:102EA0006F5F7F4F0E94B70863EE77E00E94B7081C
:102EB00067E975E00E94A108BC0186E497E00E94E2
:102EC0002902CE010D960E948C09CE0107960E9420
:102ED0008C09CE0101960E948C0961EB75E086E4B5
:102EE00097E00E942C086FE076E086E497E00E946D
:102EF0002C080E946F0765E873E0CE0107960E94D8
:102F00007B09BE01695F7F4FCE0101960E94610976
:102F10006FE076E0CE0101960E94A108BC0189EA2B
:102F200096E00E942902CE0101960E948C09CE01F2
:102F300007960E948C0980E00E9418086BE873E0F5
:102F400089EE97E00E942C0881E00E9418086CE945
:102F500073E089EE97E00E942C0868EE73E080E051
:102F600090E00E949C0481E00E9418086DEA73E0E2
:102F700089EE97E00E942C0868EE73E080E090E014
:102F80000E949C04B8CF83EE97E00C948C09EF92DA
:102F90000F931F93CF93DF93E80134E047FD34E1B3
:102FA000042E000C550B57FF03C051954195510954
:102FB000E32E022F242FAE010E94AE18CE01DF9126
:102FC000CF911F910F91EF9008958F929F92AF92A2
:102FD000BF92CF92DF92EF92FF92CF93DF93EC01FB
:102FE000688179818A819B816115710581059105CF
:102FF00021F464E279ED8BE597E02DE133EF41E0D8
:1030000050E00E94331C49015A019B01AC01A7EA20
:10301000B1E40E94521C6B017C01ACEEB4EFA5013F
:1030200094010E94601CC60ED71EE81EF91EF7FE12
:1030300006C081E0C81AD108E10880E8F80AC88211
:10304000D982EA82FB82C701B6019F77DF91CF91D7
:10305000FF90EF90DF90CF90BF90AF909F908F90B8
:1030600008958F929F92AF92BF92CF92DF92EF928C
:10307000FF92609100027091010280910202909192
:103080000302611571058105910521F464E279ED72
:103090008BE597E02DE133EF41E050E00E94331CD7
:1030A00049015A019B01AC01A7EAB1E40E94521CFC
:1030B0006B017C01ACEEB4EFA50194010E94601C91
:1030C000C60ED71EE81EF91EF7FE06C081E0C81A1C
:1030D000D108E10880E8F80AC0920002D09201020B
:1030E000E0920202F0920302C701B6019F77FF90BF
:1030F000EF90DF90CF90BF90AF909F908F9008950A
:103100006093000270930102809302029093030285
:103110000895BB274A3031F4992322F4BDE29095FB
:1031200081959F4F0C949518BB27FB015527AA2723
:10313000880F991FAA1FA41710F0A41B8395505144
:10314000B9F7A05DAA3308F0A95DA193009779F7BC
:10315000B111B1931192CB010C94FF1A8F929F92EF
:10316000AF92BF92CF92DF92EF92FF920F931F9395
:10317000CF93DF9300D000D000D0CDB7DEB76A0187
:10318000F22EB02E102FFBE3AF2EA01608F41BE397
:103190001F5F012F27E0AE014F5F5F4F0E94271A8C
:1031A000BC018981982F9970913009F44EC09BE23F
:1031B000E1FC04C09E2D9170E0FC49C05E2D507171
:1031C000E82FE87083FF55C084E0911101C083E0CF
:1031D000EF2DE81B8F1508F0E0E0D6018E2F20E2DE
:1031E0005523C9F1992329F0D6019C93C601019674
:1031F0006C0196012D5F3F4FE2FE33C08EE4D60195
:103200008C9391E411969C93119712968C93D9010B
:103210008E2F90E281112AC0E20FF32FF11D108250
:103220008EEF9FEF29960FB6F894DEBF0FBECDBF8D
:10323000DF91CF911F910F91FF90EF90DF90CF9092
:10324000BF90AF909F908F9008959DE2B7CF90E28E
:10325000B5CF2D9381508111FCCFCE0ED11CE0E073
:10326000C1CF8EE6D6018C9391E6CCCF9D93815051
:10327000D1CF482F447082FF3DC084E0911101C03E
:1032800083E08F1510F4EF2DE81BD6018E2F20E27E
:10329000552309F1992329F0D6019C93C601019683
:1032A0006C0196012D5F3F4FE2FE1BC089E4D60101
:1032B0008C938EE411968C93119786E412968C93DE
:1032C000D9018E2F90E2882309F4A6CF9D938150D7
:1032D000FACF2D9381508111FCCFCE0ED11CE0E0AE
:1032E000D9CF89E6D6018C938EE611968C931197EF
:1032F00086E6E4CF9B0177FF02C030E020E0A1E04A
:10330000B0E0911102C0B0E0A0E0F9013196AE0F3B
:10331000BF1F8B2C912CBB2009F461C05401EFEF2F
:10332000AE1ABE0AAA0DBB1DFA161B0619F014F040
:103330004F2D4A1B511188C0E3FC59C07601A42FC0
:10334000B0E2A1114FC0C40ED11C992309F45BC097
:1033500040E0D6011196F60190836D01552309F4E2
:1033600048C0012F060F9A81582F507184FF03C067
:10337000913309F4015010160CF047C0093008F0E1
:1033800008E0EEE2FE2E5B01A01AB10885019194DF
:10339000819491082F3F320729F4D601FC92F6015F
:1033A00031966F016217730794F1021713077CF5CA
:1033B000DB01A21BB30BAA24A394B12CAC0EBD1E3F
:1033C000AA0DBB1D11968C9121503109D601119681
:1033D00028153905F4F0F60180836D01DBCFB12C9F
:1033E000A12CA0CFF701B1937F01A150AACF9111D9
:1033F000B0CFD601942F50E302C05D93915091114C
:10340000FCCFC40ED11C40E0ACCF01E0BACF80E3CA
:10341000DBCF6217730731F4963388F4953311F4D8
:10342000552369F0F6018083FD01842F90E281111C
:1034300008C0A40FB11D1C9290E080E0F3CE81E3A0
:10344000F1CF91938150F3CF911183CF8ACF283060
:1034500008F027E03327DA01990F311D87FD9160CD
:1034600000966105710539F432602E5F3D9330E3BB
:103470002A95E1F708959F3F30F080387105610586
:1034800009F03C5F3C5F3D93913008F08068911DEE
:10349000DF93CF931F930F93FF92EF92192F987F93
:1034A0009695E92F96959695E90FFF27E652FE4FE0
:1034B00099273327EE24FF24A701E70105900894FC
:1034C000079428F4360FE71EF81E491F511D660F9A
:1034D000771F881F991F0694A1F70590079428F479
:1034E000E70EF81E491F561FC11D770F881F991F31
:1034F000661F0694A1F70590079428F4F80E491F5B
:10350000561FC71FD11D880F991F661F771F06946E
:10351000A1F70590079420F4490F561FC71FD81F25
:10352000990F661F771F881F0694A9F7849110953D
:10353000177041F0D695C79557954795F794E7943E
:103540001A95C1F7E0E8F1E068941590159135916E
:103550006591959105907FE27395E118F10A430B0F
:10356000560BC90BD009C0F7E10CF11E431F561FC3
:10357000C91FD01D7EF4703311F48A95E6CFE8940C
:10358000015030F0080F0AF40027021708F4202F2A
:103590002395022F7A3328F079E37D932A95E9F772
:1035A00010C07D932A9589F606949795679537956F
:1035B00017951794E118F10A430B560BC90BD00964
:1035C00098F023957E9173957A3308F070E37C939D
:1035D0002013B8F77E9170617D9330F0839571E38D
:1035E0007D9370E32A95E1F71124EF90FF900F91FE
:1035F0001F91CF91DF91992787FD90950895DC0168
:10360000FC01672F71917723E1F7329704C07C9119
:103610006D9370836291AE17BF07C8F308950E943F
:10362000511B08F481E00895E89409C097FB3EF42B
:1036300090958095709561957F4F8F4F9F4F9923FF
:10364000A9F0F92F96E9BB279395F695879577957D
:103650006795B795F111F8CFFAF4BB0F11F460FF3D
:103660001BC06F5F7F4F8F4F9F4F16C0882311F095
:1036700096E911C0772321F09EE8872F762F05C0A9
:10368000662371F096E8862F70E060E02AF09A9544
:10369000660F771F881FDAF7880F9695879597F939
:1036A0000895990F0008550FAA0BE0E8FEEF1616D3
:1036B0001706E807F907C0F012161306E407F50726
:1036C00098F0621B730B840B950B39F40A2661F09A
:1036D000232B242B252B21F408950A2609F4A1403D
:1036E000A6958FEF811D811D08950E94881B0C9463
:1036F000F91B0E94EB1B38F00E94F21B20F095236F
:1037000011F00C94E21B0C94E81B11240C942D1C5A
:103710000E940A1C70F3959FC1F3950F50E0551F4E
:10372000629FF001729FBB27F00DB11D639FAA2716
:10373000F00DB11DAA1F649F6627B00DA11D661F65
:10374000829F2227B00DA11D621F739FB00DA11D86
:10375000621F839FA00D611D221F749F3327A00D40
:10376000611D231F849F600D211D822F762F6A2FDC
:1037700011249F5750409AF0F1F088234AF0EE0F41
:10378000FF1FBB1F661F771F881F91505040A9F76E
:103790009E3F510580F00C94E21B0C942D1C5F3F62
:1037A000E4F3983ED4F3869577956795B795F795AA
:1037B000E7959F5FC1F7FE2B880F911D9695879522
:1037C00097F9089597F99F6780E870E060E00895A1
:1037D0009FEF80EC089500240A9416161706180629
:1037E0000906089500240A94121613061406050605
:1037F0000895092E0394000C11F4882352F0BB0F96
:1038000040F4BF2B11F460FF04C06F5F7F4F8F4FF8
:103810009F4F089557FD9058440F551F59F05F3F33
:1038200071F04795880F97FB991F61F09F3F79F0E2
:1038300087950895121613061406551FF2CF469564
:10384000F1DF08C0161617061806991FF1CF8695E6
:103850007105610508940895E894BB2766277727CA
:10386000CB0197F90895052E97FB1EF400940E9452
:103870004A1C57FD07D00E94651C07FC03D04EF47C
:103880000C944A1C50954095309521953F4F4F4FD1
:103890005F4F089590958095709561957F4F8F4FFC
:1038A0009F4F08950E94871CA59F900DB49F900D77
:1038B000A49F800D911D11240895B7FF0C94521CF4
:1038C0000E94521C821B930B0895A1E21A2EAA1B80
:1038D000BB1BFD010DC0AA1FBB1FEE1FFF1FA217C0
:1038E000B307E407F50720F0A21BB30BE40BF50BBD
:1038F000661F771F881F991F1A9469F76095709546
:10390000809590959B01AC01BD01CF010895A29FC8
:10391000B001B39FC001A39F700D811D1124911DA3
:10392000B29F700D811D1124911D08955058BB2721
:10393000AA270E94AE1C0C94F91B0E94EB1B38F0C6
:103940000E94F21B20F039F49F3F19F426F40C94E6
:10395000E81B0EF4E095E7FB0C94E21BE92F0E94B4
:103960000A1C58F3BA17620773078407950720F0FB
:1039700079F4A6F50C942C1C0EF4E0950B2EBA2FBE
:10398000A02D0B01B90190010C01CA01A001112465
:10399000FF27591B99F0593F50F4503E68F11A1611
:1039A000F040A22F232F342F4427585FF3CF4695A2
:1039B00037952795A795F0405395C9F77EF41F16C4
:1039C000BA0B620B730B840BBAF09150A1F0FF0F8E
:1039D000BB1F661F771F881FC2F70EC0BA0F621F7A
:1039E000731F841F48F4879577956795B795F7956A
:1039F0009E3F08F0B0CF9395880F08F09927EE0FFF
:103A00009795879508950E94171D0C94F91B0E94A5
:103A1000F21B58F00E94EB1B40F029F45F3F29F0A5
:103A20000C94E21B51110C942D1C0C94E81B0E9469
:103A30000A1C68F39923B1F3552391F3951B550B99
:103A4000BB27AA2762177307840738F09F5F5F4F71
:103A5000220F331F441FAA1FA9F335D00E2E3AF0B0
:103A6000E0E832D091505040E695001CCAF72BD0C8
:103A7000FE2F29D0660F771F881FBB1F2617370719
:103A80004807AB07B0E809F0BB0B802DBF01FF274B
:103A900093585F4F3AF09E3F510578F00C94E21B2B
:103AA0000C942D1C5F3FE4F3983ED4F386957795F4
:103AB0006795B795F7959F5FC9F7880F911D969504
:103AC000879597F90895E1E0660F771F881FBB1F60
:103AD000621773078407BA0720F0621B730B840B0D
:103AE000BA0BEE1F88F7E09508950E947C1D68943C
:103AF000B1110C942D1C08950E94121C88F09F5740
:103B000098F0B92F9927B751B0F0E1F0660F771F01
:103B1000881F991F1AF0BA95C9F714C0B13091F0F7
:103B20000E942C1CB1E008950C942C1C672F782F58
:103B30008827B85F39F0B93FCCF3869577956795BC
:103B4000B395D9F73EF490958095709561957F4F28
:103B50008F4F9F4F08950E94511B08F48FEF0895D7
:103B600097FB072E16F4009407D077FD09D00E942A
:103B7000CC1D07FC05D03EF4909581959F4F08958C
:103B8000709561957F4F0895EE0FFF1F881F8BBFC3
:103B90000790F691E02D1994AA1BBB1B51E107C0B9
:103BA000AA1FBB1FA617B70710F0A61BB70B881FCD
:103BB000991F5A95A9F780959095BC01CD0108955C
:103BC0000F931F93CF93DF938230910510F482E01F
:103BD00090E0E0913708F091380830E020E0B0E064
:103BE000A0E0309799F42115310509F44AC0281B4B
:103BF000390B24303105D8F58A819B816115710517
:103C000089F1FB0193838283FE0111C040815181C0
:103C10000281138148175907E0F04817590799F4B2
:103C2000109761F012960C93129713961C9332968C
:103C3000CF01DF91CF911F910F9108950093370825
:103C400010933808F4CF2115310551F0421753076E
:103C500038F0A901DB019A01BD01DF01F801C1CFF4
:103C6000EF01F9CF9093380880933708CDCFFE014C
:103C7000E20FF31F819391932250310939832883F6
:103C8000D7CF2091350830913608232B41F420916D
:103C900006023091070230933608209335082091B0
:103CA0000402309105022115310541F42DB73EB7CC
:103CB0004091080250910902241B350BE091350810
:103CC000F0913608E217F307A0F42E1B3F0B2817DC
:103CD000390778F0AC014E5F5F4F2417350748F085
:103CE0004E0F5F1F50933608409335088193919390
:103CF0009FCFF0E0E0E09CCFCF93DF930097E9F017
:103D0000FC01329713821282A0913708B0913808D3
:103D1000ED0130E020E01097A1F420813181820F85
:103D2000931F20913508309136082817390709F07C
:103D300061C0F0933608E0933508DF91CF91089584
:103D4000EA01CE17DF07E8F54A815B819E01411544
:103D50005105B1F7E901FB83EA8349915991C40FF9
:103D6000D51FEC17FD0761F4808191810296840FC5
:103D7000951FE90199838883828193819B838A833C
:103D8000F0E0E0E012968D919C9113970097B9F5C1
:103D90002D913C911197CD010296820F931F209196
:103DA0003508309136082817390739F6309751F51C
:103DB0001092380810923708B0933608A09335084F
:103DC000BCCFD383C28340815181840F951FC81714
:103DD000D90761F44E5F5F4F88819981480F591F61
:103DE000518340838A819B8193838283211531058E
:103DF00009F0B0CFF0933808E09337089ECFFD016B
:103E0000DC01C0CF13821282D7CF4F925F926F92A4
:103E10007F928F929F92AF92BF92CF92DF92EF925A
:103E2000FF920F931F93CF93DF938C01009799F428
:103E3000CB01DF91CF911F910F91FF90EF90DF9019
:103E4000CF90BF90AF909F908F907F906F905F903A
:103E50004F900C94E01DFC01E60FF71F9C012250CF
:103E60003109E217F30708F4AEC0D901CD91DC9116
:103E70001197C617D70720F1C530D10578F0CE01CC
:103E800004978617970750F0C61BD70B2297C1934C
:103E9000D1936D937C93CF010E947C1EC801DF916A
:103EA000CF911F910F91FF90EF90DF90CF90BF9037
:103EB000AF909F908F907F906F905F904F900895FC
:103EC0005B01AC1ABD0A4C018C0E9D1EA0913708F7
:103ED000B0913808512C412CF12CE12C109731F580
:103EE00080913508909136088815990509F05CC0D5
:103EF0004616570608F058C08091040290910502BA
:103F0000009741F48DB79EB7409108025091090285
:103F1000841B950BE817F90708F055C0F093360895
:103F2000E0933508F90171836083B8CF8D919C913E
:103F3000119712966C90129713967C901397A81570
:103F4000B90559F56C0142E0C40ED11CCA14DB045A
:103F500020F1AC014A195B09DA011296159780F03D
:103F60006282738251834083D9016D937C93E11403
:103F7000F10471F0D7011396FC93EE9312978ECF54
:103F800022968C0F9D1FF90191838083F301EFCF5F
:103F9000F0933808E093370881CF4816590608F4A3
:103FA0002C017D01D3019ACFCB010E94E01D7C0141
:103FB000009749F0AE01B8010E94E61FC8010E94B7
:103FC0007C1E87016BCF10E000E068CFFB01DC01B5
:103FD00002C001900D9241505040D8F70895FB0166
:103FE000DC0101900D920020E1F7089511E0CEEC84
:103FF000D1E000E006C0802FFE010E94C41D219682
:10400000011DCF3CD10780E00807A9F7F894FFCF46
:10401000010000000000390880000000204300007B
:104020008C42000034430000AA42000048430000D4
:10403000A04200000000D702370264022403950268
:10404000730287020000000026083702CF04CE0466
:10405000424F4F54000D0A2A2A2A2057656C636F7D
:104060006D6520746F20746865204D414749432079
:1040700047616D653A204361746368207468652008
:1040800047616D6D6121202A2A2A000D0A46697256
:104090006D7761726520696E666F3A000D0A2D209A
:1040A0004E616D653A20004D6167696347616D65DA
:1040B000000D0A2D205665722E3A2000302E302E2B
:1040C00039000D0A2D20446174653A2000303920F2
:1040D0004D61722032303233004D41474943204711
:1040E000616D653A004361746368207468652047B8
:1040F000616D6D6121000D0A506C65617365207002
:1041000072657373207468652073746172742062C1
:104110007574746F6E20746F20636F6E74696E7542
:1041200065202874696D656F757420696E200020A4
:104130007365636F6E6473292E00494E4954000DF8
:104140000A4D6F76696E672074656C6573636F7076
:104150006520746F20706F736974696F6E3A2041C7
:104160007A696D7574683A20002C20656C657661FB
:1041700074696F6E3A20004D6F76652074656C65CA
:1041800073636F70653A2000417A3A2000202C203A
:10419000656C3A20004552524F52004552524F52E0
:1041A0003A204D6F76652074656C2E0050524F4753
:1041B00052414D2053544F505045442100505245D8
:1041C0005353205245534554212020202000505263
:1041D0004F47524553530020310020320020330016
:1041E00020340020350020360053554343455353B7
:1041F000000D0A2A2A2A2A2A2A2A2A2A2A2A2A2A86
:104200002A2A2A2A2A2A2A2A2A2A2A2A2A2A2A2A0E
:104210002A2A2A2A2A2A2A2A2A000D0A436F6E6786
:10422000726174756C6174696F6E732120596F755A
:1042300020636175676874207468652067616D6DBF
:10424000612100436F6E67726174756C6174696F90
:104250006E73210047616D6D6120636175676874DD
:1042600021203A29004641494C555245000D0A2A61
:104270002A2A2A2A2A2A2A2A2A2A2A2A2A2A2A2A9E
:104280002A2A2A2A2A2A2A2A2A2A2A000D0A536F87
:104290007272792C20596F75206D69737365642073
:1042A0007468652067616D6D612100536F7272796A
:1042B0002E203A280047616D6D61206D697373652A
:1042C000642E000D0A47616D652044657461696C58
:1042D00073000D0A3D3D3D3D3D3D3D3D3D3D3D3D78
:1042E000000D0A4669786564207461726765742000
:1042F000000D0A41637475616C20617A696D757493
:10430000683A20000D0A54617267657420617A6909
:104310006D7574683A20000D0A546F6C6572616E99
:10432000636520666F7220617A696D7574683A20E2
:104330002B2F2D000D0A41637475616C20656C652F
:10434000766174696F6E3A20000D0A546172676578
:104350007420656C65766174696F6E3A20000D0A91
:10436000546F6C6572616E636520666F7220656C58
:1043700065766174696F6E3A202B2F2D000D0A450A
:1043800052524F523A204D6F76696E672074656CB9
:104390006573636F706520746F20706F73697469E3
:1043A0006F6E20002C2000206661696C65642120FE
:1043B00050726F6772616D2073746F7070656421E5
:1043C000000D0A50726573732074686520726573FE
:1043D000657420627574746F6E20746F20726562EC
:1043E0006F6F742E000D0A0D0A4D41474943204757
:1043F000616D653A20507573682074686520737428
:1044000061727420627574746F6E20746F2073749F
:104410006172742061206E65772067616D652E0D75
:104420000A002D3D204D414749432047616D6520DD
:104430003D2D002A205075736820627574746F6E6C
:1044400021202A0049444C45005354415254005401
:104450004152474554000D0A4E65772067616D6DE6
:104460006120706F736974696F6E3A20417A696D6B
:104470007574683A20002028666978656420746144
:1044800072676574200047616D6D6120706F73699C
:0644900074696F6E3A0032
:00000001FF
