:100000000C94CF010C9400020C9400020C9400029A
:100010000C9400020C9400020C9400020C94000258
:100020000C9400020C9400020C9400020C94000248
:100030000C9400020C9400020C9400020C94000238
:100040000C9400020C9400020C9400020C94000228
:100050000C9400020C9400020C9400020C94040E08
:100060000C9400020C94CE0D0C94A40D0C94000280
:100070000C9400020C9400020C9400020C940002F8
:100080000C9400020C9400020C9400020C940002E8
:100090000C946E0D0C94440D0C9400020C94000210
:1000A0000C9400020C9400020C9400020C940002C8
:1000B0000C9400020C9400020C9400020C940002B8
:1000C0000C9400020C9400020C9400020C940002A8
:1000D0000C9400020C9400020C9400020C94000298
:1000E0000C9400020C94B7050C9425030C94A50302
:1000F0000C9429020C9496020C94C3030C944E0E9B
:100100000C9496030C94D7050C94BD030C94B9037E
:100110000C9438020C94AF030C9488020C94E10503
:100120000C94D1050C94F5050C94CF050C94EF05B7
:100130000C9490030C944C080C94B5030C94650239
:100140000C94CB030C949E030C9405050C94D003E3
:100150000C94D5030C94C41F0C9474020C948D055C
:100160000C94AB030C949A030C94A2030C94D80245
:100170000C94D1030C9497050C94A5050C94C7031B
:1001800000407A10F35A00A0724E18090010A5D44E
:10019000E80000E87648170000E40B54020000CAAB
:1001A0009A3B000000E1F5050000809698000000F1
:1001B00040420F000000A086010000001027000050
:1001C0000000E803000000006400000000000A00D6
:1001D000000000000100000000002C76D888DC67D9
:1001E0004F0823DFC1DFAE59E1B1B796E5E3E45331
:1001F000C63AE651997696E8E6C28426EB898C9B4E
:1002000062ED407C6FFCEFBC9C9F40F2BAA56FA5ED
:10021000F490055A2AF75C936B6CF9676DC11BFC6F
:10022000E0E40D47FEF520E6B500D0ED902E03008A
:10023000943577050080841E080000204E0A0000D7
:1002400000C80C333333330F986E12831141EF8D96
:100250002114893BE65516CFFEE6DB18D1844B38D6
:100260001BF77C1D901DA4BBE424203284725E2207
:100270008100C9F124ECA1E53D2700002100240004
:1002800027002A002D003000330001010000040186
:1002900007010A0100002200250028002B002E0083
:1002A0003100340002010000050108010B010000CB
:1002B00020002300260029002C002F00320000011E
:1002C00000000301060109010505050507050808E9
:1002D0000808020202020A0A0808040404040101D0
:1002E00001010101010103030303030303030407E5
:1002F00007070C0C0C0C0C0C0C0C0202020206067C
:100300000606060606060B0B0B0B0B0B0B0B01026E
:100310001020200808102040102040800201020117
:1003200008040201010204081020408080402010CF
:100330000804020180040201804020100804020128
:100340000804020101020408102040800102040890
:100350001020408000000A0B02090C0D0E08070354
:100360000401000000000000000000000000000088
:10037000000000000000000000000000000000007D
:10038000121110000000000000000000000000003A
:10039000000000000000000000004E0EC41F1124E9
:1003A0001FBECFEFD1E2DEBFCDBF00E00CBF17E034
:1003B000A0E0B2E0ECEDF0E500E00BBF02C007907A
:1003C0000D92A631B107D9F728E0A6E1B7E001C048
:1003D0001D92A73CB207E1F711E0CEECD1E000E0BE
:1003E00006C021970109802FFE010E94F625CD3C11
:1003F000D10780E00807A9F70E94350F0C945C280C
:100400000C940000FC01A089B18982E08C93A48542
:10041000B5851C92A685B7858FEC8C93108EA48928
:10042000B58986E08C93A289B3898C9180618C9385
:10043000A289B3898C9188608C93A289B3898C91AD
:1004400080688C930288F389E02D80818F7D808382
:1004500008950895DB0114964D915C9115976D9167
:100460007C91DC01ED91FC910280F381E02D1994E7
:10047000AF92BF92CF92DF92EF92FF920F931F93B2
:10048000CF93DF936C017B018B01040F151FEB01F0
:100490005E01AE18BF08C017D10759F06991D601A7
:1004A000ED91FC910190F081E02DC6011995892B09
:1004B00079F7C501DF91CF911F910F91FF90EF90D8
:1004C000DF90CF90BF90AF900895FC01538D448D85
:1004D000252F30E0842F90E0821B930B541710F0EF
:1004E000CF96089501970895FC01918D828D9817FC
:1004F00061F0A28DAE0FBF2FB11D5D968C91928DD4
:100500009F5F9F73928F90E008958FEF9FEF089504
:10051000FC01918D828D981731F0828DE80FF11DCD
:10052000858D90E008958FEF9FEF0895FC01918DE8
:10053000228D892F90E0805C9F4F821B91098F73E1
:100540009927089587E397E00E94960221E0892B7E
:1005500009F420E0822F089584ED97E00E9496022E
:1005600021E0892B09F420E0822F0895FC01A48D5D
:10057000A80FB92FB11DA35ABF4F2C91848D90E0C5
:1005800001968F739927848FA689B7892C93A089A8
:10059000B1898C91837080648C93938D848D981332
:1005A00006C00288F389E02D80818F7D80830895C5
:1005B000EF92FF920F931F93CF93DF93EC0181E0B3
:1005C000888F9B8D8C8D98131AC0E889F98980815A
:1005D00085FF15C09FB7F894EE89FF896083E8898D
:1005E000F98980818370806480839FBF81E090E07F
:1005F000DF91CF911F910F91FF90EF900895F62E0C
:100600000B8D10E00F5F1F4F0F731127E02E8C8DA5
:100610008E110CC00FB607FCFACFE889F9898081EA
:1006200085FFF5CFCE010E94B602F1CFEB8DEC0F26
:10063000FD2FF11DE35AFF4FF0829FB7F8940B8F07
:10064000EA89FB8980818062CFCFCF93DF93EC0171
:10065000888D8823B9F0AA89BB89E889F9898C91AA
:1006600085FD03C0808186FD0DC00FB607FCF7CF66
:100670008C9185FFF2CF808185FFEDCFCE010E9466
:10068000B602E9CFDF91CF91089580E090E0892B09
:1006900029F00E94AC0281110E94000080E090E0ED
:1006A000892B29F00E94A20281110E94000080E0A3
:1006B00090E0892B49F080E090E0892B29F00E949E
:1006C000000081110E94000080E090E0892B49F039
:1006D00080E090E0892B29F00E94000081110C94A9
:1006E000000008958150823108F05AC0E82FF0E0F0
:1006F0008827E258FC4F8F4F0C94F6259E03A203E7
:10070000900396039A03D003A503AB03AF03B5038D
:10071000B903BD03C303C703D003CB03D103D50380
:10072000809180008F778093800008958091800071
:100730008F7DF9CF80918000877FF5CF84B58F774B
:1007400084BD089584B58F7DFBCF8091B0008F77F5
:100750008093B00008958091B0008F7DF9CF809193
:1007600090008F77809390000895809190008F7D06
:10077000F9CF80919000877FF5CF8091A0008F778F
:100780008093A00008958091A0008F7DF9CF809183
:10079000A000877FF5CF809120018F778093200183
:1007A0000895809120018F7DF9CF80912001877F6E
:1007B000F5CFCF93DF93282F30E0F901EC5AFC4FAF
:1007C0008491F901E25FFC4FD491F901E853FD4FA8
:1007D000C491CC23A1F081110E947203EC2FF0E0B0
:1007E000EE0FFF1FE255FD4FA591B491EC91ED2363
:1007F00081E090E009F480E0DF91CF91089580E0FE
:1008000090E0FACF1F93CF93DF93282F30E0F901C8
:10081000EC5AFC4F8491F901E25FFC4FD491F9014D
:10082000E853FD4FC491CC23A9F0162F81110E94EB
:100830007203EC2FF0E0EE0FFF1FEC56FD4FA59179
:10084000B4918FB7F894EC91111108C0D095DE23C4
:10085000DC938FBFDF91CF911F910895DE2BF8CFEE
:10086000CF93DF9390E0FC01E25FFC4F249188532B
:100870009D4FFC0184918823D1F090E0880F991F4F
:10088000FC01E658FD4FA591B491FC01EC56FD4FDB
:10089000C591D491623071F49FB7F8943C91822F46
:1008A000809583238C93E8812E2B28839FBFDF9133
:1008B000CF9108958FB7F894EC912E2B2C938FBF86
:1008C000F6CF90917B00977F90937B008653806456
:1008D00080937C0080917A00806480937A0080917C
:1008E0007A0086FDFCCF8091780090917900089580
:1008F0003FB7F89480911B0790911C07A0911D07AA
:10090000B0911E0726B5A89B05C02F3F19F0019690
:10091000A11DB11D3FBFBA2FA92F982F8827BC0159
:10092000CD01620F711D811D911D42E0660F771F81
:10093000881F991F4A95D1F708958F929F92AF9281
:10094000BF92CF92DF92EF92FF924B015C010E9427
:1009500078046B017C010E9478046C197D098E0972
:100960009F09683E734081059105A8F321E0821A32
:100970009108A108B10888EEC80E83E0D81EE11CDA
:10098000F11C81149104A104B10429F7FF90EF90A8
:10099000DF90CF90BF90AF909F908F9008952FB72A
:1009A000F89460911707709118078091190790913A
:1009B0001A072FBF08950F931F93CF93DF93EC0176
:1009C0000E94CF04688779878A879B87CE010E941F
:1009D000740297FF15C00E94CF04088519852A85E7
:1009E0003B85601B710B820B930B0C811D812E814B
:1009F0003F81601771078207930740F38FEF9FEFE6
:100A0000DF91CF911F910F91089590E080E00895BC
:100A10000F931F93CF93DF93EC018B01888599850A
:100A2000029751F46130710509F43AC06CF560E049
:100A30000115110509F435C088859985049751F48D
:100A40000130110509F455C00CF035C00115110530
:100A500009F43EC088859985059709F0C8C00A3019
:100A6000110508F0C4C0F8018827E65CFA4F8F4FE3
:100A70000C94F6258D059705A505B705CF05D1057D
:100A8000D705E105EF05F5056230710591F060E0ED
:100A90000330110589F68C850E94020460E005C0D0
:100AA00061E08C850E94020461E08E850E94020450
:100AB000C3CF61E0F0CF0230110509F10330110519
:100AC00009F0C8CF61E08C850E94020460E01CC080
:100AD00061E08C850E94020460E08E850E94020421
:100AE00061E088890E94020460E08A890E94020411
:100AF000B1CF60E08C850E94020461E0EECF60E03F
:100B00008C850E94020461E08E850E94020460E0F0
:100B100088890E94020461E0E8CF60E08C850E9431
:100B2000020461E08E850E94020461E009C060E079
:100B30008C850E94020461E08E850E94020460E0C0
:100B400088890E94020460E00DC060E08C850E94EC
:100B5000020461E08E850E94020460E088890E94A0
:100B6000020461E08A890E94020461E011C060E031
:100B70008C850E94020461E08E850E94020460E080
:100B800088890E94020461E08A890E94020460E070
:100B90008C89DF91CF911F910F910C94020461E039
:100BA000E7CF61E08C850E94020460E0E5CF61E060
:100BB0008C850E94020460E08E850E94020461E040
:100BC000DFCF61E08C850E94020460E08E850E9488
:100BD000020461E088890E94020460E0D5CF61E0F0
:100BE0008C850E94020460E09DCF60E0F9CFDF9128
:100BF000CF911F910F910895CF92DF92EF92FF92C4
:100C00000F931F93CF93DF93EC016130710509F0CF
:100C100045C0798368830E9478040E891F89288DD6
:100C2000398D6B017C01C01AD10AE20AF30A0A81EC
:100C30001B812C813D81C016D106E206F30658F3D4
:100C40006E8B7F8B888F998F8A859B8528813981D0
:100C50002130310549F501969B878A872E813F8196
:100C60008217930711F41B861A868A859B8528852F
:100C700039856AE070E02530310511F064E070E0FC
:100C80000E94E225BC01CE01DF91CF911F910F910F
:100C9000FF90EF90DF90CF900C9408056F3F7F4F4F
:100CA00079F419821882B7CF892B21F48E819F8124
:100CB0009B878A878A859B8501979B878A87D5CF63
:100CC000DF91CF911F910F91FF90EF90DF90CF9028
:100CD0000895883C9105C4F08C3221E09207CCF055
:100CE000803921E09207D4F0803722E09207D4F0D7
:100CF000843D22E09207D4F088339340E4F064E02E
:100D000070E080E090E008956CEF7FEF8FEF9FEF51
:100D100008956EEF7FEF8FEF9FEF08956FEF7FEFF6
:100D2000CB01089560E070E0CB01089561E070E0D0
:100D300080E090E0089562E070E080E090E0089547
:100D400060E082E20E94020460E084E20E94020409
:100D500060E083E20E94020460E085E20E940204F7
:100D600090E080E0089560E08EE10E94020460E07F
:100D700080E20E94020460E08FE10E94020460E0D1
:100D800081E20E94020490E080E008958F929F9299
:100D9000AF92BF92CF92DF92EF92FF926B017C01F4
:100DA0000E94CF044B015C018AE10E94D903892B88
:100DB000A9F088E30E94D903892B81F0C114D104E2
:100DC000E104F10489F30E94CF04681979098A09C2
:100DD0009B09C616D706E806F90634F790E080E0CE
:100DE000FF90EF90DF90CF90BF90AF909F908F904B
:100DF0000895CF93DF93EC0160E08E810E9402049E
:100E000061E08E810E94020460E08E810E940204F3
:100E10008BE891E00197F1F7DF91CF910895CF92A0
:100E2000DF92EF92FF920F931F93CF93DF936C01AA
:100E30007C0187E0E80EF11CD0E0C0E0062F10E056
:100E4000B8010C2E02C0759567950A94E2F761709F
:100E5000F70181917F010E9402042196C430D105DF
:100E600079F7C601DF91CF911F910F91FF90EF901D
:100E7000DF90CF900C94F906CF92DF92EF92FF9221
:100E80000F931F93CF93DF93EC01F62E642F8C8189
:100E90000E9402048D818F3F19F060E00E940204DD
:100EA0000F2D10E08F8584FF25C06E0187E0C80EEE
:100EB000D11CF12CE12CB8010E2C02C07595679560
:100EC0000A94E2F76170F60181916F010E940204B9
:100ED000FFEFEF1AFF0A88E0E816F10461F7CE0190
:100EE000DF91CF911F910F91FF90EF90DF90CF9006
:100EF0000C94F906B80184E0759567958A95E1F739
:100F0000CE010E940F076F2DCE01DF91CF911F916F
:100F10000F91FF90EF90DF90CF900C940F0740E07F
:100F2000682F81E798E00C943C0781E00E948F07CE
:100F30008BE39FE10197F1F70895CF93DF93823020
:100F400029F4909180089860909380088093840899
:100F50001092850880E48093860880E1809387085A
:100F600080E58093880861E0809175080E943004D4
:100F7000809176088F3F19F061E00E94300461E0B3
:100F8000809177080E943004C1E7D8E09E01215784
:100F900038408091800884FD0BC084E090E0219669
:100FA0002817390744F461E08E810E943004EECFA7
:100FB00088E090E0F4CF8BE39DE00197F1F760E0EB
:100FC000809175080E94020460E0809177080E9479
:100FD0000204809176088F3F19F060E00E940204BD
:100FE0008091800884FD34C063E081E798E00E942E
:100FF0000F07CBE4D6E4CE010197F1F763E081E778
:1010000098E00E940F072197F1F763E081E798E0ED
:101010000E940F0783E592E00197F1F762E081E714
:1010200098E00E940F078091800880620E948F07DD
:1010300084E0809381088CE00E948F070E949507CE
:1010400082E08093820886E0DF91CF910C948F0735
:1010500080620E948F078BE496E40197F1F78091FC
:10106000800880620E948F0783E592E00197F1F784
:101070008091800880620E948F07D5CF909184086C
:10108000891710F08FEF890FE82FF0E0EF58F74F36
:10109000848980680C948F0741E00E943C0781E0BE
:1010A00090E00895EF92FF920F931F93CF93DF93F9
:1010B000FC0100811181FB01C081D181F801819186
:1010C0008F018823B9F0082E000C990B0E94182874
:1010D0007C018991082E000C990B0E941828E816B3
:1010E000F90661F380E0DF91CF911F910F91FF909E
:1010F000EF90089581E0F7CFFB0101900020E9F720
:101100003197AF01461B570BDC01ED91FC9102803A
:10111000F381E02D19942F923F924F925F926F923C
:101120007F928F929F92AF92BF92CF92DF92EF9277
:10113000FF920F931F93CF93DF9300D01F92CDB7F1
:10114000DEB7FC01448055804114510409F412C1FA
:10115000FB01648075806114710409F40BC17A018C
:101160006B019C838B83FA01A480B580A618B70815
:10117000FC0100811181A114B104B9F4F601608170
:101180007181C8010E9442288C01009709F4F2C0C5
:10119000F70160817181448155810E942028F70107
:1011A00084819581080F191FE9CFB7FC10C0FB019E
:1011B000208031804201C801B1010E94422800977D
:1011C00009F44EC0860D971D8A0C9B1CF5CF380183
:1011D000F60160817181C8010E9442282C010097AC
:1011E00029F14C01801A910AA401B801C3010E949F
:1011F0002028680C791CF701608171814481558138
:10120000C3010E942028F70184809580680C791C16
:10121000F60104811581040D151DEB81FC8184818B
:1012200095818A0D9B1D95838483D2CFB801C3011C
:101230000F900F900F900F90DF91CF911F910F9112
:10124000FF90EF90DF90CF90BF90AF909F908F90E6
:101250007F906F905F904F903F902F900C943B2821
:101260004814590409F486C0EB81FC818281938182
:101270008815990578F4B4016F5F7F4FC8010E940B
:101280003727009709F476C0EB81FC819183808336
:1012900093828282EB81FC810481158101501109C6
:1012A00017FD68C03801F60124803580211431040F
:1012B00009F460C0EB81FC818480958081149104E5
:1012C00009F458C08214930408F454C00815190591
:1012D00020F03401F1E06F1A7108EB81FC8140804D
:1012E0005180C2010FEF1FEF9201260D371D3A8387
:1012F0002983E981FA81E817F90788F0F60160810E
:1013000071810E944228009751F09C0124193509EF
:101310006216730608F4980101968901EACF17FD59
:1013200029C0200E311EC201820D931DA401421955
:101330005309BC018A0D9B1D0E942928EB81FC8169
:10134000848195818A0D9B1D9583848320813181C1
:10135000820F931FFC011082EB81FC8180819181BF
:10136000F7016081718144815581800F911F0E9436
:10137000202894CF0F900F900F900F90DF91CF9176
:101380001F910F91FF90EF90DF90CF90BF90AF90A3
:101390009F908F907F906F905F904F903F902F9095
:1013A00008950F931F93CF93DF93EC018881998168
:1013B000009759F02A813B812617370730F081E0EA
:1013C000DF91CF911F910F9108958B016F5F7F4F38
:1013D0000E943727009759F0998388831B830A83DB
:1013E0002C813D81232B59F7FC011082E8CF80E04E
:1013F000E7CFEF92FF920F931F93CF93DF93611587
:10140000710541F480E0DF91CF911F910F91FF9022
:10141000EF90089541155105B1F07B01EC010C816D
:101420001D81040F151FB8010E94D109882351F3B3
:10143000288139818C819D81B701820F931F0E9481
:101440003B281D830C8381E0DECF0F931F93CF9346
:10145000DF938C01EB01FC01808191810097E1F029
:101460006881798161157105A9F0428153812C81D0
:101470003D814217530770F00E943B288C819D816B
:10148000F801958384831D821C82DF91CF911F9187
:101490000F9108950E94AE2688819981F801918369
:1014A00080838A819B81938382838C819D819583B4
:1014B0008483198218821B821A82E5CFCF93DF932F
:1014C000EC0188819981009711F00E94AE26198263
:1014D00018821D821C821B821A82DF91CF9108958F
:1014E000CF93DF93EC01FB0101900020E9F73197E6
:1014F000AF01461B570B0E94F909811103C0CE01B1
:101500000E945E0ACE01DF91CF910895CF93DF93C1
:10151000EC01FB0144815581608171810E94F909D0
:10152000811103C0CE010E945E0ACE01DF91CF91EE
:101530000895EF92FF920F931F93CF93DF93EC01E7
:101540007B018A01BA010E94D10981110BC0CE0131
:101550000E945E0ACE01DF91CF911F910F91FF9003
:10156000EF9008951D830C83B701888199810E94B3
:101570003B28F0CFFB0101900020E9F73197AF0144
:10158000461B570B0C94990A0F931F93CF93DF932D
:10159000CDB7DEB762970FB6F894DEBF0FBECDBFF2
:1015A0008C01CB01F8011182108213821282158204
:1015B00014824AE0BE016F5F7F4F0E948A20BE0105
:1015C0006F5F7F4FC8010E94BA0A62960FB6F89407
:1015D000DEBF0FBECDBFDF91CF911F910F91089558
:1015E0000F931F93CF93DF93CDB7DEB7A2970FB6BC
:1015F000F894DEBF0FBECDBF8C01CB01BA01F8015C
:101600001182108213821282158214822AE0AE01A6
:101610004F5F5F4F0E949520BE016F5F7F4FC801F3
:101620000E94BA0AA2960FB6F894DEBF0FBECDBFD5
:10163000DF91CF911F910F910895EF92FF920F9339
:101640001F93CF93DF93CDB7DEB7A1970FB6F89472
:10165000DEBF0FBECDBF7C01CB01BA01F701118205
:10166000108213821282158214828E010F5F1F4F27
:1016700021E043E00E94C81F009789F0BC01C70128
:101680000E94BA0AA1960FB6F894DEBF0FBECDBF76
:10169000DF91CF911F910F91FF90EF900895C701B7
:1016A0000E945E0AEFCFFB01DC0111961C921E9294
:1016B00013961C921E92129715961C921E921497C6
:1016C0008617970749F0608171816115710521F0D6
:1016D000448155810C94990A0895FC01118210826D
:1016E0001382128215821482FB0101900020E9F717
:1016F0003197AF01461B570B0C94990AFC0180816E
:101700009181009711F00C94AE260895CF93DF934A
:10171000CDB7DEB72C970FB6F894DEBF0FBECDBFA6
:1017200068E272E0CE0101960E946D0BBE016F5F10
:101730007F4FCE0107960E94530B6BE272E0CE0101
:1017400007960E94700ABC0184ED97E00E942A026D
:10175000CE0107960E947E0BCE0101960E947E0B61
:1017600064EF71E080E090E00E949D040C94000022
:101770002C960FB6F894DEBF0FBECDBFDF91CF9190
:101780000895CF93DF93CDB7DEB768970FB6F8947F
:10179000DEBF0FBECDBF8C017B016AE272E0CE01DD
:1017A00043960E946D0B60E08EE20E94020461E0AD
:1017B0008FE20E9402040E94B3060E94A00668E223
:1017C00072E0CE0101960E946D0BBE016F5F7F4FEC
:1017D00084ED97E00E942A02CE0101960E947E0BC2
:1017E000B80184ED97E00E942A0268E272E0CE011F
:1017F00001960E946D0BBE016F5F7F4FCE01079671
:101800000E94530B6FE472E0CE0107960E94700AAB
:10181000BC0184ED97E00E942A02CE0107960E9447
:101820007E0BCE0101960E947E0B68E272E0CE0133
:1018300001960E946D0BBE016F5F7F4F84ED97E0B4
:101840000E942A02CE0101960E947E0B0E949507FB
:1018500068E272E0CE010D960E946D0B61E772E0C6
:10186000CE0101960E946D0BBE016F5F7F4FCE01CE
:1018700007960E94530BBE01635F7F4FCE01079610
:101880000E94860ABC0187E397E00E942A02CE01EB
:1018900007960E947E0BCE0101960E947E0BCE0120
:1018A0000D960E947E0B80E00E943E08B70181E702
:1018B00098E00E942A0281E00E943E0867E772E0F9
:1018C00081E798E00E947C0868EE73E080E090E099
:1018D0000E949D0481E00E943E0868E872E081E772
:1018E00098E00E947C0868EE73E080E090E00E943F
:1018F0009D046AE272E0CE0101960E946D0B84EDB8
:1019000097E00E94DB0497FD0FC08A30910561F0DB
:101910008F83188641E050E0BE01695F7F4FCE01A2
:1019200001960E94F909EBCFBE016F5F7F4FCE0198
:1019300043960E94250ACE0101960E947E0B6AE220
:1019400072E0CE0107960E946D0B69E972E0CE014C
:1019500001960E946D0BAE01495F5F4FBE016F5F44
:101960007F4FCE0143960E948B08CE0101960E94C4
:101970007E0BCE0107960E947E0B6BE972E0CE01D2
:1019800001960E946D0B8F89988D2D813E8110E00C
:101990008217930759F411E0892B41F0BE016F5F64
:1019A0007F4FCE0143960E945208182FCE01019618
:1019B0000E947E0B11110E94860B6AE272E0CE013A
:1019C00001960E946D0B87E397E00E94DB0497FD70
:1019D0000FC08A30910561F08F83188641E050E096
:1019E000BE01695F7F4FCE0101960E94F909EBCFDE
:1019F000BE016F5F7F4FCE0143960E94250ACE0144
:101A000001960E947E0B6AE272E0CE0107960E9468
:101A10006D0B69E972E0CE0101960E946D0BAE017B
:101A2000495F5F4FBE016F5F7F4FCE0143960E94BB
:101A30008B08CE0101960E947E0BCE0107960E9474
:101A40007E0B6BE972E0CE0101960E946D0B8F89CF
:101A5000988D2D813E8110E08217930759F411E093
:101A6000892B41F0BE016F5F7F4FCE0143960E94EC
:101A70005208182FCE0101960E947E0B112309F403
:101A8000E7CE0E94860BE4CE1F920F920FB60F9204
:101A900011240BB60F922F933F934F935F936F9345
:101AA0007F938F939F93AF93BF93EF93FF9387E3BE
:101AB00097E00E94B602FF91EF91BF91AF919F9185
:101AC0008F917F916F915F914F913F912F910F90E7
:101AD0000BBE0F900FBE0F901F9018951F920F9284
:101AE0000FB60F9211240BB60F922F938F939F93E3
:101AF000EF93FF93E0914707F09148078081E091D1
:101B00004D07F0914E0782FD1DC0908180915007D6
:101B10008F5F8F7320915107821741F0E09150073A
:101B2000F0E0E95CF84F958F80935007FF91EF91BB
:101B30009F918F912F910F900BBE0F900FBE0F9022
:101B40001F9018958081F2CF1F920F920FB60F92BF
:101B500011240BB60F922F933F934F935F936F9384
:101B60007F938F939F93AF93BF93EF93FF9384EDF6
:101B700097E00E94B602FF91EF91BF91AF919F91C4
:101B80008F917F916F915F914F913F912F910F9026
:101B90000BBE0F900FBE0F901F9018951F920F92C3
:101BA0000FB60F9211240BB60F922F938F939F9322
:101BB000EF93FF93E091E407F091E5078081E091D6
:101BC000EA07F091EB0782FD1DC090818091ED073F
:101BD0008F5F8F732091EE07821741F0E091ED0740
:101BE000F0E0EC52F84F958F8093ED07FF91EF9165
:101BF0009F918F912F910F900BBE0F900FBE0F9062
:101C00001F9018958081F2CF1F920F920FB60F92FE
:101C100011242F933F938F939F93AF93BF93809102
:101C2000170790911807A0911907B0911A073091E2
:101C3000160723E0230F2D3758F50196A11DB11D7E
:101C4000209316078093170790931807A0931907FE
:101C5000B0931A0780911B0790911C07A0911D0754
:101C6000B0911E070196A11DB11D80931B07909393
:101C70001C07A0931D07B0931E07BF91AF919F91C2
:101C80008F913F912F910F900FBE0F901F9018953D
:101C900026E8230F0296A11DB11DD2CFEF92FF922D
:101CA0000F931F93CF93DF93E7E3F7E01382128242
:101CB00048EE53E060E070E04483558366837783A9
:101CC0008EE092E0918380832DEC30E0358724878D
:101CD0002CEC30E03787268728EC30E0318B208BE6
:101CE00029EC30E0338B228B2AEC30E0358B248BCF
:101CF0002EEC30E0378B268B118E128E138E148EC5
:101D0000E4EDF7E013821282448355836683778380
:101D10009183808385EC90E09587848784EC90E0C4
:101D20009787868780EC90E0918B808B81EC90E0A8
:101D3000938B828B82EC90E0958B848B86EC90E089
:101D4000978B868B118E128E138E148E6AE272E040
:101D50008DEB98E00E946D0BC3EAD8E01B861A86D3
:101D6000198218821E8A1F8A188E198E80E4E82E26
:101D7000F12CFF82EE8281E290E09D878C878FE1DB
:101D800090E09F878E8780E290E0998B888B8EE130
:101D900090E09B8B8A8B61E081E20E94300461E0DD
:101DA0008E850E94300461E088890E94300461E0E1
:101DB0008A890E9430041D8A1C8A04E010E0198779
:101DC0000887C9E8D8E01B861A86198218821E8AFD
:101DD0001F8A188E198EFF82EE8285E290E09D8721
:101DE0008C8783E290E09F878E8784E290E0998BD6
:101DF000888B82E290E09B8B8A8B61E085E20E9477
:101E0000300461E08E850E94300461E088890E9480
:101E1000300461E08A890E9430041D8A1C8A198777
:101E20000887E1E7F8E01382128280E292E0918372
:101E3000808380E384838FEF858381E3868382E3DD
:101E4000878383E3808784E3818785E382871386A2
:101E5000148615861686178681E0DF91CF911F9133
:101E60000F91FF90EF900C949D07CF93DF93CDB728
:101E7000DEB7E3970FB6F894DEBF0FBECDBF789400
:101E800084B5826084BD84B5816084BD85B582607F
:101E900085BD85B5816085BD80916E008160809330
:101EA0006E00109281008091810082608093810099
:101EB00080918100816080938100809180008160A9
:101EC000809380008091B10084608093B100809104
:101ED000B00081608093B000809191008260809317
:101EE0009100809191008160809391008091900099
:101EF0008160809390008091A10082608093A10016
:101F00008091A10081608093A1008091A0008160F8
:101F10008093A000809121018260809321018091B3
:101F20002101816080932101809120018160809353
:101F3000200180917A00846080937A0080917A00F9
:101F4000826080937A0080917A00816080937A0029
:101F500080917A00806880937A001092C10084EDAD
:101F600097E00E94020287E397E00E94020268E283
:101F700072E0CE0101960E946D0BBE016F5F7F4F34
:101F800087E397E00E942A02CE0101960E947E0B11
:101F900068E272E0CE0101960E946D0B61EA72E088
:101FA000CE010D960E946D0BBE01635F7F4FCE0187
:101FB00007960E94530BBE016F5F7F4FCE010796BD
:101FC0000E94860ABC0187E397E00E942A02CE01A4
:101FD00007960E947E0BCE010D960E947E0BCE01CD
:101FE00001960E947E0B68E272E0CE0101960E948B
:101FF0006D0BBE016F5F7F4F84ED97E00E942A0258
:10200000CE0101960E947E0B68E272E0CE01079637
:102010000E946D0BBE01695F7F4FCE0101960E9449
:10202000530B66EA72E0CE0101960E94700ABC0171
:1020300084ED97E00E942A02CE0101960E947E0B59
:10204000CE0107960E947E0B68E272E0CE010196F7
:102050000E946D0BBE016F5F7F4F84ED97E00E9481
:102060002A02CE0101960E947E0B68E272E0CE0148
:1020700007960E946D0BBE01695F7F4FCE010196EE
:102080000E94530B6AED72E0CE0101960E94700A25
:10209000BC0184ED97E00E942A02CE0101960E94C5
:1020A0007E0BCE0107960E947E0B68E272E0CE01A5
:1020B00007960E946D0BBE01695F7F4FCE010196AE
:1020C0000E94530B69EE72E0CE0101960E94700AE5
:1020D000BC0184ED97E00E942A02CE0101960E9485
:1020E0007E0BCE0107960E947E0B62EF72E084EDBC
:1020F00097E00E947C0868E272E0CE0107960E9499
:102100006D0BBE01695F7F4FCE0101960E94530B9C
:102110006CEF72E0CE0101960E94700ABC0184ED62
:1021200097E00E942A02CE0101960E947E0BCE010A
:1021300007960E947E0B65E073E084ED97E00E94B5
:102140007C0868E272E0CE0107960E946D0BBE012A
:10215000695F7F4FCE0101960E94530B6CE073E0E4
:10216000CE0101960E94700ABC0184ED97E00E94A6
:102170002A02CE0101960E947E0BCE0107960E9494
:102180007E0B65E173E084ED97E00E947C0868E2D5
:1021900072E0CE0107960E946D0BBE01695F7F4F12
:1021A000CE0101960E94530B61E273E0CE010196CD
:1021B0000E94700ABC0184ED97E00E942A02CE01C1
:1021C00001960E947E0BCE0107960E947E0B6AE26A
:1021D00073E084ED97E00E947C0868E272E0CE0133
:1021E00001960E946D0BBE016F5F7F4F84ED97E0FB
:1021F0000E942A02CE0101960E947E0B2091A9081E
:102200003091AA08032E000C440B550BC12C67E833
:10221000D62E63E9E62E63E0F62EC701B6010E94D2
:1022200065247AE0872E912CA12CB12CCA01B9012A
:10223000A50194010E9465242093A5083093A60867
:102240004093A7085093A80820918F0830919008D8
:10225000032E000C440B550BC701B6010E946524E8
:10226000CA01B901A50194010E94652420938B083D
:1022700030938C0840938D0850938E0861E088E07D
:102280000E94300461E088E00E94300460E088E051
:102290000E94020461E089E00E94300461E089E06C
:1022A0000E94300461E089E00E94020482E00E9402
:1022B0009D070E94950780E00E943E0865E373E059
:1022C00081E798E00E947C0881E00E943E0861E47A
:1022D00073E081E798E00E947C0868EE73E080E09C
:1022E00090E00E949D0462E086E10E94300462E07A
:1022F00087E10E94300462E088E10E94300462E0DD
:1023000089E10E94300462E08AE10E94300462E0C8
:1023100088E30E94300461E08DE00E94300461E0B7
:1023200082E00E94300461E083E00E94300461E0BA
:1023300084E00E94300461E085E00E94300461E0A6
:1023400086E00E94300461E086E20E94300461E091
:1023500087E20E94300461E088E20E94300461E07C
:102360008AE20E94300461E08BE20E94300461E066
:102370008CE20E94300461E08EE20E94300461E051
:102380008FE20E94300461E08DE00E94020460E070
:1023900082E00E94020460E083E00E94020460E0A8
:1023A00084E00E94020460E085E00E94020460E094
:1023B00086E00E94020460E086E20E94020460E07F
:1023C00087E20E94020460E088E20E94020460E06A
:1023D0008AE20E94020460E08BE20E94020460E054
:1023E0008CE20E94020460E08CE20E94020460E041
:1023F0008EE20E94020460E08FE20E94020486E303
:102400000E946104BC01990F880B990B611571053D
:102410008105910511F00E94812065E070E0CE01F8
:1024200001960E94C40A68E272E0CE010D960E94F5
:102430006D0BBE01635F7F4FCE0107960E94530B69
:1024400062E573E0CE0107960E94700ABE016F5FDD
:102450007F4F0E94860A69E873E00E94700ABC01FF
:1024600084ED97E00E942A02CE0107960E947E0B1F
:10247000CE010D960E947E0BCE0101960E947E0B2E
:1024800068E272E0CE0101960E946D0BBE016F5FA3
:102490007F4F84ED97E00E942A02CE0101960E94B0
:1024A0007E0B68E873E180E090E00E94C60668EE6B
:1024B00073E080E090E00E949D0468E272E0CE014B
:1024C00001960E946D0B64E973E0CE010D960E94A7
:1024D0006D0BBE01635F7F4FCE0107960E94530BC9
:1024E000BE016F5F7F4FCE0107960E94860ABC0136
:1024F00087E397E00E942A02CE0107960E947E0B96
:10250000CE010D960E947E0BCE0101960E947E0B9D
:102510000E94B3060E94A00661E08EE20E940204BF
:1025200060E082E00E94020460E083E00E94020416
:1025300060E084E00E94020460E085E00E94020402
:1025400060E086E00E94020460E086E20E940204ED
:1025500060E087E20E94020460E088E20E940204D8
:1025600060E08AE20E94020460E08BE20E940204C2
:1025700060E08CE20E94020460E08CE20E940204AF
:1025800040E050E060EA71E4CE0143960E941D0BEA
:1025900040E050E060EA71E4CE010D960E941D0B10
:1025A00068E272E0CE0101960E946D0BBE016F5F82
:1025B0007F4FCE0107960E94530B69E973E0CE016D
:1025C00007960E94700ABE01635F7F4F0E94860AD1
:1025D0006DEB78E00E94860A61EC73E00E94700A5D
:1025E000BE016D5E7F4F0E94860A6DEB78E00E940F
:1025F000860ABC0184ED97E00E942A02CE0107966C
:102600000E947E0BCE0101960E947E0BCE010D969C
:102610000E947E0BCE0143960E947E0B0E9495077E
:1026200080E00E943E086FEC73E081E798E00E9432
:102630007C0881E00E943E0864E170E0CE010D96C6
:102640000E94C40A64E170E0CE0107960E94C40AA9
:1026500060EE73E0CE0101960E946D0BBE01695FD2
:102660007F4FCE0101960E94860A65EE73E00E94BC
:10267000700ABE01635F7F4F0E94860ABC0181E73A
:1026800098E00E942A02CE0101960E947E0BCE01A4
:1026900007960E947E0BCE010D960E947E0B6091E4
:1026A00033077091340780913507909136070E9467
:1026B000482320E030E040E85CE30E94A72320E0CC
:1026C00030E044EB53E40E94A7234B015C0180926D
:1026D0002F0790923007A0923107B0923207609195
:1026E0002B0770912C0780912D0790912E070E9447
:1026F000482320E030E040E85CE30E94A72320E08C
:1027000030E044EB52E40E94A7236B017C01C092AD
:102710002707D0922807E0922907F0922A07A501FF
:10272000940160E070E080EA91E40E94C82420E017
:1027300030E044EB53E40E94352520E030E040E8EF
:1027400052E40E94A7230E94A7254B015C01A70128
:10275000960160E070E080EA91E40E94C82420E0E5
:1027600030E044EB52E40E94352520E030E040E8C0
:1027700052E40E94A7230E94A7256B017C01BC01A3
:10278000A601CE0143960E94F00AB501A401CE0134
:102790000D960E94F00A68E272E0CE0101960E9456
:1027A0006D0BBE016F5F7F4FCE0107960E94530BEA
:1027B0006DEE73E0CE0107960E94700ABE01635F62
:1027C0007F4F0E94860A61EC73E00E94700ABE018E
:1027D0006D5E7F4F0E94860ABC0184ED97E00E94E7
:1027E0002A02CE0107960E947E0BCE0101960E941E
:1027F0007E0BCE010D960E947E0BCE0143960E9469
:102800007E0B81149104A104B10411F00C94301FCB
:10281000C114D104E104F10409F03BC20E94B306E3
:102820000E94A00668E272E0CE0101960E946D0B44
:10283000BE016F5F7F4F84ED97E00E942A02CE01B8
:1028400001960E947E0B68E272E0CE0101960E9422
:102850006D0BBE016F5F7F4F84ED97E00E942A02EF
:10286000CE0101960E947E0B6DE776E084ED97E045
:102870000E947C0868E272E0CE0101960E946D0B16
:10288000BE016F5F7F4F84ED97E00E942A02CE0168
:1028900001960E947E0B0E94950780E00E943E08F0
:1028A00064EB76E081E798E00E947C0881E00E947A
:1028B0003E0865EC76E081E798E00E947C0868E2DB
:1028C00072E0CE0101960E946D0B66ED76E0CE01BE
:1028D0000D960E946D0BBE01635F7F4FCE01079680
:1028E0000E94530BBE016F5F7F4FCE0107960E947F
:1028F000860ABC0187E397E00E942A02CE01079670
:102900000E947E0BCE010D960E947E0BCE01019699
:102910000E947E0B60E070E0CB010E94C60668E278
:1029200072E0CE0101960E946D0B6BED76E0CE0158
:102930000D960E946D0BBE01635F7F4FCE0107961F
:102940000E94530BBE016F5F7F4FCE0107960E941E
:10295000860ABC0187E397E00E942A02CE0107960F
:102960000E947E0BCE010D960E947E0BCE01019639
:102970000E947E0B0E94322024E531E040E050E0CE
:102980000E946524665F7F4F8F4F9F4F0E944823B0
:10299000609323077093240780932507909326075D
:1029A0000E94322026E430E040E050E00E9465249E
:1029B000665F7F4F8F4F9F4F0E9448236B017C01C2
:1029C000C0921F07D0922007E0922107F0922207C1
:1029D00068E272E0CE0101960E946D0BB701A6017C
:1029E000CE0107960E941D0B4091230750912407AA
:1029F0006091250770912607CE010D960E941D0B50
:102A000061EE76E0CE0149960E946D0BBE01675ED5
:102A10007F4FCE0143960E94530B67E972E0CE01CF
:102A200043960E94700ABE01635F7F4F0E94860A30
:102A30006DEB78E00E94860A67E972E00E94700AF6
:102A4000BE01695F7F4F0E94860A6DEB78E00E94AD
:102A5000860ABE016F5F7F4F0E94860ABC0187E332
:102A600097E00E942A02CE0143960E947E0BCE017F
:102A700049960E947E0BCE010D960E947E0BCE01E0
:102A800007960E947E0BCE0101960E947E0B40911C
:102A90001F07509120076091210770912207CE01F6
:102AA00001960E941D0B40912307509124076091CD
:102AB000250770912607CE0107960E941D0B68E23C
:102AC00072E0CE0143960E946D0BBE016D5E7F4F9A
:102AD000CE010D960E94530B68EE76E0CE010D9666
:102AE0000E94700ABE01695F7F4F0E94860A6DEBEB
:102AF00078E00E94860A61EC73E00E94700ABE01D1
:102B00006F5F7F4F0E94860A6DEB78E00E94860A15
:102B1000BC0184ED97E00E942A02CE010D960E942E
:102B20007E0BCE0143960E947E0BCE0107960E943B
:102B30007E0BCE0101960E947E0B0E94950780E0DD
:102B40000E943E0866E077E081E798E00E947C08FA
:102B500081E00E943E0860911F07709120078091DC
:102B60002107909122070E94A725CE0101960E947D
:102B7000C40A6091230770912407809125079091E2
:102B800026070E94A725CE0107960E94C40A60EE80
:102B900073E0CE010D960E946D0BBE01695F7F4F01
:102BA000CE010D960E94860A66EE73E00E94700ABE
:102BB000BE016F5F7F4F0E94860ABC0181E798E0EB
:102BC0000E942A02CE010D960E947E0BCE0107962E
:102BD0000E947E0BCE0101960E947E0B68E272E09D
:102BE000CE0101960E946D0B69E076E0CE010D9654
:102BF0000E946D0BBE01635F7F4FCE0107960E945E
:102C0000530BBE016F5F7F4FCE0107960E94860A6D
:102C1000BC0187E397E00E942A02CE0107960E943A
:102C20007E0BCE010D960E947E0BCE0101960E9476
:102C30007E0B0E94CF0468AB79AB8AAB9BAB1DA621
:102C40001BA61FA61CA61AA61EA61DA284E1282E3E
:102C5000312C66C387E10E94D903892B11F40C94AF
:102C6000811F61E070E083EA98E00E94FC0531E09A
:102C7000831A9108A108B108809133079091340715
:102C8000A0913507B09136070196A11DB11D0C9496
:102C9000501F6DE570E080E090E00E949D04F7FE1B
:102CA00002C00C945C1F89E10E94D903892B11F4A6
:102CB0000C94811F61E070E089E898E00E94FC05B7
:102CC00051E0C51AD108E108F10880912B079091D5
:102CD0002C07A0912D07B0912E070196A11DB11DC3
:102CE0000C94771FC114D104E104F104E1F66DE501
:102CF00070E080E090E00E949D0483CD68E272E085
:102D0000CE0101960E946D0B6BEB74E0CE010D9627
:102D10000E946D0BBE01635F7F4FCE0107960E943C
:102D2000530BBE016F5F7F4FCE0107960E94860A4C
:102D3000BC0187E397E00E942A02CE0107960E9419
:102D40007E0BCE010D960E947E0BCE0101960E9455
:102D50007E0B68E272E0CE0101960E946D0BBE010F
:102D60006F5F7F4F84ED97E00E942A02CE010196AB
:102D70000E947E0B68E272E0CE0107960E946D0B06
:102D8000BE01695F7F4FCE0101960E94530B65E53E
:102D900074E0CE0101960E94700ABC0184ED97E0B8
:102DA0000E942A02CE0101960E947E0BCE01079658
:102DB0000E947E0B68E272E0CE0107960E946D0BC6
:102DC000BE01695F7F4FCE0101960E94530B63ECF9
:102DD00074E0CE0101960E94700ABC0184ED97E078
:102DE0000E942A02CE0101960E947E0BCE01079618
:102DF0000E947E0B68E272E0CE0107960E946D0B86
:102E0000BE01695F7F4FCE0101960E94530B65E5BD
:102E100074E0CE0101960E94700ABC0184ED97E037
:102E20000E942A02CE0101960E947E0BCE010796D7
:102E30000E947E0B80E00E943E0860EE74E081E715
:102E400098E00E947C0881E00E943E086AEE74E0EF
:102E5000ABC586E30E9461040E9469066B017C0198
:102E600087E30E9461040E9469064B015C0186E1D0
:102E70000E94D903892B29F561EA75E0CE010196FC
:102E80000E946D0B68E272E0CE0143960E946D0BCA
:102E9000BE016D5E7F4FCE010D960E94530B62EB1B
:102EA00075E0CE010D960E94700ABC01CE01079616
:102EB0000E94530BBE016F5F7F4FCE0107960E94A9
:102EC000C10B87E10E94D903892BB1F288E10E94EE
:102ED000D903892B89F289E10E94D903892B61F2F8
:102EE00004E010E08091330790913407A0913507FA
:102EF000B09136078EA39FA3A8A7B9A7BC01CD01A7
:102F00000E94482320E030E040E85CE30E94A723D1
:102F100020E030E044EB53E40E94A7232B013C0166
:102F200040922F075092300760923107709232071B
:102F300060912B0770912C0780912D0790912E079F
:102F40000E94482320E030E040E85CE30E94A72391
:102F500020E030E044EB52E40E94A723609327076F
:102F6000709328078093290790932A07F7FED7C00C
:102F700020E030E040E251E4C301B2010E94DD25CF
:102F800018160CF4ABC06DE570E080E090E00E9494
:102F90009D04B7FE12C120E030E040E251E46091B0
:102FA0002707709128078091290790912A070E948E
:102FB000DD2518160CF4DCC06DE570E080E090E0D3
:102FC0000E949D040150110909F08CCF80902307C5
:102FD00090902407A0902507B0902607C0902F0757
:102FE000D0903007E0903107F090320720E030E0D9
:102FF00040E251E4C501B4010E94C824A701960132
:103000000E94DD2518160CF00BC160E086E20E94DC
:10301000020460E087E20E94020461E088E20E940C
:10302000020400E080901F0790902007A0902107E5
:10303000B0902207C0902707D0902807E09029077A
:10304000F0902A0720E030E040E251E4C501B401ED
:103050000E94C824A70196010E94DD2518160CF0D5
:1030600007C160E08AE20E94020460E08BE20E94F5
:10307000020461E08CE20E9402044DA1442309F4A1
:103080004FC168E272E0CE0101960E946D0B69E0CB
:1030900076E0CE010D960E946D0BBE01635F7F4FFF
:1030A000CE0107960E94530BBE016F5F7F4FCE018A
:1030B00007960E94860ABC0187E397E00E942A02D5
:1030C000CE0107960E947E0BCE010D960E947E0BCC
:1030D000CE0101960E947E0B1DA222C186E10E94B4
:1030E000D903892B09F44FCF6FEF7FEF83EA98E084
:1030F0000E94FC059FEFC91AD90AE90AF90A8EA1B4
:103100009FA1A8A5B9A50197A109B109809333078B
:1031100090933407A0933507B09336073ACFC11484
:10312000D104E104F10409F42ECF20E030E04FEAAD
:1031300053E4C301B2010E94412387FF24CF87E1FA
:103140000E94D903892B09F41ECF61E070E083EA65
:1031500098E00E94FC05A1E0CA1AD108E108F10834
:103160008EA19FA1A8A5B9A50196A11DB11DCECF85
:1031700088E10E94D903892B09F41ECF6FEF7FEFFE
:1031800089E898E00E94FC05BFEF8B1A9B0AAB0A06
:10319000BB0A80912B0790912C07A0912D07B0912D
:1031A0002E070197A109B10980932B0790932C0753
:1031B000A0932D07B0932E0705CF81149104A1048D
:1031C000B10409F4F9CE20E030E040EA52E4609125
:1031D0002707709128078091290790912A070E945C
:1031E000412387FFE9CE89E10E94D903892B09F4A5
:1031F000E3CE61E070E089E898E00E94FC0521E000
:10320000821A9108A108B10880912B0790912C0790
:10321000A0912D07B0912E070196A11DB11DC4CF1D
:1032200020E030E040E251E4C501B4010E94C9242D
:103230009B01AC01C701B6010E94DD25181654F4AC
:1032400061E086E20E94020460E087E20E940204DC
:1032500060E0E4CE60E086E20E94020461E087E282
:103260000E94020460E088E20E94020401E0DACEDB
:1032700020E030E040E251E4C501B4010E94C924DD
:103280009B01AC01C701B6010E94DD25181654F45C
:1032900061E08AE20E94020460E08BE20E94020484
:1032A00060E0E8CE60E08AE20E94020461E08BE226
:1032B0000E94020460E08CE20E940204002309F4F0
:1032C000DCCE3DA131112CC068E272E0CE01019646
:1032D0000E946D0B67E076E0CE010D960E946D0BAB
:1032E000BE01635F7F4FCE0107960E94530BBE0164
:1032F0006F5F7F4FCE0107960E94860ABC0187E36D
:1033000097E00E942A02CE0107960E947E0BCE0112
:103310000D960E947E0BCE0101960E947E0B0DA39E
:103320000E94CF0428A939A94AA95BA9621B730B83
:10333000840B950B0E9448236B017C0120E030E058
:103340004AEF53E40E94DD251816A4F53EA531117D
:1033500031C068E272E0CE0101960E946D0B6EE111
:1033600074E0CE010D960E946D0BBE01635F7F4F2E
:10337000CE0107960E94530B67E274E0CE010796D8
:103380000E94700ABE016F5F7F4F0E94860ABC01D7
:1033900087E397E00E942A02CE0107960E947E0BE7
:1033A000CE010D960E947E0BCE0101960E947E0BEF
:1033B00041E04EA720E030E84BEB55E4C701B601F1
:1033C0000E94DD251816A4F55AA5511131C068E2F6
:1033D00072E0CE0101960E946D0B6EE174E0CE01A9
:1033E0000D960E946D0BBE01635F7F4FCE01079665
:1033F0000E94530B6AE274E0CE0107960E94700AA5
:10340000BE016F5F7F4F0E94860ABC0187E397E091
:103410000E942A02CE0107960E947E0BCE010D96D5
:103420000E947E0BCE0101960E947E0B81E08AA74E
:1034300020E030E84BE356E4C701B6010E94DD25E9
:103440001816A4F59CA5911131C068E272E0CE0176
:1034500001960E946D0B6EE174E0CE010D960E9404
:103460006D0BBE01635F7F4FCE0107960E94530B29
:103470006DE274E0CE0107960E94700ABE016F5F94
:103480007F4F0E94860ABC0187E397E00E942A02D0
:10349000CE0107960E947E0BCE010D960E947E0BF8
:1034A000CE0101960E947E0BA1E0ACA720E030EA9D
:1034B0004CE856E4C701B6010E94DD251816A4F5B4
:1034C000BFA5B11131C068E272E0CE0101960E9441
:1034D0006D0B6EE174E0CE010D960E946D0BBE0186
:1034E000635F7F4FCE0107960E94530B60E374E049
:1034F000CE0107960E94700ABE016F5F7F4F0E9447
:10350000860ABC0187E397E00E942A02CE01079653
:103510000E947E0BCE010D960E947E0BCE0101967D
:103520000E947E0B21E02FA720E030E84BEB56E411
:10353000C701B6010E94DD251816A4F53BA531117F
:1035400031C068E272E0CE0101960E946D0B6EE11F
:1035500074E0CE010D960E946D0BBE01635F7F4F3C
:10356000CE0107960E94530B63E374E0CE010796E9
:103570000E94700ABE016F5F7F4F0E94860ABC01E5
:1035800087E397E00E942A02CE0107960E947E0BF5
:10359000CE010D960E947E0BCE0101960E947E0BFD
:1035A00041E04BA720E030E64AEE56E4C701B60101
:1035B0000E94DD251816A4F55DA5511131C068E201
:1035C00072E0CE0101960E946D0B6EE174E0CE01B7
:1035D0000D960E946D0BBE01635F7F4FCE01079673
:1035E0000E94530B66E374E0CE0107960E94700AB6
:1035F000BE016F5F7F4F0E94860ABC0187E397E0A0
:103600000E942A02CE0107960E947E0BCE010D96E3
:103610000E947E0BCE0101960E947E0B81E08DA759
:10362000A8EEB3E02A9EB0012B9E700D3A9E700D5D
:103630001124072E000C880B990B0E9448239B0134
:10364000AC0160E070E68AEE96E40E94C8249B011B
:10365000AC01C701B6010E94DD2518160CF047C069
:1036600068E272E0CE0101960E946D0BB101CE01BD
:1036700007960E94C40A69E374E0CE0143960E9453
:103680006D0BBE016D5E7F4FCE010D960E94530BF8
:1036900067E972E0CE010D960E94700ABE01695F73
:1036A0007F4F0E94860ABE016F5F7F4F0E94860A8D
:1036B000BC0187E397E00E942A02CE010D960E948A
:1036C0007E0BCE0143960E947E0BCE0107960E9490
:1036D0007E0BCE0101960E947E0BB4E12B163104C5
:1036E00019F49AE0292E312C21E0221A310820E029
:1036F00030E04AEF53E4C701B6010E94DD251816F9
:1037000024F461E082E00E94020420E030E84BEB08
:1037100055E4C701B6010E94DD25181624F461E0C6
:1037200083E00E94020420E030E84BE356E4C70146
:10373000B6010E94DD25181624F461E084E00E94A1
:10374000020420E030EA4CE856E4C701B6010E94CA
:10375000DD25181624F461E085E00E94020420E0D3
:1037600030E84BEB56E4C701B6010E94DD25181680
:1037700024F461E086E00E94020420E030E64AEE94
:1037800056E4C701B6010E94DD2518160CF061CB86
:103790000E94B3060E94A0060E949507809023070E
:1037A00090902407A0902507B0902607C0902F077F
:1037B000D0903007E0903107F090320720E030E001
:1037C00040E251E4C501B4010E94C824A70196015A
:1037D0000E94412387FF92CA20E030E040E251E49A
:1037E000C501B4010E94C9249B01AC01C701B60107
:1037F0000E94412387FF82CA80901F079090200774
:10380000A0902107B0902207C0902707D0902807EA
:10381000E0902907F0902A0720E030E040E251E4F0
:10382000C501B4010E94C824A70196010E9441234A
:1038300087FF64CA20E030E040E251E4C501B401F2
:103840000E94C9249B01AC01C701B6010E9441231B
:1038500087FF54CA68E272E0CE0101960E946D0BA8
:1038600063E474E0CE010D960E946D0BBE01635FB0
:103870007F4FCE0107960E94530BBE016F5F7F4FB3
:10388000CE0107960E94860ABC0187E397E00E945A
:103890002A02CE0107960E947E0BCE010D960E9451
:1038A0007E0BCE0101960E947E0B68E272E0CE0193
:1038B00001960E946D0BBE016F5F7F4F84ED97E014
:1038C0000E942A02CE0101960E947E0B68E272E0FD
:1038D000CE0107960E946D0BBE01695F7F4FCE013E
:1038E00001960E94530B6BE474E0CE0101960E9496
:1038F000700ABC0184ED97E00E942A02CE01019675
:103900000E947E0BCE0107960E947E0B68E272E059
:10391000CE0107960E946D0BBE01695F7F4FCE01FD
:1039200001960E94530B62E774E0CE0101960E945B
:10393000700ABC0184ED97E00E942A02CE01019634
:103940000E947E0BCE0107960E947E0B68E272E019
:10395000CE0107960E946D0BBE01695F7F4FCE01BD
:1039600001960E94530B6BE474E0CE0101960E9415
:10397000700ABC0184ED97E00E942A02CE010196F4
:103980000E947E0BCE0107960E947E0B80E00E9473
:103990003E0869E974E081E798E00E947C0881E0D4
:1039A0000E943E086AEA74E081E798E00E947C0881
:1039B00060913307709134078091350790913607F5
:1039C0000E94482320E030E040E85CE30E94A72307
:1039D00020E030E044EB53E40E94A72360932F07DC
:1039E00070933007809331079093320768E272E05A
:1039F000CE0101960E946D0BBE016F5F7F4F84ED7B
:103A000097E00E942A02CE0101960E947E0B68E296
:103A100072E0CE0107960E946D0BBE01695F7F4F79
:103A2000CE0101960E94530B68EF74E0CE0101961F
:103A30000E94700ABC0184ED97E00E942A02CE0128
:103A400001960E947E0BCE0107960E947E0B68E2D3
:103A500072E0CE0107960E946D0BBE01695F7F4F39
:103A6000CE0101960E94530B65E075E0CE010196F0
:103A70000E94700ABC0184ED97E00E942A02CE01E8
:103A800001960E947E0BCE0107960E947E0B68E293
:103A900072E0CE0107960E946D0BBE01695F7F4FF9
:103AA000CE0101960E94530B62E175E0CE010196B2
:103AB0000E94700ABC0184ED97E00E942A02CE01A8
:103AC00001960E947E0BCE0107960E947E0B4091CC
:103AD0002F07509130076091310770913207CE0166
:103AE00001960E941D0B68E272E0CE010D960E94C5
:103AF0006D0BBE01635F7F4FCE0107960E94530B93
:103B000061E275E0CE0107960E94700ABE016F5F08
:103B10007F4F0E94860A6DEB78E00E94860ABC0106
:103B200084ED97E00E942A02CE0107960E947E0B48
:103B3000CE010D960E947E0BCE0101960E947E0B57
:103B40004091230750912407609125077091260723
:103B5000CE0101960E941D0B68E272E0CE010D9627
:103B60000E946D0BBE01635F7F4FCE0107960E94DE
:103B7000530B62E375E0CE0107960E94700ABE0106
:103B80006F5F7F4F0E94860A6DEB78E00E94860A85
:103B9000BC0184ED97E00E942A02CE0107960E94A4
:103BA0007E0BCE010D960E947E0BCE0101960E94E7
:103BB0007E0B40E050E060E271E4CE0101960E948D
:103BC0001D0B68E272E0CE010D960E946D0BBE01E6
:103BD000635F7F4FCE0107960E94530B63E475E04D
:103BE000CE0107960E94700ABE016F5F7F4F0E9450
:103BF000860A6DEB78E00E94860ABC0184ED97E0AE
:103C00000E942A02CE0107960E947E0BCE010D96DD
:103C10000E947E0BCE0101960E947E0B60912B07C5
:103C200070912C0780912D0790912E070E944823B8
:103C300020E030E040E85CE30E94A72320E030E091
:103C400044EB52E40E94A723AB01BC014093270739
:103C5000509328076093290770932A07CE01019695
:103C60000E941D0B68E272E0CE010D960E946D0B62
:103C7000BE01635F7F4FCE0107960E94530B6EE536
:103C800075E0CE0107960E94700ABE016F5F7F4FFC
:103C90000E94860A6DEB78E00E94860ABC0184EDE2
:103CA00097E00E942A02CE0107960E947E0BCE0169
:103CB0000D960E947E0BCE0101960E947E0B4091D4
:103CC0001F07509120076091210770912207CE01B4
:103CD00001960E941D0B68E272E0CE010D960E94D3
:103CE0006D0BBE01635F7F4FCE0107960E94530BA1
:103CF00061E775E0CE0107960E94700ABE016F5F12
:103D00007F4F0E94860A6DEB78E00E94860ABC0114
:103D100084ED97E00E942A02CE0107960E947E0B56
:103D2000CE010D960E947E0BCE0101960E947E0B65
:103D300040E050E060E271E4CE0101960E941D0B6C
:103D400068E272E0CE010D960E946D0BBE01635FCA
:103D50007F4FCE0107960E94530B64E875E0CE01B9
:103D600007960E94700ABE016F5F7F4F0E94860A0D
:103D70006DEB78E00E94860ABC0184ED97E00E941A
:103D80002A02CE0107960E947E0BCE010D960E945C
:103D90007E0BCE0101960E947E0B68E272E0CE019E
:103DA00001960E946D0BBE016F5F7F4F84ED97E01F
:103DB0000E942A02CE0101960E947E0B6AE070E00A
:103DC000CE0101960E94C40A68E272E0CE010D960F
:103DD0000E946D0BBE01635F7F4FCE0107960E946C
:103DE000530B62E573E0CE0107960E94700ABE0194
:103DF0006F5F7F4F0E94860A69E873E00E94700A35
:103E0000BC0184ED97E00E942A02CE0107960E9431
:103E10007E0BCE010D960E947E0BCE0101960E9474
:103E20007E0B68E272E0CE0101960E946D0BBE012E
:103E30006F5F7F4F84ED97E00E942A02CE010196CA
:103E40000E947E0B60E177E280E090E00E94C6066F
:103E500068EE73E080E090E00E949D040C94901264
:103E6000B7FC02C00C942A1686E10E94D903892B64
:103E700009F447C06FEF7FEF83EA98E00E94FC05EA
:103E80002FEF821A920AA20AB20A80913307909108
:103E90003407A0913507B09136070197A109B10900
:103EA0008093330790933407A0933507B093360778
:103EB000F7FC02C00C94721688E10E94D903892B8A
:103EC00001F16FEF7FEF89E898E00E94FC054FEF6A
:103ED000C41AD40AE40AF40A80912B0790912C07A3
:103EE000A0912D07B0912E070197A109B1098093E8
:103EF0002B0790932C07A0932D07B0932E070C94BB
:103F000001146BE076E0CE0101960E946D0B40E05B
:103F100050E060EA71E4CE010D960E941D0B40E076
:103F200050E060EA71E4CE0143960E941D0B68E206
:103F300072E0CE014F960E946D0BBE01615E7F4F15
:103F4000CE0149960E94530B6CE176E0CE01499672
:103F50000E94700ABE016D5E7F4F0E94860A6DEB63
:103F600078E00E94860A61E476E00E94700ABE0151
:103F7000635F7F4F0E94860A6DEB78E00E94860A9D
:103F800064E476E00C9453178DEB98E00C947E0B70
:103F9000EF920F931F93CF93DF93E80134E047FD37
:103FA00034E1042E000C550B57FF03C05195419589
:103FB0005109E32E022F242FAE010E94E020CE01F2
:103FC000DF91CF911F910F91EF9008958F929F9263
:103FD000AF92BF92CF92DF92EF92FF92CF93DF9397
:103FE000EC01688179818A819B8161157105810568
:103FF000910521F464E279ED8BE597E02DE133EF53
:1040000041E050E00E94652449015A019B01AC0146
:10401000A7EAB1E40E9484246B017C01ACEEB4EF0A
:10402000A50194010E949224C60ED71EE81EF91E17
:10403000F7FE06C081E0C81AD108E10880E8F80A56
:10404000C882D982EA82FB82C701B6019F77DF91DD
:10405000CF91FF90EF90DF90CF90BF90AF909F9067
:104060008F9008958F929F92AF92BF92CF92DF92DE
:10407000EF92FF9260910002709101028091020222
:1040800090910302611571058105910521F464E2A7
:1040900079ED8BE597E02DE133EF41E050E00E94B0
:1040A000652449015A019B01AC01A7EAB1E40E94D1
:1040B00084246B017C01ACEEB4EFA50194010E9455
:1040C0009224C60ED71EE81EF91EF7FE06C081E038
:1040D000C81AD108E10880E8F80AC0920002D0921C
:1040E0000102E0920202F0920302C701B6019F773B
:1040F000FF90EF90DF90CF90BF90AF909F908F9008
:1041000008956093000270930102809302029093DD
:1041100003020895BB274A3031F4992322F4BDE20B
:10412000909581959F4F0C94C720BB272A3051F45E
:10413000992342F4BDE290958095709561957F4FEB
:104140008F4F9F4F0C94A520BB27FA01A62F621713
:10415000710581059105330B30FB66F0AA27660FC8
:10416000771F881F991FAA1FA21710F0A21B639523
:104170003850A9F7A05DAA3308F0A95DA19336F7DE
:10418000B111B1931082CA010C943123BB27FB01FA
:104190005527AA27880F991FAA1FA41710F0A41B40
:1041A00083955051B9F7A05DAA3308F0A95DA1939A
:1041B000009779F7B111B1931192CB010C9431238F
:1041C0008F929F92AF92BF92CF92DF92EF92FF9227
:1041D0000F931F93CF93DF9300D000D000D0CDB7C3
:1041E000DEB76A01F22EB02E102FFBE3AF2EA01621
:1041F00008F41BE31F5F012F27E0AE014F5F5F4F05
:104200000E945922BC018981982F9970913009F43C
:104210004EC09BE2E1FC04C09E2D9170E0FC49C0C1
:104220005E2D5071E82FE87083FF55C084E0911136
:1042300001C083E0EF2DE81B8F1508F0E0E0D60108
:104240008E2F20E25523C9F1992329F0D6019C93A2
:10425000C60101966C0196012D5F3F4FE2FE33C00F
:104260008EE4D6018C9391E411969C93119712964B
:104270008C93D9018E2F90E281112AC0E20FF32F87
:10428000F11D10828EEF9FEF29960FB6F894DEBFD6
:104290000FBECDBFDF91CF911F910F91FF90EF9097
:1042A000DF90CF90BF90AF909F908F9008959DE248
:1042B000B7CF90E2B5CF2D9381508111FCCFCE0EB8
:1042C000D11CE0E0C1CF8EE6D6018C9391E6CCCF35
:1042D0009D938150D1CF482F447082FF3DC084E030
:1042E000911101C083E08F1510F4EF2DE81BD6016A
:1042F0008E2F20E2552309F1992329F0D6019C93B2
:10430000C60101966C0196012D5F3F4FE2FE1BC076
:1043100089E4D6018C938EE411968C93119786E4F0
:1043200012968C93D9018E2F90E2882309F4A6CFA0
:104330009D938150FACF2D9381508111FCCFCE0EE9
:10434000D11CE0E0D9CF89E6D6018C938EE6119698
:104350008C93119786E6E4CF9B0177FF02C030E093
:1043600020E0A1E0B0E0911102C0B0E0A0E0F901CE
:104370003196AE0FBF1F8B2C912CBB2009F461C06E
:104380005401EFEFAE1ABE0AAA0DBB1DFA161B06AA
:1043900019F014F04F2D4A1B511188C0E3FC59C08D
:1043A0007601A42FB0E2A1114FC0C40ED11C9923F5
:1043B00009F45BC040E0D6011196F60190836D01CF
:1043C000552309F448C0012F060F9A81582F5071C8
:1043D00084FF03C0913309F4015010160CF047C05C
:1043E000093008F008E0EEE2FE2E5B01A01AB108E9
:1043F00085019194819491082F3F320729F4D601C9
:10440000FC92F60131966F016217730794F102175F
:1044100013077CF5DB01A21BB30BAA24A394B12CD8
:10442000AC0EBD1EAA0DBB1D11968C9121503109F9
:10443000D601119628153905F4F0F60180836D0137
:10444000DBCFB12CA12CA0CFF701B1937F01A150FC
:10445000AACF9111B0CFD601942F50E302C05D9343
:1044600091509111FCCFC40ED11C40E0ACCF01E0C3
:10447000BACF80E3DBCF6217730731F4963388F449
:10448000953311F4552369F0F6018083FD01842FE3
:1044900090E2811108C0A40FB11D1C9290E080E051
:1044A000F3CE81E3F1CF91938150F3CF911183CF7C
:1044B0008ACF283008F027E03327DA01990F311D21
:1044C00087FD916000966105710539F432602E5FB9
:1044D0003D9330E32A95E1F708959F3F30F080380F
:1044E0007105610509F03C5F3C5F3D93913008F038
:1044F0008068911DDF93CF931F930F93FF92EF92EC
:10450000192F987F9695E92F96959695E90FFF2795
:10451000E652FE4F99273327EE24FF24A701E70137
:1045200005900894079428F4360FE71EF81E491FDB
:10453000511D660F771F881F991F0694A1F70590DC
:10454000079428F4E70EF81E491F561FC11D770F68
:10455000881F991F661F0694A1F70590079428F4F9
:10456000F80E491F561FC71FD11D880F991F661FC0
:10457000771F0694A1F70590079420F4490F561F62
:10458000C71FD81F990F661F771F881F0694A9F7AA
:1045900084911095177041F0D695C795579547951A
:1045A000F794E7941A95C1F7E0E8F1E06894159064
:1045B000159135916591959105907FE27395E1187C
:1045C000F10A430B560BC90BD009C0F7E10CF11EE1
:1045D000431F561FC91FD01D7EF4703311F48A95F6
:1045E000E6CFE894015030F0080F0AF400270217D4
:1045F00008F4202F2395022F7A3328F079E37D9356
:104600002A95E9F710C07D932A9589F60694979527
:104610006795379517951794E118F10A430B560BD8
:10462000C90BD00998F023957E9173957A3308F0E1
:1046300070E37C932013B8F77E9170617D9330F026
:10464000839571E37D9370E32A95E1F71124EF9050
:10465000FF900F911F91CF91DF91992787FD909542
:104660000895DC01FC01672F71917723E1F7329700
:1046700004C07C916D9370836291AE17BF07C8F33D
:1046800008950E94832308F481E00895E89409C006
:1046900097FB3EF490958095709561957F4F8F4F75
:1046A0009F4F9923A9F0F92F96E9BB279395F6958B
:1046B000879577956795B795F111F8CFFAF4BB0F09
:1046C00011F460FF1BC06F5F7F4F8F4F9F4F16C06D
:1046D000882311F096E911C0772321F09EE8872FF7
:1046E000762F05C0662371F096E8862F70E060E0B3
:1046F0002AF09A95660F771F881FDAF7880F96952C
:10470000879597F90895990F0008550FAA0BE0E8CF
:10471000FEEF16161706E807F907C0F01216130683
:10472000E407F50798F0621B730B840B950B39F4C3
:104730000A2661F0232B242B252B21F408950A2629
:1047400009F4A140A6958FEF811D811D08950E9457
:10475000BA230C942B240E941D2438F00E94242498
:1047600020F0952311F00C9414240C941A24112495
:104770000C945F240E943C2470F3959FC1F3950F25
:1047800050E0551F629FF001729FBB27F00DB11DD5
:10479000639FAA27F00DB11DAA1F649F6627B00D65
:1047A000A11D661F829F2227B00DA11D621F739F4E
:1047B000B00DA11D621F839FA00D611D221F749F5C
:1047C0003327A00D611D231F849F600D211D822FA3
:1047D000762F6A2F11249F5750409AF0F1F08823CA
:1047E0004AF0EE0FFF1FBB1F661F771F881F9150F7
:1047F0005040A9F79E3F510580F00C9414240C946E
:104800005F245F3FE4F3983ED4F3869577956795F0
:10481000B795F795E7959F5FC1F7FE2B880F911D20
:104820009695879597F9089597F99F6780E870E0C6
:1048300060E008959FEF80EC089500240A94161616
:10484000170618060906089500240A94121613067E
:10485000140605060895092E0394000C11F488230C
:1048600052F0BB0F40F4BF2B11F460FF04C06F5F28
:104870007F4F8F4F9F4F089557FD9058440F551FFE
:1048800059F05F3F71F04795880F97FB991F61F0D2
:104890009F3F79F087950895121613061406551F49
:1048A000F2CF4695F1DF08C0161617061806991FB5
:1048B000F1CF86957105610508940895E894BB27AA
:1048C00066277727CB0197F90895052E97FB1EF4ED
:1048D00000940E947C2457FD07D00E94972407FC77
:1048E00003D04EF40C947C2450954095309521953E
:1048F0003F4F4F4F5F4F089590958095709561950C
:104900007F4F8F4F9F4F08950E94B924A59F900D10
:10491000B49F900DA49F800D911D11240895B7FFA1
:104920000C9484240E948424821B930B0895A1E29A
:104930001A2EAA1BBB1BFD010DC0AA1FBB1FEE1F19
:10494000FF1FA217B307E407F50720F0A21BB30B64
:10495000E40BF50B661F771F881F991F1A9469F7E0
:1049600060957095809590959B01AC01BD01CF013C
:104970000895A29FB001B39FC001A39F700D811D38
:104980001124911DB29F700D811D1124911D089558
:104990005058BB27AA270E94E0240C942B240E9485
:1049A0001D2438F00E94242420F039F49F3F19F48C
:1049B00026F40C941A240EF4E095E7FB0C941424CE
:1049C000E92F0E943C2458F3BA1762077307840743
:1049D000950720F079F4A6F50C945E240EF4E0958A
:1049E0000B2EBA2FA02D0B01B90190010C01CA01A9
:1049F000A0011124FF27591B99F0593F50F4503E54
:104A000068F11A16F040A22F232F342F4427585F45
:104A1000F3CF469537952795A795F0405395C9F75D
:104A20007EF41F16BA0B620B730B840BBAF0915015
:104A3000A1F0FF0FBB1F661F771F881FC2F70EC0B4
:104A4000BA0F621F731F841F48F487957795679587
:104A5000B795F7959E3F08F0B0CF9395880F08F073
:104A60009927EE0F9795879508950E9449250C94F4
:104A70002B240E94242458F00E941D2440F029F485
:104A80005F3F29F00C94142451110C945F240C9472
:104A90001A240E943C2468F39923B1F3552391F31F
:104AA000951B550BBB27AA2762177307840738F09D
:104AB0009F5F5F4F220F331F441FAA1FA9F335D0FA
:104AC0000E2E3AF0E0E832D091505040E695001CAE
:104AD000CAF72BD0FE2F29D0660F771F881FBB1F68
:104AE000261737074807AB07B0E809F0BB0B802D46
:104AF000BF01FF2793585F4F3AF09E3F510578F072
:104B00000C9414240C945F245F3FE4F3983ED4F398
:104B1000869577956795B795F7959F5FC9F7880F45
:104B2000911D9695879597F90895E1E0660F771F97
:104B3000881FBB1F621773078407BA0720F0621B28
:104B4000730B840BBA0BEE1F88F7E09508950E9453
:104B5000AE256894B1110C945F2408950E944424FA
:104B600088F09F5798F0B92F9927B751B0F0E1F02E
:104B7000660F771F881F991F1AF0BA95C9F714C0DE
:104B8000B13091F00E945E24B1E008950C945E244F
:104B9000672F782F8827B85F39F0B93FCCF3869517
:104BA00077956795B395D9F73EF490958095709574
:104BB00061957F4F8F4F9F4F08950E94832308F484
:104BC0008FEF089597FB072E16F4009407D077FD1A
:104BD00009D00E94FE2507FC05D03EF490958195F2
:104BE0009F4F0895709561957F4F0895EE0FFF1FB9
:104BF000881F8BBF0790F691E02D1994AA1BBB1B51
:104C000051E107C0AA1FBB1FA617B70710F0A61BCC
:104C1000B70B881F991F5A95A9F780959095BC01ED
:104C2000CD0108950F931F93CF93DF9382309105A9
:104C300010F482E090E0E091C508F091C60830E001
:104C400020E0B0E0A0E0309799F42115310509F497
:104C50004AC0281B390B24303105D8F58A819B8145
:104C60006115710589F1FB0193838283FE0111C0F7
:104C7000408151810281138148175907E0F048179C
:104C8000590799F4109761F012960C9312971396A6
:104C90001C933296CF01DF91CF911F910F91089510
:104CA0000093C5081093C608F4CF2115310551F0C3
:104CB0004217530738F0A901DB019A01BD01DF015A
:104CC000F801C1CFEF01F9CF9093C6088093C508D2
:104CD000CDCFFE01E20FF31F819391932250310952
:104CE00039832883D7CF2091C3083091C408232B60
:104CF00041F420910602309107023093C4082093BA
:104D0000C30820910402309105022115310541F4B8
:104D10002DB73EB74091080250910902241B350B74
:104D2000E091C308F091C408E217F307A0F42E1B2A
:104D30003F0B2817390778F0AC014E5F5F4F2417FF
:104D4000350748F04E0F5F1F5093C4084093C308C7
:104D5000819391939FCFF0E0E0E09CCFCF93DF93DE
:104D60000097E9F0FC01329713821282A091C508E6
:104D7000B091C608ED0130E020E01097A1F4208149
:104D80003181820F931F2091C3083091C4082817E6
:104D9000390709F061C0F093C408E093C308DF91BC
:104DA000CF910895EA01CE17DF07E8F54A815B81CC
:104DB0009E0141155105B1F7E901FB83EA83499151
:104DC0005991C40FD51FEC17FD0761F480819181C3
:104DD0000296840F951FE9019983888382819381CC
:104DE0009B838A83F0E0E0E012968D919C9113976B
:104DF0000097B9F52D913C911197CD010296820F44
:104E0000931F2091C3083091C4082817390739F639
:104E1000309751F51092C6081092C508B093C40897
:104E2000A093C308BCCFD383C28340815181840F38
:104E3000951FC817D90761F44E5F5F4F888199812C
:104E4000480F591F518340838A819B8193838283BA
:104E50002115310509F0B0CFF093C608E093C508DD
:104E60009ECFFD01DC01C0CF13821282D7CF4F92BB
:104E70005F926F927F928F929F92AF92BF92CF92EA
:104E8000DF92EF92FF920F931F93CF93DF938C01EA
:104E9000009799F4CB01DF91CF911F910F91FF9073
:104EA000EF90DF90CF90BF90AF909F908F907F90CA
:104EB0006F905F904F900C941226FC01E60FF71F45
:104EC0009C0122503109E217F30708F4AEC0D90162
:104ED000CD91DC911197C617D70720F1C530D105C8
:104EE00078F0CE0104978617970750F0C61BD70BB2
:104EF0002297C193D1936D937C93CF010E94AE26EC
:104F0000C801DF91CF911F910F91FF90EF90DF903B
:104F1000CF90BF90AF909F908F907F906F905F9059
:104F20004F9008955B01AC1ABD0A4C018C0E9D1E7A
:104F3000A091C508B091C608512C412CF12CE12C50
:104F4000109731F58091C3089091C4088815990590
:104F500009F05CC04616570608F058C0809104025C
:104F600090910502009741F48DB79EB740910802D9
:104F700050910902841B950BE817F90708F055C0FA
:104F8000F093C408E093C308F90171836083B8CF3C
:104F90008D919C91119712966C90129713967C901C
:104FA0001397A815B90559F56C0142E0C40ED11C40
:104FB000CA14DB0420F1AC014A195B09DA0112962C
:104FC000159780F06282738251834083D9016D937B
:104FD0007C93E114F10471F0D7011396FC93EE93E6
:104FE00012978ECF22968C0F9D1FF901918380839B
:104FF000F301EFCFF093C608E093C50881CF4816C0
:10500000590608F42C017D01D3019ACFCB010E94EF
:1050100012267C01009749F0AE01B8010E942028B9
:10502000C8010E94AE2687016BCF10E000E068CF78
:105030009111089581548A5108F4805E855A08952B
:10504000FB01DC0102C001900D9241505040D8F7A5
:1050500008956817790768F4FB01DC01E40FF51F78
:10506000A40FB51F02C002900E9241505040D8F7D5
:1050700008950C942028FB01DC0101900D92002082
:10508000E1F70895FB0151915523A9F0BF01DC011F
:105090004D9145174111E1F759F4CD0101900020E0
:1050A00049F04D9140154111C9F3FB014111EFCF7A
:1050B00081E090E00197089511E0CEECD1E000E0AE
:1050C00006C0802FFE010E94F6252196011DCF3CCF
:0C50D000D10780E00807A9F7F894FFCF93
:1050DC00010000000000C708800000000000D8029A
:1050EC003802650225039602740288020000000053
:1050FC004C083802050529020D0A005265736574C7
:10510C0074696E67207468652041726475696E6F8E
:10511C002076696120736F6674776172652E00501A
:10512C007265737320746865207265736574206290
:10513C007574746F6E20746F207265626F6F742E4D
:10514C00004552524F520050524F4752414D20533E
:10515C00544F505045442100505245535320524512
:10516C005345542120202020000D00524553455416
:10517C0000424F4F54002A2A2A2057656C636F6DEA
:10518C006520746F20746865204D41474943204762
:10519C00616D653A204361746368207468652047CB
:1051AC00616D6D6121202A2A2A004669726D776132
:1051BC00726520696E666F3A002D204E616D653AFE
:1051CC0020004D6167696347616D65002D20566550
:1051DC00722E3A2000302E302E3234002D204461B5
:1051EC0074653A20003037204A756E2032303233E5
:1051FC00002D204D6F64653A200053696D756C610C
:10520C0074696F6E004D414749432047616D653AA3
:10521C00004361746368207468652047616D6D613B
:10522C002100506C65617365207072657373207416
:10523C00686520737461727420627574746F6E206B
:10524C00746F20636F6E74696E7565202874696D58
:10525C00656F757420696E2000207365636F6E64D2
:10526C0073292E00494E4954004D6F76696E6720A4
:10527C0074656C6573636F706520746F20706F73E9
:10528C006974696F6E3A20417A696D7574683A2059
:10529C00002C20656C65766174696F6E3A20004D48
:1052AC006F76652074656C6573636F70653A20006A
:1052BC00417A3A2000202C20656C3A2000202020D6
:1052CC00204D6F746F7220737465707320746F202F
:1052DC0072656163682074686520706F73697469A6
:1052EC006F6E3A20417A696D7574683A200050529D
:1052FC004F475245535300203100203200203300D9
:10530C00203400203500203600434F554E54444F76
:10531C00574E0053554343455353002A2A2A2A2AF1
:10532C002A2A2A2A2A2A2A2A2A2A2A2A2A2A2A2AD1
:10533C002A2A2A2A2A2A2A2A2A2A2A2A2A2A2A2AC1
:10534C002A00436F6E67726174756C6174696F6E5D
:10535C00732120596F7520636175676874207468B8
:10536C00652067616D6D612100436F6E67726174BA
:10537C00756C6174696F6E73210047616D6D61208E
:10538C0063617567687421203A29004641494C5580
:10539C00524500536F7272792C20596F75206D69CC
:1053AC0073736564207468652067616D6D6121009D
:1053BC00536F7272792E203A280047616D6D61200F
:1053CC006D69737365642E0047616D652044657467
:1053DC0061696C73003D3D3D3D3D3D3D3D3D3D3D79
:1053EC003D0052616E646F6D207461726765742E3E
:1053FC000041637475616C20617A696D7574683AEB
:10540C00200054617267657420617A696D757468E7
:10541C003A2000546F6C6572616E636520666F7222
:10542C0020617A696D7574683A202B2F2D004163C9
:10543C007475616C20656C65766174696F6E3A2069
:10544C000054617267657420656C65766174696F70
:10545C006E3A2000546F6C6572616E636520666FE6
:10546C007220656C65766174696F6E3A202B2F2DF6
:10547C00004552524F523A204C696D697420737733
:10548C002E004552524F523A204C696D697420736C
:10549C00776974636820686974207768696C652023
:1054AC006D6F76696E67207468652074656C6573C2
:1054BC00636F706520647572696E6720746865200F
:1054CC0067616D65212050726F6772616D20737416
:1054DC006F7070656421004F0058004552524F5256
:1054EC003A204D6F76652074656C2E004552524FF4
:1054FC00523A204D6F76696E672074656C657363E4
:10550C006F706520746F20706F736974696F6E2093
:10551C00002C2000206661696C6564206265636103
:10552C007573652061206C696D697420737769747B
:10553C0063682077617320686974212050726F67EB
:10554C0072616D2073746F7070656421004D4147FA
:10555C0049432047616D653A205075736820746823
:10556C006520737461727420627574746F6E20742C
:10557C006F2073746172742061206E65772067618F
:10558C006D652E002D3D204D414749432047616DEF
:10559C0065203D2D002A2050757368206275747447
:1055AC006F6E21202A0049444C45005354415254FB
:1055BC0000544152474554004E65772067616D6D2C
:1055CC006120706F736974696F6E3A20417A696DEE
:1055DC007574683A200047616D6D6120706F736956
:0655EC0074696F6E3A00C5
:00000001FF
