:100000000C94CF010C9400020C9400020C9400029A
:100010000C9400020C9400020C9400020C94000258
:100020000C9400020C9400020C9400020C94000248
:100030000C9400020C9400020C9400020C94000238
:100040000C9400020C9400020C9400020C94000228
:100050000C9400020C9400020C9400020C94040E08
:100060000C9400020C94CE0D0C94A40D0C94000280
:100070000C9400020C9400020C9400020C940002F8
:100080000C9400020C9400020C9400020C940002E8
:100090000C946E0D0C94440D0C9400020C94000210
:1000A0000C9400020C9400020C9400020C940002C8
:1000B0000C9400020C9400020C9400020C940002B8
:1000C0000C9400020C9400020C9400020C940002A8
:1000D0000C9400020C9400020C9400020C94000298
:1000E0000C9400020C94F5050C94D8020C949A031D
:1000F0000C94A5030C948D050C9490030C94EF05BF
:100100000C94A5050C94BD030C94D7050C943802EF
:100110000C94D1030C944C080C94B7050C94250353
:100120000C9496030C9465020C949E030C94A20309
:100130000C9496020C94C3030C94B5030C942902FE
:100140000C9488020C94C7030C944E0E0C94401F20
:100150000C94D5030C94E1050C9405050C94CB0389
:100160000C94CF050C94B9030C94D0030C94AF03FA
:100170000C9497050C94D1050C94AB030C94740269
:1001800000407A10F35A00A0724E18090010A5D44E
:10019000E80000E87648170000E40B54020000CAAB
:1001A0009A3B000000E1F5050000809698000000F1
:1001B00040420F000000A086010000001027000050
:1001C0000000E803000000006400000000000A00D6
:1001D000000000000100000000002C76D888DC67D9
:1001E0004F0823DFC1DFAE59E1B1B796E5E3E45331
:1001F000C63AE651997696E8E6C28426EB898C9B4E
:1002000062ED407C6FFCEFBC9C9F40F2BAA56FA5ED
:10021000F490055A2AF75C936B6CF9676DC11BFC6F
:10022000E0E40D47FEF520E6B500D0ED902E03008A
:10023000943577050080841E080000204E0A0000D7
:1002400000C80C333333330F986E12831141EF8D96
:100250002114893BE65516CFFEE6DB18D1844B38D6
:100260001BF77C1D901DA4BBE424203284725E2207
:100270008100C9F124ECA1E53D2700002100240004
:1002800027002A002D003000330001010000040186
:1002900007010A0100002200250028002B002E0083
:1002A0003100340002010000050108010B010000CB
:1002B00020002300260029002C002F00320000011E
:1002C00000000301060109010505050507050808E9
:1002D0000808020202020A0A0808040404040101D0
:1002E00001010101010103030303030303030407E5
:1002F00007070C0C0C0C0C0C0C0C0202020206067C
:100300000606060606060B0B0B0B0B0B0B0B01026E
:100310001020200808102040102040800201020117
:1003200008040201010204081020408080402010CF
:100330000804020180040201804020100804020128
:100340000804020101020408102040800102040890
:100350001020408000000A0B02090C0D0E08070354
:100360000401000000000000000000000000000088
:10037000000000000000000000000000000000007D
:10038000121110000000000000000000000000003A
:10039000000000000000000000004E0E401F11246D
:1003A0001FBECFEFD1E2DEBFCDBF00E00CBF17E034
:1003B000A0E0B2E0E4EDFFE400E00BBF02C0079074
:1003C0000D92A230B107D9F728E0A2E0B7E001C052
:1003D0001D92A33BB207E1F711E0CEECD1E000E0C3
:1003E00006C021970109802FFE010E947225CD3C95
:1003F000D10780E00807A9F70E94350F0C94D82791
:100400000C940000FC01A089B18982E08C93A48542
:10041000B5851C92A685B7858FEC8C93108EA48928
:10042000B58986E08C93A289B3898C9180618C9385
:10043000A289B3898C9188608C93A289B3898C91AD
:1004400080688C930288F389E02D80818F7D808382
:1004500008950895DB0114964D915C9115976D9167
:100460007C91DC01ED91FC910280F381E02D1994E7
:10047000AF92BF92CF92DF92EF92FF920F931F93B2
:10048000CF93DF936C017B018B01040F151FEB01F0
:100490005E01AE18BF08C017D10759F06991D601A7
:1004A000ED91FC910190F081E02DC6011995892B09
:1004B00079F7C501DF91CF911F910F91FF90EF90D8
:1004C000DF90CF90BF90AF900895FC01538D448D85
:1004D000252F30E0842F90E0821B930B541710F0EF
:1004E000CF96089501970895FC01918D828D9817FC
:1004F00061F0A28DAE0FBF2FB11D5D968C91928DD4
:100500009F5F9F73928F90E008958FEF9FEF089504
:10051000FC01918D828D981731F0828DE80FF11DCD
:10052000858D90E008958FEF9FEF0895FC01918DE8
:10053000228D892F90E0805C9F4F821B91098F73E1
:100540009927089583E297E00E94960221E0892B83
:1005500009F420E0822F089580EC97E00E94960233
:1005600021E0892B09F420E0822F0895FC01A48D5D
:10057000A80FB92FB11DA35ABF4F2C91848D90E0C5
:1005800001968F739927848FA689B7892C93A089A8
:10059000B1898C91837080648C93938D848D981332
:1005A00006C00288F389E02D80818F7D80830895C5
:1005B000EF92FF920F931F93CF93DF93EC0181E0B3
:1005C000888F9B8D8C8D98131AC0E889F98980815A
:1005D00085FF15C09FB7F894EE89FF896083E8898D
:1005E000F98980818370806480839FBF81E090E07F
:1005F000DF91CF911F910F91FF90EF900895F62E0C
:100600000B8D10E00F5F1F4F0F731127E02E8C8DA5
:100610008E110CC00FB607FCFACFE889F9898081EA
:1006200085FFF5CFCE010E94B602F1CFEB8DEC0F26
:10063000FD2FF11DE35AFF4FF0829FB7F8940B8F07
:10064000EA89FB8980818062CFCFCF93DF93EC0171
:10065000888D8823B9F0AA89BB89E889F9898C91AA
:1006600085FD03C0808186FD0DC00FB607FCF7CF66
:100670008C9185FFF2CF808185FFEDCFCE010E9466
:10068000B602E9CFDF91CF91089580E090E0892B09
:1006900029F00E94AC0281110E94000080E090E0ED
:1006A000892B29F00E94A20281110E94000080E0A3
:1006B00090E0892B49F080E090E0892B29F00E949E
:1006C000000081110E94000080E090E0892B49F039
:1006D00080E090E0892B29F00E94000081110C94A9
:1006E000000008958150823108F05AC0E82FF0E0F0
:1006F0008827E258FC4F8F4F0C9472259E03A2036B
:10070000900396039A03D003A503AB03AF03B5038D
:10071000B903BD03C303C703D003CB03D103D50380
:10072000809180008F778093800008958091800071
:100730008F7DF9CF80918000877FF5CF84B58F774B
:1007400084BD089584B58F7DFBCF8091B0008F77F5
:100750008093B00008958091B0008F7DF9CF809193
:1007600090008F77809390000895809190008F7D06
:10077000F9CF80919000877FF5CF8091A0008F778F
:100780008093A00008958091A0008F7DF9CF809183
:10079000A000877FF5CF809120018F778093200183
:1007A0000895809120018F7DF9CF80912001877F6E
:1007B000F5CFCF93DF93282F30E0F901EC5AFC4FAF
:1007C0008491F901E25FFC4FD491F901E853FD4FA8
:1007D000C491CC23A1F081110E947203EC2FF0E0B0
:1007E000EE0FFF1FE255FD4FA591B491EC91ED2363
:1007F00081E090E009F480E0DF91CF91089580E0FE
:1008000090E0FACF1F93CF93DF93282F30E0F901C8
:10081000EC5AFC4F8491F901E25FFC4FD491F9014D
:10082000E853FD4FC491CC23A9F0162F81110E94EB
:100830007203EC2FF0E0EE0FFF1FEC56FD4FA59179
:10084000B4918FB7F894EC91111108C0D095DE23C4
:10085000DC938FBFDF91CF911F910895DE2BF8CFEE
:10086000CF93DF9390E0FC01E25FFC4F249188532B
:100870009D4FFC0184918823D1F090E0880F991F4F
:10088000FC01E658FD4FA591B491FC01EC56FD4FDB
:10089000C591D491623071F49FB7F8943C91822F46
:1008A000809583238C93E8812E2B28839FBFDF9133
:1008B000CF9108958FB7F894EC912E2B2C938FBF86
:1008C000F6CF90917B00977F90937B008653806456
:1008D00080937C0080917A00806480937A0080917C
:1008E0007A0086FDFCCF8091780090917900089580
:1008F0003FB7F8948091070790910807A0910907E6
:10090000B0910A0726B5A89B05C02F3F19F00196A4
:10091000A11DB11D3FBFBA2FA92F982F8827BC0159
:10092000CD01620F711D811D911D42E0660F771F81
:10093000881F991F4A95D1F708958F929F92AF9281
:10094000BF92CF92DF92EF92FF924B015C010E9427
:1009500078046B017C010E9478046C197D098E0972
:100960009F09683E734081059105A8F321E0821A32
:100970009108A108B10888EEC80E83E0D81EE11CDA
:10098000F11C81149104A104B10429F7FF90EF90A8
:10099000DF90CF90BF90AF909F908F9008952FB72A
:1009A000F894609103077091040780910507909176
:1009B00006072FBF08950F931F93CF93DF93EC018A
:1009C0000E94CF04688779878A879B87CE010E941F
:1009D000740297FF15C00E94CF04088519852A85E7
:1009E0003B85601B710B820B930B0C811D812E814B
:1009F0003F81601771078207930740F38FEF9FEFE6
:100A0000DF91CF911F910F91089590E080E00895BC
:100A10000F931F93CF93DF93EC018B01888599850A
:100A2000029751F46130710509F43AC06CF560E049
:100A30000115110509F435C088859985049751F48D
:100A40000130110509F455C00CF035C00115110530
:100A500009F43EC088859985059709F0C8C00A3019
:100A6000110508F0C4C0F8018827E65CFA4F8F4FE3
:100A70000C9472258D059705A505B705CF05D10501
:100A8000D705E105EF05F5056230710591F060E0ED
:100A90000330110589F68C850E94020460E005C0D0
:100AA00061E08C850E94020461E08E850E94020450
:100AB000C3CF61E0F0CF0230110509F10330110519
:100AC00009F0C8CF61E08C850E94020460E01CC080
:100AD00061E08C850E94020460E08E850E94020421
:100AE00061E088890E94020460E08A890E94020411
:100AF000B1CF60E08C850E94020461E0EECF60E03F
:100B00008C850E94020461E08E850E94020460E0F0
:100B100088890E94020461E0E8CF60E08C850E9431
:100B2000020461E08E850E94020461E009C060E079
:100B30008C850E94020461E08E850E94020460E0C0
:100B400088890E94020460E00DC060E08C850E94EC
:100B5000020461E08E850E94020460E088890E94A0
:100B6000020461E08A890E94020461E011C060E031
:100B70008C850E94020461E08E850E94020460E080
:100B800088890E94020461E08A890E94020460E070
:100B90008C89DF91CF911F910F910C94020461E039
:100BA000E7CF61E08C850E94020460E0E5CF61E060
:100BB0008C850E94020460E08E850E94020461E040
:100BC000DFCF61E08C850E94020460E08E850E9488
:100BD000020461E088890E94020460E0D5CF61E0F0
:100BE0008C850E94020460E09DCF60E0F9CFDF9128
:100BF000CF911F910F910895CF92DF92EF92FF92C4
:100C00000F931F93CF93DF93EC016130710509F0CF
:100C100045C0798368830E9478040E891F89288DD6
:100C2000398D6B017C01C01AD10AE20AF30A0A81EC
:100C30001B812C813D81C016D106E206F30658F3D4
:100C40006E8B7F8B888F998F8A859B8528813981D0
:100C50002130310549F501969B878A872E813F8196
:100C60008217930711F41B861A868A859B8528852F
:100C700039856AE070E02530310511F064E070E0FC
:100C80000E945E25BC01CE01DF91CF911F910F9193
:100C9000FF90EF90DF90CF900C9408056F3F7F4F4F
:100CA00079F419821882B7CF892B21F48E819F8124
:100CB0009B878A878A859B8501979B878A87D5CF63
:100CC000DF91CF911F910F91FF90EF90DF90CF9028
:100CD0000895883C9105C4F08C3221E09207CCF055
:100CE000803921E09207D4F0803722E09207D4F0D7
:100CF000843D22E09207D4F088339340E4F064E02E
:100D000070E080E090E008956CEF7FEF8FEF9FEF51
:100D100008956EEF7FEF8FEF9FEF08956FEF7FEFF6
:100D2000CB01089560E070E0CB01089561E070E0D0
:100D300080E090E0089562E070E080E090E0089547
:100D400060E082E20E94020460E084E20E94020409
:100D500060E083E20E94020460E085E20E940204F7
:100D600090E080E0089560E08EE10E94020460E07F
:100D700080E20E94020460E08FE10E94020460E0D1
:100D800081E20E94020490E080E008958F929F9299
:100D9000AF92BF92CF92DF92EF92FF926B017C01F4
:100DA0000E94CF044B015C018AE10E94D903892B88
:100DB000A9F088E30E94D903892B81F0C114D104E2
:100DC000E104F10489F30E94CF04681979098A09C2
:100DD0009B09C616D706E806F90634F790E080E0CE
:100DE000FF90EF90DF90CF90BF90AF909F908F904B
:100DF0000895CF93DF93EC0160E08E810E9402049E
:100E000061E08E810E94020460E08E810E940204F3
:100E10008BE891E00197F1F7DF91CF910895CF92A0
:100E2000DF92EF92FF920F931F93CF93DF936C01AA
:100E30007C0187E0E80EF11CD0E0C0E0062F10E056
:100E4000B8010C2E02C0759567950A94E2F761709F
:100E5000F70181917F010E9402042196C430D105DF
:100E600079F7C601DF91CF911F910F91FF90EF901D
:100E7000DF90CF900C94F906CF92DF92EF92FF9221
:100E80000F931F93CF93DF93EC01F62E642F8C8189
:100E90000E9402048D818F3F19F060E00E940204DD
:100EA0000F2D10E08F8584FF25C06E0187E0C80EEE
:100EB000D11CF12CE12CB8010E2C02C07595679560
:100EC0000A94E2F76170F60181916F010E940204B9
:100ED000FFEFEF1AFF0A88E0E816F10461F7CE0190
:100EE000DF91CF911F910F91FF90EF90DF90CF9006
:100EF0000C94F906B80184E0759567958A95E1F739
:100F0000CE010E940F076F2DCE01DF91CF911F916F
:100F10000F91FF90EF90DF90CF900C940F0740E07F
:100F2000682F8DE598E00C943C0781E00E948F07C4
:100F30008BE39FE10197F1F70895CF93DF93823020
:100F400029F490916C08986090936C0880937008D5
:100F50001092710880E48093720880E18093730896
:100F600080E58093740861E0809161080E943004FC
:100F7000809162088F3F19F061E00E94300461E0C7
:100F8000809163080E943004CDE5D8E09E012D5584
:100F9000384080916C0884FD0BC084E090E021967D
:100FA0002817390744F461E08E810E943004EECFA7
:100FB00088E090E0F4CF8BE39DE00197F1F760E0EB
:100FC000809161080E94020460E0809163080E94A1
:100FD0000204809162088F3F19F060E00E940204D1
:100FE00080916C0884FD34C063E08DE598E00E9438
:100FF0000F07CBE4D6E4CE010197F1F763E08DE56E
:1010000098E00E940F072197F1F763E08DE598E0E3
:101010000E940F0783E592E00197F1F762E08DE50A
:1010200098E00E940F0780916C0880620E948F07F1
:1010300084E080936D088CE00E948F070E949507E2
:1010400082E080936E0886E0DF91CF910C948F0749
:1010500080620E948F078BE496E40197F1F78091FC
:101060006C0880620E948F0783E592E00197F1F798
:1010700080916C0880620E948F07D5CF9091700894
:10108000891710F08FEF890FE82FF0E0E35AF74F40
:10109000848980680C948F0741E00E943C0781E0BE
:1010A00090E00895EF92FF920F931F93CF93DF93F9
:1010B000FC0100811181FB01C081D181F801819186
:1010C0008F018823B9F0082E000C990B0E949427F9
:1010D0007C018991082E000C990B0E949427E81638
:1010E000F90661F380E0DF91CF911F910F91FF909E
:1010F000EF90089581E0F7CFFB0101900020E9F720
:101100003197AF01461B570BDC01ED91FC9102803A
:10111000F381E02D19942F923F924F925F926F923C
:101120007F928F929F92AF92BF92CF92DF92EF9277
:10113000FF920F931F93CF93DF9300D01F92CDB7F1
:10114000DEB7FC01448055804114510409F412C1FA
:10115000FB01648075806114710409F40BC17A018C
:101160006B019C838B83FA01A480B580A618B70815
:10117000FC0100811181A114B104B9F4F601608170
:101180007181C8010E94BE278C01009709F4F2C04A
:10119000F70160817181448155810E949C27F7018C
:1011A00084819581080F191FE9CFB7FC10C0FB019E
:1011B000208031804201C801B1010E94BE27009702
:1011C00009F44EC0860D971D8A0C9B1CF5CF380183
:1011D000F60160817181C8010E94BE272C01009731
:1011E00029F14C01801A910AA401B801C3010E949F
:1011F0009C27680C791CF7016081718144815581BD
:10120000C3010E949C27F70184809580680C791C9B
:10121000F60104811581040D151DEB81FC8184818B
:1012200095818A0D9B1D95838483D2CFB801C3011C
:101230000F900F900F900F90DF91CF911F910F9112
:10124000FF90EF90DF90CF90BF90AF909F908F90E6
:101250007F906F905F904F903F902F900C94B727A6
:101260004814590409F486C0EB81FC818281938182
:101270008815990578F4B4016F5F7F4FC8010E940B
:10128000B326009709F476C0EB81FC8191838083BB
:1012900093828282EB81FC810481158101501109C6
:1012A00017FD68C03801F60124803580211431040F
:1012B00009F460C0EB81FC818480958081149104E5
:1012C00009F458C08214930408F454C00815190591
:1012D00020F03401F1E06F1A7108EB81FC8140804D
:1012E0005180C2010FEF1FEF9201260D371D3A8387
:1012F0002983E981FA81E817F90788F0F60160810E
:1013000071810E94BE27009751F09C012419350974
:101310006216730608F4980101968901EACF17FD59
:1013200029C0200E311EC201820D931DA401421955
:101330005309BC018A0D9B1D0E94A527EB81FC81EE
:10134000848195818A0D9B1D9583848320813181C1
:10135000820F931FFC011082EB81FC8180819181BF
:10136000F7016081718144815581800F911F0E9436
:101370009C2794CF0F900F900F900F90DF91CF91FB
:101380001F910F91FF90EF90DF90CF90BF90AF90A3
:101390009F908F907F906F905F904F903F902F9095
:1013A00008950F931F93CF93DF93EC018881998168
:1013B000009759F02A813B812617370730F081E0EA
:1013C000DF91CF911F910F9108958B016F5F7F4F38
:1013D0000E94B326009759F0998388831B830A8360
:1013E0002C813D81232B59F7FC011082E8CF80E04E
:1013F000E7CFEF92FF920F931F93CF93DF93611587
:10140000710541F480E0DF91CF911F910F91FF9022
:10141000EF90089541155105B1F07B01EC010C816D
:101420001D81040F151FB8010E94D109882351F3B3
:10143000288139818C819D81B701820F931F0E9481
:10144000B7271D830C8381E0DECF0F931F93CF93CB
:10145000DF938C01EB01FC01808191810097E1F029
:101460006881798161157105A9F0428153812C81D0
:101470003D814217530770F00E94B7278C819D81F0
:10148000F801958384831D821C82DF91CF911F9187
:101490000F9108950E942A2688819981F8019183ED
:1014A00080838A819B81938382838C819D819583B4
:1014B0008483198218821B821A82E5CFCF93DF932F
:1014C000EC0188819981009711F00E942A261982E7
:1014D00018821D821C821B821A82DF91CF9108958F
:1014E000CF93DF93EC01FB0101900020E9F73197E6
:1014F000AF01461B570B0E94F909811103C0CE01B1
:101500000E945E0ACE01DF91CF910895CF93DF93C1
:10151000EC01FB0144815581608171810E94F909D0
:10152000811103C0CE010E945E0ACE01DF91CF91EE
:101530000895EF92FF920F931F93CF93DF93EC01E7
:101540007B018A01BA010E94D10981110BC0CE0131
:101550000E945E0ACE01DF91CF911F910F91FF9003
:10156000EF9008951D830C83B701888199810E94B3
:10157000B727F0CFFB0101900020E9F73197AF01C9
:10158000461B570B0C94990A0F931F93CF93DF932D
:10159000CDB7DEB762970FB6F894DEBF0FBECDBFF2
:1015A0008C01CB01F8011182108213821282158204
:1015B00014824AE0BE016F5F7F4F0E940620BE0189
:1015C0006F5F7F4FC8010E94BA0A62960FB6F89407
:1015D000DEBF0FBECDBFDF91CF911F910F91089558
:1015E0000F931F93CF93DF93CDB7DEB7A2970FB6BC
:1015F000F894DEBF0FBECDBF8C01CB01BA01F8015C
:101600001182108213821282158214822AE0AE01A6
:101610004F5F5F4F0E941120BE016F5F7F4FC80177
:101620000E94BA0AA2960FB6F894DEBF0FBECDBFD5
:10163000DF91CF911F910F910895EF92FF920F9339
:101640001F93CF93DF93CDB7DEB7A1970FB6F89472
:10165000DEBF0FBECDBF7C01CB01BA01F701118205
:10166000108213821282158214828E010F5F1F4F27
:1016700021E043E00E94441F009789F0BC01C701AC
:101680000E94BA0AA1960FB6F894DEBF0FBECDBF76
:10169000DF91CF911F910F91FF90EF900895C701B7
:1016A0000E945E0AEFCFFB01DC0111961C921E9294
:1016B00013961C921E92129715961C921E921497C6
:1016C0008617970749F0608171816115710521F0D6
:1016D000448155810C94990A0895FC01118210826D
:1016E0001382128215821482FB0101900020E9F717
:1016F0003197AF01461B570B0C94990AFC0180816E
:101700009181009711F00C942A260895CF93DF93CE
:10171000CDB7DEB72C970FB6F894DEBF0FBECDBFA6
:1017200068E272E0CE0101960E946D0BBE016F5F10
:101730007F4FCE0107960E94530B6BE272E0CE0101
:1017400007960E94700ABC0180EC97E00E942A0272
:10175000CE0107960E947E0BCE0101960E947E0B61
:1017600064EF71E080E090E00E949D040C94000022
:101770002C960FB6F894DEBF0FBECDBFDF91CF9190
:101780000895CF93DF93CDB7DEB768970FB6F8947F
:10179000DEBF0FBECDBF8C017B016AE272E0CE01DD
:1017A00043960E946D0B60E08EE20E94020461E0AD
:1017B0008FE20E9402040E94B3060E94A00668E223
:1017C00072E0CE0101960E946D0BBE016F5F7F4FEC
:1017D00080EC97E00E942A02CE0101960E947E0BC7
:1017E000B80180EC97E00E942A0268E272E0CE0124
:1017F00001960E946D0BBE016F5F7F4FCE01079671
:101800000E94530B6FE472E0CE0107960E94700AAB
:10181000BC0180EC97E00E942A02CE0107960E944C
:101820007E0BCE0101960E947E0B68E272E0CE0133
:1018300001960E946D0BBE016F5F7F4F80EC97E0B9
:101840000E942A02CE0101960E947E0B0E949507FB
:1018500068E272E0CE010D960E946D0B61E772E0C6
:10186000CE0101960E946D0BBE016F5F7F4FCE01CE
:1018700007960E94530BBE01635F7F4FCE01079610
:101880000E94860ABC0183E297E00E942A02CE01F0
:1018900007960E947E0BCE0101960E947E0BCE0120
:1018A0000D960E947E0B80E00E943E08B7018DE5F8
:1018B00098E00E942A0281E00E943E0867E772E0F9
:1018C0008DE598E00E947C0868EE73E080E090E08F
:1018D0000E949D0481E00E943E0868E872E08DE568
:1018E00098E00E947C0868EE73E080E090E00E943F
:1018F0009D046AE272E0CE0101960E946D0B80ECBD
:1019000097E00E94DB0497FD0FC08A30910561F0DB
:101910008F83188641E050E0BE01695F7F4FCE01A2
:1019200001960E94F909EBCFBE016F5F7F4FCE0198
:1019300043960E94250ACE0101960E947E0B6AE220
:1019400072E0CE0107960E946D0B69E972E0CE014C
:1019500001960E946D0BAE01495F5F4FBE016F5F44
:101960007F4FCE0143960E948B08CE0101960E94C4
:101970007E0BCE0107960E947E0B6BE972E0CE01D2
:1019800001960E946D0B8F89988D2D813E8110E00C
:101990008217930759F411E0892B41F0BE016F5F64
:1019A0007F4FCE0143960E945208182FCE01019618
:1019B0000E947E0B11110E94860B6AE272E0CE013A
:1019C00001960E946D0B83E297E00E94DB0497FD75
:1019D0000FC08A30910561F08F83188641E050E096
:1019E000BE01695F7F4FCE0101960E94F909EBCFDE
:1019F000BE016F5F7F4FCE0143960E94250ACE0144
:101A000001960E947E0B6AE272E0CE0107960E9468
:101A10006D0B69E972E0CE0101960E946D0BAE017B
:101A2000495F5F4FBE016F5F7F4FCE0143960E94BB
:101A30008B08CE0101960E947E0BCE0107960E9474
:101A40007E0B6BE972E0CE0101960E946D0B8F89CF
:101A5000988D2D813E8110E08217930759F411E093
:101A6000892B41F0BE016F5F7F4FCE0143960E94EC
:101A70005208182FCE0101960E947E0B112309F403
:101A8000E7CE0E94860BE4CE1F920F920FB60F9204
:101A900011240BB60F922F933F934F935F936F9345
:101AA0007F938F939F93AF93BF93EF93FF9383E2C3
:101AB00097E00E94B602FF91EF91BF91AF919F9185
:101AC0008F917F916F915F914F913F912F910F90E7
:101AD0000BBE0F900FBE0F901F9018951F920F9284
:101AE0000FB60F9211240BB60F922F938F939F93E3
:101AF000EF93FF93E0913307F09134078081E091F9
:101B00003907F0913A0782FD1DC0908180913C0712
:101B10008F5F8F7320913D07821741F0E0913C0762
:101B2000F0E0ED5DF84F958F80933C07FF91EF91CA
:101B30009F918F912F910F900BBE0F900FBE0F9022
:101B40001F9018958081F2CF1F920F920FB60F92BF
:101B500011240BB60F922F933F934F935F936F9384
:101B60007F938F939F93AF93BF93EF93FF9380ECFB
:101B700097E00E94B602FF91EF91BF91AF919F91C4
:101B80008F917F916F915F914F913F912F910F9026
:101B90000BBE0F900FBE0F901F9018951F920F92C3
:101BA0000FB60F9211240BB60F922F938F939F9322
:101BB000EF93FF93E091D007F091D1078081E091FE
:101BC000D607F091D70782FD1DC090818091D9077B
:101BD0008F5F8F732091DA07821741F0E091D90768
:101BE000F0E0E054F84F958F8093D907FF91EF9183
:101BF0009F918F912F910F900BBE0F900FBE0F9062
:101C00001F9018958081F2CF1F920F920FB60F92FE
:101C100011242F933F938F939F93AF93BF93809102
:101C2000030790910407A0910507B0910607309132
:101C3000020723E0230F2D3758F50196A11DB11D92
:101C4000209302078093030790930407A09305074E
:101C5000B09306078091070790910807A0910907A4
:101C6000B0910A070196A11DB11D809307079093BB
:101C70000807A0930907B0930A07BF91AF919F91FE
:101C80008F913F912F910F900FBE0F901F9018953D
:101C900026E8230F0296A11DB11DD2CFEF92FF922D
:101CA0000F931F93CF93DF93E3E2F7E01382128247
:101CB00048EE53E060E070E04483558366837783A9
:101CC0008EE092E0918380832DEC30E0358724878D
:101CD0002CEC30E03787268728EC30E0318B208BE6
:101CE00029EC30E0338B228B2AEC30E0358B248BCF
:101CF0002EEC30E0378B268B118E128E138E148EC5
:101D0000E0ECF7E013821282448355836683778385
:101D10009183808385EC90E09587848784EC90E0C4
:101D20009787868780EC90E0918B808B81EC90E0A8
:101D3000938B828B82EC90E0958B848B86EC90E089
:101D4000978B868B118E128E138E148E6AE272E040
:101D500089EA98E00E946D0BCFE8D8E01B861A86CE
:101D6000198218821E8A1F8A188E198E80E4E82E26
:101D7000F12CFF82EE8281E290E09D878C878FE1DB
:101D800090E09F878E8780E290E0998B888B8EE130
:101D900090E09B8B8A8B61E081E20E94300461E0DD
:101DA0008E850E94300461E088890E94300461E0E1
:101DB0008A890E9430041D8A1C8A04E010E0198779
:101DC0000887C5E7D8E01B861A86198218821E8A02
:101DD0001F8A188E198EFF82EE8285E290E09D8721
:101DE0008C8783E290E09F878E8784E290E0998BD6
:101DF000888B82E290E09B8B8A8B61E085E20E9477
:101E0000300461E08E850E94300461E088890E9480
:101E1000300461E08A890E9430041D8A1C8A198777
:101E20000887EDE5F8E01382128280E292E0918368
:101E3000808380E384838FEF858381E3868382E3DD
:101E4000878383E3808784E3818785E382871386A2
:101E5000148615861686178681E0DF91CF911F9133
:101E60000F91FF90EF900C949D07CF93DF93CDB728
:101E7000DEB7E2970FB6F894DEBF0FBECDBF789401
:101E800084B5826084BD84B5816084BD85B582607F
:101E900085BD85B5816085BD80916E008160809330
:101EA0006E00109281008091810082608093810099
:101EB00080918100816080938100809180008160A9
:101EC000809380008091B10084608093B100809104
:101ED000B00081608093B000809191008260809317
:101EE0009100809191008160809391008091900099
:101EF0008160809390008091A10082608093A10016
:101F00008091A10081608093A1008091A0008160F8
:101F10008093A000809121018260809321018091B3
:101F20002101816080932101809120018160809353
:101F3000200180917A00846080937A0080917A00F9
:101F4000826080937A0080917A00816080937A0029
:101F500080917A00806880937A001092C10080ECB2
:101F600097E00E94020283E297E00E94020268E288
:101F700072E0CE0101960E946D0BBE016F5F7F4F34
:101F800083E297E00E942A02CE0101960E947E0B16
:101F900068E272E0CE0101960E946D0B61EA72E088
:101FA000CE010D960E946D0BBE01635F7F4FCE0187
:101FB00007960E94530BBE016F5F7F4FCE010796BD
:101FC0000E94860ABC0183E297E00E942A02CE01A9
:101FD00007960E947E0BCE010D960E947E0BCE01CD
:101FE00001960E947E0B68E272E0CE0101960E948B
:101FF0006D0BBE016F5F7F4F80EC97E00E942A025D
:10200000CE0101960E947E0B68E272E0CE01079637
:102010000E946D0BBE01695F7F4FCE0101960E9449
:10202000530B66EA72E0CE0101960E94700ABC0171
:1020300080EC97E00E942A02CE0101960E947E0B5E
:10204000CE0107960E947E0B68E272E0CE010196F7
:102050000E946D0BBE016F5F7F4F80EC97E00E9486
:102060002A02CE0101960E947E0B68E272E0CE0148
:1020700007960E946D0BBE01695F7F4FCE010196EE
:102080000E94530B6AED72E0CE0101960E94700A25
:10209000BC0180EC97E00E942A02CE0101960E94CA
:1020A0007E0BCE0107960E947E0B68E272E0CE01A5
:1020B00007960E946D0BBE01695F7F4FCE010196AE
:1020C0000E94530B69EE72E0CE0101960E94700AE5
:1020D000BC0180EC97E00E942A02CE0101960E948A
:1020E0007E0BCE0107960E947E0B62EF72E080ECC1
:1020F00097E00E947C0868E272E0CE0107960E9499
:102100006D0BBE01695F7F4FCE0101960E94530B9C
:102110006CEF72E0CE0101960E94700ABC0180EC67
:1021200097E00E942A02CE0101960E947E0BCE010A
:1021300007960E947E0B65E073E080EC97E00E94BA
:102140007C0868E272E0CE0107960E946D0BBE012A
:10215000695F7F4FCE0101960E94530B6CE073E0E4
:10216000CE0101960E94700ABC0180EC97E00E94AB
:102170002A02CE0101960E947E0BCE0107960E9494
:102180007E0B65E173E080EC97E00E947C0868E2DA
:1021900072E0CE0101960E946D0BBE016F5F7F4F12
:1021A00080EC97E00E942A02CE0101960E947E0BED
:1021B0002091950830919608032E000C440B550B86
:1021C000C12C97E8D92E93E9E92E93E0F92EC701A7
:1021D000B6010E94E1236AE0862E912CA12CB12C3D
:1021E000CA01B901A50194010E94E123209391083D
:1021F00030939208409393085093940820917B0861
:1022000030917C08032E000C440B550BC701B6011E
:102210000E94E123CA01B901A50194010E94E123B2
:1022200020937708309378084093790850937A0880
:1022300061E088E00E94300461E088E00E943004A0
:1022400060E088E00E94020461E089E00E943004BE
:1022500061E089E00E94300461E089E00E940204AC
:1022600082E00E949D070E94950780E00E943E0840
:1022700061E273E08DE598E00E947C0881E00E94B5
:102280003E086DE273E08DE598E00E947C0868EE00
:1022900073E080E090E00E949D0462E086E10E948D
:1022A000300462E087E10E94300462E088E10E942D
:1022B000300462E089E10E94300462E08AE10E9419
:1022C000300462E088E30E94300461E08DE00E9407
:1022D000300461E082E00E94300461E083E00E940B
:1022E000300461E084E00E94300461E085E00E94F7
:1022F000300461E086E00E94300461E086E20E94E2
:10230000300461E087E20E94300461E088E20E94CC
:10231000300461E08AE20E94300461E08BE20E94B6
:10232000300461E08CE20E94300461E08EE20E94A1
:10233000300461E08FE20E94300461E08DE00E9491
:10234000020460E082E00E94020460E083E00E94F8
:10235000020460E084E00E94020460E085E00E94E4
:10236000020460E086E00E94020460E086E20E94CF
:10237000020460E087E20E94020460E088E20E94BA
:10238000020460E08AE20E94020460E08BE20E94A4
:10239000020460E08CE20E94020460E08CE20E9491
:1023A000020460E08EE20E94020460E08FE20E947C
:1023B000020486E30E946104BC01990F880B990B0B
:1023C000611571058105910511F00E94FD1F65E001
:1023D00070E0CE0101960E94C40A68E272E0CE016C
:1023E0000D960E946D0BBE01635F7F4FCE01079675
:1023F0000E94530B6EE373E0CE0107960E94700AB1
:10240000BE016F5F7F4F0E94860A65E773E00E94FE
:10241000700ABC0180EC97E00E942A02CE01079668
:102420000E947E0BCE010D960E947E0BCE0101967E
:102430000E947E0B68E272E0CE0101960E946D0B55
:10244000BE016F5F7F4F80EC97E00E942A02CE01B1
:1024500001960E947E0B68E873E180E090E00E94A4
:10246000C60668EE73E080E090E00E949D0468E29A
:1024700072E0CE0101960E946D0B60E873E0CE0120
:102480000D960E946D0BBE01635F7F4FCE010796D4
:102490000E94530BBE016F5F7F4FCE0107960E94D3
:1024A000860ABC0183E297E00E942A02CE010796C9
:1024B0000E947E0BCE010D960E947E0BCE010196EE
:1024C0000E947E0B0E94B3060E94A00661E08EE28D
:1024D0000E94020460E082E00E94020460E083E067
:1024E0000E94020460E084E00E94020460E085E053
:1024F0000E94020460E086E00E94020460E086E23E
:102500000E94020460E087E20E94020460E088E228
:102510000E94020460E08AE20E94020460E08BE212
:102520000E94020460E08CE20E94020460E08CE2FF
:102530000E94020440E050E060EA71E4CE0143965C
:102540000E941D0B40E050E060EA71E4CE010D9660
:102550000E941D0B68E272E0CE0101960E946D0B95
:10256000BE016F5F7F4FCE0107960E94530B65E857
:1025700073E0CE0107960E94700ABE01635F7F4F31
:102580000E94860A69EA78E00E94860A6DEA73E092
:102590000E94700ABE016D5E7F4F0E94860A69EA42
:1025A00078E00E94860ABC0180EC97E00E942A0233
:1025B000CE0107960E947E0BCE0101960E947E0BF3
:1025C000CE010D960E947E0BCE0143960E947E0B9B
:1025D0000E94950780E00E943E086BEB73E08DE55A
:1025E00098E00E947C0881E00E943E0864E170E06F
:1025F000CE010D960E94C40A64E170E0CE010796F8
:102600000E94C40A6CEC73E0CE0101960E946D0B2F
:10261000BE01695F7F4FCE0101960E94860A61ED7F
:1026200073E00E94700ABE01635F7F4F0E94860ABA
:10263000BC018DE598E00E942A02CE0101960E941D
:102640007E0BCE0107960E947E0BCE010D960E9456
:102650007E0B60911F077091200780912107909158
:1026600022070E94C42220E030E040E85CE30E94A0
:10267000232320E030E044EB53E40E9423234B016A
:102680005C0180921B0790921C07A0921D07B092DC
:102690001E07609117077091180780911907909194
:1026A0001A070E94C42220E030E040E85CE30E9468
:1026B000232320E030E044EB52E40E9423236B010B
:1026C0007C01C0921307D0921407E0921507F09294
:1026D0001607A501940160E070E080EA91E40E9491
:1026E000442420E030E044EB53E40E94B12420E095
:1026F00030E040E852E40E9423230E9423254B014E
:102700005C01A701960160E070E080EA91E40E941C
:10271000442420E030E044EB52E40E94B12420E065
:1027200030E040E852E40E9423230E9423256B01FD
:102730007C01BC01A601CE0143960E94F00AB501BE
:10274000A401CE010D960E94F00A68E272E0CE016B
:1027500001960E946D0BBE016F5F7F4FCE01079601
:102760000E94530B69ED73E0CE0107960E94700A38
:10277000BE01635F7F4F0E94860A6DEA73E00E948C
:10278000700ABE016D5E7F4F0E94860ABC0180EC1C
:1027900097E00E942A02CE0107960E947E0BCE018E
:1027A00001960E947E0BCE010D960E947E0BCE01FB
:1027B00043960E947E0B81149104A104B10411F090
:1027C0000C94AC1EC114D104E104F10409F00FC251
:1027D0000E94B3060E94A00668E272E0CE01019654
:1027E0000E946D0BBE016F5F7F4F80EC97E00E94EF
:1027F0002A02CE0101960E947E0B68E272E0CE01B1
:1028000001960E946D0BBE016F5F7F4F80EC97E0D9
:102810000E942A02CE0101960E947E0B69E676E0B4
:1028200080EC97E00E947C0868E272E0CE0101969D
:102830000E946D0BBE016F5F7F4F80EC97E00E949E
:102840002A02CE0101960E947E0B0E94950780E02D
:102850000E943E0860EA76E08DE598E00E947C08E0
:1028600081E00E943E0861EB76E08DE598E00E94F1
:102870007C0868E272E0CE0101960E946D0B62EC6A
:1028800076E0CE010D960E946D0BBE01635F7F4F17
:10289000CE0107960E94530BBE016F5F7F4FCE01A2
:1028A00007960E94860ABC0183E297E00E942A02F2
:1028B000CE0107960E947E0BCE010D960E947E0BE4
:1028C000CE0101960E947E0B60E070E0CB010E9479
:1028D000C60668E272E0CE0101960E946D0B67ECBD
:1028E00076E0CE010D960E946D0BBE01635F7F4FB7
:1028F000CE0107960E94530BBE016F5F7F4FCE0142
:1029000007960E94860ABC0183E297E00E942A0291
:10291000CE0107960E947E0BCE010D960E947E0B83
:10292000CE0101960E947E0B0E94AE1F24E531E08D
:1029300040E050E00E94E123665F7F4F8F4F9F4F42
:102940000E94C42260930F077093100780931107B1
:10295000909312070E94AE1F26E430E040E050E062
:102960000E94E123665F7F4F8F4F9F4F0E94C422DA
:102970006B017C01C0920B07D0920C07E0920D070F
:10298000F0920E0768E272E0CE0101960E946D0B94
:10299000B701A601CE0107960E941D0B40910F07BB
:1029A000509110076091110770911207CE010D969A
:1029B0000E941D0B6DEC76E0CE0149960E946D0BD6
:1029C000BE01675E7F4FCE0143960E94530B67E9BD
:1029D00072E0CE0143960E94700ABE01635F7F4F92
:1029E0000E94860A69EA78E00E94860A67E972E036
:1029F0000E94700ABE01695F7F4F0E94860A69EAE1
:102A000078E00E94860ABE016F5F7F4F0E94860AAF
:102A1000BC0183E297E00E942A02CE0143960E9405
:102A20007E0BCE0149960E947E0BCE010D960E9430
:102A30007E0BCE0107960E947E0BCE0101960E946E
:102A40007E0B40910B0750910C0760910D07709120
:102A50000E07CE0101960E941D0B40910F07509169
:102A600010076091110770911207CE0107960E941E
:102A70001D0B68E272E0CE0143960E946D0BBE0111
:102A80006D5E7F4FCE010D960E94530B64ED76E094
:102A9000CE010D960E94700ABE01695F7F4F0E94B1
:102AA000860A69EA78E00E94860A6DEA73E00E946D
:102AB000700ABE016F5F7F4F0E94860A69EA78E064
:102AC0000E94860ABC0180EC97E00E942A02CE0197
:102AD0000D960E947E0BCE0143960E947E0BCE0186
:102AE00007960E947E0BCE0101960E947E0B0E94EB
:102AF000950780E00E943E0862EF76E08DE598E061
:102B00000E947C0881E00E943E0860910B07709152
:102B10000C0780910D0790910E070E942325CE018E
:102B200001960E94C40A60910F077091100780916E
:102B30001107909112070E942325CE0107960E944B
:102B4000C40A6CEC73E0CE010D960E946D0BBE01C1
:102B5000695F7F4FCE010D960E94860A62ED73E099
:102B60000E94700ABE016F5F7F4F0E94860ABC01FF
:102B70008DE598E00E942A02CE010D960E947E0B00
:102B8000CE0107960E947E0BCE0101960E947E0B1D
:102B90000E94CF046FA778AB89AB9AAB1BA61AA68D
:102BA0001CA61EA619A61DA68AE0282E312C3BC302
:102BB00087E10E94D903892B11F40C94FD1E61E07A
:102BC00070E08FE898E00E94FC0531E0831A9108DC
:102BD000A108B10880911F0790912007A0912107BB
:102BE000B09122070196A11DB11D0C94CC1E6DE57C
:102BF00070E080E090E00E949D04F7FE02C00C941B
:102C0000D81E89E10E94D903892B11F40C94FD1E72
:102C100061E070E085E798E00E94FC0551E0C51A8C
:102C2000D108E108F1088091170790911807A09149
:102C30001907B0911A070196A11DB11D0C94F31E3E
:102C4000C114D104E104F104E1F66DE570E080E027
:102C500090E00E949D04AFCD68E272E0CE01019643
:102C60000E946D0B67EA74E0CE010D960E946D0B19
:102C7000BE01635F7F4FCE0107960E94530BBE01DA
:102C80006F5F7F4FCE0107960E94860ABC0183E2E8
:102C900097E00E942A02CE0107960E947E0BCE0189
:102CA0000D960E947E0BCE0101960E947E0B68E27B
:102CB00072E0CE0101960E946D0BBE016F5F7F4FE7
:102CC00080EC97E00E942A02CE0101960E947E0BC2
:102CD00068E272E0CE0107960E946D0BBE01695F4B
:102CE0007F4FCE0101960E94530B61E474E0CE0148
:102CF00001960E94700ABC0180EC97E00E942A02B3
:102D0000CE0101960E947E0BCE0107960E947E0B9B
:102D100068E272E0CE0107960E946D0BBE01695F0A
:102D20007F4FCE0101960E94530B6FEA74E0CE01F3
:102D300001960E94700ABC0180EC97E00E942A0272
:102D4000CE0101960E947E0BCE0107960E947E0B5B
:102D500068E272E0CE0107960E946D0BBE01695FCA
:102D60007F4FCE0101960E94530B61E474E0CE01C7
:102D700001960E94700ABC0180EC97E00E942A0232
:102D8000CE0101960E947E0BCE0107960E947E0B1B
:102D900080E00E943E086CEC74E08DE598E00E94B3
:102DA0007C0881E00E943E0866ED74E079C586E308
:102DB0000E9461040E9469066B017C0187E30E9406
:102DC00061040E9469064B015C0186E10E94D903FF
:102DD000892B29F56DE875E0CE0101960E946D0BF7
:102DE00068E272E0CE0143960E946D0BBE016D5EFB
:102DF0007F4FCE010D960E94530B6EE975E0CE0118
:102E00000D960E94700ABC01CE0107960E94530BDA
:102E1000BE016F5F7F4FCE0107960E94C10B87E115
:102E20000E94D903892BB1F288E10E94D903892B32
:102E300089F289E10E94D903892B61F204E010E054
:102E400020911F07309120074091210750912207C0
:102E50002DA33EA34FA358A7CA01B9010E94C422C3
:102E600020E030E040E85CE30E94232320E030E0F3
:102E700044EB53E40E9423232B013C0140921B07A7
:102E800050921C0760921D0770921E0760911707F1
:102E9000709118078091190790911A070E94C42217
:102EA00020E030E040E85CE30E94232320E030E0B3
:102EB00044EB52E40E94232360931307709314079A
:102EC0008093150790931607F7FEAFC020E030E01F
:102ED00040E251E4C301B2010E94592518160CF4D6
:102EE00083C06DE570E080E090E00E949D04B7FE35
:102EF000EAC020E030E040E251E4609113077091B5
:102F0000140780911507909116070E9459251816ED
:102F10000CF4B4C06DE570E080E090E00E949D0488
:102F20000150110909F08CCF80900F079090100785
:102F3000A0901107B0901207C0901B07D0901C07FB
:102F4000E0901D07F0901E0720E030E040E251E4E1
:102F5000C501B4010E944424A70196010E9459258D
:102F600018160CF0E3C060E086E20E94020460E004
:102F700087E20E94020461E088E20E940204712C50
:102F800080900B0790900C07A0900D07B0900E0753
:102F9000C0901307D0901407E0901507F090160723
:102FA00020E030E040E251E4C501B4010E94442435
:102FB000A70196010E94592518160CF0E0C060E0A8
:102FC0008AE20E94020460E08BE20E94020461E057
:102FD0008CE20E94020468E272E0CE0101960E9437
:102FE0006D0B65EF75E0FCC086E10E94D903892B6B
:102FF00009F477CF6FEF7FEF8FE898E00E94FC0530
:103000003FEFC31AD30AE30AF30A8DA19EA1AFA131
:10301000B8A50197A109B10980931F0790932007D4
:10302000A0932107B093220762CFC114D104E10419
:10303000F10409F456CF20E030E04FEA53E4C30135
:10304000B2010E94BD2287FF4CCF87E10E94D903C5
:10305000892B09F446CF61E070E08FE898E00E9488
:10306000FC0541E0C41AD108E108F1088DA19EA138
:10307000AFA1B8A50196A11DB11DCECF88E10E94D8
:10308000D903892B09F446CF6FEF7FEF85E798E0EE
:103090000E94FC055FEF851A950AA50AB50A809182
:1030A000170790911807A0911907B0911A07019777
:1030B000A109B1098093170790931807A0931907E6
:1030C000B0931A072DCF81149104A104B10409F41F
:1030D00021CF20E030E040EA52E460911307709184
:1030E000140780911507909116070E94BD2287FF53
:1030F00011CF89E10E94D903892B09F40BCF61E03C
:1031000070E085E798E00E94FC0581E0881A91084C
:10311000A108B1088091170790911807A09119078D
:10312000B0911A070196A11DB11DC4CF20E030E077
:1031300040E251E4C501B4010E9445249B01AC0169
:10314000C701B6010E945925181654F461E086E2C1
:103150000E94020460E087E20E94020460E00CCF5B
:1031600060E086E20E94020461E087E20E940204BD
:1031700060E088E20E9402047724739401CF20E08B
:1031800030E040E251E4C501B4010E9445249B01B6
:10319000AC01C701B6010E945925181654F461E02C
:1031A0008AE20E94020460E08BE20E94020460E076
:1031B0000FCF60E08AE20E94020461E08BE20E948D
:1031C000020460E08CE20E940204772009F403CF3D
:1031D00068E272E0CE0101960E946D0B63EF75E02C
:1031E000CE010D960E946D0BBE01635F7F4FCE0135
:1031F00007960E94530BBE016F5F7F4FCE0107966B
:103200000E94860ABC0183E297E00E942A02CE0156
:1032100007960E947E0BCE010D960E947E0BCE017A
:1032200001960E947E0B0E94CF042FA538A949A9C0
:103230005AA9621B730B840B950B0E94C4226B016D
:103240007C0120E030E04AEF53E40E945925181633
:10325000A4F53DA5311131C068E272E0CE010196BE
:103260000E946D0B6AE074E0CE010D960E946D0B1A
:10327000BE01635F7F4FCE0107960E94530B63E14F
:1032800074E0CE0107960E94700ABE016F5F7F4F07
:103290000E94860ABC0183E297E00E942A02CE01C6
:1032A00007960E947E0BCE010D960E947E0BCE01EA
:1032B00001960E947E0B41E04DA720E030E84BEBE9
:1032C00055E4C701B6010E9459251816A4F559A561
:1032D000511131C068E272E0CE0101960E946D0B7F
:1032E0006AE074E0CE010D960E946D0BBE01635F33
:1032F0007F4FCE0107960E94530B66E174E0CE012A
:1033000007960E94700ABE016F5F7F4F0E94860A77
:10331000BC0183E297E00E942A02CE0107960E9438
:103320007E0BCE010D960E947E0BCE0101960E946F
:103330007E0B81E089A720E030E84BE356E4C7012B
:10334000B6010E9459251816A4F59EA5911131C009
:1033500068E272E0CE0101960E946D0B6AE074E0B3
:10336000CE010D960E946D0BBE01635F7F4FCE01B3
:1033700007960E94530B69E174E0CE0107960E9404
:10338000700ABE016F5F7F4F0E94860ABC0183E214
:1033900097E00E942A02CE0107960E947E0BCE0182
:1033A0000D960E947E0BCE0101960E947E0BA1E03D
:1033B000AEA720E030EA4CE856E4C701B6010E940F
:1033C00059251816A4F5BCA5B11131C068E272E008
:1033D000CE0101960E946D0B6AE074E0CE010D965D
:1033E0000E946D0BBE01635F7F4FCE0107960E9466
:1033F000530B6CE174E0CE0107960E94700ABE0187
:103400006F5F7F4F0E94860ABC0183E297E00E94B3
:103410002A02CE0107960E947E0BCE010D960E94D5
:103420007E0BCE0101960E947E0B21E02CA720E0AE
:1034300030E84BEB56E4C701B6010E945925181637
:10344000A4F53AA5311131C068E272E0CE010196CF
:103450000E946D0B6AE074E0CE010D960E946D0B28
:10346000BE01635F7F4FCE0107960E94530B6FE151
:1034700074E0CE0107960E94700ABE016F5F7F4F15
:103480000E94860ABC0183E297E00E942A02CE01D4
:1034900007960E947E0BCE010D960E947E0BCE01F8
:1034A00001960E947E0B41E04AA720E030E64AEEFA
:1034B00056E4C701B6010E9459251816A4F55BA56C
:1034C000511131C068E272E0CE0101960E946D0B8D
:1034D0006AE074E0CE010D960E946D0BBE01635F41
:1034E0007F4FCE0107960E94530B62E274E0CE013B
:1034F00007960E94700ABE016F5F7F4F0E94860A86
:10350000BC0183E297E00E942A02CE0107960E9446
:103510007E0BCE010D960E947E0BCE0101960E947D
:103520007E0B81E08BA7A8EEB3E02A9EB0012B9E14
:10353000700D3A9E700D1124072E000C880B990B0C
:103540000E94C4229B01AC0160E070E68AEE96E422
:103550000E9444249B01AC01C701B6010E94592579
:1035600018160CF040C068E272E0CE0101960E948D
:103570006D0BB101CE0107960E94C40A65E274E0AA
:10358000CE0143960E946D0BBE016D5E7F4FCE0152
:103590000D960E94530B67E972E0CE010D960E94D2
:1035A000700ABE01695F7F4F0E94860ABE016F5F8D
:1035B0007F4F0E94860ABC0183E297E00E942A02A4
:1035C000CE010D960E947E0BCE0143960E947E0B8B
:1035D000CE0107960E947E0BCE0101960E947E0BC3
:1035E000B1E02B1A310820E030E04AEF53E4C70184
:1035F000B6010E945925181624F461E082E00E9469
:10360000020420E030E84BEB55E4C701B6010E940C
:103610005925181624F461E083E00E94020420E09A
:1036200030E84BE356E4C701B6010E94592518164D
:1036300024F461E084E00E94020420E030EA4CE8D7
:1036400056E4C701B6010E945925181624F461E01A
:1036500085E00E94020420E030E84BEB56E4C7010D
:10366000B6010E945925181624F461E086E00E94F4
:10367000020420E030E64AEE56E4C701B6010E949B
:10368000592518160CF093CB0E94B3060E94A00691
:103690000E94950780900F0790901007A090110747
:1036A000B0901207C0901B07D0901C07E0901D0738
:1036B000F0901E0720E030E040E251E4C501B40183
:1036C0000E944424A70196010E94BD2287FFC4CA1C
:1036D00020E030E040E251E4C501B4010E944524FD
:1036E0009B01AC01C701B6010E94BD2287FFB4CA8D
:1036F00080900B0790900C07A0900D07B0900E07DC
:10370000C0901307D0901407E0901507F0901607AB
:1037100020E030E040E251E4C501B4010E944424BD
:10372000A70196010E94BD2287FF96CA20E030E0E3
:1037300040E251E4C501B4010E9445249B01AC0163
:10374000C701B6010E94BD2287FF86CA68E272E007
:10375000CE0101960E946D0B6FE274E0CE010D96D2
:103760000E946D0BBE01635F7F4FCE0107960E94E2
:10377000530BBE016F5F7F4FCE0107960E94860AF2
:10378000BC0183E297E00E942A02CE0107960E94C4
:103790007E0BCE010D960E947E0BCE0101960E94FB
:1037A0007E0B68E272E0CE0101960E946D0BBE01B5
:1037B0006F5F7F4F80EC97E00E942A02CE01019656
:1037C0000E947E0B68E272E0CE0107960E946D0BAC
:1037D000BE01695F7F4FCE0101960E94530B67E3E4
:1037E00074E0CE0101960E94700ABC0180EC97E063
:1037F0000E942A02CE0101960E947E0BCE010796FE
:103800000E947E0B68E272E0CE0107960E946D0B6B
:10381000BE01695F7F4FCE0101960E94530B6EE59A
:1038200074E0CE0101960E94700ABC0180EC97E022
:103830000E942A02CE0101960E947E0BCE010796BD
:103840000E947E0B68E272E0CE0107960E946D0B2B
:10385000BE01695F7F4FCE0101960E94530B67E363
:1038600074E0CE0101960E94700ABC0180EC97E0E2
:103870000E942A02CE0101960E947E0BCE0107967D
:103880000E947E0B80E00E943E0865E874E08DE5B2
:1038900098E00E947C0881E00E943E0866E974E09E
:1038A0008DE598E00E947C0860911F0770912007C9
:1038B00080912107909122070E94C42220E030E0ED
:1038C00040E85CE30E94232320E030E044EB53E433
:1038D0000E94232360931B0770931C0780931D078E
:1038E00090931E0768E272E0CE0101960E946D0B74
:1038F000BE016F5F7F4F80EC97E00E942A02CE01ED
:1039000001960E947E0B68E272E0CE0107960E944B
:103910006D0BBE01695F7F4FCE0101960E94530B74
:1039200064EE74E0CE0101960E94700ABC0180EC46
:1039300097E00E942A02CE0101960E947E0BCE01E2
:1039400007960E947E0B68E272E0CE0107960E9405
:103950006D0BBE01695F7F4FCE0101960E94530B34
:1039600061EF74E0CE0101960E94700ABC0180EC08
:1039700097E00E942A02CE0101960E947E0BCE01A2
:1039800007960E947E0B68E272E0CE0107960E94C5
:103990006D0BBE01695F7F4FCE0101960E94530BF4
:1039A0006EEF74E0CE0101960E94700ABC0180ECBB
:1039B00097E00E942A02CE0101960E947E0BCE0162
:1039C00007960E947E0B40911B0750911C07609147
:1039D0001D0770911E07CE0101960E941D0B68E223
:1039E00072E0CE010D960E946D0BBE01635F7F4FAA
:1039F000CE0107960E94530B6DE075E0CE0107964D
:103A00000E94700ABE016F5F7F4F0E94860A69EABA
:103A100078E00E94860ABC0180EC97E00E942A02AE
:103A2000CE0107960E947E0BCE010D960E947E0B62
:103A3000CE0101960E947E0B40910F075091100716
:103A40006091110770911207CE0101960E941D0B23
:103A500068E272E0CE010D960E946D0BBE01635FBD
:103A60007F4FCE0107960E94530B6EE175E0CE01A9
:103A700007960E94700ABE016F5F7F4F0E94860A00
:103A800069EA78E00E94860ABC0180EC97E00E9417
:103A90002A02CE0107960E947E0BCE010D960E944F
:103AA0007E0BCE0101960E947E0B40E050E060E26A
:103AB00071E4CE0101960E941D0B68E272E0CE0116
:103AC0000D960E946D0BBE01635F7F4FCE0107967E
:103AD0000E94530B6FE275E0CE0107960E94700AB8
:103AE000BE016F5F7F4F0E94860A69EA78E00E94FC
:103AF000860ABC0180EC97E00E942A02CE0107965C
:103B00000E947E0BCE010D960E947E0BCE01019687
:103B10000E947E0B6091170770911807809119071A
:103B200090911A070E94C42220E030E040E85CE354
:103B30000E94232320E030E044EB52E40E94232340
:103B4000AB01BC0140931307509314076093150712
:103B500070931607CE0101960E941D0B68E272E079
:103B6000CE010D960E946D0BBE01635F7F4FCE01AB
:103B700007960E94530B6AE475E0CE0107960E94F7
:103B8000700ABE016F5F7F4F0E94860A69EA78E083
:103B90000E94860ABC0180EC97E00E942A02CE01B6
:103BA00007960E947E0BCE010D960E947E0BCE01E1
:103BB00001960E947E0B40910B0750910C0760917B
:103BC0000D0770910E07CE0101960E941D0B68E251
:103BD00072E0CE010D960E946D0BBE01635F7F4FB8
:103BE000CE0107960E94530B6DE575E0CE01079656
:103BF0000E94700ABE016F5F7F4F0E94860A69EAC9
:103C000078E00E94860ABC0180EC97E00E942A02BC
:103C1000CE0107960E947E0BCE010D960E947E0B70
:103C2000CE0101960E947E0B40E050E060E271E41C
:103C3000CE0101960E941D0B68E272E0CE010D9646
:103C40000E946D0BBE01635F7F4FCE0107960E94FD
:103C5000530B60E775E0CE0107960E94700ABE0123
:103C60006F5F7F4F0E94860A69EA78E00E94860AA9
:103C7000BC0180EC97E00E942A02CE0107960E94C8
:103C80007E0BCE010D960E947E0BCE0101960E9406
:103C90007E0B68E272E0CE0101960E946D0BBE01C0
:103CA0006F5F7F4F80EC97E00E942A02CE01019661
:103CB0000E947E0B6AE070E0CE0101960E94C40A69
:103CC00068E272E0CE010D960E946D0BBE01635F4B
:103CD0007F4FCE0107960E94530B6EE373E0CE0137
:103CE00007960E94700ABE016F5F7F4F0E94860A8E
:103CF00065E773E00E94700ABC0180EC97E00E94C7
:103D00002A02CE0107960E947E0BCE010D960E94DC
:103D10007E0BCE0101960E947E0B68E272E0CE011E
:103D200001960E946D0BBE016F5F7F4F80EC97E0A4
:103D30000E942A02CE0101960E947E0B60E177E28A
:103D400080E090E00E94C60668EE73E080E090E0BC
:103D50000E949D040C946A12B7FC02C00C94D81502
:103D600086E10E94D903892B09F447C06FEF7FEFEA
:103D70008FE898E00E94FC052FEF821A920AA20AAF
:103D8000B20A80911F0790912007A0912107B0915E
:103D900022070197A109B10980931F07909320077B
:103DA000A0932107B0932207F7FC02C00C942016C1
:103DB00088E10E94D903892B01F16FEF7FEF85E73E
:103DC00098E00E94FC054FEFC41AD40AE40AF40AF2
:103DD0008091170790911807A0911907B0911A07C1
:103DE0000197A109B1098093170790931807A09331
:103DF0001907B0931A070C94DB1367EF75E0CE0137
:103E000001960E946D0B40E050E060EA71E4CE0143
:103E10000D960E941D0B40E050E060EA71E4CE0177
:103E200043960E941D0B68E272E0CE014F960E94FD
:103E30006D0BBE01615E7F4FCE0149960E94530B10
:103E400068E076E0CE0149960E94700ABE016D5E80
:103E50007F4F0E94860A69EA78E00E94860A6DE236
:103E600076E00E94700ABE01635F7F4F0E94860A5F
:103E700069EA78E00E94860A60E376E00C94011714
:103E800089EA98E00C947E0BEF920F931F93CF93E7
:103E9000DF93E80134E047FD34E1042E000C550BBC
:103EA00057FF03C0519541955109E32E022F242F4E
:103EB000AE010E945C20CE01DF91CF911F910F9146
:103EC000EF9008958F929F92AF92BF92CF92DF9220
:103ED000EF92FF92CF93DF93EC01688179818A8121
:103EE0009B81611571058105910521F464E279EDED
:103EF0008BE597E02DE133EF41E050E00E94E123B4
:103F000049015A019B01AC01A7EAB1E40E940024D7
:103F10006B017C01ACEEB4EFA50194010E940E246C
:103F2000C60ED71EE81EF91EF7FE06C081E0C81AAD
:103F3000D108E10880E8F80AC882D982EA82FB82C7
:103F4000C701B6019F77DF91CF91FF90EF90DF908F
:103F5000CF90BF90AF909F908F9008958F929F9237
:103F6000AF92BF92CF92DF92EF92FF9260910002E8
:103F70007091010280910202909103026115710516
:103F80008105910521F464E279ED8BE597E02DE15F
:103F900033EF41E050E00E94E12349015A019B01C7
:103FA000AC01A7EAB1E40E9400246B017C01ACEEF5
:103FB000B4EFA50194010E940E24C60ED71EE81E80
:103FC000F91EF7FE06C081E0C81AD108E10880E8B2
:103FD000F80AC0920002D0920102E0920202F0922E
:103FE0000302C701B6019F77FF90EF90DF90CF905B
:103FF000BF90AF909F908F90089560930002709350
:10400000010280930202909303020895BB274A3075
:1040100031F4992322F4BDE2909581959F4F0C9441
:104020004320BB272A3051F4992342F4BDE29095F6
:104030008095709561957F4F8F4F9F4F0C942120F5
:10404000BB27FA01A62F6217710581059105330B75
:1040500030FB66F0AA27660F771F881F991FAA1FDB
:10406000A21710F0A21B63953850A9F7A05DAA33E0
:1040700008F0A95DA19336F7B111B1931082CA017E
:104080000C94AD22BB27FB015527AA27880F991F47
:10409000AA1FA41710F0A41B83955051B9F7A05D77
:1040A000AA3308F0A95DA193009779F7B111B193F4
:1040B0001192CB010C94AD228F929F92AF92BF923E
:1040C000CF92DF92EF92FF920F931F93CF93DF93E4
:1040D00000D000D000D0CDB7DEB76A01F22EB02EEE
:1040E000102FFBE3AF2EA01608F41BE31F5F012F78
:1040F00027E0AE014F5F5F4F0E94D521BC0189814F
:10410000982F9970913009F44EC09BE2E1FC04C0F5
:104110009E2D9170E0FC49C05E2D5071E82FE87033
:1041200083FF55C084E0911101C083E0EF2DE81BAF
:104130008F1508F0E0E0D6018E2F20E25523C9F15B
:10414000992329F0D6019C93C60101966C01960132
:104150002D5F3F4FE2FE33C08EE4D6018C9391E495
:1041600011969C93119712968C93D9018E2F90E201
:1041700081112AC0E20FF32FF11D10828EEF9FEF05
:1041800029960FB6F894DEBF0FBECDBFDF91CF9159
:104190001F910F91FF90EF90DF90CF90BF90AF9065
:1041A0009F908F9008959DE2B7CF90E2B5CF2D9369
:1041B00081508111FCCFCE0ED11CE0E0C1CF8EE644
:1041C000D6018C9391E6CCCF9D938150D1CF482FCF
:1041D000447082FF3DC084E0911101C083E08F15DF
:1041E00010F4EF2DE81BD6018E2F20E2552309F1A4
:1041F000992329F0D6019C93C60101966C01960182
:104200002D5F3F4FE2FE1BC089E4D6018C938EE404
:1042100011968C93119786E412968C93D9018E2F68
:1042200090E2882309F4A6CF9D938150FACF2D9375
:1042300081508111FCCFCE0ED11CE0E0D9CF89E6B0
:10424000D6018C938EE611968C93119786E6E4CF77
:104250009B0177FF02C030E020E0A1E0B0E09111C7
:1042600002C0B0E0A0E0F9013196AE0FBF1F8B2C69
:10427000912CBB2009F461C05401EFEFAE1ABE0AC5
:10428000AA0DBB1DFA161B0619F014F04F2D4A1B80
:10429000511188C0E3FC59C07601A42FB0E2A111EE
:1042A0004FC0C40ED11C992309F45BC040E0D60175
:1042B0001196F60190836D01552309F448C0012F32
:1042C000060F9A81582F507184FF03C0913309F46F
:1042D000015010160CF047C0093008F008E0EEE27B
:1042E000FE2E5B01A01AB10885019194819491087A
:1042F0002F3F320729F4D601FC92F60131966F0167
:104300006217730794F1021713077CF5DB01A21BF8
:10431000B30BAA24A394B12CAC0EBD1EAA0DBB1DD9
:1043200011968C9121503109D60111962815390525
:10433000F4F0F60180836D01DBCFB12CA12CA0CF6E
:10434000F701B1937F01A150AACF9111B0CFD6014F
:10435000942F50E302C05D9391509111FCCFC40E95
:10436000D11C40E0ACCF01E0BACF80E3DBCF6217D5
:10437000730731F4963388F4953311F4552369F0BB
:10438000F6018083FD01842F90E2811108C0A40F03
:10439000B11D1C9290E080E0F3CE81E3F1CF9193C8
:1043A0008150F3CF911183CF8ACF283008F027E0D6
:1043B0003327DA01990F311D87FD91600096610561
:1043C000710539F432602E5F3D9330E32A95E1F7B1
:1043D00008959F3F30F080387105610509F03C5F1A
:1043E0003C5F3D93913008F08068911DDF93CF933F
:1043F0001F930F93FF92EF92192F987F9695E92FB5
:1044000096959695E90FFF27E652FE4F9927332799
:10441000EE24FF24A701E70105900894079428F4EF
:10442000360FE71EF81E491F511D660F771F881FA4
:10443000991F0694A1F70590079428F4E70EF81E3B
:10444000491F561FC11D770F881F991F661F0694AD
:10445000A1F70590079428F4F80E491F561FC71FAF
:10446000D11D880F991F661F771F0694A1F705902D
:10447000079420F4490F561FC71FD81F990F661FB6
:10448000771F881F0694A9F784911095177041F043
:10449000D695C79557954795F794E7941A95C1F720
:1044A000E0E8F1E06894159015913591659195914A
:1044B00005907FE27395E118F10A430B560BC90B87
:1044C000D009C0F7E10CF11E431F561FC91FD01DB4
:1044D0007EF4703311F48A95E6CFE894015030F001
:1044E000080F0AF40027021708F4202F2395022F43
:1044F0007A3328F079E37D932A95E9F710C07D930C
:104500002A9589F606949795679537951795179488
:10451000E118F10A430B560BC90BD00998F023950B
:104520007E9173957A3308F070E37C932013B8F78B
:104530007E9170617D9330F0839571E37D9370E39C
:104540002A95E1F71124EF90FF900F911F91CF91E1
:10455000DF91992787FD90950895DC01FC01672F75
:1045600071917723E1F7329704C07C916D9370834A
:104570006291AE17BF07C8F308950E94FF2208F4A6
:1045800081E00895E89409C097FB3EF490958095EA
:10459000709561957F4F8F4F9F4F9923A9F0F92F09
:1045A00096E9BB279395F695879577956795B79587
:1045B000F111F8CFFAF4BB0F11F460FF1BC06F5F6D
:1045C0007F4F8F4F9F4F16C0882311F096E911C07F
:1045D000772321F09EE8872F762F05C0662371F0A0
:1045E00096E8862F70E060E02AF09A95660F771FB4
:1045F000881FDAF7880F9695879597F90895990F90
:104600000008550FAA0BE0E8FEEF16161706E8079C
:10461000F907C0F012161306E407F50798F0621BBD
:10462000730B840B950B39F40A2661F0232B242B92
:10463000252B21F408950A2609F4A140A6958FEFB1
:10464000811D811D08950E9436230C94A7230E948A
:10465000992338F00E94A02320F0952311F00C94A8
:1046600090230C94962311240C94DB230E94B823EE
:1046700070F3959FC1F3950F50E0551F629FF001B5
:10468000729FBB27F00DB11D639FAA27F00DB11DCE
:10469000AA1F649F6627B00DA11D661F829F222757
:1046A000B00DA11D621F739FB00DA11D621F839FDE
:1046B000A00D611D221F749F3327A00D611D231FB4
:1046C000849F600D211D822F762F6A2F11249F5702
:1046D00050409AF0F1F088234AF0EE0FFF1FBB1F05
:1046E000661F771F881F91505040A9F79E3F5105C4
:1046F00080F00C9490230C94DB235F3FE4F3983E0E
:10470000D4F3869577956795B795F795E7959F5F6D
:10471000C1F7FE2B880F911D9695879597F90895FF
:1047200097F99F6780E870E060E008959FEF80EC64
:10473000089500240A941616170618060906089507
:1047400000240A9412161306140605060895092E6D
:104750000394000C11F4882352F0BB0F40F4BF2BDC
:1047600011F460FF04C06F5F7F4F8F4F9F4F08951C
:1047700057FD9058440F551F59F05F3F71F0479512
:10478000880F97FB991F61F09F3F79F087950895F7
:10479000121613061406551FF2CF4695F1DF08C016
:1047A000161617061806991FF1CF86957105610533
:1047B00008940895E894BB2766277727CB0197F9DB
:1047C0000895052E97FB1EF400940E94F82357FDD0
:1047D00007D00E94132407FC03D04EF40C94F82356
:1047E00050954095309521953F4F4F4F5F4F08951D
:1047F00090958095709561957F4F8F4F9F4F08954D
:104800000E943524A59F900DB49F900DA49F800D0C
:10481000911D11240895B7FF0C9400240E940024D8
:10482000821B930B0895A1E21A2EAA1BBB1BFD014C
:104830000DC0AA1FBB1FEE1FFF1FA217B307E4077F
:10484000F50720F0A21BB30BE40BF50B661F771FD7
:10485000881F991F1A9469F76095709580959095B7
:104860009B01AC01BD01CF010895A29FB001B39F90
:10487000C001A39F700D811D1124911DB29F700D69
:10488000811D1124911D08955058BB27AA270E940D
:104890005C240C94A7230E94992338F00E94A02343
:1048A00020F039F49F3F19F426F40C9496230EF46B
:1048B000E095E7FB0C949023E92F0E94B82358F36E
:1048C000BA17620773078407950720F079F4A6F5F5
:1048D0000C94DA230EF4E0950B2EBA2FA02D0B01C9
:1048E000B90190010C01CA01A0011124FF27591B35
:1048F00099F0593F50F4503E68F11A16F040A22F3B
:10490000232F342F4427585FF3CF469537952795AB
:10491000A795F0405395C9F77EF41F16BA0B620BAA
:10492000730B840BBAF09150A1F0FF0FBB1F661FF1
:10493000771F881FC2F70EC0BA0F621F731F841F34
:1049400048F4879577956795B795F7959E3F08F05A
:10495000B0CF9395880F08F09927EE0F979587951C
:1049600008950E94C5240C94A7230E94A02358F008
:104970000E94992340F029F45F3F29F00C94902382
:1049800051110C94DB230C9496230E94B82368F3F6
:104990009923B1F3552391F3951B550BBB27AA27F8
:1049A00062177307840738F09F5F5F4F220F331F32
:1049B000441FAA1FA9F335D00E2E3AF0E0E832D0FA
:1049C00091505040E695001CCAF72BD0FE2F29D0FD
:1049D000660F771F881FBB1F261737074807AB07CF
:1049E000B0E809F0BB0B802DBF01FF2793585F4F44
:1049F0003AF09E3F510578F00C9490230C94DB2301
:104A00005F3FE4F3983ED4F3869577956795B79525
:104A1000F7959F5FC9F7880F911D9695879597F930
:104A20000895E1E0660F771F881FBB1F62177307A9
:104A30008407BA0720F0621B730B840BBA0BEE1FBE
:104A400088F7E09508950E942A256894B1110C9486
:104A5000DB2308950E94C02388F09F5798F0B92F58
:104A60009927B751B0F0E1F0660F771F881F991FA3
:104A70001AF0BA95C9F714C0B13091F00E94DA2348
:104A8000B1E008950C94DA23672F782F8827B85F58
:104A900039F0B93FCCF3869577956795B395D9F7FB
:104AA0003EF490958095709561957F4F8F4F9F4F05
:104AB00008950E94FF2208F48FEF089597FB072EB8
:104AC00016F4009407D077FD09D00E947A2507FCE0
:104AD00005D03EF4909581959F4F0895709561950E
:104AE0007F4F0895EE0FFF1F881F8BBF0790F69131
:104AF000E02D1994AA1BBB1B51E107C0AA1FBB1FC5
:104B0000A617B70710F0A61BB70B881F991F5A9559
:104B1000A9F780959095BC01CD0108950F931F933F
:104B2000CF93DF938230910510F482E090E0E09122
:104B3000B108F091B20830E020E0B0E0A0E030979A
:104B400099F42115310509F44AC0281B390B24308A
:104B50003105D8F58A819B816115710589F1FB01C9
:104B600093838283FE0111C04081518102811381B0
:104B700048175907E0F04817590799F4109761F062
:104B800012960C93129713961C933296CF01DF91D5
:104B9000CF911F910F9108950093B1081093B2081F
:104BA000F4CF2115310551F04217530738F0A90110
:104BB000DB019A01BD01DF01F801C1CFEF01F9CF9F
:104BC0009093B2088093B108CDCFFE01E20FF31F9E
:104BD000819391932250310939832883D7CF209133
:104BE000AF083091B008232B41F420910602309198
:104BF00007023093B0082093AF082091040230914F
:104C000005022115310541F42DB73EB74091080248
:104C100050910902241B350BE091AF08F091B008C8
:104C2000E217F307A0F42E1B3F0B2817390778F083
:104C3000AC014E5F5F4F2417350748F04E0F5F1FE2
:104C40005093B0084093AF08819391939FCFF0E0C9
:104C5000E0E09CCFCF93DF930097E9F0FC0132971F
:104C600013821282A091B108B091B208ED0130E038
:104C700020E01097A1F420813181820F931F2091B1
:104C8000AF083091B0082817390709F061C0F093D8
:104C9000B008E093AF08DF91CF910895EA01CE17F5
:104CA000DF07E8F54A815B819E0141155105B1F7A7
:104CB000E901FB83EA8349915991C40FD51FEC1791
:104CC000FD0761F4808191810296840F951FE901AF
:104CD00099838883828193819B838A83F0E0E0E0DB
:104CE00012968D919C9113970097B9F52D913C9157
:104CF0001197CD010296820F931F2091AF0830913A
:104D0000B0082817390739F6309751F51092B208D4
:104D10001092B108B093B008A093AF08BCCFD38372
:104D2000C28340815181840F951FC817D90761F450
:104D30004E5F5F4F88819981480F591F518340838F
:104D40008A819B81938382832115310509F0B0CF3D
:104D5000F093B208E093B1089ECFFD01DC01C0CF13
:104D600013821282D7CF4F925F926F927F928F926F
:104D70009F92AF92BF92CF92DF92EF92FF920F93EA
:104D80001F93CF93DF938C01009799F4CB01DF91B0
:104D9000CF911F910F91FF90EF90DF90CF90BF9038
:104DA000AF909F908F907F906F905F904F900C94FA
:104DB0008E25FC01E60FF71F9C0122503109E217F6
:104DC000F30708F4AEC0D901CD91DC911197C61755
:104DD000D70720F1C530D10578F0CE0104978617AA
:104DE000970750F0C61BD70B2297C193D1936D93B1
:104DF0007C93CF010E942A26C801DF91CF911F9199
:104E00000F91FF90EF90DF90CF90BF90AF909F9069
:104E10008F907F906F905F904F9008955B01AC1AD8
:104E2000BD0A4C018C0E9D1EA091B108B091B20834
:104E3000512C412CF12CE12C109731F58091AF08C9
:104E40009091B0088815990509F05CC04616570680
:104E500008F058C08091040290910502009741F437
:104E60008DB79EB74091080250910902841B950BA3
:104E7000E817F90708F055C0F093B008E093AF08C1
:104E8000F90171836083B8CF8D919C91119712962F
:104E90006C90129713967C901397A815B90559F545
:104EA0006C0142E0C40ED11CCA14DB0420F1AC0139
:104EB0004A195B09DA011296159780F062827382B3
:104EC00051834083D9016D937C93E114F10471F017
:104ED000D7011396FC93EE9312978ECF22968C0FE8
:104EE0009D1FF90191838083F301EFCFF093B20806
:104EF000E093B10881CF4816590608F42C017D01D2
:104F0000D3019ACFCB010E948E257C01009749F0F6
:104F1000AE01B8010E949C27C8010E942A26870181
:104F20006BCF10E000E068CF9111089581548A5151
:104F300008F4805E855A0895FB01DC0102C00190EF
:104F40000D9241505040D8F708956817790768F4DA
:104F5000FB01DC01E40FF51FA40FB51F02C0029096
:104F60000E9241505040D8F708950C949C27FB01B5
:104F7000DC0101900D920020E1F70895FB015191B1
:104F80005523A9F0BF01DC014D9145174111E1F70F
:104F900059F4CD010190002049F04D914015411187
:104FA000C9F3FB014111EFCF81E090E00197089533
:104FB00011E0CEECD1E000E006C0802FFE010E949F
:104FC00072252196011DCF3CD10780E00807A9F783
:044FD000F894FFCF83
:104FD400010000000000B308800000000000D802B7
:104FE400380265022503960274028802000000005C
:104FF4004C083802050529020D0A005265736574D0
:1050040074696E67207468652041726475696E6F97
:105014002076696120736F6674776172652E005023
:105024007265737320746865207265736574206299
:105034007574746F6E20746F207265626F6F742E56
:10504400004552524F520050524F4752414D205347
:10505400544F50504544210050524553532052451B
:105064005345542120202020000D0052455345541F
:1050740000424F4F54002A2A2A2057656C636F6DF3
:105084006520746F20746865204D4147494320476B
:10509400616D653A204361746368207468652047D4
:1050A400616D6D6121202A2A2A004669726D77613B
:1050B400726520696E666F3A002D204E616D653A07
:1050C40020004D6167696347616D65002D20566559
:1050D400722E3A2000302E302E3136002D204461BD
:1050E40074653A20003230204170722032303233FD
:1050F400004D414749432047616D653A004361745F
:105104006368207468652047616D6D612100506C8F
:1051140065617365207072657373207468652073AC
:105124007461727420627574746F6E20746F20637E
:105134006F6E74696E7565202874696D656F75741A
:1051440020696E2000207365636F6E6473292E00DE
:10515400494E4954004D6F76696E672074656C65DD
:1051640073636F706520746F20706F736974696FF7
:105174006E3A20417A696D7574683A20002C206576
:105184006C65766174696F6E3A20004D6F766520A8
:1051940074656C6573636F70653A2000417A3A20D8
:1051A40000202C20656C3A2000202020204D6F74B4
:1051B4006F7220737465707320746F2072656163FD
:1051C400682074686520706F736974696F6E3A2023
:1051D400417A696D7574683A200050524F475245C0
:1051E40053530020310020320020330020340020AB
:1051F4003500203600434F554E54444F574E00530C
:10520400554343455353002A2A2A2A2A2A2A2A2A5A
:105214002A2A2A2A2A2A2A2A2A2A2A2A2A2A2A2AEA
:105224002A2A2A2A2A2A2A2A2A2A2A2A2A00436FA6
:105234006E67726174756C6174696F6E7321205945
:105244006F75206361756768742074686520676191
:105254006D6D612100436F6E67726174756C61746A
:10526400696F6E73210047616D6D612063617567BD
:10527400687421203A29004641494C55524500534F
:105284006F7272792C20596F75206D697373656420
:10529400207468652067616D6D612100536F7272BF
:1052A400792E203A280047616D6D61206D69737312
:1052B40065642E0047616D652044657461696C7393
:1052C400003D3D3D3D3D3D3D3D3D3D3D3D0052614B
:1052D4006E646F6D207461726765742E004163742F
:1052E40075616C20617A696D7574683A2000546147
:1052F4007267657420617A696D7574683A20005428
:105304006F6C6572616E636520666F7220617A6985
:105314006D7574683A202B2F2D0041637475616C90
:1053240020656C65766174696F6E3A200054617211
:1053340067657420656C65766174696F6E3A2000E8
:10534400546F6C6572616E636520666F7220656C64
:1053540065766174696F6E3A202B2F2D0045525289
:105364004F523A204C696D69742073772E00455270
:10537400524F523A204C696D697420737769746393
:105384006820686974207768696C65206D6F766938
:105394006E67207468652074656C6573636F7065EF
:1053A40020647572696E67207468652067616D6535
:1053B400212050726F6772616D2073746F70706515
:1053C4006421004F0058004552524F523A204D6F0D
:1053D40076652074656C2E004552524F523A204D2A
:1053E4006F76696E672074656C6573636F70652092
:1053F400746F20706F736974696F6E20002C2000C5
:10540400206661696C6564206265636175736520FB
:1054140061206C696D69742073776974636820779F
:10542400617320686974212050726F6772616D2006
:1054340073746F7070656421004D41474943204780
:10544400616D653A205075736820746865207374C3
:1054540061727420627574746F6E20746F2073743B
:105464006172742061206E65772067616D652E001E
:105474002D3D204D414749432047616D65203D2D19
:10548400002A205075736820627574746F6E212031
:105494002A0049444C45005354415254005441524B
:1054A400474554004E65772067616D6D6120706FCC
:1054B400736974696F6E3A20417A696D7574683ADC
:1054C400200047616D6D6120706F736974696F6E40
:0254D4003A009C
:00000001FF
