:100000000C944F010C9480010C9480010C9480019D
:100010000C9480010C9480010C9480010C9480015C
:100020000C9480010C9480010C9480010C9480014C
:100030000C9480010C9480010C9480010C9480013C
:100040000C9480010C9480010C9480010C9480012C
:100050000C9480010C9480010C9480010C948C0809
:100060000C9480010C9456080C942C080C9480017C
:100070000C9480010C9480010C9480010C948001FC
:100080000C9480010C9480010C9480010C948001EC
:100090000C9480010C9480010C9480010C948001DC
:1000A0000C9480010C9480010C9480010C948001CC
:1000B0000C9480010C9480010C9480010C948001BC
:1000C0000C9480010C9480010C9480010C948001AC
:1000D0000C9480010C9480010C9480010C9480019C
:1000E0000C9480010C94FF040C94EC020C9401031A
:1000F0000C941D030C94EE010C94EF040C94130566
:100100000C94F0020C94FD020C9473020C94BD014B
:100110000C9423030C94AB040C94C3040C940703B9
:100120000C94E8020C940B030C94D6080C94E20295
:100130000C9422040C94F4020C94E0010C94CC0175
:100140000C9415030C94F7020C9422030C942703CF
:100150000C9423040C9419030C9426020C94ED04C3
:100160000C940F030C94B5040C9426080C94F5041D
:100170000C94D5040C940D050C9490010000210002
:10018000240027002A002D00300033000101000068
:10019000040107010A0100002200250028002B00AD
:1001A0002E003100340002010000050108010B019E
:1001B000000020002300260029002C002F00320020
:1001C00000010000030106010901050505050705F9
:1001D00008080808020202020A0A080804040404C3
:1001E00001010101010101010303030303030303EF
:1001F000040707070C0C0C0C0C0C0C0C020202027E
:1002000006060606060606060B0B0B0B0B0B0B0B66
:100210000102102020080810204010204080020118
:1002200002010804020101020408102040808040FD
:1002300020100804020180040201804020100804FC
:10024000020108040201010204081020408001029A
:1002500004081020408000000A0B02090C0D0E0853
:10026000070304010000000000000000000000007F
:10027000000000000000000000000000000000007E
:10028000000012111000000000000000000000003B
:10029000000000000000000000000000D60811244B
:1002A0001FBECFEFD1E2DEBFCDBF00E00CBF14E038
:1002B000A0E0B2E0E0EDF9E200E00BBF02C0079081
:1002C0000D92AE36B107D9F725E0AEE6B4E001C035
:1002D0001D92A837B207E1F711E0CFE4D1E000E0CA
:1002E00006C021970109802FFE010E94B412CE346E
:1002F000D10780E00807A9F70E9491090C94E61441
:100300000C940000DB0114964D915C9115976D9152
:100310007C91DC01ED91FC910280F381E02D199438
:10032000AF92BF92CF92DF92EF92FF920F931F9303
:10033000CF93DF936C017B018B01040F151FEB0141
:100340005E01AE18BF08C017D10759F06991D601F8
:10035000ED91FC910190F081E02DC6011995892B5A
:1003600079F7C501DF91CF911F910F91FF90EF9029
:10037000DF90CF90BF90AF900895FC01538D448DD6
:10038000252F30E0842F90E0821B930B541710F040
:10039000CF96089501970895FC01918D828D98174D
:1003A00061F0A28DAE0FBF2FB11D5D968C91928D25
:1003B0009F5F9F73928F90E008958FEF9FEF089556
:1003C000FC01918D828D981731F0828DE80FF11D1F
:1003D000858D90E008958FEF9FEF0895FC01918D3A
:1003E000228D892F90E0805C9F4F821B91098F7333
:1003F000992708958BE894E00E94EE0121E0892B73
:1004000009F420E0822F0895FC01A48DA80FB92FD4
:10041000B11DA35ABF4F2C91848D90E001968F732C
:100420009927848FA689B7892C93A089B1898C914B
:10043000837080648C93938D848D981306C002889A
:10044000F389E02D80818F7D80830895EF92FF9264
:100450000F931F93CF93DF93EC0181E0888F9B8DE7
:100460008C8D98131AC0E889F989808185FF15C0A1
:100470009FB7F894EE89FF896083E889F9898081C4
:100480008370806480839FBF81E090E0DF91CF9193
:100490001F910F91FF90EF900895F62E0B8D10E0B5
:1004A0000F5F1F4F0F731127E02E8C8D8E110CC024
:1004B0000FB607FCFACFE889F989808185FFF5CF6F
:1004C000CE010E940402F1CFEB8DEC0FFD2FF11D48
:1004D000E35AFF4FF0829FB7F8940B8FEA89FB89AC
:1004E00080818062CFCFCF93DF93EC01888D88230A
:1004F000B9F0AA89BB89E889F9898C9185FD03C087
:10050000808186FD0DC00FB607FCF7CF8C9185FF6B
:10051000F2CF808185FFEDCFCE010E940402E9CFAA
:10052000DF91CF91089580E090E0892B29F00E941F
:10053000FA0181110E94000080E090E0892B49F0CF
:1005400080E090E0892B29F00E94000081110E9438
:10055000000080E090E0892B49F080E090E0892B5A
:1005600029F00E94000081110E94000080E090E0CC
:10057000892B49F080E090E0892B29F00E9400004F
:1005800081110C94000008958150823108F05AC006
:10059000E82FF0E08827E053FD4F8F4F0C94B41202
:1005A000F002F402E202E802EC022203F702FD028A
:1005B000010307030B030F031503190322031D0394
:1005C00023032703809180008F7780938000089514
:1005D000809180008F7DF9CF80918000877FF5CF5B
:1005E00084B58F7784BD089584B58F7DFBCF8091CE
:1005F000B0008F778093B00008958091B0008F7D18
:10060000F9CF809190008F7780939000089580912A
:1006100090008F7DF9CF80919000877FF5CF8091FA
:10062000A0008F778093A00008958091A0008F7D17
:10063000F9CF8091A000877FF5CF809120018F773F
:10064000809320010895809120018F7DF9CF8091C2
:100650002001877FF5CFCF93DF93282F30E0F9017A
:10066000EA5AFD4F8491F901E05FFD4FD491F90101
:10067000E653FE4FC491CC23A1F081110E94C40225
:10068000EC2FF0E0EE0FFF1FE055FE4FA591B49167
:10069000EC91ED2381E090E009F480E0DF91CF91CF
:1006A000089580E090E0FACF1F93CF93DF93282F37
:1006B00030E0F901EA5AFD4F8491F901E05FFD4F06
:1006C000D491F901E653FE4FC491CC23A9F0162F23
:1006D00081110E94C402EC2FF0E0EE0FFF1FEA56DA
:1006E000FE4FA591B4918FB7F894EC91111108C009
:1006F000D095DE23DC938FBFDF91CF911F910895BA
:10070000DE2BF8CFCF93DF9390E0FC01E05FFD4F4D
:10071000249186539E4FFC0184918823D1F090E070
:10072000880F991FFC01E458FE4FA591B491FC017C
:10073000EA56FE4FC591D491623071F49FB7F89498
:100740003C91822F809583238C93E8812E2B2883E4
:100750009FBFDF91CF9108958FB7F894EC912E2B26
:100760002C938FBFF6CF90917B00977F90937B0067
:100770008653806480937C0080917A0080648093AB
:100780007A0080917A0086FDFCCF8091780090916C
:10079000790008953FB7F89480916F0490917004A8
:1007A000A0917104B091720426B5A89B05C02F3F9B
:1007B00019F00196A11DB11D3FBFBA2FA92F982F87
:1007C0008827BC01CD01620F711D811D911D42E082
:1007D000660F771F881F991F4A95D1F708958F924A
:1007E0009F92AF92BF92CF92DF92EF92FF926B01F6
:1007F0007C010E94CA034B015C01C114D104E104D5
:10080000F104B9F00E94CA03681979098A099B09A1
:10081000683E73408105910580F321E0C21AD1083A
:10082000E108F10888EE880E83E0981EA11CB11C37
:10083000E4CFFF90EF90DF90CF90BF90AF909F906C
:100840008F900895089590E080E008950F931F938E
:10085000CF93DF93EC018B0188859985029751F442
:100860006130710509F43AC06CF560E001151105BD
:1008700009F435C088859985049751F40130110534
:1008800009F455C00CF035C00115110509F43EC03E
:1008900088859985059709F0C8C00A30110508F0C8
:1008A000C4C0F8018827E85AFB4F8F4F0C94B4124C
:1008B000AB04B504C304D504ED04EF04F504FF0450
:1008C0000D0513056230710591F060E003301105EC
:1008D00089F68C850E94540360E005C061E08C8538
:1008E0000E94540361E08E850E945403C3CF61E0EF
:1008F000F0CF0230110509F10330110509F0C8CF1E
:1009000061E08C850E94540360E01CC061E08C852E
:100910000E94540360E08E850E94540361E0888940
:100920000E94540360E08A890E945403B1CF60E0C2
:100930008C850E94540361E0EECF60E08C850E94BC
:10094000540361E08E850E94540360E088890E9410
:10095000540361E0E8CF60E08C850E94540361E0BD
:100960008E850E94540361E009C060E08C850E947E
:10097000540361E08E850E94540360E088890E94E0
:10098000540360E00DC060E08C850E94540361E078
:100990008E850E94540360E088890E94540361E0C0
:1009A0008A890E94540361E011C060E08C850E9436
:1009B000540361E08E850E94540360E088890E94A0
:1009C000540361E08A890E94540360E08C89DF91BE
:1009D000CF911F910F910C94540361E0E7CF61E038
:1009E0008C850E94540360E0E5CF61E08C850E9415
:1009F000540360E08E850E94540361E0DFCF61E024
:100A00008C850E94540360E08E850E94540361E04F
:100A100088890E94540360E0D5CF61E08C850E94F4
:100A2000540360E09DCF60E0F9CFDF91CF911F913B
:100A30000F910895CF92DF92EF92FF920F931F9341
:100A4000CF93DF93EC016130710509F045C07983E4
:100A500068830E94CA030E891F89288D398D6B0116
:100A60007C01C01AD10AE20AF30A0A811B812C8197
:100A70003D81C016D106E206F30658F36E8B7F8BDC
:100A8000888F998F8A859B8528813981213031050E
:100A900049F501969B878A872E813F8182179307AC
:100AA00011F41B861A868A859B85288539856AE01C
:100AB00070E02530310511F064E070E00E94A01272
:100AC000BC01CE01DF91CF911F910F91FF90EF906C
:100AD000DF90CF900C9426046F3F7F4F79F41982FA
:100AE0001882B7CF892B21F48E819F819B878A87BB
:100AF0008A859B8501979B878A87D5CFDF91CF9188
:100B00001F910F91FF90EF90DF90CF900895883C58
:100B10009105B4F08C3221E09207ACF0803921E0ED
:100B20009207A4F0803722E092079CF0843D22E0F7
:100B3000920794F08833934094F08CEF9FEF0895E0
:100B400084E090E0089582E090E0089581E090E0F4
:100B5000089590E080E008958FEF9FEF08958EEF65
:100B60009FEF0895FB0101900020E9F73197AF0155
:100B7000461B570BDC01ED91FC910280F381E02DC7
:100B800019940F931F93CF93DF93EC018881998180
:100B9000009759F02A813B812617370730F081E012
:100BA000DF91CF911F910F9108958B016F5F7F4F60
:100BB0000E94F513009759F0998388831B830A8359
:100BC0002C813D81232B59F7FC011082E8CF80E076
:100BD000E7CFEF92FF920F931F93CF93DF936115AF
:100BE000710541F480E0DF91CF911F910F91FF904B
:100BF000EF90089541155105B1F07B01EC010C8196
:100C00001D81040F151FB8010E94C105882351F3EF
:100C1000288139818C819D81B701820F931F0E94A9
:100C2000DF141D830C8381E0DECFCF93DF93EC01D3
:100C300088819981009711F00E946C1319821882A3
:100C40001D821C821B821A82DF91CF910895EF9240
:100C5000FF920F931F93CF93DF93EC017B011982D7
:100C600018821B821A821D821C82FB0101900020C7
:100C7000E9F731978F01061B170BB8010E94C105D8
:100C8000811109C0CE01DF91CF911F910F91FF908B
:100C9000EF900C9415061D830C83B7018881998110
:100CA000DF91CF911F910F91FF90EF900C94DF1483
:100CB000CF92DF92EF92FF920F931F93CF93DF9328
:100CC000CDB7DEB762970FB6F894DEBF0FBECDBFCB
:100CD0008C01CB01F80111821082138212821582DD
:100CE00014824AE09E012F5F3F4F6901B9010E94C3
:100CF0003C10F60101900020E9F731977F01EC18D4
:100D0000FD08B701C8010E94C105811112C0C801C8
:100D10000E94150662960FB6F894DEBF0FBECDBFD7
:100D2000DF91CF911F910F91FF90EF90DF90CF90C7
:100D30000895F801F582E482B601808191810E94D4
:100D4000DF14E8CFCF93DF93EC01FB01019000208B
:100D5000E9F73197AF01461B570B0E94E905811156
:100D600003C0CE010E941506CE01DF91CF910895F8
:100D7000CF93DF93EC01FB01448155816081718148
:100D80000E94E905811103C0CE010E941506CE0123
:100D9000DF91CF910895FC0180819181009711F03E
:100DA0000C946C130895CF93DF93EC0160E08E8177
:100DB0000E94540361E08E810E94540360E08E81A2
:100DC0000E9454038BE891E00197F1F7DF91CF91F6
:100DD0000895CF92DF92EF92FF920F931F93CF93DC
:100DE000DF936C017C0187E0E80EF11CD0E0C0E0ED
:100DF000062F10E0B8010C2E02C0759567950A9475
:100E0000E2F76170F70181917F010E9454032196FE
:100E1000C430D10579F7C601DF91CF911F910F91B1
:100E2000FF90EF90DF90CF900C94D306CF92DF929B
:100E3000EF92FF920F931F93CF93DF93EC01F62E67
:100E4000642F8C810E9454038D818F3F19F060E0E4
:100E50000E9454030F2D10E08F8584FF25C06E0182
:100E600087E0C80ED11CF12CE12CB8010E2C02C079
:100E7000759567950A94E2F76170F60181916F01AB
:100E80000E945403FFEFEF1AFF0A88E0E816F1040E
:100E900061F7CE01DF91CF911F910F91FF90EF90FD
:100EA000DF90CF900C94D306B80184E075956795D8
:100EB0008A95E1F7CE010E94E9066F2DCE01DF9100
:100EC000CF911F910F91FF90EF90DF90CF900C94F6
:100ED000E90640E0682F88E295E00C94160781E06F
:100EE0000E9469078BE39FE10197F1F70895CF9383
:100EF000DF93823029F490913705986090933705FD
:100F000080933B0510923C0580E480933D0580E191
:100F100080933E0580E580933F0561E080912C053C
:100F20000E94820380912D058F3F19F061E00E949D
:100F3000820361E080912E050E948203C8E2D5E021
:100F40009E01285235408091370584FD0BC084E016
:100F500090E021962817390744F461E08E810E94C1
:100F60008203EECF88E090E0F4CF8BE39DE0019721
:100F7000F1F760E080912C050E94540360E08091BD
:100F80002E050E94540380912D058F3F19F060E0DB
:100F90000E9454038091370584FD34C063E088E2E9
:100FA00095E00E94E906CBE4D6E4CE010197F1F783
:100FB00063E088E295E00E94E9062197F1F763E09B
:100FC00088E295E00E94E90683E592E00197F1F757
:100FD00062E088E295E00E94E90680913705806230
:100FE0000E94690784E0809338058CE00E946907BD
:100FF0000E946F0782E08093390586E0DF91CF91F0
:101000000C94690780620E9469078BE496E401975B
:10101000F1F78091370580620E94690783E592E0CD
:101020000197F1F78091370580620E946907D5CF5B
:1010300090913B05891710F08FEF890FE82FF0E0B2
:10104000E85DFA4F848980680C94690741E00E944A
:10105000160781E090E008951F920F920FB60F924D
:1010600011240BB60F922F933F934F935F936F937F
:101070007F938F939F93AF93BF93EF93FF938BE8EF
:1010800094E00E940402FF91EF91BF91AF919F9174
:101090008F917F916F915F914F913F912F910F9021
:1010A0000BBE0F900FBE0F901F9018951F920F92BE
:1010B0000FB60F9211240BB60F922F938F939F931D
:1010C000EF93FF93E0919B04F0919C048081E09169
:1010D000A104F091A20482FD1DC090818091A4041E
:1010E0008F5F8F732091A504821741F0E091A404D3
:1010F000F0E0E557FB4F958F8093A404FF91EF91AB
:101100009F918F912F910F900BBE0F900FBE0F905C
:101110001F9018958081F2CF1F920F920FB60F92F9
:1011200011242F933F938F939F93AF93BF938091FD
:10113000730490917404A0917504B0917604309179
:101140006E0423E0230F2D3758F50196A11DB11D24
:1011500020936E048093730490937404A093750499
:10116000B093760480916F0490917004A091710403
:10117000B09172040196A11DB11D80936F049093EC
:101180007004A0937104B0937204BF91AF919F91CA
:101190008F913F912F910F900FBE0F901F90189538
:1011A00026E8230F0296A11DB11DD2CFEF92FF9228
:1011B0000F931F93CF93DF93EBE8F4E01382128237
:1011C00088EE93E0A0E0B0E084839583A683B783A4
:1011D0008EE092E09183808385EC90E09587848710
:1011E00084EC90E09787868780EC90E0918B808BF1
:1011F00081EC90E0938B828B82EC90E0958B848BDA
:1012000086EC90E0978B868B118E128E138E148E47
:10121000CAE5D5E01B861A86198218821E8A1F8AA3
:10122000188E198E80E4E82EF12CFF82EE828EE17A
:1012300090E09D878C8780E290E09F878E878FE18A
:1012400090E0998B888B81E290E09B8B8A8B61E0A8
:101250008EE10E94820361E08E850E94820361E03C
:1012600088890E94820361E08A890E9482031D8A24
:101270001C8A04E010E019870887C0E4D5E01B86CB
:101280001A86198218821E8A1F8A188E198EFF826A
:10129000EE8282E290E09D878C8784E290E09F87D7
:1012A0008E8783E290E0998B888B85E290E09B8B20
:1012B0008A8B61E082E20E94820361E08E850E9457
:1012C000820361E088890E94820361E08A890E942A
:1012D00082031D8A1C8A19870887E8E2F5E01382D9
:1012E000128280E292E09183808380E384838FEF97
:1012F000858381E3868382E3878383E3808784E336
:10130000818785E38287138614861586168617865D
:1013100081E0DF91CF911F910F91FF90EF900C949E
:101320007707CF93DF93CDB7DEB762970FB6F89408
:10133000DEBF0FBECDBF789484B5826084BD84B516
:10134000816084BD85B5826085BD85B5816085BDC0
:1013500080916E00816080936E0010928100809178
:101360008100826080938100809181008160809300
:101370008100809180008160809380008091B10025
:1013800084608093B1008091B00081608093B00050
:1013900080919100826080939100809191008160A2
:1013A0008093910080919000816080939000809163
:1013B000A10082608093A1008091A1008160809350
:1013C000A1008091A00081608093A0008091210104
:1013D00082608093210180912101816080932101AD
:1013E0008091200181608093200180917A00846047
:1013F00080937A0080917A00826080937A00809155
:101400007A00816080937A0080917A00806880936E
:101410007A001092C100E0919B04F0919C0482E05C
:101420008083E0919704F09198041082E0919904F0
:10143000F0919A048FEC80831092A304E0919F04B2
:10144000F091A00486E08083E0919D04F0919E04D9
:10145000808180618083E0919D04F0919E04808171
:1014600088608083E0919D04F0919E048081806873
:101470008083E0919D04F0919E0480818F7D808324
:1014800068E272E08BE894E00E94B20560E373E0EA
:101490008BE894E00E94B2056EE572E08BE894E080
:1014A0000E94B2056FE672E08BE894E00E94B205FC
:1014B0006AE772E08BE894E00E94B20564E872E0AB
:1014C0008BE894E00E94B2056FE872E08BE894E04C
:1014D0000E94B20565E972E08BE894E00E94B205D3
:1014E00060EA72E08BE894E00E94B20560E373E08A
:1014F0008BE894E00E94B20520916005309161056F
:10150000032E000C440B550BC12C97E8D92E93E900
:10151000E92E93E0F92EC701B6010E9495116AE009
:10152000462E512C612C712CCA01B901A3019201E4
:101530000E94951120935C0530935D0540935E05F4
:1015400050935F052091460530914705032E000C0E
:10155000440B550BC701B6010E949511CA01B90190
:10156000A30192010E9495112093420530934305F7
:10157000409344055093450582E00E94770780E040
:101580000E9418086CEA72E088E295E00E94B205B9
:1015900081E00E94180868EB72E088E295E00E9402
:1015A000B20568EE73E080E090E00E94EF0362E035
:1015B00086E10E94820362E087E10E94820362E08A
:1015C00088E10E94820362E089E10E94820362E076
:1015D0008AE10E94820361E08DE00E94820361E063
:1015E00082E00E94820361E083E00E94820361E066
:1015F00084E00E94820361E085E00E94820361E052
:1016000086E00E94820361E086E20E94820361E03C
:1016100087E20E94820361E088E20E94820361E027
:101620008AE20E94820361E08BE20E94820361E011
:101630008CE20E94820361E08EE20E94820361E0FC
:101640008FE20E94820361E08DE00E94540360E01B
:1016500082E00E94540360E083E00E94540360E053
:1016600084E00E94540360E085E00E94540360E03F
:1016700086E00E94540360E086E20E94540360E02A
:1016800087E20E94540360E088E20E94540360E015
:101690008AE20E94540360E08BE20E94540360E0FF
:1016A0008CE20E94540360E08CE20E94540360E0EC
:1016B0008EE20E94540360E08FE20E94540369ECC2
:1016C00072E08BE894E00E94B2058AE10E942B034D
:1016D000892BD9F768EE73E080E090E00E94EF0379
:1016E00061E08EE20E94540360E082E00E945403B5
:1016F00060E083E00E94540360E084E00E945403B1
:1017000060E085E00E94540360E086E00E9454039C
:1017100060E086E20E94540360E087E20E94540386
:1017200060E088E20E94540360E08AE20E94540371
:1017300060E08BE20E94540360E08CE20E9454035C
:1017400060E08CE20E94540366EF72E08BE894E064
:101750000E94B2050E946F0780E00E94180863E3B0
:1017600073E088E295E00E94B20581E00E941808CB
:1017700064E473E088E295E00E94B2058AE10E9489
:101780002B03892BD9F70E94E40F24E531E040E0D8
:1017900050E00E949511665F7F4F8F4F9F4F0E94D0
:1017A000781060937B0470937C0480937D04909305
:1017B0007E040E94E40F26E430E040E050E00E9406
:1017C0009511665F7F4F8F4F9F4F0E9478106093F7
:1017D0007704709378048093790490937A040E943C
:1017E0006512CE0101960E94580660917B047091AB
:1017F0007C0480917D0490917E040E946512CE014C
:1018000007960E94580665E573E0CE010D960E948A
:101810002706BE01695F7F4FCE010D960E94B80674
:1018200065E773E00E94A206BE016F5F7F4F0E94D2
:10183000B806BC018BE894E00E948201CE010D96AF
:101840000E94CB06CE0107960E94CB06CE010196E0
:101850000E94CB060E946F0780E00E94180863E890
:1018600073E088E295E00E94B20581E00E941808CA
:1018700060917704709178048091790490917A0452
:101880000E946512CE0101960E94580660917B0469
:1018900070917C0480917D0490917E040E94651279
:1018A000CE0107960E94580663E973E0CE010D96BB
:1018B0000E942706BE01695F7F4FCE010D960E94F0
:1018C000B80668E973E00E94A206BE016F5F7F4F11
:1018D0000E94B806BC0188E295E00E948201CE0118
:1018E0000D960E94CB06CE0107960E94CB06CE0134
:1018F00001960E94CB068FB7F89480907304909065
:101900007404A0907504B09076048FBF8FB7F894DC
:10191000C0907304D0907404E0907504F090760445
:101920008FBFC818D908EA08FB088BEFC816D10486
:10193000E104F1040CF4D3C061E082E00E9454039E
:1019400089EBC8168BE0D806E104F1040CF4C7C09B
:1019500061E083E00E94540381E7C81687E1D8065E
:10196000E104F1040CF4BBC061E084E00E94540384
:1019700089E2C81683E2D806E104F1040CF4AFC092
:1019800061E085E00E94540381EEC8168EE2D8061D
:10199000E104F1040CF4A3C061E086E00E9454036A
:1019A00089E9C8168AE3D806E104F1040CF497C06B
:1019B0000E946F0740907B0450907C0460907D04EF
:1019C00070907E04C0908504D0908604E0908704D7
:1019D000F090880420E030E040EA51E4C301B20115
:1019E0000E94F811A70196010E94711087FF62C042
:1019F00020E030E040EA51E4C301B2010E94F91155
:101A00009B01AC01C701B6010E94711087FF52C053
:101A100040907704509078046090790470907A0434
:101A2000C0907F04D0908004E0908104F090820404
:101A300020E030E040E251E4C301B2010E94F8111D
:101A4000A70196010E94711087FF34C020E030E0AA
:101A500040E251E4C301B2010E94F9119B01AC01C3
:101A6000C701B6010E94711087FF24C060EA73E0CD
:101A70008BE894E00E94B20580E00E94180869ECAF
:101A800073E088E295E00E94B20581E00E941808A8
:101A90006AED73E088E295E00E94B2058AE10E9457
:101AA0002B03892BD9F768EE73E080E090E00E9469
:101AB000EF031ACE68EE73E08BE894E00E94B20563
:101AC00080E00E94180867E074E088E295E00E94D8
:101AD000B20581E00E94180861E174E0DBCF86E383
:101AE0000E94B3030E9487057C0187E30E94B30331
:101AF0000E9487056C0184E0282E312C0091890416
:101B000010918A04B801012E000C880B990B0E94D9
:101B1000781020E030E040E85CE30E94D71020E03D
:101B200030E044EB53E40E94D7102B013C0140927B
:101B300085045092860460928704709288046091B4
:101B4000830470918404072E000C880B990B0E946B
:101B5000781020E030E040E85CE30E94D71020E0FD
:101B600030E044EB53E40E94D71060937F047093FD
:101B700080048093810490938204F7FE35C120E0B5
:101B800030E04FEA53E4C301B2010E94711087FDB7
:101B900015C16DE570E080E090E00E94EF03D7FE94
:101BA0005DC120E030E040EA52E460917F04709132
:101BB000800480918104909182040E94711087FDBD
:101BC00034C16DE570E080E090E00E94EF0381E0B9
:101BD000281A310809F092CF40907B0450907C0481
:101BE00060907D0470907E04C0908504D09086043F
:101BF000E0908704F090880420E030E040EA51E46F
:101C0000C301B2010E94F811A70196010E949B1224
:101C100018160CF04DC160E086E20E94540360E0AB
:101C200087E20E94540361E088E20E9454034090DE
:101C30007704509078046090790470907A04C09092
:101C40007F04D0908004E0908104F090820420E032
:101C500030E040E251E4C301B2010E94F811A70153
:101C600096010E949B1218160CF042C160E08AE2B5
:101C70000E94540360E08BE20E94540361E08CE216
:101C80000E945403C701B6010E946512CE0101965D
:101C90000E945806609185047091860480918704A3
:101CA000909188040E946512CE0107960E94580602
:101CB0006FE174E0CE010D960E942706BE01695FB8
:101CC0007F4FCE010D960E94B80669E374E00E9432
:101CD000A206BE016F5F7F4F0E94B806BC018BE871
:101CE00094E00E948201CE010D960E94CB06CE01A7
:101CF00007960E94CB06CE0101960E94CB0680E09B
:101D00000E94180860918504709186048091870470
:101D1000909188040E946512CE0101960E94580697
:101D20006EE474E0CE0107960E942706BE016F5F45
:101D30007F4FCE0107960E94B8066CE574E00E94C2
:101D4000A206BC0188E295E00E948201CE010796BE
:101D50000E94CB06CE0101960E94CB0681E00E9434
:101D6000180860917F0470918004809181049091A3
:101D700082040E946512CE0101960E9458066FE50A
:101D800074E0CE0107960E942706BE016F5F7F4F69
:101D9000CE0107960E94B8066CE574E00E94A20688
:101DA000BC0188E295E00E948201CE0107960E9464
:101DB000CB06CE0101960E94CB06A8CD87E10E94FA
:101DC0002B03892B09F4E5CE6FEF7FEF8AE595E0D1
:101DD0000E941A058FEFE81AF80A0F5F1F4F109341
:101DE0008A0400938904DBCEE114F10409F4D1CE16
:101DF00020E030E040E251E4C301B2010E949B12B6
:101E000018160CF0C6CE86E10E942B03892B09F42C
:101E1000C0CE61E070E08AE595E00E941A0581E09D
:101E2000E81AF10801501109DACF89E10E942B0369
:101E3000892B09F4C6CE6FEF7FEF80E495E00E9416
:101E40001A058FEFC81AD80A8091830490918404F0
:101E500001969093840480938304B9CEC114D10475
:101E600009F4AFCE20E030E040E251E460917F041D
:101E70007091800480918104909182040E949B1251
:101E800018160CF09ECE88E10E942B03892B09F4D2
:101E900098CE61E070E080E495E00E941A0581E050
:101EA000C81AD10880918304909184040197D1CFFE
:101EB00020E030E040EA51E4C301B2010E94F91190
:101EC0009B01AC01C701B6010E949B12181654F485
:101ED00061E086E20E94540360E087E20E945403BE
:101EE00060E0A2CE60E086E20E94540361E0F5CF9C
:101EF00020E030E040E251E4C301B2010E94F91158
:101F00009B01AC01C701B6010E949B12181654F444
:101F100061E08AE20E94540360E08BE20E94540375
:101F200060E0ADCE60E08AE20E94540361E0F5CF4C
:101F30008F929F92AF92BF92CF92DF92EF92FF92D9
:101F4000CF93DF93EC01688179818A819B81611550
:101F500071058105910521F464E279ED8BE597E047
:101F60002DE133EF41E050E00E94951149015A0103
:101F70009B01AC01A7EAB1E40E94B4116B017C01A2
:101F8000ACEEB4EFA50194010E94C211C60ED71E9B
:101F9000E81EF91EF7FE06C081E0C81AD108E10864
:101FA00080E8F80AC882D982EA82FB82C701B601BA
:101FB0009F77DF91CF91FF90EF90DF90CF90BF9010
:101FC000AF909F908F9008958F929F92AF92BF9203
:101FD000CF92DF92EF92FF92609100027091010226
:101FE00080910202909103026115710581059105AE
:101FF00021F464E279ED8BE597E02DE133EF41E0E8
:1020000050E00E94951149015A019B01AC01A7EAD9
:10201000B1E40E94B4116B017C01ACEEB4EFA501F8
:1020200094010E94C211C60ED71EE81EF91EF7FECB
:1020300006C081E0C81AD108E10880E8F80AC09219
:102040000002D0920102E0920202F0920302C70164
:10205000B6019F77FF90EF90DF90CF90BF90AF9049
:102060009F908F9008956093000270930102809377
:102070000202909303020895BB274A3031F499235A
:1020800022F4BDE2909581959F4F0C944810BB2798
:10209000FB015527AA27880F991FAA1FA41710F024
:1020A000A41B83955051B9F7A05DAA3308F0A95D30
:1020B000A193009779F7B111B1931192CB010C94D0
:1020C0006110DC01FC01672F71917723E1F73297F2
:1020D00004C07C916D9370836291AE17BF07C8F303
:1020E00008950E94B31008F481E00895E89409C0AF
:1020F00097FB3EF490958095709561957F4F8F4F3B
:102100009F4F9923A9F0F92F96E9BB279395F69550
:10211000879577956795B795F111F8CFFAF4BB0FCE
:1021200011F460FF1BC06F5F7F4F8F4F9F4F16C032
:10213000882311F096E911C0772321F09EE8872FBC
:10214000762F05C0662371F096E8862F70E060E078
:102150002AF09A95660F771F881FDAF7880F9695F1
:10216000879597F90895990F0008550FAA0BE0E895
:10217000FEEF16161706E807F907C0F01216130649
:10218000E407F50798F0621B730B840B950B39F489
:102190000A2661F0232B242B252B21F408950A26EF
:1021A00009F4A140A6958FEF811D811D08950E941D
:1021B000EA100C945B110E944D1138F00E945411EA
:1021C00020F0952311F00C9444110C944A11112421
:1021D0000C948F110E946C1170F3959FC1F3950FB1
:1021E00050E0551F629FF001729FBB27F00DB11D9B
:1021F000639FAA27F00DB11DAA1F649F6627B00D2B
:10220000A11D661F829F2227B00DA11D621F739F13
:10221000B00DA11D621F839FA00D611D221F749F21
:102220003327A00D611D231F849F600D211D822F68
:10223000762F6A2F11249F5750409AF0F1F088238F
:102240004AF0EE0FFF1FBB1F661F771F881F9150BC
:102250005040A9F79E3F510580F00C9444110C9416
:102260008F115F3FE4F3983ED4F386957795679599
:10227000B795F795E7959F5FC1F7FE2B880F911DE6
:102280009695879597F9089597F99F6780E870E08C
:1022900060E008959FEF80EC089500240A941616DC
:1022A000170618060906089500240A941216130644
:1022B000140605060895092E0394000C11F48823D2
:1022C00052F0BB0F40F4BF2B11F460FF04C06F5FEE
:1022D0007F4F8F4F9F4F089557FD9058440F551FC4
:1022E00059F05F3F71F04795880F97FB991F61F098
:1022F0009F3F79F087950895121613061406551F0F
:10230000F2CF4695F1DF08C0161617061806991F7A
:10231000F1CF86957105610508940895E894BB276F
:1023200066277727CB0197F90895052E97FB1EF4B2
:1023300000940E94AC1157FD07D00E94C71107FC02
:1023400003D04EF40C94AC115095409530952195E6
:102350003F4F4F4F5F4F08959095809570956195D1
:102360007F4F8F4F9F4F08950E94E911A59F900DB9
:10237000B49F900DA49F800D911D11240895B7FF67
:102380000C94B4110E94B411821B930B0895A1E226
:102390001A2EAA1BBB1BFD010DC0AA1FBB1FEE1FDF
:1023A000FF1FA217B307E407F50720F0A21BB30B2A
:1023B000E40BF50B661F771F881F991F1A9469F7A6
:1023C00060957095809590959B01AC01BD01CF0102
:1023D0000895A29FB001B39FC001A39F700D811DFE
:1023E0001124911DB29F700D811D1124911D08951E
:1023F0005058BB27AA270E9410120C945B110E9410
:102400004D1138F00E94541120F039F49F3F19F417
:1024100026F40C944A110EF4E095E7FB0C94441159
:10242000E92F0E946C1158F3BA17620773078407EB
:10243000950720F079F4A6F50C948E110EF4E09532
:102440000B2EBA2FA02D0B01B90190010C01CA016E
:10245000A0011124FF27591B99F0593F50F4503E19
:1024600068F11A16F040A22F232F342F4427585F0B
:10247000F3CF469537952795A795F0405395C9F723
:102480007EF41F16BA0B620B730B840BBAF09150DB
:10249000A1F0FF0FBB1F661F771F881FC2F70EC07A
:1024A000BA0F621F731F841F48F48795779567954D
:1024B000B795F7959E3F08F0B0CF9395880F08F039
:1024C0009927EE0F9795879508950E946C1268944E
:1024D000B1110C948F1108950E94741188F09F57C8
:1024E00098F0B92F9927B751B0F0E1F0660F771F38
:1024F000881F991F1AF0BA95C9F714C0B13091F02E
:102500000E948E11B1E008950C948E11672F782FE0
:102510008827B85F39F0B93FCCF3869577956795F2
:10252000B395D9F73EF490958095709561957F4F5E
:102530008F4F9F4F08950E94B31008F48FEF0895B6
:1025400097FB072E16F4009407D077FD09D00E9460
:10255000BC1207FC05D03EF4909581959F4F0895DD
:10256000709561957F4F0895EE0FFF1F881F8BBFF9
:102570000790F691E02D1994AA1BBB1B51E107C0EF
:10258000AA1FBB1FA617B70710F0A61BB70B881F03
:10259000991F5A95A9F780959095BC01CD01089592
:1025A0000F931F93CF93DF938230910510F482E055
:1025B00090E0E0917605F091770530E020E0B0E022
:1025C000A0E0309799F42115310509F44AC0281B81
:1025D000390B24303105D8F58A819B81611571054D
:1025E00089F1FB0193838283FE0111C040815181F7
:1025F0000281138148175907E0F04817590799F4E9
:10260000109761F012960C93129713961C933296C2
:10261000CF01DF91CF911F910F910895009376051F
:1026200010937705F4CF2115310551F04217530768
:1026300038F0A901DB019A01BD01DF01F801C1CF2A
:10264000EF01F9CF9093770580937605CDCFFE010A
:10265000E20FF31F8193919322503109398328832C
:10266000D7CF2091740530917505232B41F420912B
:10267000060230910702309375052093740520916E
:102680000402309105022115310541F42DB73EB702
:102690004091080250910902241B350BE09174050A
:1026A000F0917505E217F307A0F42E1B3F0B2817D6
:1026B000390778F0AC014E5F5F4F2417350748F0BB
:1026C0004E0F5F1F5093750540937405819391934E
:1026D0009FCFF0E0E0E09CCFCF93DF930097E9F04D
:1026E000FC01329713821282A0917605B091770592
:1026F000ED0130E020E01097A1F420813181820FBC
:10270000931F20917405309175052817390709F03A
:1027100061C0F0937505E0937405DF91CF91089542
:10272000EA01CE17DF07E8F54A815B819E0141157A
:102730005105B1F7E901FB83EA8349915991C40F2F
:10274000D51FEC17FD0761F4808191810296840FFB
:10275000951FE90199838883828193819B838A8372
:10276000F0E0E0E012968D919C9113970097B9F5F7
:102770002D913C911197CD010296820F931F2091CC
:102780007405309175052817390739F6309751F5DA
:102790001092770510927605B0937505A093740595
:1027A000BCCFD383C28340815181840F951FC8174A
:1027B000D90761F44E5F5F4F88819981480F591F97
:1027C000518340838A819B819383828321153105C4
:1027D00009F0B0CFF0937705E09376059ECFFD0129
:1027E000DC01C0CF13821282D7CF4F925F926F92DB
:1027F0007F928F929F92AF92BF92CF92DF92EF9291
:10280000FF920F931F93CF93DF938C01009799F45E
:10281000CB01DF91CF911F910F91FF90EF90DF904F
:10282000CF90BF90AF909F908F907F906F905F9070
:102830004F900C94D012FC01E60FF71F9C01225020
:102840003109E217F30708F4AEC0D901CD91DC914C
:102850001197C617D70720F1C530D10578F0CE0102
:1028600004978617970750F0C61BD70B2297C19382
:10287000D1936D937C93CF010E946C13C801DF91BB
:10288000CF911F910F91FF90EF90DF90CF90BF906D
:10289000AF909F908F907F906F905F904F90089532
:1028A0005B01AC1ABD0A4C018C0E9D1EA0917605F1
:1028B000B0917705512C412CF12CE12C109731F57A
:1028C00080917405909175058815990509F05CC093
:1028D0004616570608F058C08091040290910502F0
:1028E000009741F48DB79EB74091080250910902BC
:1028F000841B950BE817F90708F055C0F093750590
:10290000E0937405F90171836083B8CF8D919C9138
:10291000119712966C90129713967C901397A815A6
:10292000B90559F56C0142E0C40ED11CCA14DB0490
:1029300020F1AC014A195B09DA011296159780F073
:102940006282738251834083D9016D937C93E11439
:10295000F10471F0D7011396FC93EE9312978ECF8A
:1029600022968C0F9D1FF90191838083F301EFCF95
:10297000F0937705E093760581CF4816590608F461
:102980002C017D01D3019ACFCB010E94D0127C0192
:10299000009749F0AE01B8010E94D614C8010E9408
:1029A0006C1387016BCF10E000E068CFFB01DC0106
:1029B00002C001900D9241505040D8F70895FB019C
:1029C000DC0101900D920020E1F70895F894FFCF0B
:1029D00001000000000078058000000000002602D1
:1029E0009001BD017302EE01CC01E0010000000086
:1029F00026089001230422040D0A2A2A2A2057655A
:102A00006C636F6D6520746F20746865204D41475D
:102A100049432047616D653A2043617463682074BF
:102A200068652047616D6D6121202A2A2A000D0A00
:102A30004669726D7761726520696E666F3A000D46
:102A40000A2D204E616D653A20004D61676963472C
:102A5000616D65000D0A2D205665722E3A200030FA
:102A60002E302E31000D0A2D20446174653A20006D
:102A70003133204A616E2032303233004D414749B4
:102A8000432047616D653A00436174636820746850
:102A9000652047616D6D6121000D0A506C656173A1
:102AA0006520707265737320746865207374617239
:102AB0007420627574746F6E20746F20636F6E740F
:102AC000696E75652E000D0A0D0A4D414749432078
:102AD00047616D653A20507573682074686520738E
:102AE0007461727420627574746F6E20746F2073D9
:102AF000746172742061206E65772067616D652E48
:102B00000D0A002D3D204D414749432047616D6529
:102B1000203D2D002A205075736820627574746FF3
:102B20006E21202A000D0A4E65772067616D6D6168
:102B300020706F736974696F6E3A20417A696D75A0
:102B400074683A20002C20656C65766174696F6E3C
:102B50003A200047616D6D6120706F736974696F11
:102B60006E3A00417A3A2000202C20656C3A200011
:102B70000D0A436F6E67726174756C6174696F6E74
:102B8000732120596F7520636175676874207468BC
:102B9000652067616D6D612100436F6E67726174BE
:102BA000756C6174696F6E73210047616D6D612092
:102BB00063617567687421000D0A536F7272792C16
:102BC00020596F75206D6973736564207468652082
:102BD00067616D6D612100536F7272792E203A2802
:102BE0000047616D6D61206D69737365642E000D22
:102BF0000A44454255473A2041637475616C20612F
:102C00007A696D7574683A20002C2061637475616F
:102C10006C20656C65766174696F6E3A2000444281
:102C200047206163742E20617A3A200020200044FE
:0E2C30004247206163742E20656C3A2000003C
:00000001FF
