:100000000C94CF010C9400020C9400020C9400029A
:100010000C9400020C9400020C9400020C94000258
:100020000C9400020C9400020C9400020C94000248
:100030000C9400020C9400020C9400020C94000238
:100040000C9400020C9400020C9400020C94000228
:100050000C9400020C9400020C9400020C941E0AF2
:100060000C9400020C94E8090C94BE090C94000254
:100070000C9400020C9400020C9400020C940002F8
:100080000C9400020C9400020C9400020C940002E8
:100090000C9488090C945E090C9400020C940002E4
:1000A0000C9400020C9400020C9400020C940002C8
:1000B0000C9400020C9400020C9400020C940002B8
:1000C0000C9400020C9400020C9400020C940002A8
:1000D0000C9400020C9400020C9400020C94000298
:1000E0000C9400020C94AB050C94B8030C946105BD
:1000F0000C9424030C9473020C94A1050C94CA0371
:100100000C94BF050C946F050C94C2030C949B05D2
:100110000C94680A0C94D0030C94CE040C94AE0397
:100120000C9464020C9499050C9433170C94870278
:100130000C94B9050C949D030C94A4030C948F03A8
:100140000C9495020C94D7020C94C6030C943702BD
:100150000C9457050C94D4030C94A1030C94F00751
:100160000C94CF040C9481050C9495030C94990382
:100170000C94BC030C94B4030C94AA030C94CF030A
:1001800000407A10F35A00A0724E18090010A5D44E
:10019000E80000E87648170000E40B54020000CAAB
:1001A0009A3B000000E1F5050000809698000000F1
:1001B00040420F000000A086010000001027000050
:1001C0000000E803000000006400000000000A00D6
:1001D000000000000100000000002C76D888DC67D9
:1001E0004F0823DFC1DFAE59E1B1B796E5E3E45331
:1001F000C63AE651997696E8E6C28426EB898C9B4E
:1002000062ED407C6FFCEFBC9C9F40F2BAA56FA5ED
:10021000F490055A2AF75C936B6CF9676DC11BFC6F
:10022000E0E40D47FEF520E6B500D0ED902E03008A
:10023000943577050080841E080000204E0A0000D7
:1002400000C80C333333330F986E12831141EF8D96
:100250002114893BE65516CFFEE6DB18D1844B38D6
:100260001BF77C1D901DA4BBE424203284725E2207
:100270008100C9F124ECA1E53D2700002100240004
:1002800027002A002D003000330001010000040186
:1002900007010A0100002200250028002B002E0083
:1002A0003100340002010000050108010B010000CB
:1002B00020002300260029002C002F00320000011E
:1002C00000000301060109010505050507050808E9
:1002D0000808020202020A0A0808040404040101D0
:1002E00001010101010103030303030303030407E5
:1002F00007070C0C0C0C0C0C0C0C0202020206067C
:100300000606060606060B0B0B0B0B0B0B0B01026E
:100310001020200808102040102040800201020117
:1003200008040201010204081020408080402010CF
:100330000804020180040201804020100804020128
:100340000804020101020408102040800102040890
:100350001020408000000A0B02090C0D0E08070354
:100360000401000000000000000000000000000088
:10037000000000000000000000000000000000007D
:10038000121110000000000000000000000000003A
:1003900000000000000000000000680A331711246C
:1003A0001FBECFEFD1E2DEBFCDBF00E00CBF16E035
:1003B000A0E0B2E0E0EFFEE300E00BBF02C0079078
:1003C0000D92A037B107D9F728E0A0E7B6E001C049
:1003D0001D92A332B207E1F711E0CEECD1E000E0CC
:1003E00006C021970109802FFE010E94341DCD3CDB
:1003F000D10780E00807A9F70E944F0B0C94661FF5
:100400000C940000FC01A089B18982E08C93A48542
:10041000B5851C92A685B7858FEC8C93108EA48928
:10042000B58986E08C93A289B3898C9180618C9385
:10043000A289B3898C9188608C93A289B3898C91AD
:1004400080688C930288F389E02D80818F7D808382
:100450000895DB0114964D915C9115976D917C91F7
:10046000DC01ED91FC910280F381E02D1994AF92B3
:10047000BF92CF92DF92EF92FF920F931F93CF9391
:10048000DF936C017B018B01040F151FEB015E01F3
:10049000AE18BF08C017D10759F06991D601ED9188
:1004A000FC910190F081E02DC6011995892B79F717
:1004B000C501DF91CF911F910F91FF90EF90DF90D9
:1004C000CF90BF90AF900895FC01538D448D252FA0
:1004D00030E0842F90E0821B930B541710F0CF96DE
:1004E000089501970895FC01918D828D981761F010
:1004F000A28DAE0FBF2FB11D5D968C91928D9F5F27
:100500009F73928F90E008958FEF9FEF0895FC0105
:10051000918D828D981731F0828DE80FF11D858DB8
:1005200090E008958FEF9FEF0895FC01918D228D4B
:10053000892F90E0805C9F4F821B91098F739927D0
:10054000089583E996E00E94950221E0892B09F441
:1005500020E0822F089580E397E00E94950221E039
:10056000892B09F420E0822F0895FC01A48DA80FA7
:10057000B92FB11DA35ABF4F2C91848D90E00196E5
:100580008F739927848FA689B7892C93A089B18905
:100590008C91837080648C93938D848D981306C0A6
:1005A0000288F389E02D80818F7D80830895EF920A
:1005B000FF920F931F93CF93DF93EC0181E0888F1D
:1005C0009B8D8C8D98131AC0E889F989808185FFED
:1005D00015C09FB7F894EE89FF896083E889F9898F
:1005E00080818370806480839FBF81E090E0DF9191
:1005F000CF911F910F91FF90EF900895F62E0B8DE4
:1006000010E00F5F1F4F0F731127E02E8C8D8E119E
:100610000CC00FB607FCFACFE889F989808185FF05
:10062000F5CFCE010E94B502F1CFEB8DEC0FFD2F7F
:10063000F11DE35AFF4FF0829FB7F8940B8FEA89C0
:10064000FB8980818062CFCFCF93DF93EC01888DCF
:100650008823B9F0AA89BB89E889F9898C9185FD3D
:1006600003C0808186FD0DC00FB607FCF7CF8C91CB
:1006700085FFF2CF808185FFEDCFCE010E94B502CC
:10068000E9CFDF91CF91089580E090E0892B29F0A8
:100690000E94AB0281110E94000080E090E0892B53
:1006A00029F00E94A10281110E94000080E090E0E8
:1006B000892B49F080E090E0892B29F00E9400000E
:1006C00081110E94000080E090E0892B49F080E0D9
:1006D00090E0892B29F00E94000081110C94000009
:1006E00008958150823108F05AC0E82FF0E0882741
:1006F000E358FC4F8F4F0C94341D9D03A1038F03CF
:1007000095039903CF03A403AA03AE03B403B8036C
:10071000BC03C203C603CF03CA03D003D403809132
:1007200080008F77809380000895809180008F7D76
:10073000F9CF80918000877FF5CF84B58F7784BD16
:10074000089584B58F7DFBCF8091B0008F77809323
:10075000B00008958091B0008F7DF9CF8091900016
:100760008F77809390000895809190008F7DF9CFCE
:1007700080919000877FF5CF8091A0008F77809344
:10078000A00008958091A0008F7DF9CF8091A000F6
:10079000877FF5CF809120018F7780932001089586
:1007A000809120018F7DF9CF80912001877FF5CF47
:1007B000CF93DF93282F30E0F901EC5AFC4F84915E
:1007C000F901E25FFC4FD491F901E853FD4FC49168
:1007D000CC23A1F081110E947103EC2FF0E0EE0F09
:1007E000FF1FE255FD4FA591B491EC91ED2381E0FF
:1007F00090E009F480E0DF91CF91089580E090E0EF
:10080000FACF1F93CF93DF93282F30E0F901EC5AF2
:10081000FC4F8491F901E25FFC4FD491F901E85358
:10082000FD4FC491CC23A9F0162F81110E947103B2
:10083000EC2FF0E0EE0FFF1FEC56FD4FA591B491A9
:100840008FB7F894EC91111108C0D095DE23DC939A
:100850008FBFDF91CF911F910895DE2BF8CFCF93FB
:10086000DF9390E0FC01E25FFC4F249188539D4FA1
:10087000FC0184918823D1F090E0880F991FFC013E
:10088000E658FD4FA591B491FC01EC56FD4FC59182
:10089000D491623071F49FB7F8943C91822F809587
:1008A00083238C93E8812E2B28839FBFDF91CF91E8
:1008B00008958FB7F894EC912E2B2C938FBFF6CF21
:1008C00090917B00977F90937B0086538064809308
:1008D0007C0080917A00806480937A0080917A0015
:1008E00086FDFCCF809178009091790008953FB704
:1008F000F8948091710690917206A0917306B09160
:10090000740626B5A89B05C02F3F19F00196A11DBE
:10091000B11D3FBFBA2FA92F982F8827BC01CD0149
:10092000620F711D811D911D42E0660F771F881FA8
:10093000991F4A95D1F708958F929F92AF92BF92D7
:10094000CF92DF92EF92FF924B015C010E947704FD
:100950006B017C010E9477046C197D098E099F0947
:10096000683E734081059105A8F321E0821A910841
:10097000A108B10888EEC80E83E0D81EE11CF11C66
:1009800081149104A104B10429F7FF90EF90DF9046
:10099000CF90BF90AF909F908F900895089590E072
:1009A00080E008950F931F93CF93DF93EC018B01A9
:1009B00088859985029751F46130710509F43AC030
:1009C0006CF560E00115110509F435C0888599853D
:1009D000049751F40130110509F455C00CF035C0ED
:1009E0000115110509F43EC088859985059709F020
:1009F000C8C00A30110508F0C4C0F8018827EC5FB0
:100A0000FA4F8F4F0C94341D570561056F05810512
:100A100099059B05A105AB05B905BF0562307105B8
:100A200091F060E00330110589F68C850E94010485
:100A300060E005C061E08C850E94010461E08E8564
:100A40000E940104C3CF61E0F0CF0230110509F12B
:100A50000330110509F0C8CF61E08C850E940104C4
:100A600060E01CC061E08C850E94010460E08E851E
:100A70000E94010461E088890E94010460E08A8983
:100A80000E940104B1CF60E08C850E94010461E006
:100A9000EECF60E08C850E94010461E08E850E94AB
:100AA000010460E088890E94010461E0E8CF60E011
:100AB0008C850E94010461E08E850E94010461E042
:100AC00009C060E08C850E94010461E08E850E946F
:100AD000010460E088890E94010460E00DC060E0CC
:100AE0008C850E94010461E08E850E94010460E013
:100AF00088890E94010461E08A890E94010461E002
:100B000011C060E08C850E94010461E08E850E9426
:100B1000010460E088890E94010461E08A890E94E2
:100B2000010460E08C89DF91CF911F910F910C94AB
:100B3000010461E0E7CF61E08C850E94010460E080
:100B4000E5CF61E08C850E94010460E08E850E9403
:100B5000010461E0DFCF61E08C850E94010460E068
:100B60008E850E94010461E088890E94010460E092
:100B7000D5CF61E08C850E94010460E09DCF60E0EC
:100B8000F9CFDF91CF911F910F910895CF92DF920E
:100B9000EF92FF920F931F93CF93DF93EC0161309D
:100BA000710509F045C0798368830E9477040E8936
:100BB0001F89288D398D6B017C01C01AD10AE20A88
:100BC000F30A0A811B812C813D81C016D106E20601
:100BD000F30658F36E8B7F8B888F998F8A859B8560
:100BE000288139812130310549F501969B878A8713
:100BF0002E813F818217930711F41B861A868A85FE
:100C00009B85288539856AE070E02530310511F033
:100C100064E070E00E94201DBC01CE01DF91CF9105
:100C20001F910F91FF90EF90DF90CF900C94D20422
:100C30006F3F7F4F79F419821882B7CF892B21F447
:100C40008E819F819B878A878A859B8501979B8759
:100C50008A87D5CFDF91CF911F910F91FF90EF90B1
:100C6000DF90CF900895883C9105C4F08C3221E04C
:100C70009207CCF0803921E09207D4F0803722E04F
:100C80009207D4F0843D22E09207D4F08833934059
:100C9000E4F064E070E080E090E008956CEF7FEFB6
:100CA0008FEF9FEF08956EEF7FEF8FEF9FEF089527
:100CB0006FEF7FEFCB01089560E070E0CB01089506
:100CC00061E070E080E090E0089562E070E080E034
:100CD00090E0089560E082E20E94010460E084E216
:100CE0000E94010460E083E20E94010460E085E26A
:100CF0000E94010490E080E0089560E08EE10E948F
:100D0000010460E080E20E94010460E08FE10E9443
:100D1000010460E081E20E94010490E080E0089517
:100D20008AE10E94D803892B29F088E30E94D80326
:100D3000892BB1F790E080E00895CF93DF93EC0129
:100D400060E08E810E94010461E08E810E940104B6
:100D500060E08E810E9401048BE891E00197F1F739
:100D6000DF91CF910895CF92DF92EF92FF920F9390
:100D70001F93CF93DF936C017C0187E0E80EF11C99
:100D8000D0E0C0E0062F10E0B8010C2E02C075952F
:100D900067950A94E2F76170F70181917F010E94E3
:100DA00001042196C430D10579F7C601DF91CF91B6
:100DB0001F910F91FF90EF90DF90CF900C949D06C4
:100DC000CF92DF92EF92FF920F931F93CF93DF9317
:100DD000EC01F62E642F8C810E9401048D818F3FDF
:100DE00019F060E00E9401040F2D10E08F8584FF50
:100DF00025C06E0187E0C80ED11CF12CE12CB80192
:100E00000E2C02C0759567950A94E2F76170F601A1
:100E100081916F010E940104FFEFEF1AFF0A88E041
:100E2000E816F10461F7CE01DF91CF911F910F9188
:100E3000FF90EF90DF90CF900C949D06B80184E076
:100E4000759567958A95E1F7CE010E94B3066F2DDF
:100E5000CE01DF91CF911F910F91FF90EF90DF9026
:100E6000CF900C94B30640E0682F83ED97E00C948C
:100E7000E00681E00E9433078BE39FE10197F1F7E1
:100E80000895CF93DF93823029F49091E207986020
:100E90009093E2078093E6071092E70780E480933F
:100EA000E80780E18093E90780E58093EA0761E045
:100EB0008091D7070E942F048091D8078F3F19F0A7
:100EC00061E00E942F0461E08091D9070E942F0405
:100ED000C3EDD7E09E01235D37408091E20784FD9A
:100EE0000BC084E090E021962817390744F461E0B4
:100EF0008E810E942F04EECF88E090E0F4CF8BE348
:100F00009DE00197F1F760E08091D7070E9401040E
:100F100060E08091D9070E9401048091D8078F3F3B
:100F200019F060E00E9401048091E20784FD34C062
:100F300063E083ED97E00E94B306CBE4D6E4CE01F4
:100F40000197F1F763E083ED97E00E94B3062197E4
:100F5000F1F763E083ED97E00E94B30683E592E04A
:100F60000197F1F762E083ED97E00E94B30680916C
:100F7000E20780620E94330784E08093E3078CE0FD
:100F80000E9433070E94390782E08093E40786E0DD
:100F9000DF91CF910C94330780620E9433078BE47A
:100FA00096E40197F1F78091E20780620E9433078F
:100FB00083E592E00197F1F78091E20780620E9459
:100FC0003307D5CF9091E607891710F08FEF890F7F
:100FD000E82FF0E0ED52F84F848980680C943307D5
:100FE00041E00E94E00681E090E00895FB0101905D
:100FF0000020E9F73197AF01461B570BDC01ED915B
:10100000FC910280F381E02D19940F931F93CF93ED
:10101000DF93EC0188819981009759F02A813B8107
:101020002617370730F081E0DF91CF911F910F91A4
:1010300008958B016F5F7F4F0E94751E009759F0D6
:10104000998388831B830A832C813D81232B59F745
:10105000FC011082E8CF80E0E7CFEF92FF920F9380
:101060001F93CF93DF936115710541F480E0DF9109
:10107000CF911F910F91FF90EF9008954115510569
:10108000B1F07B01EC010C811D81040F151FB8012B
:101090000E940508882351F3288139818C819D8124
:1010A000B701820F931F0E945F1F1D830C8381E095
:1010B000DECFCF93DF93EC0188819981009711F007
:1010C0000E94EC1D198218821D821C821B821A82CA
:1010D000DF91CF910895CF93DF93EC01FB01019055
:1010E0000020E9F73197AF01461B570B0E942D08EE
:1010F000811103C0CE010E945908CE01DF91CF912A
:101100000895CF93DF93EC01FB0144815581608109
:1011100071810E942D08811103C0CE010E945908DF
:10112000CE01DF91CF910895EF92FF920F931F931D
:10113000CF93DF93EC017B018A01BA010E9405087D
:1011400081110BC0CE010E945908CE01DF91CF91D1
:101150001F910F91FF90EF9008951D830C83B701AD
:10116000888199810E945F1FF0CFEF92FF920F93C9
:101170001F93CF93DF93CDB7DEB7A1970FB6F89447
:10118000DEBF0FBECDBF7C01CB01BA01F7011182DA
:10119000108213821282158214828E010F5F1F4FFC
:1011A00021E043E00E9437170097C9F0FC0101904D
:1011B0000020E9F73197AF01481B590BBC01C7016B
:1011C0000E949408A1960FB6F894DEBF0FBECDBF63
:1011D000DF91CF911F910F91FF90EF900895C7017C
:1011E0000E945908EFCFEF92FF920F931F93CF9376
:1011F000DF93CDB7DEB762970FB6F894DEBF0FBEB0
:10120000CDBF8C01CB01F8011182108213821282B2
:10121000158214824AE09E012F5F3F4F7901B90188
:101220000E94F917F70101900020E9F73197AF010B
:101230004E195F09B701C8010E94940862960FB663
:10124000F894DEBF0FBECDBFDF91CF911F910F91FC
:10125000FF90EF900895FB01DC0111961C921E9205
:1012600013961C921E92129715961C921E9214971A
:101270008617970749F0608171816115710521F02A
:10128000448155810C9494080895FC0111821082C8
:101290001382128215821482FB0101900020E9F76B
:1012A0003197AF01461B570B0C949408FC018081C9
:1012B0009181009711F00C94EC1D08951F920F92EC
:1012C0000FB60F9211240BB60F922F933F934F93AB
:1012D0005F936F937F938F939F93AF93BF93EF939E
:1012E000FF9383E996E00E94B502FF91EF91BF91D1
:1012F000AF919F918F917F916F915F914F913F91AE
:101300002F910F900BBE0F900FBE0F901F9018954E
:101310001F920F920FB60F9211240BB60F922F93BC
:101320008F939F93EF93FF93E091A306F091A40610
:101330008081E091A906F091AA0682FD1DC09081EE
:101340008091AC068F5F8F732091AD06821741F0BC
:10135000E091AC06F0E0ED56F94F958F8093AC0626
:10136000FF91EF919F918F912F910F900BBE0F9056
:101370000FBE0F901F9018958081F2CF1F920F9291
:101380000FB60F9211240BB60F922F933F934F93EA
:101390005F936F937F938F939F93AF93BF93EF93DD
:1013A000FF9380E397E00E94B502FF91EF91BF9118
:1013B000AF919F918F917F916F915F914F913F91ED
:1013C0002F910F900BBE0F900FBE0F901F9018958E
:1013D0001F920F920FB60F9211240BB60F922F93FC
:1013E0008F939F93EF93FF93E0914007F091410714
:1013F0008081E0914607F091470782FD1DC09081F2
:10140000809149078F5F8F7320914A07821741F0BF
:10141000E0914907F0E0E05DF84F958F8093490730
:10142000FF91EF919F918F912F910F900BBE0F9095
:101430000FBE0F901F9018958081F2CF1F920F92D0
:101440000FB60F9211242F933F938F939F93AF93D7
:10145000BF938091750690917606A0917706B09122
:1014600078063091700623E0230F2D3758F501964A
:10147000A11DB11D2093700680937506909376068A
:10148000A0937706B09378068091710690917206CA
:10149000A0917306B09174060196A11DB11D8093B1
:1014A000710690937206A0937306B0937406BF9171
:1014B000AF919F918F913F912F910F900FBE0F9001
:1014C0001F90189526E8230F0296A11DB11DD2CFBB
:1014D000EF92FF920F931F93CF93DF93E3E9F6E030
:1014E0001382128248EE53E060E070E0448355833B
:1014F0006683778386E292E0918380832DEC30E0EF
:10150000358724872CEC30E03787268728EC30E0BD
:10151000318B208B29EC30E0338B228B2AEC30E0AE
:10152000358B248B2EEC30E0378B268B118E128E70
:10153000138E148EE0E3F7E0138212824483558306
:10154000668377839183808385EC90E09587848799
:1015500084EC90E09787868780EC90E0918B808B7D
:1015600081EC90E0938B828B82EC90E0958B848B66
:1015700086EC90E0978B868B118E128E138E148ED4
:10158000C5E0D8E01B861A86198218821E8A1F8A37
:10159000188E198E80E4E82EF12CFF82EE8281E213
:1015A00090E09D878C878FE190E09F878E8780E217
:1015B00090E0998B888B8EE190E09B8B8A8B61E029
:1015C00081E20E942F0461E08E850E942F0461E079
:1015D00088890E942F0461E08A890E942F041D8A55
:1015E0001C8A04E010E019870887CBEED7E01B8641
:1015F0001A86198218821E8A1F8A188E198EFF82F7
:10160000EE8285E290E09D878C8783E290E09F8761
:101610008E8784E290E0998B888B82E290E09B8BAE
:101620008A8B61E085E20E942F0461E08E850E9432
:101630002F0461E088890E942F0461E08A890E945A
:101640002F041D8A1C8A19870887E3EDF7E01382AF
:10165000128288E392E09183808380E384838FEF1A
:10166000858381E3868382E3878383E3808784E3C2
:10167000818785E3828713861486158616861786EA
:1016800081E00E9441076AEF75E08DEC97E0DF9101
:10169000CF911F910F91FF90EF900C944509CF933C
:1016A000DF93CDB7DEB76E970FB6F894DEBF0FBEEF
:1016B000CDBF789484B5826084BD84B5816084BDDB
:1016C00085B5826085BD85B5816085BD80916E00E0
:1016D000816080936E001092810080918100826011
:1016E000809381008091810081608093810080914E
:1016F00080008160809380008091B100846080933D
:10170000B1008091B00081608093B0008091910021
:10171000826080939100809191008160809391001C
:10172000809190008160809390008091A100826000
:101730008093A1008091A10081608093A10080919D
:10174000A00081608093A00080912101826080933D
:1017500021018091210181608093210180912001EC
:1017600081608093200180917A00846080937A0068
:1017700080917A00826080937A0080917A00816003
:1017800080937A0080917A00806880937A0010922A
:10179000C10080E397E00E94020283E996E00E9484
:1017A000020268EF75E083E996E00E94F60760E4C4
:1017B00072E0CE0107960E944509BE01695F7F4F26
:1017C000CE0101960E942B0968EF75E0CE010196CB
:1017D0000E946B08BC0183E996E00E942902CE01B9
:1017E00001960E945609CE0107960E94560965E4AB
:1017F00072E080E397E00E94F60768EF75E080E30F
:1018000097E00E94F6076BE772E080E397E00E94A2
:10181000F6076CE872E080E397E00E94F60767E95C
:1018200072E080E397E00E94F60761EA72E080E3ED
:1018300097E00E94F6076CEA72E080E397E00E946E
:10184000F60762EB72E080E397E00E94F6076DEB2B
:1018500072E080E397E00E94F60768EF75E080E3AE
:1018600097E00E94F60720910B0830910C08032E98
:10187000000C440B550BC12C67E8D62E63E9E62E0D
:1018800063E0F62EC701B6010E94A31B7AE0872E03
:10189000912CA12CB12CCA01B901A50194010E947F
:1018A000A31B20930708309308084093090850931E
:1018B0000A082091F1073091F207032E000C440B27
:1018C000550BC701B6010E94A31BCA01B901A501AE
:1018D00094010E94A31B2093ED073093EE074093E1
:1018E000EF075093F00761E088E00E942F0461E069
:1018F00088E00E942F0460E088E00E94010461E01B
:1019000089E00E942F0461E089E00E942F0461E0D9
:1019100089E00E94010482E00E9441070E94390789
:1019200080E00E94E20769EC72E083ED97E00E949C
:10193000F60781E00E94E20765ED72E083ED97E033
:101940000E94F60768EE73E080E090E00E949C043D
:1019500062E086E10E942F0462E087E10E942F048A
:1019600062E088E10E942F0462E089E10E942F0476
:1019700062E08AE10E942F0462E088E30E942F0463
:1019800061E08DE00E942F0461E082E00E942F045C
:1019900061E083E00E942F0461E084E00E942F0454
:1019A00061E085E00E942F0461E086E00E942F0440
:1019B00061E086E20E942F0461E087E20E942F042A
:1019C00061E088E20E942F0461E08AE20E942F0415
:1019D00061E08BE20E942F0461E08CE20E942F0400
:1019E00061E08EE20E942F0461E08FE20E942F04EA
:1019F00061E08DE00E94010460E082E00E94010449
:101A000060E083E00E94010460E084E00E94010441
:101A100060E085E00E94010460E086E00E9401042D
:101A200060E086E20E94010460E087E20E94010417
:101A300060E088E20E94010460E08AE20E94010402
:101A400060E08BE20E94010460E08CE20E940104ED
:101A500060E08CE20E94010460E08EE20E940104DA
:101A600060E08FE20E94010486E30E946004BC01F2
:101A7000990F880B990B611571058105910511F07E
:101A80000E94F01766EE72E080E397E00E94F6078E
:101A900068EF75E080E397E00E94F6070E949006E9
:101AA00068EE73E080E090E00E949C0463E173E0E4
:101AB000CE0107960E944509BE01695F7F4FCE01A6
:101AC00001960E942B0968EF75E0CE0101960E94F5
:101AD0006B08BC0183E996E00E942902CE010196C1
:101AE0000E945609CE0107960E9456090E947D0663
:101AF0000E946A0661E08EE20E94010460E082E0DA
:101B00000E94010460E083E00E94010460E084E040
:101B10000E94010460E085E00E94010460E086E02C
:101B20000E94010460E086E20E94010460E087E216
:101B30000E94010460E088E20E94010460E08AE201
:101B40000E94010460E08BE20E94010460E08CE2EC
:101B50000E94010460E08CE20E94010440E050E039
:101B600060EA71E4CE010D960E94B50840E050E0B5
:101B700060EA71E4CE0107960E94B50868E173E05F
:101B8000CE0101960E944509BE01695F7F4FCE01DB
:101B900001960E9481086DEC77E00E94810862E462
:101BA00073E00E946B08BE01635F7F4F0E94810853
:101BB0006DEC77E00E948108BC0180E397E00E9411
:101BC0002902CE0101960E945609CE0107960E9475
:101BD0005609CE010D960E9456090E94390780E0F1
:101BE0000E94E20760E573E083ED97E00E94F6074C
:101BF00081E00E94E20764E170E0CE010D960E9450
:101C0000F30864E170E0CE0107960E94F30861E6F4
:101C100073E0CE0101960E944509BE01695F7F4FC6
:101C2000CE0101960E94810866E673E00E946B086F
:101C3000BE01635F7F4F0E948108BC0183ED97E086
:101C40000E942902CE0101960E945609CE010796F4
:101C50000E945609CE010D960E94560960918F068A
:101C60007091900680919106909192060E94861A3A
:101C700020E030E040E85CE30E94E51A20E030E03C
:101C800044EB53E40E94E51A4B015C0180928B0601
:101C900090928C06A0928D06B0928E066091870677
:101CA000709188068091890690918A060E94861A12
:101CB00020E030E040E85CE30E94E51A20E030E0FC
:101CC00044EB52E40E94E51A6B017C01C09283064A
:101CD000D0928406E0928506F0928606A5019401D2
:101CE00060E070E080EA91E40E94061C20E030E0B1
:101CF00044EB53E40E94731C20E030E040E852E4DF
:101D00000E94E51A0E94E51C4B015C01A7019601A7
:101D100060E070E080EA91E40E94061C20E030E080
:101D200044EB52E40E94731C20E030E040E852E4AF
:101D30000E94E51A0E94E51C6B017C01811491044C
:101D4000A104B10409F0A1C7C114D104E104F10454
:101D500009F0B2C10E947D060E946A066EEB75E032
:101D600080E397E00E94F6070E94390780E00E9416
:101D7000E2076BEF75E083ED97E00E94F60781E0E4
:101D80000E94E2076CE076E083ED97E00E94F607A0
:101D90006DE176E0CE0107960E944509BE01695FBC
:101DA0007F4FCE0101960E942B0968EF75E0CE01AE
:101DB00001960E946B08BC0183E996E00E9429020B
:101DC000CE0101960E945609CE0107960E9456093F
:101DD0000E94900662E276E0CE0107960E944509D5
:101DE000BE01695F7F4FCE0101960E942B0968EF0B
:101DF00075E0CE0101960E946B08BC0183E996E074
:101E00000E942902CE0101960E945609CE01079632
:101E10000E9456090E94A11723E030E040E050E004
:101E20000E94A31B70937A0660937906FB0183E0FE
:101E3000EE0FFF1F8A95E1F7E65FFD4F00811181EC
:101E40002281338100937F061093800620938106C0
:101E500030938206048115812681378100937B06A9
:101E600010937C0620937D0630937E066F5F7F4F34
:101E7000CE0101960E94F30868E276E0CE010D964D
:101E80000E944509BE01635F7F4FCE0107960E9405
:101E90002B0965EA73E0CE0107960E946B08BE012C
:101EA0006F5F7F4F0E94810868EF75E00E946B08AA
:101EB000BC0183E996E00E942902CE0107960E94A8
:101EC0005609CE010D960E945609CE0101960E9438
:101ED000560940917B0650917C0660917D06709179
:101EE0007E06CE0101960E94B50840917F06509172
:101EF00080066091810670918206CE0107960E944D
:101F0000B5086FE276E0CE010D960E944509BE014C
:101F1000695F7F4FCE010D960E9481086DEC77E0DE
:101F20000E94810862E473E00E946B08BE016F5F4B
:101F30007F4F0E9481086DEC77E00E948108BC0110
:101F400080E397E00E942902CE010D960E94560977
:101F5000CE0107960E945609CE0101960E945609AD
:101F60006091790670917A066F5F7F4FCE0101967E
:101F70000E94F3086FE476E0CE0107960E944509BF
:101F8000BE016F5F7F4FCE0107960E9481086CE310
:101F900074E00E946B08BC0180E397E00E94290274
:101FA000CE0107960E945609CE0101960E9456095D
:101FB0000E94390780E00E94E2076FE576E083ED3A
:101FC00097E00E94F60781E00E94E20760917B069D
:101FD00070917C0680917D0690917E060E94E51CA2
:101FE000CE0101960E94F30860917F0670918006F1
:101FF00080918106909182060E94E51CCE01079691
:102000000E94F30861E673E0CE010D960E94450937
:10201000BE01695F7F4FCE010D960E94810866E682
:1020200073E00E946B08BE016F5F7F4F0E948108C2
:10203000BC0183ED97E00E942902CE010D960E941B
:102040005609CE0107960E945609CE0101960E94BC
:1020500056098FB7F8942091750630917606409115
:102060007706509178062B8F3C8F4D8F5E8F8FBFF8
:1020700010E000E0198E1A8E188E1F8A71C187E158
:102080000E94D803892B09F44DC661E070E085E019
:1020900098E00E94C60531E0831A9108A108B108B2
:1020A00080918F0690919006A0919106B091920632
:1020B0000196A11DB11D07C66DE570E080E090E0BE
:1020C0000E949C04F7FC09C689E10E94D803892B71
:1020D00009F428C661E070E08BEE97E00E94C60527
:1020E00051E0C51AD108E108F10880918706909166
:1020F0008806A0918906B0918A060196A11DB11D9E
:1021000007C6C114D104E104F104F1F66DE570E0F5
:1021100080E090E00E949C0411CE6EE374E0CE015A
:1021200007960E944509BE01695F7F4FCE01019667
:102130000E942B0968EF75E0CE0101960E946B08A2
:10214000BC0183E996E00E942902CE0101960E941B
:102150005609CE0107960E94560968EF75E080E3A4
:1021600097E00E94F60766E474E080E397E00E943F
:10217000F60765E674E080E397E00E94F60766E400
:1021800074E080E397E00E94F60780E00E94E20797
:1021900064E874E083ED97E00E94F60781E00E9416
:1021A000E2076EE874E018C386E30E9460040E94B0
:1021B00033066B017C0187E30E9460040E943306B2
:1021C0004B015C0194E0292E312C80918F06909177
:1021D0009006A0919106B09192068B8B9C8BAD8B53
:1021E000BE8BBC01CD010E94861A20E030E040E8A1
:1021F0005CE30E94E51A20E030E044EB53E40E94E7
:10220000E51A2B013C0140928B0650928C0660929D
:102210008D0670928E066091870670918806809177
:10222000890690918A060E94861A20E030E040E8F4
:102230005CE30E94E51A20E030E044EB52E40E94A7
:10224000E51A6093830670938406809385069093C5
:102250008606F7FE59C420E030E040E251E4C301B5
:10226000B2010E941B1D18160CF42DC46DE570E020
:1022700080E090E00E949C04B7FE94C420E030E02F
:1022800040E251E460918306709184068091850656
:10229000909186060E941B1D18160CF45EC46DE515
:1022A00070E080E090E00E949C0431E0231A310845
:1022B00009F08BCF80907F0690908006A0908106D9
:1022C000B0908206C0908B06D0908C06E0908D0670
:1022D000F0908E0620E030E040E251E4C501B40108
:1022E0000E94061CA70196010E941B1D18160CF0E7
:1022F0008CC460E086E20E94010460E087E20E94F4
:10230000010461E088E20E94010480907B069090C5
:102310007C06A0907D06B0907E06C0908306D0908B
:102320008406E0908506F090860620E030E040E2EA
:1023300051E4C501B4010E94061CA70196010E9448
:102340001B1D18160CF081C460E08AE20E94010493
:1023500060E08BE20E94010461E08CE20E940104D3
:102360002FB7F89460917506709176068091770684
:10237000909178062FBF2B8D3C8D4D8D5E8D621B0D
:10238000730B840B950B0E94861A6B017C0120E075
:1023900030E04AEF53E40E941B1D18164CF53F89AC
:1023A000311126C067EA73E0CE0107960E94450905
:1023B000BE01695F7F4FCE0101960E942B0960EB41
:1023C00073E0CE0101960E946B0868EF75E00E94F1
:1023D0006B08BC0183E996E00E942902CE010196B8
:1023E0000E945609CE0107960E94560941E04F8B84
:1023F00020E030E84BEB55E4C701B6010E941B1DFD
:1024000018164CF5588D511126C067EA73E0CE01BD
:1024100007960E944509BE01695F7F4FCE01019674
:102420000E942B0963EB73E0CE0101960E946B08BA
:1024300068EF75E00E946B08BC0183E996E00E949A
:102440002902CE0101960E945609CE0107960E94EC
:10245000560981E0888F20E030E84BE356E4C7015D
:10246000B6010E941B1D18164CF59A8D911126C0BD
:1024700067EA73E0CE0107960E944509BE01695FD5
:102480007F4FCE0101960E942B0966EB73E0CE01CF
:1024900001960E946B0868EF75E00E946B08BC0112
:1024A00083E996E00E942902CE0101960E94560916
:1024B000CE0107960E945609A1E0AA8F20E030EADB
:1024C0004CE856E4C701B6010E941B1D18164CF5D6
:1024D000B98DB11126C067EA73E0CE0107960E945C
:1024E0004509BE01695F7F4FCE0101960E942B090D
:1024F00069EB73E0CE0101960E946B0868EF75E00E
:102500000E946B08BC0183E996E00E942902CE017B
:1025100001960E945609CE0107960E94560921E0B5
:10252000298F20E030E84BEB56E4C701B6010E944A
:102530001B1D18163CF5011125C067EA73E0CE019A
:1025400007960E944509BE01695F7F4FCE01019643
:102550000E942B096CEB73E0CE0101960E946B0880
:1025600068EF75E00E946B08BC0183E996E00E9469
:102570002902CE0101960E945609CE0107960E94BB
:10258000560901E020E030E64AEE56E4C701B60104
:102590000E941B1D18163CF5111125C067EA73E057
:1025A000CE0107960E944509BE01695F7F4FCE01AB
:1025B00001960E942B096FEB73E0CE0101960E94F9
:1025C0006B0868EF75E00E946B08BC0183E996E038
:1025D0000E942902CE0101960E945609CE0107965B
:1025E0000E94560911E020E030E04AEF53E4C701B1
:1025F000B6010E941B1D181624F461E082E00E94BF
:10260000010420E030E84BEB55E4C701B6010E941D
:102610001B1D181624F461E083E00E94010420E0F1
:1026200030E84BE356E4C701B6010E941B1D1816A3
:1026300024F461E084E00E94010420E030EA4CE8E8
:1026400056E4C701B6010E941B1D181624F461E070
:1026500085E00E94010420E030E84BEB56E4C7011E
:10266000B6010E941B1D181624F461E086E00E944A
:10267000010420E030E64AEE56E4C701B6010E94AC
:102680001B1D18160CF090CD0E947D060E946A0654
:102690000E94390780907F0690908006A090810666
:1026A000B0908206C0908B06D0908C06E0908D068C
:1026B000F0908E0620E030E040E251E4C501B40124
:1026C0000E94061CA70196010E947F1A87FF25CD54
:1026D00020E030E040E251E4C501B4010E94071C53
:1026E0009B01AC01C701B6010E947F1A87FF15CD7F
:1026F00080907B0690907C06A0907D06B0907E0630
:10270000C0908306D0908406E0908506F0908606FF
:1027100020E030E040E251E4C501B4010E94061C13
:10272000A70196010E947F1A87FFF7CC20E030E0D6
:1027300040E251E4C501B4010E94071C9B01AC01B9
:10274000C701B6010E947F1A87FFE7CC62EC73E0F5
:10275000CE0107960E944509BE01695F7F4FCE01F9
:1027600001960E942B0968EF75E0CE0101960E9448
:102770006B08BC0183E996E00E942902CE01019614
:102780000E945609CE0107960E94560968EF75E02F
:1027900080E397E00E94F6076AEC73E080E397E03D
:1027A0000E94F60763EF73E080E397E00E94F6076C
:1027B0006AEC73E080E397E00E94F60780E00E94F5
:1027C000E2076CE174E083ED97E00E94F60781E098
:1027D0000E94E2076DE274E083ED97E00E94F60745
:1027E00060918F067091900680919106909192066B
:1027F0000E94861A20E030E040E85CE30E94E51A7F
:1028000020E030E044EB53E40E94E51A60938B062D
:1028100070938C0680938D0690938E0668EF75E01A
:1028200080E397E00E94F6076CE974E080E397E0AC
:102830000E94F6076BEA74E080E397E00E94F607D7
:102840006091790670917A066F5F7F4FCE01019695
:102850000E94F3086AEB74E0CE0107960E944509D6
:10286000BE016F5F7F4FCE0107960E9481086AE923
:1028700074E00E946B08BC0180E397E00E9429028B
:10288000CE0107960E945609CE0101960E94560974
:1028900040918B0650918C0660918D0670918E064A
:1028A000CE0101960E94B5086AEC74E0CE0107964D
:1028B0000E944509BE016F5F7F4FCE0107960E94BF
:1028C00081086DEC77E00E948108BC0180E397E00D
:1028D0000E942902CE0107960E945609CE01019658
:1028E0000E94560940917F065091800660918106B2
:1028F00070918206CE0101960E94B5086DED74E0DC
:10290000CE0107960E944509BE016F5F7F4FCE0141
:1029100007960E9481086DEC77E00E948108BC0157
:1029200080E397E00E942902CE0107960E94560993
:10293000CE0101960E94560940E050E060E271E449
:10294000CE0101960E94B50860EF74E0CE010796B3
:102950000E944509BE016F5F7F4FCE0107960E941E
:1029600081086DEC77E00E948108BC0180E397E06C
:102970000E942902CE0107960E945609CE010196B7
:102980000E94560960918706709188068091890699
:1029900090918A060E94861A20E030E040E85CE3CD
:1029A0000E94E51A20E030E044EB52E40E94E51A70
:1029B000AB01BC0140938306509384066093850667
:1029C00070938606CE0101960E94B5086DE075E011
:1029D000CE0107960E944509BE016F5F7F4FCE0171
:1029E00007960E9481086DEC77E00E948108BC0187
:1029F00080E397E00E942902CE0107960E945609C3
:102A0000CE0101960E94560940917B0650917C06AA
:102A100060917D0670917E06CE0101960E94B508F8
:102A200062E275E0CE0107960E944509BE016F5F24
:102A30007F4FCE0107960E9481086DEC77E00E94DF
:102A40008108BC0180E397E00E942902CE0107962D
:102A50000E945609CE0101960E94560940E050E0BE
:102A600060E271E4CE0101960E94B50867E375E06B
:102A7000CE0107960E944509BE016F5F7F4FCE01D0
:102A800007960E9481086DEC77E00E948108BC01E6
:102A900080E397E00E942902CE0107960E94560922
:102AA000CE0101960E94560968EF75E080E397E039
:102AB0000E94F6070E94900668EE73E080E090E0C6
:102AC0000E949C041BC886E10E94D803892B09F44C
:102AD000CDCB6FEF7FEF85E098E00E94C6059FEFBA
:102AE000C91AD90AE90AF90A8B899C89AD89BE8974
:102AF0000197A109B10980938F0690939006A09346
:102B00009106B0939206B8CBC114D104E104F1044C
:102B100009F4ACCB20E030E04FEA53E4C301B2014A
:102B20000E947F1A87FFA2CB87E10E94D803892BDE
:102B300009F49CCB61E070E085E098E00E94C60556
:102B4000A1E0CA1AD108E108F1088B899C89AD89F6
:102B5000BE890196A11DB11DCECF88E10E94D80388
:102B6000892B09F49CCB6FEF7FEF8BEE97E00E94EF
:102B7000C605BFEF8B1A9B0AAB0ABB0A809187067A
:102B800090918806A0918906B0918A060197A109C3
:102B9000B1098093870690938806A0938906B09325
:102BA0008A0683CB81149104A104B10409F477CB84
:102BB00020E030E040EA52E46091830670918406A0
:102BC00080918506909186060E947F1A87FF67CBC9
:102BD00089E10E94D803892B09F461CB61E070E0A0
:102BE0008BEE97E00E94C60521E0821A9108A108A9
:102BF000B1088091870690918806A0918906B091CE
:102C00008A060196A11DB11DC4CF20E030E040E24C
:102C100051E4C501B4010E94071C9B01AC01C7012E
:102C2000B6010E941B1D181654F461E086E20E9452
:102C3000010460E087E20E94010460E063CB60E091
:102C400086E20E94010461E0F5CF20E030E040E23E
:102C500051E4C501B4010E94071C9B01AC01C701EE
:102C6000B6010E941B1D181654F461E08AE20E940E
:102C7000010460E08BE20E94010460E06ECB60E042
:102C80008AE20E94010461E0F5CFB7FEF8C986E14F
:102C90000E94D803892B09F445C06FEF7FEF85E0D0
:102CA00098E00E94C6052FEF821A920AA20AB20A81
:102CB00080918F0690919006A0919106B091920616
:102CC0000197A109B10980938F0690939006A09374
:102CD0009106B0939206F7FE14CA88E10E94D803C9
:102CE000892B01F16FEF7FEF8BEE97E00E94C60515
:102CF0004FEFC41AD40AE40AF40A8091870690912F
:102D00008806A0918906B0918A060197A109B109A8
:102D10008093870690938806A0938906B0938A06CD
:102D20000C949E0E60E08EE20E94010461E08FE24E
:102D30000E94010440E050E060EA71E4CE01019697
:102D40000E94B50840E050E060EA71E4CE010796C9
:102D50000E94B50866E575E0CE010D960E94450912
:102D6000BE01695F7F4FCE010D960E9481086DEC18
:102D700077E00E9481086DE775E00E946B08BE0154
:102D80006F5F7F4F0E9481086DEC77E00E948108A1
:102D900060E875E00E946B08BC0180E397E00E9448
:102DA0002902CE010D960E945609CE0107960E9477
:102DB0005609CE0101960E9456096AE975E080E342
:102DC00097E00E94F60768EF75E080E397E00E94C5
:102DD000F6070E9439076EE673E0CE0107960E945F
:102DE0004509BE01695F7F4FCE0101960E942B0904
:102DF00068EF75E0CE0101960E946B08BC0183E983
:102E000096E00E942902CE0101960E945609CE0149
:102E100007960E94560980E00E94E20764E773E08B
:102E200083ED97E00E94F60781E00E94E20765E8E3
:102E300073E083ED97E00E94F60768EE73E080E0B0
:102E400090E00E949C0481E00E94E20766E973E042
:102E500083ED97E00E94F60768EE73E080E090E073
:102E60000E949C04B8CF8DEC97E00C945609EF9229
:102E70000F931F93CF93DF93E80134E047FD34E1D4
:102E8000042E000C550B57FF03C051954195510975
:102E9000E32E022F242FAE010E941E18CE01DF91D7
:102EA000CF911F910F91EF9008958F929F92AF92C3
:102EB000BF92CF92DF92EF92FF92CF93DF93EC011C
:102EC000688179818A819B816115710581059105F0
:102ED00021F464E279ED8BE597E02DE133EF41E0F9
:102EE00050E00E94A31B49015A019B01AC01A7EAD3
:102EF000B1E40E94C21B6B017C01ACEEB4EFA501F2
:102F000094010E94D01BC60ED71EE81EF91EF7FEC4
:102F100006C081E0C81AD108E10880E8F80AC88232
:102F2000D982EA82FB82C701B6019F77DF91CF91F8
:102F3000FF90EF90DF90CF90BF90AF909F908F90D9
:102F400008958F929F92AF92BF92CF92DF92EF92AD
:102F5000FF926091000270910102809102029091B3
:102F60000302611571058105910521F464E279ED93
:102F70008BE597E02DE133EF41E050E00E94A31B89
:102F800049015A019B01AC01A7EAB1E40E94C21BAE
:102F90006B017C01ACEEB4EFA50194010E94D01B43
:102FA000C60ED71EE81EF91EF7FE06C081E0C81A3D
:102FB000D108E10880E8F80AC0920002D09201022C
:102FC000E0920202F0920302C701B6019F77FF90E0
:102FD000EF90DF90CF90BF90AF909F908F9008952B
:102FE00060930002709301028093020290930302A7
:102FF0000895BB274A3031F4992322F4BDE290951D
:1030000081959F4F0C940518BB27FB015527AA27D4
:10301000880F991FAA1FA41710F0A41B8395505165
:10302000B9F7A05DAA3308F0A95DA193009779F7DD
:10303000B111B1931192CB010C946F1A8F929F92A0
:10304000AF92BF92CF92DF92EF92FF920F931F93B6
:10305000CF93DF9300D000D000D0CDB7DEB76A01A8
:10306000F22EB02E102FFBE3AF2EA01608F41BE3B8
:103070001F5F012F27E0AE014F5F5F4F0E9497193E
:10308000BC018981982F9970913009F44EC09BE260
:10309000E1FC04C09E2D9170E0FC49C05E2D507192
:1030A000E82FE87083FF55C084E0911101C083E0F0
:1030B000EF2DE81B8F1508F0E0E0D6018E2F20E2FF
:1030C0005523C9F1992329F0D6019C93C601019695
:1030D0006C0196012D5F3F4FE2FE33C08EE4D601B6
:1030E0008C9391E411969C93119712968C93D9012D
:1030F0008E2F90E281112AC0E20FF32FF11D108272
:103100008EEF9FEF29960FB6F894DEBF0FBECDBFAE
:10311000DF91CF911F910F91FF90EF90DF90CF90B3
:10312000BF90AF909F908F9008959DE2B7CF90E2AF
:10313000B5CF2D9381508111FCCFCE0ED11CE0E094
:10314000C1CF8EE6D6018C9391E6CCCF9D93815072
:10315000D1CF482F447082FF3DC084E0911101C05F
:1031600083E08F1510F4EF2DE81BD6018E2F20E29F
:10317000552309F1992329F0D6019C93C6010196A4
:103180006C0196012D5F3F4FE2FE1BC089E4D60122
:103190008C938EE411968C93119786E412968C93FF
:1031A000D9018E2F90E2882309F4A6CF9D938150F8
:1031B000FACF2D9381508111FCCFCE0ED11CE0E0CF
:1031C000D9CF89E6D6018C938EE611968C93119710
:1031D00086E6E4CF9B0177FF02C030E020E0A1E06B
:1031E000B0E0911102C0B0E0A0E0F9013196AE0F5D
:1031F000BF1F8B2C912CBB2009F461C05401EFEF51
:10320000AE1ABE0AAA0DBB1DFA161B0619F014F061
:103210004F2D4A1B511188C0E3FC59C07601A42FE1
:10322000B0E2A1114FC0C40ED11C992309F45BC0B8
:1032300040E0D6011196F60190836D01552309F403
:1032400048C0012F060F9A81582F507184FF03C088
:10325000913309F4015010160CF047C0093008F002
:1032600008E0EEE2FE2E5B01A01AB1088501919400
:10327000819491082F3F320729F4D601FC92F60180
:1032800031966F016217730794F1021713077CF5EB
:10329000DB01A21BB30BAA24A394B12CAC0EBD1E60
:1032A000AA0DBB1D11968C9121503109D6011196A2
:1032B00028153905F4F0F60180836D01DBCFB12CC0
:1032C000A12CA0CFF701B1937F01A150AACF9111FA
:1032D000B0CFD601942F50E302C05D93915091116D
:1032E000FCCFC40ED11C40E0ACCF01E0BACF80E3EC
:1032F000DBCF6217730731F4963388F4953311F4FA
:10330000552369F0F6018083FD01842F90E281113D
:1033100008C0A40FB11D1C9290E080E0F3CE81E3C1
:10332000F1CF91938150F3CF911183CF8ACF283081
:1033300008F027E03327DA01990F311D87FD9160EE
:1033400000966105710539F432602E5F3D9330E3DC
:103350002A95E1F708959F3F30F0803871056105A7
:1033600009F03C5F3C5F3D93913008F08068911D0F
:10337000DF93CF931F930F93FF92EF92192F987FB4
:103380009695E92F96959695E90FFF27E652FE4F01
:1033900099273327EE24FF24A701E701059008941D
:1033A000079428F4360FE71EF81E491F511D660FBB
:1033B000771F881F991F0694A1F70590079428F49A
:1033C000E70EF81E491F561FC11D770F881F991F52
:1033D000661F0694A1F70590079428F4F80E491F7C
:1033E000561FC71FD11D880F991F661F771F069490
:1033F000A1F70590079420F4490F561FC71FD81F47
:10340000990F661F771F881F0694A9F7849110955E
:10341000177041F0D695C79557954795F794E7945F
:103420001A95C1F7E0E8F1E068941590159135918F
:103430006591959105907FE27395E118F10A430B30
:10344000560BC90BD009C0F7E10CF11E431F561FE4
:10345000C91FD01D7EF4703311F48A95E6CFE8942D
:10346000015030F0080F0AF40027021708F4202F4B
:103470002395022F7A3328F079E37D932A95E9F793
:1034800010C07D932A9589F6069497956795379590
:1034900017951794E118F10A430B560BC90BD00985
:1034A00098F023957E9173957A3308F070E37C93BE
:1034B0002013B8F77E9170617D9330F0839571E3AE
:1034C0007D9370E32A95E1F71124EF90FF900F911F
:1034D0001F91CF91DF91992787FD90950895DC0189
:1034E000FC01672F71917723E1F7329704C07C913B
:1034F0006D9370836291AE17BF07C8F308950E9461
:10350000C11A08F481E00895E89409C097FB3EF4DD
:1035100090958095709561957F4F8F4F9F4F992320
:10352000A9F0F92F96E9BB279395F695879577959E
:103530006795B795F111F8CFFAF4BB0F11F460FF5E
:103540001BC06F5F7F4F8F4F9F4F16C0882311F0B6
:1035500096E911C0772321F09EE8872F762F05C0CA
:10356000662371F096E8862F70E060E02AF09A9565
:10357000660F771F881FDAF7880F9695879597F95A
:103580000895990F0008550FAA0BE0E8FEEF1616F4
:103590001706E807F907C0F012161306E407F50747
:1035A00098F0621B730B840B950B39F40A2661F0BB
:1035B000232B242B252B21F408950A2609F4A1405E
:1035C000A6958FEF811D811D08950E94F81A0C9415
:1035D000691B0E945B1B38F00E94621B20F0952340
:1035E00011F00C94521B0C94581B11240C949D1B2D
:1035F0000E947A1B70F3959FC1F3950F50E0551F01
:10360000629FF001729FBB27F00DB11D639FAA2737
:10361000F00DB11DAA1F649F6627B00DA11D661F86
:10362000829F2227B00DA11D621F739FB00DA11DA7
:10363000621F839FA00D611D221F749F3327A00D61
:10364000611D231F849F600D211D822F762F6A2FFD
:1036500011249F5750409AF0F1F088234AF0EE0F62
:10366000FF1FBB1F661F771F881F91505040A9F78F
:103670009E3F510580F00C94521B0C949D1B5F3FA4
:10368000E4F3983ED4F3869577956795B795F795CB
:10369000E7959F5FC1F7FE2B880F911D9695879543
:1036A00097F9089597F99F6780E870E060E00895C2
:1036B0009FEF80EC089500240A941616170618064A
:1036C0000906089500240A94121613061406050626
:1036D0000895092E0394000C11F4882352F0BB0FB7
:1036E00040F4BF2B11F460FF04C06F5F7F4F8F4F1A
:1036F0009F4F089557FD9058440F551F59F05F3F55
:1037000071F04795880F97FB991F61F09F3F79F003
:1037100087950895121613061406551FF2CF469585
:10372000F1DF08C0161617061806991FF1CF869507
:103730007105610508940895E894BB2766277727EB
:10374000CB0197F90895052E97FB1EF400940E9473
:10375000BA1B57FD07D00E94D51B07FC03D04EF4BF
:103760000C94BA1B50954095309521953F4F4F4F83
:103770005F4F089590958095709561957F4F8F4F1D
:103780009F4F08950E94F71BA59F900DB49F900D29
:10379000A49F800D911D11240895B7FF0C94C21BA6
:1037A0000E94C21B821B930B0895A1E21A2EAA1B32
:1037B000BB1BFD010DC0AA1FBB1FEE1FFF1FA217E1
:1037C000B307E407F50720F0A21BB30BE40BF50BDE
:1037D000661F771F881F991F1A9469F76095709567
:1037E000809590959B01AC01BD01CF010895A29FEA
:1037F000B001B39FC001A39F700D811D1124911DC5
:10380000B29F700D811D1124911D08955058BB2742
:10381000AA270E941E1C0C94691B0E945B1B38F097
:103820000E94621B20F039F49F3F19F426F40C9497
:10383000581B0EF4E095E7FB0C94521BE92F0E94F5
:103840007A1B58F3BA17620773078407950720F0AD
:1038500079F4A6F50C949C1B0EF4E0950B2EBA2F70
:10386000A02D0B01B90190010C01CA01A001112486
:10387000FF27591B99F0593F50F4503E68F11A1632
:10388000F040A22F232F342F4427585FF3CF4695C3
:1038900037952795A795F0405395C9F77EF41F16E5
:1038A000BA0B620B730B840BBAF09150A1F0FF0FAF
:1038B000BB1F661F771F881FC2F70EC0BA0F621F9B
:1038C000731F841F48F4879577956795B795F7958B
:1038D0009E3F08F0B0CF9395880F08F09927EE0F20
:1038E0009795879508950E94871C0C94691B0E94E8
:1038F000621B58F00E945B1B40F029F45F3F29F0E7
:103900000C94521B51110C949D1B0C94581B0E943B
:103910007A1B68F39923B1F3552391F3951B550B4B
:10392000BB27AA2762177307840738F09F5F5F4F92
:10393000220F331F441FAA1FA9F335D00E2E3AF0D1
:10394000E0E832D091505040E695001CCAF72BD0E9
:10395000FE2F29D0660F771F881FBB1F261737073A
:103960004807AB07B0E809F0BB0B802DBF01FF276C
:1039700093585F4F3AF09E3F510578F00C94521BDC
:103980000C949D1B5F3FE4F3983ED4F386957795A6
:103990006795B795F7959F5FC9F7880F911D969525
:1039A000879597F90895E1E0660F771F881FBB1F81
:1039B000621773078407BA0720F0621B730B840B2E
:1039C000BA0BEE1F88F7E09508950E94EC1C6894EE
:1039D000B1110C949D1B08950E94821B88F09F5783
:1039E00098F0B92F9927B751B0F0E1F0660F771F23
:1039F000881F991F1AF0BA95C9F714C0B13091F019
:103A00000E949C1BB1E008950C949C1B672F782F9B
:103A10008827B85F39F0B93FCCF3869577956795DD
:103A2000B395D9F73EF490958095709561957F4F49
:103A30008F4F9F4F08950E94C11A08F48FEF089589
:103A400097FB072E16F4009407D077FD09D00E944B
:103A50003C1D07FC05D03EF4909581959F4F08953D
:103A6000709561957F4F0895EE0FFF1F881F8BBFE4
:103A70000790F691E02D1994AA1BBB1B51E107C0DA
:103A8000AA1FBB1FA617B70710F0A61BB70B881FEE
:103A9000991F5A95A9F780959095BC01CD0108957D
:103AA0000F931F93CF93DF938230910510F482E040
:103AB00090E0E0912108F091220830E020E0B0E0B1
:103AC000A0E0309799F42115310509F44AC0281B6C
:103AD000390B24303105D8F58A819B816115710538
:103AE00089F1FB0193838283FE0111C040815181E2
:103AF0000281138148175907E0F04817590799F4D4
:103B0000109761F012960C93129713961C933296AD
:103B1000CF01DF91CF911F910F910895009321085C
:103B200010932208F4CF2115310551F042175307A5
:103B300038F0A901DB019A01BD01DF01F801C1CF15
:103B4000EF01F9CF9093220880932108CDCFFE0199
:103B5000E20FF31F81939193225031093983288317
:103B6000D7CF20911F0830912008232B41F42091BA
:103B70000602309107023093200820931F082091FD
:103B80000402309105022115310541F42DB73EB7ED
:103B90004091080250910902241B350BE0911F0847
:103BA000F0912008E217F307A0F42E1B3F0B281713
:103BB000390778F0AC014E5F5F4F2417350748F0A6
:103BC0004E0F5F1F5093200840931F0881939193DD
:103BD0009FCFF0E0E0E09CCFCF93DF930097E9F038
:103BE000FC01329713821282A0912108B091220821
:103BF000ED0130E020E01097A1F420813181820FA7
:103C0000931F20911F08309120082817390709F0C9
:103C100061C0F0932008E0931F08DF91CF910895D1
:103C2000EA01CE17DF07E8F54A815B819E01411565
:103C30005105B1F7E901FB83EA8349915991C40F1A
:103C4000D51FEC17FD0761F4808191810296840FE6
:103C5000951FE90199838883828193819B838A835D
:103C6000F0E0E0E012968D919C9113970097B9F5E2
:103C70002D913C911197CD010296820F931F2091B7
:103C80001F08309120082817390739F6309751F569
:103C90001092220810922108B0932008A0931F08C8
:103CA000BCCFD383C28340815181840F951FC81735
:103CB000D90761F44E5F5F4F88819981480F591F82
:103CC000518340838A819B819383828321153105AF
:103CD00009F0B0CFF0932208E09321089ECFFD01B8
:103CE000DC01C0CF13821282D7CF4F925F926F92C6
:103CF0007F928F929F92AF92BF92CF92DF92EF927C
:103D0000FF920F931F93CF93DF938C01009799F449
:103D1000CB01DF91CF911F910F91FF90EF90DF903A
:103D2000CF90BF90AF909F908F907F906F905F905B
:103D30004F900C94501DFC01E60FF71F9C01225080
:103D40003109E217F30708F4AEC0D901CD91DC9137
:103D50001197C617D70720F1C530D10578F0CE01ED
:103D600004978617970750F0C61BD70B2297C1936D
:103D7000D1936D937C93CF010E94EC1DC801DF911C
:103D8000CF911F910F91FF90EF90DF90CF90BF9058
:103D9000AF909F908F907F906F905F904F9008951D
:103DA0005B01AC1ABD0A4C018C0E9D1EA09121082E
:103DB000B0912208512C412CF12CE12C109731F5B7
:103DC00080911F08909120088815990509F05CC022
:103DD0004616570608F058C08091040290910502DB
:103DE000009741F48DB79EB74091080250910902A7
:103DF000841B950BE817F90708F055C0F0932008CD
:103E0000E0931F08F90171836083B8CF8D919C9175
:103E1000119712966C90129713967C901397A81591
:103E2000B90559F56C0142E0C40ED11CCA14DB047B
:103E300020F1AC014A195B09DA011296159780F05E
:103E40006282738251834083D9016D937C93E11424
:103E5000F10471F0D7011396FC93EE9312978ECF75
:103E600022968C0F9D1FF90191838083F301EFCF80
:103E7000F0932208E093210881CF4816590608F4F0
:103E80002C017D01D3019ACFCB010E94501D7C01F2
:103E9000009749F0AE01B8010E94561FC8010E9468
:103EA000EC1D87016BCF10E000E068CFFB01DC0167
:103EB00002C001900D9241505040D8F70895FB0187
:103EC000DC0101900D920020E1F7089511E0CEECA5
:103ED000D1E000E006C0802FFE010E94341D219633
:103EE000011DCF3CD10780E00807A9F7F894FFCF68
:103EF000010000000000230880000000F0420000E4
:103F0000B44200000C430000A04200002043000027
:103F1000B44200000000D702370264022403950275
:103F20007302870200000000F0073702CF04CE04BE
:103F3000424F4F54000D0A2A2A2A2057656C636F9E
:103F40006D6520746F20746865204D41474943209A
:103F500047616D653A204361746368207468652029
:103F600047616D6D6121202A2A2A000D0A46697277
:103F70006D7761726520696E666F3A000D0A2D20BB
:103F80004E616D653A20004D6167696347616D65FB
:103F9000000D0A2D205665722E3A2000302E302E4C
:103FA00038000D0A2D20446174653A200030382015
:103FB0004D61722032303233004D41474943204732
:103FC000616D653A004361746368207468652047D9
:103FD000616D6D6121000D0A506C65617365207023
:103FE00072657373207468652073746172742062E3
:103FF0007574746F6E20746F20636F6E74696E7564
:10400000652E00494E4954000D0A4D6F76696E6762
:104010002074656C6573636F706520746F20706FBA
:10402000736974696F6E3A20417A696D7574683A84
:1040300020002C20656C65766174696F6E3A2000F3
:104040004D6F76652074656C6573636F70653A209B
:1040500000417A3A2000202C20656C3A200045521D
:10406000524F52004552524F523A204D6F766520C2
:1040700074656C2E0050524F4752414D2053544F9F
:10408000505045442100505245535320524553450A
:104090005421202020200050524F475245535300B6
:1040A0002031002032002033002034002035002051
:1040B000360053554343455353000D0A2A2A2A2AF2
:1040C0002A2A2A2A2A2A2A2A2A2A2A2A2A2A2A2A50
:1040D0002A2A2A2A2A2A2A2A2A2A2A2A2A2A2A2A40
:1040E0002A2A000D0A436F6E67726174756C6174E1
:1040F000696F6E732120596F7520636175676874ED
:10410000207468652067616D6D612100436F6E6783
:10411000726174756C6174696F6E73210047616DB3
:104120006D612063617567687421203A29004641FA
:10413000494C555245000D0A2A2A2A2A2A2A2A2A97
:104140002A2A2A2A2A2A2A2A2A2A2A2A2A2A2A2ACF
:104150002A2A2A2A000D0A536F7272792C20596F6D
:1041600075206D6973736564207468652067616D7F
:104170006D612100536F7272792E203A28004761D9
:104180006D6D61206D69737365642E000D0A476162
:104190006D652044657461696C73000D0A3D3D3D99
:1041A0003D3D3D3D3D3D3D3D3D000D0A4669786547
:1041B000642074617267657420000D0A4163747530
:1041C000616C20617A696D7574683A20000D0A543B
:1041D000617267657420617A696D7574683A200050
:1041E0000D0A546F6C6572616E636520666F722094
:1041F000617A696D7574683A202B2F2D000D0A4184
:10420000637475616C20656C65766174696F6E3A74
:1042100020000D0A54617267657420656C657661D3
:1042200074696F6E3A20000D0A546F6C6572616E8E
:10423000636520666F7220656C65766174696F6E68
:104240003A202B2F2D000D0A4552524F523A204D45
:104250006F76696E672074656C6573636F70652037
:10426000746F20706F736974696F6E20002C20006A
:10427000206661696C6564212050726F6772616DA0
:104280002073746F7070656421000D0A507265733D
:104290007320746865207265736574206275747428
:1042A0006F6E20746F207265626F6F742E000D0A3E
:1042B0000D0A4D414749432047616D653A205075CD
:1042C00073682074686520737461727420627574F9
:1042D000746F6E20746F2073746172742061206E2D
:1042E00065772067616D652E0D0A002D3D204D41DB
:1042F0004749432047616D65203D2D002A205075B8
:10430000736820627574746F6E21202A0049444CD2
:104310004500535441525400544152474554000DF6
:104320000A4E65772067616D6D6120706F736974E7
:10433000696F6E3A20417A696D7574683A20002081
:104340002866697865642074617267657420004727
:10435000616D6D6120706F736974696F6E3A0000F2
:00000001FF
