:100000000C944F010C9480010C9480010C9480019D
:100010000C9480010C9480010C9480010C9480015C
:100020000C9480010C9480010C9480010C9480014C
:100030000C9480010C9480010C9480010C9480013C
:100040000C9480010C9480010C9480010C9480012C
:100050000C9480010C9480010C9480010C949908FC
:100060000C9480010C9463080C9439080C94800162
:100070000C9480010C9480010C9480010C948001FC
:100080000C9480010C9480010C9480010C948001EC
:100090000C9480010C9480010C9480010C948001DC
:1000A0000C9480010C9480010C9480010C948001CC
:1000B0000C9480010C9480010C9480010C948001BC
:1000C0000C9480010C9480010C9480010C948001AC
:1000D0000C9480010C9480010C9480010C9480019C
:1000E0000C9480010C94C3040C9473020C941903B7
:1000F0000C94D5040C94FD020C9423040C94EC0293
:100100000C9427030C940D050C9423030C94E30822
:100110000C9401030C94F7020C9490010C94E001F0
:100120000C94AB040C94F4020C94E8020C9422049A
:100130000C940B030C9433080C940F030C94FF04E1
:100140000C94B5040C9426020C94EE010C94ED046E
:100150000C94BD010C9413050C9407030C94CC0172
:100160000C9422030C94F5040C9415030C941D03B9
:100170000C94EF040C94E2020C94F00200002100B5
:10018000240027002A002D00300033000101000068
:10019000040107010A0100002200250028002B00AD
:1001A0002E003100340002010000050108010B019E
:1001B000000020002300260029002C002F00320020
:1001C00000010000030106010901050505050705F9
:1001D00008080808020202020A0A080804040404C3
:1001E00001010101010101010303030303030303EF
:1001F000040707070C0C0C0C0C0C0C0C020202027E
:1002000006060606060606060B0B0B0B0B0B0B0B66
:100210000102102020080810204010204080020118
:1002200002010804020101020408102040808040FD
:1002300020100804020180040201804020100804FC
:10024000020108040201010204081020408001029A
:1002500004081020408000000A0B02090C0D0E0853
:10026000070304010000000000000000000000007F
:10027000000000000000000000000000000000007E
:10028000000012111000000000000000000000003B
:10029000000000000000000000000000E30811243E
:1002A0001FBECFEFD1E2DEBFCDBF00E00CBF14E038
:1002B000A0E0B2E0E0EEF9E200E00BBF02C0079080
:1002C0000D92AE36B107D9F725E0AEE6B4E001C035
:1002D0001D92A837B207E1F711E0CFE4D1E000E0CA
:1002E00006C021970109802FFE010E94BC12CE3466
:1002F000D10780E00807A9F70E949E090C94EE142C
:100300000C940000DB0114964D915C9115976D9152
:100310007C91DC01ED91FC910280F381E02D199438
:10032000AF92BF92CF92DF92EF92FF920F931F9303
:10033000CF93DF936C017B018B01040F151FEB0141
:100340005E01AE18BF08C017D10759F06991D601F8
:10035000ED91FC910190F081E02DC6011995892B5A
:1003600079F7C501DF91CF911F910F91FF90EF9029
:10037000DF90CF90BF90AF900895FC01538D448DD6
:10038000252F30E0842F90E0821B930B541710F040
:10039000CF96089501970895FC01918D828D98174D
:1003A00061F0A28DAE0FBF2FB11D5D968C91928D25
:1003B0009F5F9F73928F90E008958FEF9FEF089556
:1003C000FC01918D828D981731F0828DE80FF11D1F
:1003D000858D90E008958FEF9FEF0895FC01918D3A
:1003E000228D892F90E0805C9F4F821B91098F7333
:1003F000992708958BE894E00E94EE0121E0892B73
:1004000009F420E0822F0895FC01A48DA80FB92FD4
:10041000B11DA35ABF4F2C91848D90E001968F732C
:100420009927848FA689B7892C93A089B1898C914B
:10043000837080648C93938D848D981306C002889A
:10044000F389E02D80818F7D80830895EF92FF9264
:100450000F931F93CF93DF93EC0181E0888F9B8DE7
:100460008C8D98131AC0E889F989808185FF15C0A1
:100470009FB7F894EE89FF896083E889F9898081C4
:100480008370806480839FBF81E090E0DF91CF9193
:100490001F910F91FF90EF900895F62E0B8D10E0B5
:1004A0000F5F1F4F0F731127E02E8C8D8E110CC024
:1004B0000FB607FCFACFE889F989808185FFF5CF6F
:1004C000CE010E940402F1CFEB8DEC0FFD2FF11D48
:1004D000E35AFF4FF0829FB7F8940B8FEA89FB89AC
:1004E00080818062CFCFCF93DF93EC01888D88230A
:1004F000B9F0AA89BB89E889F9898C9185FD03C087
:10050000808186FD0DC00FB607FCF7CF8C9185FF6B
:10051000F2CF808185FFEDCFCE010E940402E9CFAA
:10052000DF91CF91089580E090E0892B29F00E941F
:10053000FA0181110E94000080E090E0892B49F0CF
:1005400080E090E0892B29F00E94000081110E9438
:10055000000080E090E0892B49F080E090E0892B5A
:1005600029F00E94000081110E94000080E090E0CC
:10057000892B49F080E090E0892B29F00E9400004F
:1005800081110C94000008958150823108F05AC006
:10059000E82FF0E08827E053FD4F8F4F0C94BC12FA
:1005A000F002F402E202E802EC022203F702FD028A
:1005B000010307030B030F031503190322031D0394
:1005C00023032703809180008F7780938000089514
:1005D000809180008F7DF9CF80918000877FF5CF5B
:1005E00084B58F7784BD089584B58F7DFBCF8091CE
:1005F000B0008F778093B00008958091B0008F7D18
:10060000F9CF809190008F7780939000089580912A
:1006100090008F7DF9CF80919000877FF5CF8091FA
:10062000A0008F778093A00008958091A0008F7D17
:10063000F9CF8091A000877FF5CF809120018F773F
:10064000809320010895809120018F7DF9CF8091C2
:100650002001877FF5CFCF93DF93282F30E0F9017A
:10066000EA5AFD4F8491F901E05FFD4FD491F90101
:10067000E653FE4FC491CC23A1F081110E94C40225
:10068000EC2FF0E0EE0FFF1FE055FE4FA591B49167
:10069000EC91ED2381E090E009F480E0DF91CF91CF
:1006A000089580E090E0FACF1F93CF93DF93282F37
:1006B00030E0F901EA5AFD4F8491F901E05FFD4F06
:1006C000D491F901E653FE4FC491CC23A9F0162F23
:1006D00081110E94C402EC2FF0E0EE0FFF1FEA56DA
:1006E000FE4FA591B4918FB7F894EC91111108C009
:1006F000D095DE23DC938FBFDF91CF911F910895BA
:10070000DE2BF8CFCF93DF9390E0FC01E05FFD4F4D
:10071000249186539E4FFC0184918823D1F090E070
:10072000880F991FFC01E458FE4FA591B491FC017C
:10073000EA56FE4FC591D491623071F49FB7F89498
:100740003C91822F809583238C93E8812E2B2883E4
:100750009FBFDF91CF9108958FB7F894EC912E2B26
:100760002C938FBFF6CF90917B00977F90937B0067
:100770008653806480937C0080917A0080648093AB
:100780007A0080917A0086FDFCCF8091780090916C
:10079000790008953FB7F89480916F0490917004A8
:1007A000A0917104B091720426B5A89B05C02F3F9B
:1007B00019F00196A11DB11D3FBFBA2FA92F982F87
:1007C0008827BC01CD01620F711D811D911D42E082
:1007D000660F771F881F991F4A95D1F708958F924A
:1007E0009F92AF92BF92CF92DF92EF92FF926B01F6
:1007F0007C010E94CA034B015C01C114D104E104D5
:10080000F104B9F00E94CA03681979098A099B09A1
:10081000683E73408105910580F321E0C21AD1083A
:10082000E108F10888EE880E83E0981EA11CB11C37
:10083000E4CFFF90EF90DF90CF90BF90AF909F906C
:100840008F900895089590E080E008950F931F938E
:10085000CF93DF93EC018B0188859985029751F442
:100860006130710509F43AC06CF560E001151105BD
:1008700009F435C088859985049751F40130110534
:1008800009F455C00CF035C00115110509F43EC03E
:1008900088859985059709F0C8C00A30110508F0C8
:1008A000C4C0F8018827E85AFB4F8F4F0C94BC1244
:1008B000AB04B504C304D504ED04EF04F504FF0450
:1008C0000D0513056230710591F060E003301105EC
:1008D00089F68C850E94540360E005C061E08C8538
:1008E0000E94540361E08E850E945403C3CF61E0EF
:1008F000F0CF0230110509F10330110509F0C8CF1E
:1009000061E08C850E94540360E01CC061E08C852E
:100910000E94540360E08E850E94540361E0888940
:100920000E94540360E08A890E945403B1CF60E0C2
:100930008C850E94540361E0EECF60E08C850E94BC
:10094000540361E08E850E94540360E088890E9410
:10095000540361E0E8CF60E08C850E94540361E0BD
:100960008E850E94540361E009C060E08C850E947E
:10097000540361E08E850E94540360E088890E94E0
:10098000540360E00DC060E08C850E94540361E078
:100990008E850E94540360E088890E94540361E0C0
:1009A0008A890E94540361E011C060E08C850E9436
:1009B000540361E08E850E94540360E088890E94A0
:1009C000540361E08A890E94540360E08C89DF91BE
:1009D000CF911F910F910C94540361E0E7CF61E038
:1009E0008C850E94540360E0E5CF61E08C850E9415
:1009F000540360E08E850E94540361E0DFCF61E024
:100A00008C850E94540360E08E850E94540361E04F
:100A100088890E94540360E0D5CF61E08C850E94F4
:100A2000540360E09DCF60E0F9CFDF91CF911F913B
:100A30000F910895CF92DF92EF92FF920F931F9341
:100A4000CF93DF93EC016130710509F045C07983E4
:100A500068830E94CA030E891F89288D398D6B0116
:100A60007C01C01AD10AE20AF30A0A811B812C8197
:100A70003D81C016D106E206F30658F36E8B7F8BDC
:100A8000888F998F8A859B8528813981213031050E
:100A900049F501969B878A872E813F8182179307AC
:100AA00011F41B861A868A859B85288539856AE01C
:100AB00070E02530310511F064E070E00E94A8126A
:100AC000BC01CE01DF91CF911F910F91FF90EF906C
:100AD000DF90CF900C9426046F3F7F4F79F41982FA
:100AE0001882B7CF892B21F48E819F819B878A87BB
:100AF0008A859B8501979B878A87D5CFDF91CF9188
:100B00001F910F91FF90EF90DF90CF900895883C58
:100B10009105B4F08C3221E09207ACF0803921E0ED
:100B20009207A4F0803722E092079CF0843D22E0F7
:100B3000920794F08833934094F08CEF9FEF0895E0
:100B400084E090E0089582E090E0089581E090E0F4
:100B5000089590E080E008958FEF9FEF08958EEF65
:100B60009FEF08958AE10E942B03892B29F088E3E7
:100B70000E942B03892BB1F790E080E00895FB01E0
:100B800001900020E9F73197AF01461B570BDC01BC
:100B9000ED91FC910280F381E02D19940F931F9346
:100BA000CF93DF93EC0188819981009759F02A81D6
:100BB0003B812617370730F081E0DF91CF911F91FD
:100BC0000F9108958B016F5F7F4F0E94FD13009777
:100BD00059F0998388831B830A832C813D81232BC1
:100BE00059F7FC011082E8CF80E0E7CFEF92FF9247
:100BF0000F931F93CF93DF936115710541F480E04C
:100C0000DF91CF911F910F91FF90EF9008954115C3
:100C10005105B1F07B01EC010C811D81040F151F02
:100C2000B8010E94CE05882351F3288139818C8137
:100C30009D81B701820F931F0E94E7141D830C83CF
:100C400081E0DECFCF93DF93EC018881998100971B
:100C500011F00E947413198218821D821C821B825B
:100C60001A82DF91CF910895EF92FF920F931F9315
:100C7000CF93DF93EC017B01198218821B821A82C9
:100C80001D821C82FB0101900020E9F731978F0142
:100C9000061B170BB8010E94CE05811109C0CE01B9
:100CA000DF91CF911F910F91FF90EF900C9422064E
:100CB0001D830C83B70188819981DF91CF911F91AA
:100CC0000F91FF90EF900C94E714CF92DF92EF9288
:100CD000FF920F931F93CF93DF93CDB7DEB7629749
:100CE0000FB6F894DEBF0FBECDBF8C01CB01F8016B
:100CF0001182108213821282158214824AE09E01B0
:100D00002F5F3F4F6901B9010E944410F601019025
:100D10000020E9F731977F01EC18FD08B701C80101
:100D20000E94CE05811112C0C8010E94220662965F
:100D30000FB6F894DEBF0FBECDBFDF91CF911F91EC
:100D40000F91FF90EF90DF90CF900895F801F5821A
:100D5000E482B601808191810E94E714E8CFCF93AD
:100D6000DF93EC01FB0101900020E9F73197AF011F
:100D7000461B570B0E94F605811103C0CE010E944D
:100D80002206CE01DF91CF910895CF93DF93EC013E
:100D9000FB0144815581608171810E94F6058111BA
:100DA00003C0CE010E942206CE01DF91CF910895AB
:100DB000FC0180819181009711F00C9474130895C7
:100DC000CF93DF93EC0160E08E810E94540361E0D9
:100DD0008E810E94540360E08E810E9454038BE850
:100DE00091E00197F1F7DF91CF910895CF92DF92D3
:100DF000EF92FF920F931F93CF93DF936C017C01CF
:100E000087E0E80EF11CD0E0C0E0062F10E0B8014A
:100E10000C2E02C0759567950A94E2F76170F70190
:100E200081917F010E9454032196C430D10579F746
:100E3000C601DF91CF911F910F91FF90EF90DF904E
:100E4000CF900C94E006CF92DF92EF92FF920F9337
:100E50001F93CF93DF93EC01F62E642F8C810E94B9
:100E600054038D818F3F19F060E00E9454030F2DD1
:100E700010E08F8584FF25C06E0187E0C80ED11C6D
:100E8000F12CE12CB8010E2C02C0759567950A94DF
:100E9000E2F76170F60181916F010E945403FFEF48
:100EA000EF1AFF0A88E0E816F10461F7CE01DF913E
:100EB000CF911F910F91FF90EF90DF90CF900C9406
:100EC000E006B80184E0759567958A95E1F7CE0153
:100ED0000E94F6066F2DCE01DF91CF911F910F91E9
:100EE000FF90EF90DF90CF900C94F60640E0682FD3
:100EF00088E295E00C94230781E00E9476078BE35B
:100F00009FE10197F1F70895CF93DF93823029F4A1
:100F10009091370598609093370580933B05109228
:100F20003C0580E480933D0580E180933E0580E5AB
:100F300080933F0561E080912C050E94820380919F
:100F40002D058F3F19F061E00E94820361E08091DE
:100F50002E050E948203C8E2D5E09E01285235404A
:100F60008091370584FD0BC084E090E0219628171E
:100F7000390744F461E08E810E948203EECF88E05D
:100F800090E0F4CF8BE39DE00197F1F760E0809172
:100F90002C050E94540360E080912E050E945403AA
:100FA00080912D058F3F19F060E00E9454038091DD
:100FB000370584FD34C063E088E295E00E94F606C0
:100FC000CBE4D6E4CE010197F1F763E088E295E047
:100FD0000E94F6062197F1F763E088E295E00E940F
:100FE000F60683E592E00197F1F762E088E295E08A
:100FF0000E94F6068091370580620E94760784E0A1
:10100000809338058CE00E9476070E947C0782E07E
:101010008093390586E0DF91CF910C94760780624A
:101020000E9476078BE496E40197F1F780913705EB
:1010300080620E94760783E592E00197F1F7809144
:10104000370580620E947607D5CF90913B058917BE
:1010500010F08FEF890FE82FF0E0E85DFA4F8489F8
:1010600080680C94760741E00E94230781E090E0BD
:1010700008951F920F920FB60F9211240BB60F9284
:101080002F933F934F935F936F937F938F939F9390
:10109000AF93BF93EF93FF938BE894E00E94040219
:1010A000FF91EF91BF91AF919F918F917F916F9140
:1010B0005F914F913F912F910F900BBE0F900FBEFC
:1010C0000F901F9018951F920F920FB60F92112438
:1010D0000BB60F922F938F939F93EF93FF93E09113
:1010E0009B04F0919C048081E091A104F091A20402
:1010F00082FD1DC090818091A4048F5F8F73209129
:10110000A504821741F0E091A404F0E0E557FB4FFD
:10111000958F8093A404FF91EF919F918F912F91D0
:101120000F900BBE0F900FBE0F901F9018958081EF
:10113000F2CF1F920F920FB60F9211242F933F936D
:101140008F939F93AF93BF93809173049091740496
:10115000A0917504B091760430916E0423E0230FC2
:101160002D3758F50196A11DB11D20936E04809373
:10117000730490937404A0937504B09376048091E3
:101180006F0490917004A0917104B0917204019663
:10119000A11DB11D80936F0490937004A0937104FE
:1011A000B0937204BF91AF919F918F913F912F9116
:1011B0000F900FBE0F901F90189526E8230F0296F0
:1011C000A11DB11DD2CFEF92FF920F931F93CF932A
:1011D000DF93EBE8F4E01382128288EE93E0A0E064
:1011E000B0E084839583A683B7838EE092E09183F9
:1011F000808385EC90E09587848784EC90E09787E6
:10120000868780EC90E0918B808B81EC90E0938BD3
:10121000828B82EC90E0958B848B86EC90E0978BB0
:10122000868B118E128E138E148ECAE5D5E01B8626
:101230001A86198218821E8A1F8A188E198E80E4D7
:10124000E82EF12CFF82EE828EE190E09D878C8764
:1012500080E290E09F878E878FE190E0998B888B6A
:1012600081E290E09B8B8A8B61E08EE10E94820399
:1012700061E08E850E94820361E088890E9482037A
:1012800061E08A890E9482031D8A1C8A04E010E0C2
:1012900019870887C0E4D5E01B861A861982188250
:1012A0001E8A1F8A188E198EFF82EE8282E290E0DB
:1012B0009D878C8784E290E09F878E8783E290E011
:1012C000998B888B85E290E09B8B8A8B61E082E230
:1012D0000E94820361E08E850E94820361E088891A
:1012E0000E94820361E08A890E9482031D8A1C8A0F
:1012F00019870887E8E2F5E01382128280E292E023
:101300009183808380E384838FEF858381E3868369
:1013100082E3878383E3808784E3818785E3828711
:101320001386148615861686178681E0DF91CF9185
:101330001F910F91FF90EF900C948407CF93DF9350
:10134000CDB7DEB762970FB6F894DEBF0FBECDBF44
:10135000789484B5826084BD84B5816084BD85B590
:10136000826085BD85B5816085BD80916E0081609C
:1013700080936E0010928100809181008260809342
:101380008100809181008160809381008091800044
:101390008160809380008091B10084608093B1006F
:1013A0008091B00081608093B00080919100826054
:1013B0008093910080919100816080939100809151
:1013C00090008160809390008091A1008260809362
:1013D000A1008091A10081608093A1008091A00074
:1013E00081608093A000809121018260809321011F
:1013F0008091210181608093210180912001816091
:101400008093200180917A00846080937A0080919B
:101410007A00826080937A0080917A008160809364
:101420007A0080917A00806880937A001092C100DF
:10143000E0919B04F0919C0482E08083E09197040A
:10144000F09198041082E0919904F0919A048FEC45
:1014500080831092A304E0919F04F091A00486E0A1
:101460008083E0919D04F0919E048081806180835F
:10147000E0919D04F0919E04808188608083E091DA
:101480009D04F0919E04808180688083E0919D049A
:10149000F0919E0480818F7D808368E272E08BE80A
:1014A00094E00E94BF0560E373E08BE894E00E9443
:1014B000BF056EE572E08BE894E00E94BF056FE621
:1014C00072E08BE894E00E94BF056AE772E08BE867
:1014D00094E00E94BF0564E872E08BE894E00E940B
:1014E000BF056FE872E08BE894E00E94BF0565E9F4
:1014F00072E08BE894E00E94BF0560EA72E08BE83E
:1015000094E00E94BF0560E373E08BE894E00E94E2
:10151000BF052091600530916105032E000C440B3E
:10152000550BC12C97E8D92E93E9E92E93E0F92EBB
:10153000C701B6010E949D116AE0462E512C612C14
:10154000712CCA01B901A30192010E949D1120933F
:101550005C0530935D0540935E0550935F052091D7
:10156000460530914705032E000C440B550BC7016F
:10157000B6010E949D11CA01B901A30192010E9406
:101580009D112093420530934305409344055093A9
:10159000450582E00E94840780E00E9425086CEAED
:1015A00072E088E295E00E94BF0581E00E94250874
:1015B00068EB72E088E295E00E94BF0568EE73E098
:1015C00080E090E00E94EF0362E086E10E948203E7
:1015D00062E087E10E94820362E088E10E94820368
:1015E00062E089E10E94820362E08AE10E94820354
:1015F00062E088E30E94820361E08DE00E94820342
:1016000061E082E00E94820361E083E00E94820345
:1016100061E084E00E94820361E085E00E94820331
:1016200061E086E00E94820361E086E20E9482031C
:1016300061E087E20E94820361E088E20E94820307
:1016400061E08AE20E94820361E08BE20E948203F1
:1016500061E08CE20E94820361E08EE20E948203DC
:1016600061E08FE20E94820361E08DE00E945403FA
:1016700060E082E00E94540360E083E00E94540333
:1016800060E084E00E94540360E085E00E9454031F
:1016900060E086E00E94540360E086E20E9454030A
:1016A00060E087E20E94540360E088E20E945403F5
:1016B00060E08AE20E94540360E08BE20E945403DF
:1016C00060E08CE20E94540360E08CE20E945403CC
:1016D00060E08EE20E94540360E08FE20E945403B7
:1016E00069EC72E08BE894E00E94BF050E94B205AD
:1016F00068EE73E080E090E00E94EF0361E08EE22C
:101700000E94540360E082E00E94540360E083E0A2
:101710000E94540360E084E00E94540360E085E08E
:101720000E94540360E086E00E94540360E086E279
:101730000E94540360E087E20E94540360E088E264
:101740000E94540360E08AE20E94540360E08BE24E
:101750000E94540360E08CE20E94540360E08CE23B
:101760000E94540366EF72E08BE894E00E94BF058C
:101770000E947C0780E00E94250863E373E088E212
:1017800095E00E94BF0581E00E94250864E473E0B3
:1017900088E295E00E94BF050E94B2050E94EC0F0E
:1017A00024E531E040E050E00E949D11665F7F4FEC
:1017B0008F4F9F4F0E94801060937B0470937C0436
:1017C00080937D0490937E040E94EC0F26E430E029
:1017D00040E050E00E949D11665F7F4F8F4F9F4F0A
:1017E0000E9480106093770470937804809379044A
:1017F00090937A040E946D12CE0101960E946506B4
:1018000060917B0470917C0480917D0490917E04B2
:101810000E946D12CE0107960E94650665E573E091
:10182000CE010D960E943406BE01695F7F4FCE0146
:101830000D960E94C50665E773E00E94AF06BE01E3
:101840006F5F7F4F0E94C506BC018BE894E00E9449
:101850008201CE010D960E94D806CE0107960E9405
:10186000D806CE0101960E94D8060E947C0780E02F
:101870000E94250863E873E088E295E00E94BF05B6
:1018800081E00E942508609177047091780480912E
:10189000790490917A040E946D12CE0101960E9403
:1018A000650660917B0470917C0480917D04909129
:1018B0007E040E946D12CE0107960E94650663E9C0
:1018C00073E0CE010D960E943406BE01695F7F4F22
:1018D000CE010D960E94C50668E973E00E94AF062E
:1018E000BE016F5F7F4F0E94C506BC0188E295E094
:1018F0000E948201CE010D960E94D806CE01079665
:101900000E94D806CE0101960E94D8068FB7F8949F
:101910008090730490907404A0907504B090760445
:101920008FBF8FB7F894C0907304D0907404E09088
:101930007504F09076048FBFC818D908EA08FB0830
:101940008BEFC816D104E104F1040CF4D0C061E0BF
:1019500082E00E94540389EBC8168BE0D806E104AC
:10196000F1040CF4C4C061E083E00E94540381E7F9
:10197000C81687E1D806E104F1040CF4B8C061E0B0
:1019800084E00E94540389E2C81683E2D806E10489
:10199000F1040CF4ACC061E085E00E94540381EED8
:1019A000C8168EE2D806E104F1040CF4A0C061E090
:1019B00086E00E94540389E9C8168AE3D806E10448
:1019C000F1040CF494C00E947C0740907B0450907A
:1019D0007C0460907D0470907E04C0908504D0905B
:1019E0008604E0908704F090880420E030E040EA2C
:1019F00051E4C301B2010E940012A70196010E94A6
:101A0000791087FF5FC020E030E040EA51E4C30175
:101A1000B2010E9401129B01AC01C701B6010E94F4
:101A2000791087FF4FC04090770450907804609001
:101A3000790470907A04C0907F04D0908004E09084
:101A40008104F090820420E030E040E251E4C301E0
:101A5000B2010E940012A70196010E94791087FF2F
:101A600031C020E030E040E251E4C301B2010E9405
:101A700001129B01AC01C701B6010E94791087FFDA
:101A800021C060EA73E08BE894E00E94BF0580E02B
:101A90000E94250869EC73E088E295E00E94BF058A
:101AA00081E00E9425086AED73E088E295E00E94DB
:101AB000BF050E94B20568EE73E080E090E00E94EE
:101AC000EF0320CE68EE73E08BE894E00E94BF0540
:101AD00080E00E94250867E074E088E295E00E94BB
:101AE000BF0581E00E94250861E174E0DECF86E356
:101AF0000E94B3030E9487057C0187E30E94B30321
:101B00000E9487056C0184E0282E312C0091890405
:101B100010918A04B801012E000C880B990B0E94C9
:101B2000801020E030E040E85CE30E94DF1020E01D
:101B300030E044EB53E40E94DF102B013C01409263
:101B400085045092860460928704709288046091A4
:101B5000830470918404072E000C880B990B0E945B
:101B6000801020E030E040E85CE30E94DF1020E0DD
:101B700030E044EB53E40E94DF1060937F047093E5
:101B800080048093810490938204F7FE35C120E0A5
:101B900030E04FEA53E4C301B2010E94791087FD9F
:101BA00015C16DE570E080E090E00E94EF03D7FE84
:101BB0005DC120E030E040EA52E460917F04709122
:101BC000800480918104909182040E94791087FDA5
:101BD00034C16DE570E080E090E00E94EF0381E0A9
:101BE000281A310809F092CF40907B0450907C0471
:101BF00060907D0470907E04C0908504D09086042F
:101C0000E0908704F090880420E030E040EA51E45E
:101C1000C301B2010E940012A70196010E94A31203
:101C200018160CF04DC160E086E20E94540360E09B
:101C300087E20E94540361E088E20E9454034090CE
:101C40007704509078046090790470907A04C09082
:101C50007F04D0908004E0908104F090820420E022
:101C600030E040E251E4C301B2010E940012A7013A
:101C700096010E94A31218160CF042C160E08AE29D
:101C80000E94540360E08BE20E94540361E08CE206
:101C90000E945403C701B6010E946D12CE01019645
:101CA0000E94650660918504709186048091870486
:101CB000909188040E946D12CE0107960E946506DD
:101CC0006FE174E0CE010D960E943406BE01695F9B
:101CD0007F4FCE010D960E94C50669E374E00E9415
:101CE000AF06BE016F5F7F4F0E94C506BC018BE847
:101CF00094E00E948201CE010D960E94D806CE018A
:101D000007960E94D806CE0101960E94D80680E070
:101D10000E94250860918504709186048091870453
:101D2000909188040E946D12CE0101960E94650672
:101D30006EE474E0CE0107960E943406BE016F5F28
:101D40007F4FCE0107960E94C5066CE574E00E94A5
:101D5000AF06BC0188E295E00E948201CE010796A1
:101D60000E94D806CE0101960E94D80681E00E940A
:101D7000250860917F047091800480918104909186
:101D800082040E946D12CE0101960E9465066FE5E5
:101D900074E0CE0107960E943406BE016F5F7F4F4C
:101DA000CE0107960E94C5066CE574E00E94AF065E
:101DB000BC0188E295E00E948201CE0107960E9454
:101DC000D806CE0101960E94D806ABCD87E10E94CD
:101DD0002B03892B09F4E5CE6FEF7FEF8AE595E0C1
:101DE0000E941A058FEFE81AF80A0F5F1F4F109331
:101DF0008A0400938904DBCEE114F10409F4D1CE06
:101E000020E030E040E251E4C301B2010E94A3129D
:101E100018160CF0C6CE86E10E942B03892B09F41C
:101E2000C0CE61E070E08AE595E00E941A0581E08D
:101E3000E81AF10801501109DACF89E10E942B0359
:101E4000892B09F4C6CE6FEF7FEF80E495E00E9406
:101E50001A058FEFC81AD80A8091830490918404E0
:101E600001969093840480938304B9CEC114D10465
:101E700009F4AFCE20E030E040E251E460917F040D
:101E80007091800480918104909182040E94A31239
:101E900018160CF09ECE88E10E942B03892B09F4C2
:101EA00098CE61E070E080E495E00E941A0581E040
:101EB000C81AD10880918304909184040197D1CFEE
:101EC00020E030E040EA51E4C301B2010E94011277
:101ED0009B01AC01C701B6010E94A312181654F46D
:101EE00061E086E20E94540360E087E20E945403AE
:101EF00060E0A2CE60E086E20E94540361E0F5CF8C
:101F000020E030E040E251E4C301B2010E9401123E
:101F10009B01AC01C701B6010E94A312181654F42C
:101F200061E08AE20E94540360E08BE20E94540365
:101F300060E0ADCE60E08AE20E94540361E0F5CF3C
:101F40008F929F92AF92BF92CF92DF92EF92FF92C9
:101F5000CF93DF93EC01688179818A819B81611540
:101F600071058105910521F464E279ED8BE597E037
:101F70002DE133EF41E050E00E949D1149015A01EB
:101F80009B01AC01A7EAB1E40E94BC116B017C018A
:101F9000ACEEB4EFA50194010E94CA11C60ED71E83
:101FA000E81EF91EF7FE06C081E0C81AD108E10854
:101FB00080E8F80AC882D982EA82FB82C701B601AA
:101FC0009F77DF91CF91FF90EF90DF90CF90BF9000
:101FD000AF909F908F9008958F929F92AF92BF92F3
:101FE000CF92DF92EF92FF92609100027091010216
:101FF000809102029091030261157105810591059E
:1020000021F464E279ED8BE597E02DE133EF41E0D7
:1020100050E00E949D1149015A019B01AC01A7EAC1
:10202000B1E40E94BC116B017C01ACEEB4EFA501E0
:1020300094010E94CA11C60ED71EE81EF91EF7FEB3
:1020400006C081E0C81AD108E10880E8F80AC09209
:102050000002D0920102E0920202F0920302C70154
:10206000B6019F77FF90EF90DF90CF90BF90AF9039
:102070009F908F9008956093000270930102809367
:102080000202909303020895BB274A3031F499234A
:1020900022F4BDE2909581959F4F0C945010BB2780
:1020A000FB015527AA27880F991FAA1FA41710F014
:1020B000A41B83955051B9F7A05DAA3308F0A95D20
:1020C000A193009779F7B111B1931192CB010C94C0
:1020D0006910DC01FC01672F71917723E1F73297DA
:1020E00004C07C916D9370836291AE17BF07C8F3F3
:1020F00008950E94BB1008F481E00895E89409C097
:1021000097FB3EF490958095709561957F4F8F4F2A
:102110009F4F9923A9F0F92F96E9BB279395F69540
:10212000879577956795B795F111F8CFFAF4BB0FBE
:1021300011F460FF1BC06F5F7F4F8F4F9F4F16C022
:10214000882311F096E911C0772321F09EE8872FAC
:10215000762F05C0662371F096E8862F70E060E068
:102160002AF09A95660F771F881FDAF7880F9695E1
:10217000879597F90895990F0008550FAA0BE0E885
:10218000FEEF16161706E807F907C0F01216130639
:10219000E407F50798F0621B730B840B950B39F479
:1021A0000A2661F0232B242B252B21F408950A26DF
:1021B00009F4A140A6958FEF811D811D08950E940D
:1021C000F2100C9463110E94551138F00E945C11BA
:1021D00020F0952311F00C944C110C945211112401
:1021E0000C9497110E94741170F3959FC1F3950F91
:1021F00050E0551F629FF001729FBB27F00DB11D8B
:10220000639FAA27F00DB11DAA1F649F6627B00D1A
:10221000A11D661F829F2227B00DA11D621F739F03
:10222000B00DA11D621F839FA00D611D221F749F11
:102230003327A00D611D231F849F600D211D822F58
:10224000762F6A2F11249F5750409AF0F1F088237F
:102250004AF0EE0FFF1FBB1F661F771F881F9150AC
:102260005040A9F79E3F510580F00C944C110C94FE
:1022700097115F3FE4F3983ED4F386957795679581
:10228000B795F795E7959F5FC1F7FE2B880F911DD6
:102290009695879597F9089597F99F6780E870E07C
:1022A00060E008959FEF80EC089500240A941616CC
:1022B000170618060906089500240A941216130634
:1022C000140605060895092E0394000C11F48823C2
:1022D00052F0BB0F40F4BF2B11F460FF04C06F5FDE
:1022E0007F4F8F4F9F4F089557FD9058440F551FB4
:1022F00059F05F3F71F04795880F97FB991F61F088
:102300009F3F79F087950895121613061406551FFE
:10231000F2CF4695F1DF08C0161617061806991F6A
:10232000F1CF86957105610508940895E894BB275F
:1023300066277727CB0197F90895052E97FB1EF4A2
:1023400000940E94B41157FD07D00E94CF1107FCE2
:1023500003D04EF40C94B4115095409530952195CE
:102360003F4F4F4F5F4F08959095809570956195C1
:102370007F4F8F4F9F4F08950E94F111A59F900DA1
:10238000B49F900DA49F800D911D11240895B7FF57
:102390000C94BC110E94BC11821B930B0895A1E206
:1023A0001A2EAA1BBB1BFD010DC0AA1FBB1FEE1FCF
:1023B000FF1FA217B307E407F50720F0A21BB30B1A
:1023C000E40BF50B661F771F881F991F1A9469F796
:1023D00060957095809590959B01AC01BD01CF01F2
:1023E0000895A29FB001B39FC001A39F700D811DEE
:1023F0001124911DB29F700D811D1124911D08950E
:102400005058BB27AA270E9418120C9463110E94EF
:10241000551138F00E945C1120F039F49F3F19F4F7
:1024200026F40C9452110EF4E095E7FB0C944C1139
:10243000E92F0E94741158F3BA17620773078407D3
:10244000950720F079F4A6F50C9496110EF4E0951A
:102450000B2EBA2FA02D0B01B90190010C01CA015E
:10246000A0011124FF27591B99F0593F50F4503E09
:1024700068F11A16F040A22F232F342F4427585FFB
:10248000F3CF469537952795A795F0405395C9F713
:102490007EF41F16BA0B620B730B840BBAF09150CB
:1024A000A1F0FF0FBB1F661F771F881FC2F70EC06A
:1024B000BA0F621F731F841F48F48795779567953D
:1024C000B795F7959E3F08F0B0CF9395880F08F029
:1024D0009927EE0F9795879508950E947412689436
:1024E000B1110C94971108950E947C1188F09F57A8
:1024F00098F0B92F9927B751B0F0E1F0660F771F28
:10250000881F991F1AF0BA95C9F714C0B13091F01D
:102510000E949611B1E008950C949611672F782FC0
:102520008827B85F39F0B93FCCF3869577956795E2
:10253000B395D9F73EF490958095709561957F4F4E
:102540008F4F9F4F08950E94BB1008F48FEF08959E
:1025500097FB072E16F4009407D077FD09D00E9450
:10256000C41207FC05D03EF4909581959F4F0895C5
:10257000709561957F4F0895EE0FFF1F881F8BBFE9
:102580000790F691E02D1994AA1BBB1B51E107C0DF
:10259000AA1FBB1FA617B70710F0A61BB70B881FF3
:1025A000991F5A95A9F780959095BC01CD01089582
:1025B0000F931F93CF93DF938230910510F482E045
:1025C00090E0E0917605F091770530E020E0B0E012
:1025D000A0E0309799F42115310509F44AC0281B71
:1025E000390B24303105D8F58A819B81611571053D
:1025F00089F1FB0193838283FE0111C040815181E7
:102600000281138148175907E0F04817590799F4D8
:10261000109761F012960C93129713961C933296B2
:10262000CF01DF91CF911F910F910895009376050F
:1026300010937705F4CF2115310551F04217530758
:1026400038F0A901DB019A01BD01DF01F801C1CF1A
:10265000EF01F9CF9093770580937605CDCFFE01FA
:10266000E20FF31F8193919322503109398328831C
:10267000D7CF2091740530917505232B41F420911B
:10268000060230910702309375052093740520915E
:102690000402309105022115310541F42DB73EB7F2
:1026A0004091080250910902241B350BE0917405FA
:1026B000F0917505E217F307A0F42E1B3F0B2817C6
:1026C000390778F0AC014E5F5F4F2417350748F0AB
:1026D0004E0F5F1F5093750540937405819391933E
:1026E0009FCFF0E0E0E09CCFCF93DF930097E9F03D
:1026F000FC01329713821282A0917605B091770582
:10270000ED0130E020E01097A1F420813181820FAB
:10271000931F20917405309175052817390709F02A
:1027200061C0F0937505E0937405DF91CF91089532
:10273000EA01CE17DF07E8F54A815B819E0141156A
:102740005105B1F7E901FB83EA8349915991C40F1F
:10275000D51FEC17FD0761F4808191810296840FEB
:10276000951FE90199838883828193819B838A8362
:10277000F0E0E0E012968D919C9113970097B9F5E7
:102780002D913C911197CD010296820F931F2091BC
:102790007405309175052817390739F6309751F5CA
:1027A0001092770510927605B0937505A093740585
:1027B000BCCFD383C28340815181840F951FC8173A
:1027C000D90761F44E5F5F4F88819981480F591F87
:1027D000518340838A819B819383828321153105B4
:1027E00009F0B0CFF0937705E09376059ECFFD0119
:1027F000DC01C0CF13821282D7CF4F925F926F92CB
:102800007F928F929F92AF92BF92CF92DF92EF9280
:10281000FF920F931F93CF93DF938C01009799F44E
:10282000CB01DF91CF911F910F91FF90EF90DF903F
:10283000CF90BF90AF909F908F907F906F905F9060
:102840004F900C94D812FC01E60FF71F9C01225008
:102850003109E217F30708F4AEC0D901CD91DC913C
:102860001197C617D70720F1C530D10578F0CE01F2
:1028700004978617970750F0C61BD70B2297C19372
:10288000D1936D937C93CF010E947413C801DF91A3
:10289000CF911F910F91FF90EF90DF90CF90BF905D
:1028A000AF909F908F907F906F905F904F90089522
:1028B0005B01AC1ABD0A4C018C0E9D1EA0917605E1
:1028C000B0917705512C412CF12CE12C109731F56A
:1028D00080917405909175058815990509F05CC083
:1028E0004616570608F058C08091040290910502E0
:1028F000009741F48DB79EB74091080250910902AC
:10290000841B950BE817F90708F055C0F09375057F
:10291000E0937405F90171836083B8CF8D919C9128
:10292000119712966C90129713967C901397A81596
:10293000B90559F56C0142E0C40ED11CCA14DB0480
:1029400020F1AC014A195B09DA011296159780F063
:102950006282738251834083D9016D937C93E11429
:10296000F10471F0D7011396FC93EE9312978ECF7A
:1029700022968C0F9D1FF90191838083F301EFCF85
:10298000F0937705E093760581CF4816590608F451
:102990002C017D01D3019ACFCB010E94D8127C017A
:1029A000009749F0AE01B8010E94DE14C8010E94F0
:1029B000741387016BCF10E000E068CFFB01DC01EE
:1029C00002C001900D9241505040D8F70895FB018C
:1029D000DC0101900D920020E1F70895F894FFCFFB
:1029E00001000000000078058000000000002602C1
:1029F0009001BD017302EE01CC01E0010000000076
:102A000033089001230422040D0A2A2A2A2057653C
:102A10006C636F6D6520746F20746865204D41474D
:102A200049432047616D653A2043617463682074AF
:102A300068652047616D6D6121202A2A2A000D0AF0
:102A40004669726D7761726520696E666F3A000D36
:102A50000A2D204E616D653A20004D61676963471C
:102A6000616D65000D0A2D205665722E3A200030EA
:102A70002E302E32000D0A2D20446174653A20005C
:102A80003234204A616E2032303233004D414749A2
:102A9000432047616D653A00436174636820746840
:102AA000652047616D6D6121000D0A506C65617391
:102AB0006520707265737320746865207374617229
:102AC0007420627574746F6E20746F20636F6E74FF
:102AD000696E75652E000D0A0D0A4D414749432068
:102AE00047616D653A20507573682074686520737E
:102AF0007461727420627574746F6E20746F2073C9
:102B0000746172742061206E65772067616D652E37
:102B10000D0A002D3D204D414749432047616D6519
:102B2000203D2D002A205075736820627574746FE3
:102B30006E21202A000D0A4E65772067616D6D6158
:102B400020706F736974696F6E3A20417A696D7590
:102B500074683A20002C20656C65766174696F6E2C
:102B60003A200047616D6D6120706F736974696F01
:102B70006E3A00417A3A2000202C20656C3A200001
:102B80000D0A436F6E67726174756C6174696F6E64
:102B9000732120596F7520636175676874207468AC
:102BA000652067616D6D612100436F6E67726174AE
:102BB000756C6174696F6E73210047616D6D612082
:102BC00063617567687421000D0A536F7272792C06
:102BD00020596F75206D6973736564207468652072
:102BE00067616D6D612100536F7272792E203A28F2
:102BF0000047616D6D61206D69737365642E000D12
:102C00000A44454255473A2041637475616C20611E
:102C10007A696D7574683A20002C2061637475615F
:102C20006C20656C65766174696F6E3A2000444271
:102C300047206163742E20617A3A200020200044EE
:0E2C40004247206163742E20656C3A2000002C
:00000001FF
