:100000000C94CC010C94FD010C94FD010C94FD01A9
:100010000C94FD010C94FD010C94FD010C94FD0168
:100020000C94FD010C94FD010C94FD010C94FD0158
:100030000C94FD010C94FD010C94FD010C94FD0148
:100040000C94FD010C94FD010C94FD010C94FD0138
:100050000C94FD010C94FD010C94FD010C94E90934
:100060000C94FD010C94B3090C9489090C94FD01C6
:100070000C94FD010C94FD010C94FD010C94FD0108
:100080000C94FD010C94FD010C94FD010C94FD01F8
:100090000C9453090C9429090C94FD010C94FD0156
:1000A0000C94FD010C94FD010C94FD010C94FD01D8
:1000B0000C94FD010C94FD010C94FD010C94FD01C8
:1000C0000C94FD010C94FD010C94FD010C94FD01B8
:1000D0000C94FD010C94FD010C94FD010C94FD01A8
:1000E0000C94FD010C9434020C94A1030C94C303F2
:1000F0000C9484020C94AB030C9496050C94CC04E1
:100100000C94BF030C949E050C94A7030C94CB0491
:100110000C94D1030C94CC030C94A8050C949A0372
:100120000C94C7030C94BC050C94330A0C945E0524
:100130000C9454050C949E030C94CA070C949805D7
:100140000C94B1030C9492030C947E050C94B503AB
:100150000C9421030C9492020C9496030C94B90312
:100160000C9461020C94CD030C94D4020C94B6054B
:100170000C948C030C946C050C94700200407A1063
:10018000F35A00A0724E18090010A5D4E80000E848
:100190007648170000E40B54020000CA9A3B0000A6
:1001A00000E1F505000080969800000040420F0035
:1001B0000000A08601000000102700000000E803F6
:1001C000000000006400000000000A0000000000C1
:1001D0000100000000002C76D888DC674F0823DF80
:1001E000C1DFAE59E1B1B796E5E3E453C63AE65153
:1001F000997696E8E6C28426EB898C9B62ED407C7A
:100200006FFCEFBC9C9F40F2BAA56FA5F490055A15
:100210002AF75C936B6CF9676DC11BFCE0E40D473A
:10022000FEF520E6B500D0ED902E0300943577055D
:100230000080841E080000204E0A000000C80C3315
:100240003333330F986E12831141EF8D2114893BA4
:10025000E65516CFFEE6DB18D1844B381BF77C1D24
:10026000901DA4BBE424203284725E228100C9F177
:1002700024ECA1E53D2700002100240027002A00EE
:100280002D003000330001010000040107010A01C4
:1002900000002200250028002B002E003100340031
:1002A00002010000050108010B01000020002300ED
:1002B000260029002C002F0032000001000003015D
:1002C00006010901050505050705080808080202D9
:1002D00002020A0A080804040404010101010101E0
:1002E00001010303030303030303040707070C0CC3
:1002F0000C0C0C0C0C0C020202020606060606068A
:1003000006060B0B0B0B0B0B0B0B0102102020082E
:100310000810204010204080020102010804020160
:1003200001020408102040808040201008040201CF
:100330008004020180402010080402010804020128
:1003400001020408102040800102040810204080AF
:1003500000000A0B02090C0D0E080703040100003F
:10036000000000000000000000000000000000008D
:10037000000000000000000000000000121110004A
:10038000000000000000000000000000000000006D
:10039000000000000000330A11241FBECFEFD1E29D
:1003A000DEBFCDBF00E00CBF14E0A0E0B2E0E8E3A8
:1003B000FBE300E00BBF02C007900D92AE3FB10718
:1003C000D9F726E0AEEFB4E001C01D92A53AB2071E
:1003D000E1F711E0CCECD1E000E006C02197010983
:1003E000802FFE010E94681BCB3CD10780E00807EC
:1003F000A9F70E94140B0C949A1D0C940000FC01A8
:10040000A089B18982E08C93A485B5851C92A685CC
:10041000B7858FEC8C93108EA489B58986E08C9378
:10042000A289B3898C9180618C93A289B3898C91C4
:1004300088608C93A289B3898C9180688C930288A0
:10044000F389E02D80818F7D80830895DB011496F0
:100450004D915C9115976D917C91DC01ED91FC9132
:100460000280F381E02D1994AF92BF92CF92DF9278
:10047000EF92FF920F931F93CF93DF936C017B0159
:100480008B01040F151FEB015E01AE18BF08C017EA
:10049000D10759F06991D601ED91FC910190F0815D
:1004A000E02DC6011995892B79F7C501DF91CF9110
:1004B0001F910F91FF90EF90DF90CF90BF90AF9082
:1004C0000895FC01538D448D252F30E0842F90E05A
:1004D000821B930B541710F0CF960895019708953F
:1004E000FC01918D828D981761F0A28DAE0FBF2F08
:1004F000B11D5D968C91928D9F5F9F73928F90E05E
:1005000008958FEF9FEF0895FC01918D828D9817CC
:1005100031F0828DE80FF11D858D90E008958FEF09
:100520009FEF0895FC01918D228D892F90E0805CD2
:100530009F4F821B91098F73992708958BE195E056
:100540000E94920221E0892B09F420E0822F089575
:1005500088EB95E00E94920221E0892B09F420E0CB
:10056000822F0895FC01A48DA80FB92FB11DA35AA5
:10057000BF4F2C91848D90E001968F739927848FC3
:10058000A689B7892C93A089B1898C9183708064E6
:100590008C93938D848D981306C00288F389E02D87
:1005A00080818F7D80830895EF92FF920F931F9338
:1005B000CF93DF93EC0181E0888F9B8D8C8D981316
:1005C0001AC0E889F989808185FF15C09FB7F89422
:1005D000EE89FF896083E889F9898081837080646E
:1005E00080839FBF81E090E0DF91CF911F910F91B9
:1005F000FF90EF900895F62E0B8D10E00F5F1F4FC8
:100600000F731127E02E8C8D8E110CC00FB607FCD6
:10061000FACFE889F989808185FFF5CFCE010E9464
:10062000B202F1CFEB8DEC0FFD2FF11DE35AFF4F1E
:10063000F0829FB7F8940B8FEA89FB8980818062F2
:10064000CFCFCF93DF93EC01888D8823B9F0AA89AF
:10065000BB89E889F9898C9185FD03C0808186FD7D
:100660000DC00FB607FCF7CF8C9185FFF2CF8081CC
:1006700085FFEDCFCE010E94B202E9CFDF91CF918D
:10068000089580E090E0892B29F00E94A802811152
:100690000E94000080E090E0892B29F00E949E02D9
:1006A00081110E94000080E090E0892B49F080E0F9
:1006B00090E0892B29F00E94000081110E94000027
:1006C00080E090E0892B49F080E090E0892B29F0D0
:1006D0000E94000081110C94000008958150823125
:1006E00008F05AC0E82FF0E08827E658FC4F8F4FFB
:1006F0000C94681B9A039E038C0392039603CC030D
:10070000A103A703AB03B103B503B903BF03C3033D
:10071000CC03C703CD03D103809180008F778093F2
:1007200080000895809180008F7DF9CF80918000B6
:10073000877FF5CF84B58F7784BD089584B58F7D8D
:10074000FBCF8091B0008F778093B00008958091A7
:10075000B0008F7DF9CF809190008F7780939000CB
:100760000895809190008F7DF9CF80919000877FD0
:10077000F5CF8091A0008F778093A000089580919D
:10078000A0008F7DF9CF8091A000877FF5CF809169
:1007900020018F77809320010895809120018F7D23
:1007A000F9CF80912001877FF5CFCF93DF93282F5A
:1007B00030E0F901E05BFC4F8491F901E65FFC4F0A
:1007C000D491F901EC53FD4FC491CC23A1F08111D8
:1007D0000E946E03EC2FF0E0EE0FFF1FE655FD4F79
:1007E000A591B491EC91ED2381E090E009F480E0D3
:1007F000DF91CF91089580E090E0FACF1F93CF93DF
:10080000DF93282F30E0F901E05BFC4F8491F90180
:10081000E65FFC4FD491F901EC53FD4FC491CC231A
:10082000A9F0162F81110E946E03EC2FF0E0EE0F5D
:10083000FF1FE057FD4FA591B4918FB7F894EC914D
:10084000111108C0D095DE23DC938FBFDF91CF91CB
:100850001F910895DE2BF8CFCF93DF9390E0FC013A
:10086000E65FFC4F24918C539D4FFC0184918823BB
:10087000D1F090E0880F991FFC01EA58FD4FA59137
:10088000B491FC01E057FD4FC591D491623071F4F1
:100890009FB7F8943C91822F809583238C93E881B5
:1008A0002E2B28839FBFDF91CF9108958FB7F894A7
:1008B000EC912E2B2C938FBFF6CF90917B00977FDE
:1008C00090937B008653806480937C0080917A00B3
:1008D000806480937A0080917A0086FDFCCF8091BD
:1008E00078009091790008953FB7F8948091FF04C3
:1008F00090910005A0910105B091020526B5A89B35
:1009000005C02F3F19F00196A11DB11D3FBFBA2FA1
:10091000A92F982F8827BC01CD01620F711D811D61
:10092000911D42E0660F771F881F991F4A95D1F7E6
:1009300008958F929F92AF92BF92CF92DF92EF92E3
:10094000FF924B015C010E9474046B017C010E94C8
:1009500074046C197D098E099F09683E73408105F6
:100960009105A8F321E0821A9108A108B10888EE48
:10097000C80E83E0D81EE11CF11C81149104A1046F
:10098000B10429F7FF90EF90DF90CF90BF90AF9028
:100990009F908F900895089590E080E008950F93C0
:1009A0001F93CF93DF93EC018B0188859985029784
:1009B00051F46130710509F43AC06CF560E001153D
:1009C000110509F435C088859985049751F40130E3
:1009D000110509F455C00CF035C00115110509F4D5
:1009E0003EC088859985059709F0C8C00A30110571
:1009F00008F0C4C0F8018827EF5FFA4F8F4F0C94BE
:100A0000681B54055E056C057E05960598059E05D8
:100A1000A805B605BC056230710591F060E00330B1
:100A2000110589F68C850E94FE0360E005C061E037
:100A30008C850E94FE0361E08E850E94FE03C3CF79
:100A400061E0F0CF0230110509F10330110509F022
:100A5000C8CF61E08C850E94FE0360E01CC061E0AD
:100A60008C850E94FE0360E08E850E94FE0361E09B
:100A700088890E94FE0360E08A890E94FE03B1CF4C
:100A800060E08C850E94FE0361E0EECF60E08C8523
:100A90000E94FE0361E08E850E94FE0360E088896B
:100AA0000E94FE0361E0E8CF60E08C850E94FE03B7
:100AB00061E08E850E94FE0361E009C060E08C85E4
:100AC0000E94FE0361E08E850E94FE0360E088893B
:100AD0000E94FE0360E00DC060E08C850E94FE0372
:100AE00061E08E850E94FE0360E088890E94FE031B
:100AF00061E08A890E94FE0361E011C060E08C859C
:100B00000E94FE0361E08E850E94FE0360E08889FA
:100B10000E94FE0361E08A890E94FE0360E08C89E6
:100B2000DF91CF911F910F910C94FE0361E0E7CF0D
:100B300061E08C850E94FE0360E0E5CF61E08C857A
:100B40000E94FE0360E08E850E94FE0361E0DFCF1D
:100B500061E08C850E94FE0360E08E850E94FE03AA
:100B600061E088890E94FE0360E0D5CF61E08C855A
:100B70000E94FE0360E09DCF60E0F9CFDF91CF914E
:100B80001F910F910895CF92DF92EF92FF920F93F2
:100B90001F93CF93DF93EC016130710509F045C0DD
:100BA000798368830E9474040E891F89288D398D8A
:100BB0006B017C01C01AD10AE20AF30A0A811B8187
:100BC0002C813D81C016D106E206F30658F36E8BE8
:100BD0007F8B888F998F8A859B85288139812130E9
:100BE000310549F501969B878A872E813F818217BF
:100BF000930711F41B861A868A859B85288539857B
:100C00006AE070E02530310511F064E070E00E9488
:100C1000541BBC01CE01DF91CF911F910F91FF902A
:100C2000EF90DF90CF900C94CF046F3F7F4F79F41B
:100C300019821882B7CF892B21F48E819F819B87DF
:100C40008A878A859B8501979B878A87D5CFDF9185
:100C5000CF911F910F91FF90EF90DF90CF9008956B
:100C6000883C9105B4F08C3221E09207ACF08039D9
:100C700021E09207A4F0803722E092079CF0843DA7
:100C800022E0920794F08833934094F084E090E05F
:100C900008958CEF9FEF08958EEF9FEF08958FEFEB
:100CA0009FEF089590E080E0089581E090E008953E
:100CB00082E090E008958AE10E94D503892B29F013
:100CC00088E30E94D503892BB1F790E080E0089576
:100CD000FB0101900020E9F73197AF01461B570B4C
:100CE000DC01ED91FC910280F381E02D1994CF930A
:100CF000DF93EC0160E08E810E94FE0361E08E8153
:100D00000E94FE0360E08E810E94FE038BE891E06A
:100D10000197F1F7DF91CF910895CF92DF92EF9293
:100D2000FF920F931F93CF93DF936C017C0187E0B9
:100D3000E80EF11CD0E0C0E0062F10E0B8010C2E48
:100D400002C0759567950A94E2F76170F701819189
:100D50007F010E94FE032196C430D10579F7C601B8
:100D6000DF91CF911F910F91FF90EF90DF90CF9087
:100D70000C947706CF92DF92EF92FF920F931F931E
:100D8000CF93DF93EC01F62E642F8C810E94FE033B
:100D90008D818F3F19F060E00E94FE030F2D10E05F
:100DA0008F8584FF25C06E0187E0C80ED11CF12C11
:100DB000E12CB8010E2C02C0759567950A94E2F7F4
:100DC0006170F60181916F010E94FE03FFEFEF1A3F
:100DD000FF0A88E0E816F10461F7CE01DF91CF91B8
:100DE0001F910F91FF90EF90DF90CF900C947706BA
:100DF000B80184E0759567958A95E1F7CE010E9468
:100E00008D066F2DCE01DF91CF911F910F91FF9035
:100E1000EF90DF90CF900C948D0640E0682F85E531
:100E200096E00C94BA0681E00E940D078BE39FE1E7
:100E30000197F1F70895CF93DF93823029F49091D1
:100E40006406986090936406809368061092690621
:100E500080E480936A0680E180936B0680E580934E
:100E60006C0661E0809159060E942C0480915A061C
:100E70008F3F19F061E00E942C0461E080915B06D5
:100E80000E942C04C5E5D6E09E0125553640809190
:100E9000640684FD0BC084E090E021962817390792
:100EA00044F461E08E810E942C04EECF88E090E053
:100EB000F4CF8BE39DE00197F1F760E08091590654
:100EC0000E94FE0360E080915B060E94FE03809119
:100ED0005A068F3F19F060E00E94FE03809164067D
:100EE00084FD34C063E085E596E00E948D06CBE486
:100EF000D6E4CE010197F1F763E085E596E00E9424
:100F00008D062197F1F763E085E596E00E948D0656
:100F100083E592E00197F1F762E085E596E00E94B3
:100F20008D068091640680620E940D0784E08093A4
:100F300065068CE00E940D070E94130782E08093F3
:100F4000660686E0DF91CF910C940D0780620E94C7
:100F50000D078BE496E40197F1F7809164068062B7
:100F60000E940D0783E592E00197F1F780916406F6
:100F700080620E940D07D5CF90916806891710F006
:100F80008FEF890FE82FF0E0EB5AF94F84898068E2
:100F90000C940D0741E00E94BA0681E090E00895AC
:100FA0000F931F93CF93DF93EC0188819981009772
:100FB00059F02A813B812617370730F081E0DF9115
:100FC000CF911F910F9108958B016F5F7F4F0E940A
:100FD000A91C009759F0998388831B830A832C816D
:100FE0003D81232B59F7FC011082E8CF80E0E7CF49
:100FF000EF92FF920F931F93CF93DF9361157105CB
:1010000041F480E0DF91CF911F910F91FF90EF901D
:10101000089541155105B1F07B01EC010C811D8152
:10102000040F151FB8010E94D007882351F32881AF
:1010300039818C819D81B701820F931F0E94931D7E
:101040001D830C8381E0DECFCF93DF93EC01888199
:101050009981009711F00E94201C198218821D822C
:101060001C821B821A82DF91CF910895CF93DF9368
:10107000EC01FB0101900020E9F73197AF01461B1D
:10108000570B0E94F807811103C0CE010E9424086B
:10109000CE01DF91CF910895CF93DF93EC01FB0157
:1010A00044815581608171810E94F807811103C0DC
:1010B000CE010E942408CE01DF91CF910895EF92D6
:1010C000FF920F931F93CF93DF93EC017B018A0173
:1010D000BA010E94D00781110BC0CE010E942408E2
:1010E000CE01DF91CF911F910F91FF90EF90089566
:1010F0001D830C83B701888199810E94931DF0CFD5
:10110000EF92FF920F931F93CF93DF93CDB7DEB78C
:10111000A1970FB6F894DEBF0FBECDBF7C01CB0107
:10112000BA01F70111821082138212821582148291
:101130008E010F5F1F4F21E043E00E946B15009767
:10114000C9F0FC0101900020E9F73197AF01481B7D
:10115000590BBC01C7010E945F08A1960FB6F89415
:10116000DEBF0FBECDBFDF91CF911F910F91FF90DA
:10117000EF900895C7010E942408EFCFEF92FF92ED
:101180000F931F93CF93DF93CDB7DEB762970FB660
:10119000F894DEBF0FBECDBF8C01CB01F8011182E8
:1011A000108213821282158214824AE09E012F5F00
:1011B0003F4F7901B9010E942D16F70101900020DF
:1011C000E9F73197AF014E195F09B701C8010E94D5
:1011D0005F0862960FB6F894DEBF0FBECDBFDF91F9
:1011E000CF911F910F91FF90EF900895FB01DC01CB
:1011F00011961C921E9213961C921E92129715968F
:101200001C921E9214978617970749F0608171818E
:101210006115710521F0448155810C945F08089592
:10122000FC01118210821382128215821482FB014A
:1012300001900020E9F73197AF01461B570B0C9442
:101240005F08FC0180819181009711F00C94201CB3
:1012500008951F920F920FB60F9211240BB60F92A2
:101260002F933F934F935F936F937F938F939F93AE
:10127000AF93BF93EF93FF938BE195E00E94B2028F
:10128000FF91EF91BF91AF919F918F917F916F915E
:101290005F914F913F912F910F900BBE0F900FBE1A
:1012A0000F901F9018951F920F920FB60F92112456
:1012B0000BB60F922F938F939F93EF93FF93E09131
:1012C0002B05F0912C058081E0913105F0913205DC
:1012D00082FD1DC09081809134058F5F8F732091B6
:1012E0003505821741F0E0913405F0E0E55EFA4FF4
:1012F000958F80933405FF91EF919F918F912F915E
:101300000F900BBE0F900FBE0F901F90189580810D
:10131000F2CF1F920F920FB60F9211240BB60F92BD
:101320002F933F934F935F936F937F938F939F93ED
:10133000AF93BF93EF93FF9388EB95E00E94B202C7
:10134000FF91EF91BF91AF919F918F917F916F919D
:101350005F914F913F912F910F900BBE0F900FBE59
:101360000F901F9018951F920F920FB60F92112495
:101370000BB60F922F938F939F93EF93FF93E09170
:10138000C805F091C9058081E091CE05F091CF05A7
:1013900082FD1DC090818091D1058F5F8F73209158
:1013A000D205821741F0E091D105F0E0E854FA4F00
:1013B000958F8093D105FF91EF919F918F912F9100
:1013C0000F900BBE0F900FBE0F901F90189580814D
:1013D000F2CF1F920F920FB60F9211242F933F93CB
:1013E0008F939F93AF93BF938091030590910405D2
:1013F000A0910505B09106053091FE0423E0230F6E
:101400002D3758F50196A11DB11D2093FE04809340
:10141000030590930405A0930505B09306058091FC
:10142000FF0490910005A0910105B091020501967D
:10143000A11DB11D8093FF0490930005A0930105A9
:10144000B0930205BF91AF919F918F913F912F91E2
:101450000F900FBE0F901F90189526E8230F02964D
:10146000A11DB11DD2CFEF92FF920F931F93CF9387
:10147000DF93EBE1F5E01382128248EE53E060E087
:1014800070E044835583668377838EE092E0918396
:1014900080832DEC30E0358724872CEC30E03787D3
:1014A000268728EC30E0318B208B29EC30E0338B21
:1014B000228B2AEC30E0358B248B2EEC30E0378BFE
:1014C000268B118E128E138E148EE8EBF5E01382AC
:1014D000128244835583668377839183808385EC6E
:1014E00090E09587848784EC90E09787868780ECEE
:1014F00090E0918B808B81EC90E0938B828B82ECDF
:1015000090E0958B848B86EC90E0978B868B118E88
:10151000128E138E148EC7E8D6E01B861A861982A7
:1015200018821E8A1F8A188E198E80E4E82EF12CEC
:10153000FF82EE8281E290E09D878C878FE190E0D0
:101540009F878E8780E290E0998B888B8EE190E078
:101550009B8B8A8B61E081E20E942C0461E08E8586
:101560000E942C0461E088890E942C0461E08A8931
:101570000E942C041D8A1C8A04E010E01987088749
:10158000CDE6D6E01B861A86198218821E8A1F8A2B
:10159000188E198EFF82EE8285E290E09D878C87FF
:1015A00083E290E09F878E8784E290E0998B888B1E
:1015B00082E290E09B8B8A8B61E085E20E942C04A2
:1015C00061E08E850E942C0461E088890E942C04D1
:1015D00061E08A890E942C041D8A1C8A1987088769
:1015E000E5E5F6E01382128280E292E09183808347
:1015F00080E384838FEF858381E3868382E387831F
:1016000083E3808784E3818785E38287138614865A
:1016100015861686178681E0DF91CF911F910F9175
:10162000FF90EF900C941B07CF93DF93CDB7DEB7FD
:101630006E970FB6F894DEBF0FBECDBF789484B519
:10164000826084BD84B5816084BD85B5826085BDBE
:1016500085B5816085BD80916E00816080936E004C
:10166000109281008091810082608093810080913E
:1016700081008160809381008091800081608093EF
:1016800080008091B10084608093B1008091B000AF
:1016900081608093B000809191008260809391007E
:1016A0008091910081608093910080919000816091
:1016B000809390008091A10082608093A10080912E
:1016C000A10081608093A1008091A000816080933F
:1016D000A0008091210182608093210180912101ED
:1016E000816080932101809120018160809320019D
:1016F00080917A00846080937A0080917A00826081
:1017000080937A0080917A00816080937A00809142
:101710007A00806880937A001092C10088EB95E08F
:101720000E94FF018BE195E00E94FF0167E974E0F0
:101730008BE195E00E94680668E272E0CE010796B0
:101740000E941009BE01695F7F4FCE0101960E9481
:10175000F60867E974E0CE0101960E943608BC01E4
:101760008BE195E00E942602CE0101960E9421099C
:10177000CE0107960E9421096DE272E088EB95E0A8
:101780000E94680667E974E088EB95E00E946806AD
:1017900063E672E088EB95E00E94680664E772E019
:1017A00088EB95E00E9468066FE772E088EB95E0B1
:1017B0000E94680669E872E088EB95E00E9468067E
:1017C00064E972E088EB95E00E9468066AE972E0DD
:1017D00088EB95E00E94680665EA72E088EB95E088
:1017E0000E94680667E974E088EB95E00E9468064D
:1017F00020918D0630918E06032E000C440B550B64
:10180000C12C97E8D92E93E9E92E93E0F92EC70170
:10181000B6010E94D7196AE0862E912CA12CB12C1A
:10182000CA01B901A50194010E94D7192093890624
:1018300030938A0640938B0650938C062091730652
:1018400030917406032E000C440B550BC701B601F2
:101850000E94D719CA01B901A50194010E94D719A4
:1018600020936F0630937006409371065093720672
:1018700061E088E00E942C0461E088E00E942C0472
:1018800060E088E00E94FE0361E089E00E942C0491
:1018900061E089E00E942C0461E089E00E94FE037F
:1018A00082E00E941B070E94130780E00E94BC0791
:1018B00061EB72E085E596E00E94680681E00E9497
:1018C000BC076DEB72E085E596E00E94680668EE65
:1018D00073E080E090E00E94990462E086E10E945B
:1018E0002C0462E087E10E942C0462E088E10E94FF
:1018F0002C0462E089E10E942C0462E08AE10E94EB
:101900002C0462E088E30E942C0461E08DE00E94D8
:101910002C0461E082E00E942C0461E083E00E94DC
:101920002C0461E084E00E942C0461E085E00E94C8
:101930002C0461E086E00E942C0461E086E20E94B3
:101940002C0461E087E20E942C0461E088E20E949E
:101950002C0461E08AE20E942C0461E08BE20E9488
:101960002C0461E08CE20E942C0461E08EE20E9473
:101970002C0461E08FE20E942C0461E08DE00E9463
:10198000FE0360E082E00E94FE0360E083E00E94CC
:10199000FE0360E084E00E94FE0360E085E00E94B8
:1019A000FE0360E086E00E94FE0360E086E20E94A3
:1019B000FE0360E087E20E94FE0360E088E20E948E
:1019C000FE0360E08AE20E94FE0360E08BE20E9478
:1019D000FE0360E08CE20E94FE0360E08CE20E9465
:1019E000FE0360E08EE20E94FE0360E08FE20E9450
:1019F000FE036EEC72E088EB95E00E9468060E94A0
:101A00005B0668EE73E080E090E00E9499046BEF63
:101A100072E0CE0107960E941009BE01695F7F4FF8
:101A2000CE0101960E94F60867E974E0CE010196A6
:101A30000E943608BC018BE195E00E942602CE018F
:101A400001960E942109CE0107960E94210961E0BA
:101A50008EE20E94FE0360E08EE10E94FE0360E0E1
:101A600080E20E94FE0360E08FE10E94FE0360E0DE
:101A700081E20E94FE0360E082E20E94FE0360E0D9
:101A800084E20E94FE0360E083E20E94FE0360E0C5
:101A900085E20E94FE0360E082E00E94FE0360E0B7
:101AA00083E00E94FE0360E084E00E94FE0360E0A9
:101AB00085E00E94FE0360E086E00E94FE0360E095
:101AC00086E20E94FE0360E087E20E94FE0360E07F
:101AD00088E20E94FE0360E08AE20E94FE0360E06A
:101AE0008BE20E94FE0360E08CE20E94FE0360E055
:101AF0008CE20E94FE0340E050E060EA71E4CE0117
:101B00000D960E94800840E050E060EA71E4CE014A
:101B100007960E94800860E073E0CE0101960E9463
:101B20001009BE01695F7F4FCE0101960E944C08EB
:101B30006AE273E00E943608BE01635F7F4F0E9435
:101B40004C08BC0188EB95E00E942602CE0101966C
:101B50000E942109CE0107960E942109CE010D960F
:101B60000E9421090E94130780E00E94BC0768E3DD
:101B700073E085E596E00E94680681E00E94BC075C
:101B800064E170E0CE010D960E94BE0864E170E051
:101B9000CE0107960E94BE0869E473E0CE0101966B
:101BA0000E941009BE01695F7F4FCE0101960E941D
:101BB0004C086EE473E00E943608BE01635F7F4FFD
:101BC0000E944C08BC0185E596E00E942602CE01E9
:101BD00001960E942109CE0107960E942109CE019B
:101BE0000D960E9421096091190570911A05072E22
:101BF000000C880B990B0E94BA1820E030E040E8F6
:101C00005CE30E94191920E030E044EB53E40E94A9
:101C100019196B017C01C0921505D0921605E0924E
:101C20001705F09218056091130570911405072EA1
:101C3000000C880B990B0E94BA1820E030E040E8B5
:101C40005CE30E94191920E030E044EB52E40E946A
:101C500019194B015C0180920F0590921005A0921A
:101C60001105B0921205A701960160E070E080EACC
:101C700091E40E943A1A20E030E044EB53E40E94E1
:101C8000A71A20E030E040E852E40E9419190E94AF
:101C9000191B7B01A501940160E070E080EA91E4EA
:101CA0000E943A1A20E030E044EB52E40E94A71A66
:101CB00020E030E040E852E40E9419190E94191B0C
:101CC0008B01E114F10409F066C50115110509F055
:101CD00084C46DE574E088EB95E00E9468060E947C
:101CE000130780E00E94BC076AE974E085E596E08E
:101CF0000E94680681E00E94BC076BEA74E085E5FB
:101D000096E00E9468066CEB74E0CE0107960E9494
:101D10001009BE01695F7F4FCE0101960E94F6084F
:101D200067E974E0CE0101960E943608BC018BE1A0
:101D300095E00E942602CE0101960E942109CE0163
:101D400007960E9421090E945B0661EC74E0CE01B7
:101D500007960E941009BE01695F7F4FCE01019670
:101D60000E94F60867E974E0CE0101960E943608E9
:101D7000BC018BE195E00E942602CE0101960E94F3
:101D80002109CE0107960E9421090E94D51524E55C
:101D900031E040E050E00E94D719665F7F4F8F4FDF
:101DA0009F4F0E94BA1860930B0570930C058093A7
:101DB0000D0590930E050E94D51526E430E040E015
:101DC00050E00E94D719665F7F4F8F4F9F4F0E9450
:101DD000BA18AB01BC014093070550930805609306
:101DE000090570930A05CE0101960E948008409172
:101DF0000B0550910C0560910D0570910E05CE01FB
:101E000007960E94800867EC74E0CE0143960E941A
:101E10001009BE016D5E7F4FCE010D960E94F6083F
:101E200068ED73E0CE010D960E943608BE01695F31
:101E30007F4F0E944C0868ED73E00E943608BE0197
:101E40006F5F7F4F0E944C0867E974E00E9436087C
:101E5000BC018BE195E00E942602CE010D960E9406
:101E60002109CE0143960E942109CE0107960E94C6
:101E70002109CE0101960E94210940910705509148
:101E800008056091090570910A05CE0101960E942E
:101E9000800840910B0550910C0560910D057091E3
:101EA0000E05CE0107960E9480086EEC74E0CE010C
:101EB0000D960E941009BE01695F7F4FCE010D96FD
:101EC0000E944C086AE273E00E943608BE016F5F10
:101ED0007F4F0E944C08BC0188EB95E00E942602CF
:101EE000CE010D960E942109CE0107960E9421097C
:101EF000CE0101960E9421090E94130780E00E94F2
:101F0000BC076EEE74E085E596E00E94680681E00D
:101F10000E94BC0760910705709108058091090532
:101F200090910A050E94191BCE0101960E94BE08DD
:101F300060910B0570910C0580910D0590910E0537
:101F40000E94191BCE0107960E94BE0869E473E047
:101F5000CE010D960E941009BE01695F7F4FCE0130
:101F60000D960E944C086EE473E00E943608BE0194
:101F70006F5F7F4F0E944C08BC0185E596E00E9490
:101F80002602CE010D960E942109CE0107960E94DD
:101F90002109CE0101960E9421098FB7F894209162
:101FA00003053091040540910505509106052B8FDE
:101FB0003C8F4D8F5E8F8FBF912C812C312C212C2B
:101FC000198E1A8E2FB7F89460910305709104054D
:101FD00080910505909106052FBF2B8D3C8D4D8D71
:101FE0005E8D621B730B840B950B0E94BA186B01FC
:101FF0007C0120E030E04AE754E40E944F1B1816B1
:102000004CF53A8D311126C06AED73E0CE0107968A
:102010000E941009BE01695F7F4FCE0101960E94A8
:10202000F60863EE73E0CE0101960E94360867E978
:1020300074E00E943608BC018BE195E00E94260204
:10204000CE0101960E942109CE0107960E94210926
:1020500041E04A8F20E030E04AE755E4C701B6018D
:102060000E944F1B18164CF5598D511126C06AED70
:1020700073E0CE0107960E941009BE01695F7F4F91
:10208000CE0101960E94F60866EE73E0CE0101963D
:102090000E94360867E974E00E943608BC018BE1B3
:1020A00095E00E942602CE0101960E942109CE01F0
:1020B00007960E94210981E0898F20E030E04AEFF5
:1020C00055E4C701B6010E944F1B181644F52110B4
:1020D00026C06AED73E0CE0107960E941009BE018A
:1020E000695F7F4FCE0101960E94F60869EE73E0AA
:1020F000CE0101960E94360867E974E00E94360816
:10210000BC018BE195E00E942602CE0101960E945F
:102110002109CE0107960E9421092224239420E060
:1021200030E84BE356E4C701B6010E944F1B181676
:1021300044F5311026C06AED73E0CE0107960E9487
:102140001009BE01695F7F4FCE0101960E94F6081B
:102150006CEE73E0CE0101960E94360867E974E0E8
:102160000E943608BC018BE195E00E942602CE0158
:1021700001960E942109CE0107960E94210933246D
:10218000339420E030E04AE756E4C701B6010E94EC
:102190004F1B181644F5811026C06AED73E0CE017E
:1021A00007960E941009BE01695F7F4FCE0101961C
:1021B0000E94F6086FEE73E0CE0101960E94360889
:1021C00067E974E00E943608BC018BE195E00E944B
:1021D0002602CE0101960E942109CE0107960E9497
:1021E00021098824839420E030E44CE956E4C701B7
:1021F000B6010E944F1B181644F5911026C06AEDD7
:1022000073E0CE0107960E941009BE01695F7F4FFF
:10221000CE0101960E94F60862EF73E0CE010196AE
:102220000E94360867E974E00E943608BC018BE121
:1022300095E00E942602CE0101960E942109CE015E
:1022400007960E9421099924939420E030E04AE700
:1022500054E4C701B6010E944F1B181624F461E034
:1022600082E00E94FE0320E030E04AE755E4C70127
:10227000B6010E944F1B181624F461E083E00E940F
:10228000FE0320E030E04AEF55E4C701B6010E94AA
:102290004F1B181624F461E084E00E94FE0320E046
:1022A00030E84BE356E4C701B6010E944F1B1816F5
:1022B00024F461E085E00E94FE0320E030E04AE77C
:1022C00056E4C701B6010E944F1B181624F461E0C2
:1022D00086E00E94FE0386E30E945D040E943006B1
:1022E0007C0187E30E945D040E9430066C0184E05B
:1022F000A82EB12C0091190510911A05B801012ED4
:10230000000C880B990B0E94BA1820E030E040E8DE
:102310005CE30E94191920E030E044EB53E40E9492
:1023200019192B013C014092150550921605609237
:102330001705709218056091130570911405072E0A
:10234000000C880B990B0E94BA1820E030E040E89E
:102350005CE30E94191920E030E044EB52E40E9453
:10236000191960930F0570931005809311059093D0
:102370001205F7FE6EC120E030E040E251E4C301F7
:10238000B2010E944F1B18160CF44DC16DE570E0B0
:1023900080E090E00E949904D7FE94C120E030E0F4
:1023A00040E251E460910F05709110058091110594
:1023B000909112050E944F1B18160CF46AC16DE52E
:1023C00070E080E090E00E94990481E0A81AB108D2
:1023D00009F090CF40900B0550900C0560900D05D2
:1023E00070900E05C0901505D0901605E090170569
:1023F000F090180520E030E040EA51E4C301B2015A
:102400000E943A1AA70196010E944F1B18160CF061
:1024100082C160E086E20E94FE0360E087E20E94E3
:10242000FE0361E088E20E94FE03409007055090A1
:1024300008056090090570900A05C0900F05D090BE
:102440001005E0901105F090120520E030E040E228
:1024500051E4C301B2010E943A1AA70196010E94F9
:102460004F1B18160CF077C160E08AE20E94FE0351
:1024700060E08BE20E94FE0361E08CE20E94FE03BA
:10248000B701A601CE0101960E9480084091150572
:10249000509116056091170570911805CE010796A9
:1024A0000E94800866E573E0CE010D960E94100937
:1024B000BE01695F7F4FCE010D960E944C0860E718
:1024C00073E00E943608BE016F5F7F4F0E944C0888
:1024D000BC0188EB95E00E942602CE010D960E9479
:1024E0002109CE0107960E942109CE0101960E9482
:1024F000210980E00E94BC076091150570911605C6
:1025000080911705909118050E94191BCE01019624
:102510000E94BE0865E873E0CE0107960E9410098C
:10252000BE016F5F7F4FCE0107960E944C0867ED9A
:1025300073E00E943608BC0185E596E00E94260201
:10254000CE0107960E942109CE0101960E94210921
:1025500081E00E94BC0760910F0570911005809189
:102560001105909112050E94191BCE0101960E943F
:10257000BE0863E973E0CE0107960E941009BE0110
:102580006F5F7F4FCE0107960E944C0867ED73E0A6
:102590000E943608BC0185E596E00E942602CE0125
:1025A00007960E942109CE0101960E9421090ACDB9
:1025B00087E10E94D503892B09F4F4C161E070E042
:1025C00087E896E00E94C30531E0E31AF1088091A4
:1025D000190590911A050196F4C06DE570E080E050
:1025E00090E00E94990417FDF2C089E10E94D50392
:1025F000892B09F4D7C161E070E08DE696E00E9476
:10260000C30501501109809113059091140501969D
:10261000F1C00115110549F76DE570E080E090E02B
:102620000E949904EBC086E10E94D503892B09F42E
:10263000ADCE6FEF7FEF87E896E00E94C3052FEFE6
:10264000E21AF20A0150110910931A0500931905B4
:10265000A3CEE114F10409F499CE20E030E04FEA72
:1026600053E4C301B2010E94B31887FF8FCE87E104
:102670000E94D503892B09F489CE61E070E087E8D8
:1026800096E00E94C30531E0E31AF1080F5F1F4F87
:10269000DBCF88E10E94D503892B09F490CE6FEF40
:1026A0007FEF8DE696E00E94C3054FEFC41AD40A6F
:1026B00080911305909114050197909314058093D0
:1026C000130583CEC114D10409F479CE20E030E0A3
:1026D00040EA52E460910F05709110058091110558
:1026E000909112050E94B31887FF69CE89E10E947C
:1026F000D503892B09F463CE61E070E08DE696E0A6
:102700000E94C30551E0C51AD1088091130590912C
:1027100014050196D2CF20E030E040EA51E4C30135
:10272000B2010E943B1A9B01AC01C701B6010E9495
:102730004F1B181654F461E086E20E94FE0360E02D
:1027400087E20E94FE0360E06DCE60E086E20E94B8
:10275000FE0361E0F5CF20E030E040E251E4C30148
:10276000B2010E943B1A9B01AC01C701B6010E9455
:102770004F1B181654F461E08AE20E94FE0360E0E9
:102780008BE20E94FE0360E078CE60E08AE20E9465
:10279000FE0361E0F5CFF7FE0BCF86E10E94D50383
:1027A000892B09F4FFC06FEF7FEF87E896E00E9466
:1027B000C3052FEFE21AF20A8091190590911A05CC
:1027C000019790931A058093190517FF22CF88E18E
:1027D0000E94D503892B09F4E5C06FEF7FEF8DE6EA
:1027E00096E00E94C3050F5F1F4F809113059091E3
:1027F00014050197909314058093130560911905B2
:1028000070911A05072E000C880B990B0E94BA18BC
:1028100020E030E040E85CE30E94191920E030E05D
:1028200044EB53E40E941919609315057093160543
:102830008093170590931805609113057091140506
:10284000072E000C880B990B0E94BA1820E030E08C
:1028500040E85CE30E94191920E030E044EB52E4C8
:102860000E941919AB01BC0140930F05509310054C
:102870006093110570931205CE010D960E94800899
:102880004091150550911605609117057091180536
:10289000CE0107960E94800866E573E0CE0101969E
:1028A0000E941009BE01695F7F4FCE0101960E9410
:1028B0004C0860E773E00E943608BE01635F7F4FFB
:1028C0000E944C08BC0188EB95E00E942602CE01D4
:1028D00001960E942109CE0107960E942109CE018E
:1028E0000D960E94210980E00E94BC0760911505A9
:1028F0007091160580911705909118050E94191B7B
:10290000CE0107960E94BE0865E873E0CE010196ED
:102910000E941009BE01695F7F4FCE0101960E949F
:102920004C0867ED73E00E943608BC0185E596E02F
:102930000E942602CE0101960E942109CE0107962F
:102940000E94210981E00E94BC0760910F057091EF
:10295000100580911105909112050E94191BCE015E
:1029600007960E94BE0863E973E0CE0101960E94BB
:102970001009BE01695F7F4FCE0101960E944C088D
:1029800067ED73E00E943608BC0185E596E00E9481
:102990002602CE0101960E942109CE0107960E94CF
:1029A00021098FC960E08EE20E94FE0361E08FE2A0
:1029B0000E94FE0340E050E060EA71E4CE0101961F
:1029C0000E94800840E050E060EA71E4CE01079682
:1029D0000E94800865EF73E0CE010D960E941009F9
:1029E000BE01695F7F4FCE010D960E944C086CE1DD
:1029F00074E00E943608BE016F5F7F4F0E944C0852
:102A00006FE174E00E943608BC0188EB95E00E94FB
:102A10002602CE010D960E942109CE0107960E9442
:102A20002109CE0101960E94210969E374E088EB37
:102A300095E00E94680667E974E088EB95E00E94E3
:102A400068060E94130761EA73E0CE0107960E94B0
:102A50001009BE01695F7F4FCE0101960E94F60802
:102A600067E974E0CE0101960E943608BC018BE153
:102A700095E00E942602CE0101960E942109CE0116
:102A800007960E94210980E00E94BC0767EA73E074
:102A900085E596E00E94680681E00E94BC0768EB2D
:102AA00073E085E596E00E94680668EE73E080E0DA
:102AB00090E00E94990481E00E94BC0769EC73E0F9
:102AC00085E596E00E94680668EE73E080E090E09D
:102AD0000E949904B8CFEF920F931F93CF93DF9387
:102AE000E80134E047FD34E1042E000C550B57FF9C
:102AF00003C0519541955109E32E022F242FAE01B9
:102B00000E945216CE01DF91CF911F910F91EF904D
:102B100008958F929F92AF92BF92CF92DF92EF92E1
:102B2000FF92CF93DF93EC01688179818A819B8149
:102B3000611571058105910521F464E279ED8BE55C
:102B400097E02DE133EF41E050E00E94D7194901B1
:102B50005A019B01AC01A7EAB1E40E94F6196B018E
:102B60007C01ACEEB4EFA50194010E94041AC60EDC
:102B7000D71EE81EF91EF7FE06C081E0C81AD1086C
:102B8000E10880E8F80AC882D982EA82FB82C7019C
:102B9000B6019F77DF91CF91FF90EF90DF90CF90BC
:102BA000BF90AF909F908F9008958F929F92AF9219
:102BB000BF92CF92DF92EF92FF92609100027091EC
:102BC0000102809102029091030261157105810555
:102BD000910521F464E279ED8BE597E02DE133EF87
:102BE00041E050E00E94D71949015A019B01AC0114
:102BF000A7EAB1E40E94F6196B017C01ACEEB4EFD8
:102C0000A50194010E94041AC60ED71EE81EF91EE3
:102C1000F7FE06C081E0C81AD108E10880E8F80A8A
:102C2000C0920002D0920102E0920202F0920302EE
:102C3000C701B6019F77FF90EF90DF90CF90BF90D4
:102C4000AF909F908F90089560930002709301025F
:102C500080930202909303020895BB274A3031F417
:102C6000992322F4BDE2909581959F4F0C943916DB
:102C7000BB27FB015527AA27880F991FAA1FA41756
:102C800010F0A41B83955051B9F7A05DAA3308F04A
:102C9000A95DA193009779F7B111B1931192CB017E
:102CA0000C94A3188F929F92AF92BF92CF92DF9213
:102CB000EF92FF920F931F93CF93DF9300D000D03A
:102CC00000D0CDB7DEB76A01F22EB02E102FFBE395
:102CD000AF2EA01608F41BE31F5F012F27E0AE0103
:102CE0004F5F5F4F0E94CB17BC018981982F99706D
:102CF000913009F44EC09BE2E1FC04C09E2D91701E
:102D0000E0FC49C05E2D5071E82FE87083FF55C08C
:102D100084E0911101C083E0EF2DE81B8F1508F0CE
:102D2000E0E0D6018E2F20E25523C9F1992329F046
:102D3000D6019C93C60101966C0196012D5F3F4F11
:102D4000E2FE33C08EE4D6018C9391E411969C93FD
:102D5000119712968C93D9018E2F90E281112AC07F
:102D6000E20FF32FF11D10828EEF9FEF29960FB621
:102D7000F894DEBF0FBECDBFDF91CF911F910F91B1
:102D8000FF90EF90DF90CF90BF90AF909F908F908B
:102D900008959DE2B7CF90E2B5CF2D938150811178
:102DA000FCCFCE0ED11CE0E0C1CF8EE6D6018C93D5
:102DB00091E6CCCF9D938150D1CF482F447082FFB4
:102DC0003DC084E0911101C083E08F1510F4EF2D18
:102DD000E81BD6018E2F20E2552309F1992329F013
:102DE000D6019C93C60101966C0196012D5F3F4F61
:102DF000E2FE1BC089E4D6018C938EE411968C937D
:102E0000119786E412968C93D9018E2F90E2882335
:102E100009F4A6CF9D938150FACF2D938150811153
:102E2000FCCFCE0ED11CE0E0D9CF89E6D6018C9341
:102E30008EE611968C93119786E6E4CF9B0177FF7F
:102E400002C030E020E0A1E0B0E0911102C0B0E0AB
:102E5000A0E0F9013196AE0FBF1F8B2C912CBB2047
:102E600009F461C05401EFEFAE1ABE0AAA0DBB1DF2
:102E7000FA161B0619F014F04F2D4A1B511188C089
:102E8000E3FC59C07601A42FB0E2A1114FC0C40EDB
:102E9000D11C992309F45BC040E0D6011196F601DC
:102EA00090836D01552309F448C0012F060F9A81C4
:102EB000582F507184FF03C0913309F4015010164C
:102EC0000CF047C0093008F008E0EEE2FE2E5B018E
:102ED000A01AB10885019194819491082F3F32077F
:102EE00029F4D601FC92F60131966F01621773073F
:102EF00094F1021713077CF5DB01A21BB30BAA2484
:102F0000A394B12CAC0EBD1EAA0DBB1D11968C91C5
:102F100021503109D601119628153905F4F0F60132
:102F200080836D01DBCFB12CA12CA0CFF701B19331
:102F30007F01A150AACF9111B0CFD601942F50E3B9
:102F400002C05D9391509111FCCFC40ED11C40E0A2
:102F5000ACCF01E0BACF80E3DBCF6217730731F467
:102F6000963388F4953311F4552369F0F601808384
:102F7000FD01842F90E2811108C0A40FB11D1C92A5
:102F800090E080E0F3CE81E3F1CF91938150F3CFD5
:102F9000911183CF8ACF283008F027E03327DA0158
:102FA000990F311D87FD916000966105710539F417
:102FB00032602E5F3D9330E32A95E1F708959F3FFD
:102FC00030F080387105610509F03C5F3C5F3D934E
:102FD000913008F08068911DDF93CF931F930F937A
:102FE000FF92EF92192F987F9695E92F96959695D7
:102FF000E90FFF27EA52FE4F99273327EE24FF24DB
:10300000A701E70105900894079428F4360FE71EFE
:10301000F81E491F511D660F771F881F991F0694C0
:10302000A1F70590079428F4E70EF81E491F561FD4
:10303000C11D770F881F991F661F0694A1F7059081
:10304000079428F4F80E491F561FC71FD11D880F7B
:10305000991F661F771F0694A1F70590079420F427
:10306000490F561FC71FD81F990F661F771F881F4C
:103070000694A9F784911095177041F0D695C795DD
:1030800057954795F794E7941A95C1F7ECE7F1E067
:1030900068941590159135916591959105907FE211
:1030A0007395E118F10A430B560BC90BD009C0F711
:1030B000E10CF11E431F561FC91FD01D7EF4703353
:1030C00011F48A95E6CFE894015030F0080F0AF425
:1030D0000027021708F4202F2395022F7A3328F0B7
:1030E00079E37D932A95E9F710C07D932A9589F6B7
:1030F000069497956795379517951794E118F10AF7
:10310000430B560BC90BD00998F023957E9173950C
:103110007A3308F070E37C932013B8F77E917061E6
:103120007D9330F0839571E37D9370E32A95E1F709
:103130001124EF90FF900F911F91CF91DF9199276C
:1031400087FD90950895DC01FC01672F719177232D
:10315000E1F7329704C07C916D9370836291AE1752
:10316000BF07C8F308950E94F51808F481E0089598
:10317000E89409C097FB3EF4909580957095619511
:103180007F4F8F4F9F4F9923A9F0F92F96E9BB27C7
:103190009395F695879577956795B795F111F8CF43
:1031A000FAF4BB0F11F460FF1BC06F5F7F4F8F4FAE
:1031B0009F4F16C0882311F096E911C0772321F0A4
:1031C0009EE8872F762F05C0662371F096E8862F3C
:1031D00070E060E02AF09A95660F771F881FDAF793
:1031E000880F9695879597F90895990F0008550FC0
:1031F000AA0BE0E8FEEF16161706E807F907C0F07D
:1032000012161306E407F50798F0621B730B840B84
:10321000950B39F40A2661F0232B242B252B21F45E
:1032200008950A2609F4A140A6958FEF811D811DFE
:1032300008950E942C190C949D190E948F1938F042
:103240000E94961920F0952311F00C9486190C9485
:103250008C1911240C94D1190E94AE1970F3959F0A
:10326000C1F3950F50E0551F629FF001729FBB277D
:10327000F00DB11D639FAA27F00DB11DAA1F649F19
:103280006627B00DA11D661F829F2227B00DA11DCC
:10329000621F739FB00DA11D621F839FA00D611D52
:1032A000221F749F3327A00D611D231F849F600D73
:1032B000211D822F762F6A2F11249F5750409AF09C
:1032C000F1F088234AF0EE0FFF1FBB1F661F771F28
:1032D000881F91505040A9F79E3F510580F00C94F3
:1032E00086190C94D1195F3FE4F3983ED4F3869588
:1032F00077956795B795F795E7959F5FC1F7FE2B93
:10330000880F911D9695879597F9089597F99F676E
:1033100080E870E060E008959FEF80EC089500245D
:103320000A941616170618060906089500240A942A
:1033300012161306140605060895092E0394000CB0
:1033400011F4882352F0BB0F40F4BF2B11F460FF3F
:1033500004C06F5F7F4F8F4F9F4F089557FD905868
:10336000440F551F59F05F3F71F04795880F97FB49
:10337000991F61F09F3F79F0879508951216130603
:103380001406551FF2CF4695F1DF08C01616170632
:103390001806991FF1CF8695710561050894089567
:1033A000E894BB2766277727CB0197F90895052E68
:1033B00097FB1EF400940E94EE1957FD07D00E945F
:1033C000091A07FC03D04EF40C94EE195095409561
:1033D000309521953F4F4F4F5F4F089590958095C1
:1033E000709561957F4F8F4F9F4F08950E942B1AC4
:1033F000A59F900DB49F900DA49F800D911D112449
:103400000895B7FF0C94F6190E94F619821B930BCE
:103410000895A1E21A2EAA1BBB1BFD010DC0AA1F15
:10342000BB1FEE1FFF1FA217B307E407F50720F02D
:10343000A21BB30BE40BF50B661F771F881F991FA8
:103440001A9469F760957095809590959B01AC01F1
:10345000BD01CF010895A29FB001B39FC001A39FFA
:10346000700D811D1124911DB29F700D811D1124BD
:10347000911D08955058BB27AA270E94521A0C94F8
:103480009D190E948F1938F00E94961920F039F486
:103490009F3F19F426F40C948C190EF4E095E7FB89
:1034A0000C948619E92F0E94AE1958F3BA176207D7
:1034B00073078407950720F079F4A6F50C94D019CA
:1034C0000EF4E0950B2EBA2FA02D0B01B90190013F
:1034D0000C01CA01A0011124FF27591B99F0593F83
:1034E00050F4503E68F11A16F040A22F232F342FCB
:1034F0004427585FF3CF469537952795A795F04019
:103500005395C9F77EF41F16BA0B620B730B840B2D
:10351000BAF09150A1F0FF0FBB1F661F771F881FE5
:10352000C2F70EC0BA0F621F731F841F48F487953D
:1035300077956795B795F7959E3F08F0B0CF93952F
:10354000880F08F09927EE0F9795879508950E94A8
:10355000BB1A0C949D190E94961958F00E948F195D
:1035600040F029F45F3F29F00C94861951110C9416
:10357000D1190C948C190E94AE1968F39923B1F3F8
:10358000552391F3951B550BBB27AA276217730789
:10359000840738F09F5F5F4F220F331F441FAA1F1D
:1035A000A9F335D00E2E3AF0E0E832D091505040D9
:1035B000E695001CCAF72BD0FE2F29D0660F771F87
:1035C000881FBB1F261737074807AB07B0E809F06D
:1035D000BB0B802DBF01FF2793585F4F3AF09E3FF2
:1035E000510578F00C9486190C94D1195F3FE4F3DF
:1035F000983ED4F3869577956795B795F7959F5F35
:10360000C9F7880F911D9695879597F90895E1E080
:10361000660F771F881FBB1F621773078407BA07DF
:1036200020F0621B730B840BBA0BEE1F88F7E0953A
:1036300008950E94201B6894B1110C94D11908952B
:103640000E94B61988F09F5798F0B92F9927B75163
:10365000B0F0E1F0660F771F881F991F1AF0BA9536
:10366000C9F714C0B13091F00E94D019B1E00895AB
:103670000C94D019672F782F8827B85F39F0B93F9D
:10368000CCF3869577956795B395D9F73EF49095E9
:103690008095709561957F4F8F4F9F4F08950E9441
:1036A000F51808F48FEF089597FB072E16F4009491
:1036B00007D077FD09D00E94701B07FC05D03EF4AF
:1036C000909581959F4F0895709561957F4F0895CE
:1036D000EE0FFF1F881F8BBF0790F691E02D199406
:1036E000AA1BBB1B51E107C0AA1FBB1FA617B70728
:1036F00010F0A61BB70B881F991F5A95A9F7809544
:103700009095BC01CD0108950F931F93CF93DF9344
:103710008230910510F482E090E0E091A306F091F0
:10372000A40630E020E0B0E0A0E0309799F4211545
:10373000310509F44AC0281B390B24303105D8F56E
:103740008A819B816115710589F1FB0193838283D5
:10375000FE0111C040815181028113814817590730
:10376000E0F04817590799F4109761F012960C93FE
:10377000129713961C933296CF01DF91CF911F9130
:103780000F9108950093A3061093A406F4CF21157A
:10379000310551F04217530738F0A901DB019A01B6
:1037A000BD01DF01F801C1CFEF01F9CF9093A4066D
:1037B0008093A306CDCFFE01E20FF31F8193919377
:1037C0002250310939832883D7CF2091A106309127
:1037D000A206232B41F42091060230910702309378
:1037E000A2062093A1062091040230910502211522
:1037F000310541F42DB73EB74091080250910902BE
:10380000241B350BE091A106F091A206E217F30705
:10381000A0F42E1B3F0B2817390778F0AC014E5F40
:103820005F4F2417350748F04E0F5F1F5093A206D5
:103830004093A106819391939FCFF0E0E0E09CCF6D
:10384000CF93DF930097E9F0FC0132971382128245
:10385000A091A306B091A406ED0130E020E01097FE
:10386000A1F420813181820F931F2091A106309114
:10387000A2062817390709F061C0F093A206E09369
:10388000A106DF91CF910895EA01CE17DF07E8F591
:103890004A815B819E0141155105B1F7E901FB8326
:1038A000EA8349915991C40FD51FEC17FD0761F4C4
:1038B000808191810296840F951FE9019983888305
:1038C000828193819B838A83F0E0E0E012968D9160
:1038D0009C9113970097B9F52D913C911197CD01CB
:1038E0000296820F931F2091A1063091A2062817FD
:1038F000390739F6309751F51092A4061092A306B5
:10390000B093A206A093A106BCCFD383C28340810B
:103910005181840F951FC817D90761F44E5F5F4F1F
:1039200088819981480F591F518340838A819B81E7
:10393000938382832115310509F0B0CFF093A4065B
:10394000E093A3069ECFFD01DC01C0CF138212825B
:10395000D7CF4F925F926F927F928F929F92AF924A
:10396000BF92CF92DF92EF92FF920F931F93CF936C
:10397000DF938C01009799F4CB01DF91CF911F91D8
:103980000F91FF90EF90DF90CF90BF90AF909F90FE
:103990008F907F906F905F904F900C94841BFC01F0
:1039A000E60FF71F9C0122503109E217F30708F4D4
:1039B000AEC0D901CD91DC911197C617D70720F180
:1039C000C530D10578F0CE0104978617970750F0DF
:1039D000C61BD70B2297C193D1936D937C93CF01D4
:1039E0000E94201CC801DF91CF911F910F91FF9081
:1039F000EF90DF90CF90BF90AF909F908F907F908F
:103A00006F905F904F9008955B01AC1ABD0A4C0116
:103A10008C0E9D1EA091A306B091A406512C412CA2
:103A2000F12CE12C109731F58091A1069091A2061E
:103A30008815990509F05CC04616570608F058C06D
:103A40008091040290910502009741F48DB79EB7D2
:103A50004091080250910902841B950BE817F90761
:103A600008F055C0F093A206E093A106F901718316
:103A70006083B8CF8D919C91119712966C9012979C
:103A800013967C901397A815B90559F56C0142E07F
:103A9000C40ED11CCA14DB0420F1AC014A195B0925
:103AA000DA011296159780F0628273825183408307
:103AB000D9016D937C93E114F10471F0D701139651
:103AC000FC93EE9312978ECF22968C0F9D1FF901D7
:103AD00091838083F301EFCFF093A406E093A306D4
:103AE00081CF4816590608F42C017D01D3019ACFE5
:103AF000CB010E94841B7C01009749F0AE01B80104
:103B00000E948A1DC8010E94201C87016BCF10E013
:103B100000E068CFFB01DC0102C001900D92415032
:103B20005040D8F70895FB01DC0101900D92002070
:083B3000E1F70895F894FFCFBE
:103B3800010000000000A506800000000000D4027B
:103B48003402610221039202700284020000000024
:103B5800CA073402CC04CB04424F4F54000D0A2A42
:103B68002A2A2057656C636F6D6520746F2074680E
:103B780065204D414749432047616D653A204361BF
:103B8800746368207468652047616D6D6121202A1F
:103B98002A2A000D0A4669726D7761726520696E7E
:103BA800666F3A000D0A2D204E616D653A20004D72
:103BB8006167696347616D65000D0A2D205665725E
:103BC8002E3A2000302E302E36000D0A2D2044616A
:103BD80074653A20003036204D617220323032331D
:103BE800004D414749432047616D653A0043617480
:103BF8006368207468652047616D6D6121000D0A56
:103C0800506C6561736520707265737320746865A4
:103C180020737461727420627574746F6E20746F8F
:103C280020636F6E74696E75652E00494E495400A5
:103C38000D0A4D6F76696E672074656C6573636FE6
:103C4800706520746F20706F736974696F6E3A20A5
:103C5800417A696D7574683A20002C20656C657628
:103C68006174696F6E3A20004D6F76652074656CDB
:103C78006573636F70653A2000417A3A2000202C02
:103C880020656C3A20000D0A44454255473A2041C8
:103C9800637475616C20617A696D7574683A200087
:103CA8002C2061637475616C20656C65766174693C
:103CB8006F6E3A2000444247206163742E20617A77
:103CC8003A2000444247206163742E20656C3A20F4
:103CD800004552524F52004552524F523A204D6FB2
:103CE80076652074656C2E0050524F4752414D2026
:103CF80053544F505045442100505245535320527D
:103D08004553455421202020200050524F4752450A
:103D1800535300203100203200203300203400208B
:103D280035002036000D0A4552524F523A204D6F49
:103D380076696E672074656C6573636F706520744F
:103D48006F20706F736974696F6E20002C200020DB
:103D58006661696C6564212050726F6772616D20BD
:103D680073746F7070656421000D0A507265737307
:103D78002074686520726573657420627574746F49
:103D88006E20746F207265626F6F742E000D0A0DBD
:103D98000A4D414749432047616D653A2050757384
:103DA8006820746865207374617274206275747415
:103DB8006F6E20746F2073746172742061206E6559
:103DC800772067616D652E0D0A002D3D204D414716
:103DD80049432047616D65203D2D002A20507573A9
:103DE8006820627574746F6E21202A0049444C451E
:103DF80000535441525400544152474554000D0A4F
:103E08004E65772067616D6D6120706F73697469A5
:103E18006F6E3A20417A696D7574683A200047617F
:0E3E28006D6D6120706F736974696F6E3A0082
:00000001FF
